:020000040800F2
:10000000000002206D120008451100084D11000883
:10001000551100085D11000865110008000000007E
:100020000000000000000000000000006D1100084A
:100030007B110008000000008911000897110008DA
:10004000BD120008BD120008BD120008BD12000854
:10005000BD120008BD120008BD120008BD12000844
:10006000BD120008BD120008BD120008BD12000834
:10007000BD120008BD120008BD120008BD12000824
:10008000BD120008BD120008BD120008BD12000814
:10009000BD120008BD120008BD120008BD12000804
:1000A000BD120008BD120008BD120008BD120008F4
:1000B000BD120008A5110008BD120008BD120008FD
:1000C000BD120008BD120008BD120008BD120008D4
:1000D000BD120008B9110008BD120008BD120008C9
:1000E000CD110008BD120008BD120008BD120008A5
:1000F000BD120008BD120008BD120008BD120008A4
:10010000BD120008BD120008BD120008BD12000893
:10011000BD120008BD120008BD120008BD12000883
:10012000BD120008BD120008BD120008BD12000873
:10013000BD120008BD120008BD120008BD12000863
:10014000BD120008BD120008BD120008BD12000853
:10015000BD120008BD120008BD120008BD12000843
:10016000BD120008BD120008BD120008BD12000833
:10017000BD120008BD120008BD12000800000000FA
:08018000BD120008BD120008C9
:1001900010B5054C237833B9044B13B10448AFF3C1
:1001A00000800123237010BD040100200000000026
:1001B00064A1060808B5034B1BB103490348AFF31C
:1001C000008008BD000000000801002064A10608AE
:1001D00010F8012B11F8013B012A28BF9A42F7D0F1
:1001E000D01A70470000000000000000000000006E
:1001F00001F0FF01102A2BDB10F0070F08D010F8D8
:10020000013B013A8B422DD010F0070F42B3F6D1DB
:10021000F0B441EA012141EA014122F007047FF0F4
:1002200000070023F0E80256083C85EA010586EA4B
:10023000010685FA47F5A3FA87F586FA47F6A5FA87
:1002400087F68EB9EED1F0BC01F0FF0102F0070293
:1002500032B110F8013B013A83EA010313B1F8D13E
:100260000020704701387047002D06BF354603381F
:10027000073815F0010F07D1013015F4807F02BF58
:10028000013015F4C03F0130F0BC0138704700BFA9
:100290007BB972B90029BEBF00204FF0004106E0D3
:1002A00008BF00281CBF6FF000414FF0FF3000F086
:1002B000D3B9ADF1080C6DE904CE002909DB002BA0
:1002C0001ADB00F04DF8DDF804E0DDE9022304B0AC
:1002D0007047404261EB4101002B1BDB00F040F80E
:1002E000DDF804E0DDE9022304B0404261EB4101A6
:1002F000524263EB43037047524263EB430300F007
:100300002FF8DDF804E0DDE9022304B0404261EBA0
:1003100041017047524263EB430300F021F8DDF8DE
:1003200004E0DDE9022304B0524263EB430370476B
:1003300053B94AB9002908BF00281CBF4FF0FF314C
:100340004FF0FF3000F088B9ADF1080C6DE904CE34
:1003500000F006F8DDF804E0DDE9022304B07047A0
:100360002DE9F047089D8E4604468846002B4AD169
:100370008A42174662D9B2FA82F64EB1C6F120031C
:1003800001FA06F820FA03F3B74043EA0808B4403C
:100390004FEA174E1FFA87FCB8FBFEF1230C0EFB49
:1003A000118843EA084301FB0CF29A4209D9FB1871
:1003B00001F1FF3080F0EA809A4240F2E780023992
:1003C0003B449A1AA3B2B2FBFEF00EFB102243EAA2
:1003D000024300FB0CFC9C4509D9FB1800F1FF32DD
:1003E00080F0D6809C4540F2D3803B44023840EAFE
:1003F0000140A3EB0C0300211DB1F3400022C5E92D
:100400000032BDE8F0878B4205D90DB1C5E9000186
:1004100000210846F5E7B3FA83F1002946D1734578
:1004200002D3824200F20581841A6EEB030201209E
:100430009046002DE5D0C5E90048E2E7002A00F02B
:100440009080B2FA82F6002E40F0A4808A1A030C43
:100450004FEA174E80B2BCB20121B2FBFEFC0EFB8C
:100460001C2243EA024304FB0CF29A4207D9FB1810
:100470000CF1FF3802D29A4200F2E080C4469B1A87
:10048000B3FBFEF20EFB123340EA034302FB04F41B
:100490009C4207D9FB1802F1FF3002D29C4200F2C5
:1004A000CA8002461B1B42EA0C40A5E7C1F12006A8
:1004B0008B4022FA06F71F430EFA01F420FA06F3E6
:1004C0002EFA06FE4FEA1749234300FA01F81FFAF5
:1004D00087FCBEFBF9F01C0C09FB10EE44EA0E444D
:1004E00000FB0CFEA64502FA01F209D93C1900F105
:1004F000FF3A80F09C80A64540F2998002383C4447
:10050000A4EB0E041FFA83FEB4FBF9F309FB1344BA
:100510004EEA044403FB0CFCA44508D93C1903F142
:10052000FF3E80F08280A4457FD9023B3C4443EAF1
:100530000040A4EB0C04A0FB02EC64457346E146CA
:1005400062D35FD05DB1B8EB030264EB090404FA37
:1005500006F622FA01F31E43CC40C5E900640021EF
:100560004FE7B1FBF2FC010C41EA0E4180B240EAD8
:1005700001423B4638463C46B846BE462026B1FBC3
:10058000F7F1A2EB080241EA0C4166E7014618E7E1
:1005900010462CE7C6F120022EFA02F3B740B14014
:1005A00020FA02F24FEA174E0A43B3FBFEF8BCB240
:1005B0000EFB1833110C41EA034108FB04F9B0406B
:1005C00089454FEA104380B23ED9791808F1FF3CC3
:1005D00001D289451FD8A1EB0901B1FBFEF909FB46
:1005E00004F80EFB191192B242EA0142424529D2A7
:1005F000BA1809F1FF31C4D24245C2D2A9F10201B1
:100600003A44BEE7F0459DD2BEEB02036CEB070C0B
:100610000138E14696E7A7EB09094944A8F1020C25
:10062000B1FBFEF909FB04F8DBE773467FE75046B0
:1006300066E70846FDE63B44023A33E7ACF1020CBC
:100640003B441CE749469CE7A1EB0901C446B1FBCA
:10065000FEF909FB04F8C4E7704700BF80B58AB013
:1006600000AFF860B9607A60BB681B68FB83BB6849
:100670009B68BB83BB685B687B83BB68DB683B8331
:10068000BA8BFB8BD31A9BB20133FB827B687B62F4
:100690007B8B7B8429E07A8CFB8B1146184666F0B5
:1006A000EBFD174B1B88184666F078FD00233B8452
:1006B0000FE03B8C5B007A6A13441B88BB8207F116
:1006C000140201230F49104802F0FBFE3B8C01335A
:1006D0003B843A8CFB8A9A42EBD3FB8A5B007A6AB2
:1006E00013447B627B8C01337B847A8C3B8B9A42F4
:1006F000D1D9F86812F004FC00BF2837BD4680BD90
:10070000FC290120000008608827002080B584B003
:1007100002AF4FF4F0714FF4487012F0DDF87860DA
:10072000002300934FF49653064A0749786812F065
:1007300007FB0649786812F0B7FB00BF0837BD46D3
:1007400080BD00BFE0130020200100205D060008EE
:1007500080B584B000AF78603960786838F0E8FB25
:10076000F860FB68002B03D03968F86847F040FB5D
:1007700000BF1037BD4680BD80B483B000AF786045
:1007800039600D4B1B881A463B685A620A4B5B88DE
:100790001A463B689A62084B1B791A463B6883F8F5
:1007A00020203B68002283F83C2000BF0C37BD4668
:1007B0005DF8047B704700BFA026002080B582B0A2
:1007C00000AF38F019F978600121786838F07EFAC6
:1007D0000649786838F092FA0A217868FFF7B8FF7E
:1007E0007B6818460837BD4680BD00BF7907000802
:1007F00080B594B002AF00F063FD00F069F800F03E
:100800009DF900F0CDF800F06FF900F0A3FA00F0C8
:10081000F5F84FF4FA7000F0C5FD0421254802F008
:1008200039FF244B1B6840F2F3129A6366F0C6FD51
:100830004FF6FF7068F0D0FD68F052FE3FF096FC76
:10084000FFF764FFFFF7BAFF12F058FD03461846A2
:100850005AF010F878640A230A220121786C09F012
:10086000AFFC1549786C5AF019F8012068F0D0FEF9
:10087000124B1B7803F00F03002B11D0104B1B8879
:100880001A46104B1B88381D009313460E4A402110
:1008900068F0B4FF3B1D1946786C59F0FFFF03E088
:1008A0000A49786C59F0FAFF47F068F9052000F022
:1008B00079FDDAE7FC2600207CA10608222A012027
:1008C0000C2A0120182A012094A10608A8A10608D4
:1008D00080B594B000AF07F1200330220021184604
:1008E00068F0C2FF07F10C0300221A605A609A6098
:1008F000DA601A610023BB60274B1B6C264A43F069
:1009000080531364244B1B6C03F08053BB60BB68A3
:1009100000237B60214B1B68204A43F48043136013
:100920001E4B1B6803F480437B607B6801233B62A2
:100930004FF480337B620223BB634FF48003FB637D
:1009400004233B6448237B640223BB640423FB64CD
:1009500007F12003184602F09FF80346002B01D050
:1009600000F072FA0F23FB6002233B6100237B61DE
:100970004FF48053BB610023FB6107F10C0302219C
:10098000184602F001FB0346002B01D000F05CFA90
:1009900000BF5037BD4680BD0038024000700040A7
:1009A00080B500AF124B134A1A60114B124A5A60BD
:1009B0000F4B00229A600E4B0022DA600C4B4FF472
:1009C00080421A610A4B00225A61094B00229A6147
:1009D000074B0022DA61064B00221A62044801F03C
:1009E0009BF80346002B01D000F02EFA00BF80BD1B
:1009F000A826002000580040801A060080B58EB05E
:100A000000AF07F1280300221A605A609A60DA608A
:100A100007F1200300221A605A603B1D00221A6071
:100A20005A609A60DA601A615A619A612C4B2D4AB9
:100A30001A602B4B47225A60294B00229A60284BA0
:100A400040F2F312DA60264B00221A61244B802216
:100A50009A61234802F075FD0346002B01D000F097
:100A6000F3F94FF48053BB6207F1280319461C4881
:100A700003F0A2F80346002B01D000F0E5F9184876
:100A800002F0AEFD0346002B01D000F0DDF900239B
:100A90003B6200237B6207F120031946104803F0F4
:100AA00095FC0346002B01D000F0CEF960237B605B
:100AB0000023BB600023FB6000237B613B1D0422FD
:100AC0001946074802F0B6FF0346002B01D000F09C
:100AD000BBF9034800F056FA00BF3837BD4680BD69
:100AE000FC2600200004004080B500AF114B124AE4
:100AF0001A60104B4FF4E1325A600E4B00229A609C
:100B00000C4B0022DA600B4B00221A61094B0C22BD
:100B10005A61084B00229A61064B0022DA610548AF
:100B200003F0E4FC0346002B01D000F08DF900BF78
:100B300080BD00BF442700200010014080B58EB06A
:100B400000AF07F1240300221A605A609A60DA604D
:100B50001A6100233B62794B1B6B784A43F0040314
:100B60001363764B1B6B03F004033B623B6A002369
:100B7000FB61724B1B6B714A43F0200313636F4B95
:100B80001B6B03F02003FB61FB690023BB616B4B14
:100B90001B6B6A4A43F080031363684B1B6B03F0C3
:100BA0008003BB61BB6900237B61644B1B6B634AA1
:100BB00043F001031363614B1B6B03F001037B6183
:100BC0007B6900233B615D4B1B6B5C4A43F0020376
:100BD00013635A4B1B6B03F002033B613B69002319
:100BE000FB60564B1B6B554A43F040031363534B5A
:100BF0001B6B03F04003FB60FB680023BB604F4BA3
:100C00001B6B4E4A43F0100313634C4B1B6B03F0FA
:100C10001003BB60BB6800237B60484B1B6B474ADB
:100C200043F008031363454B1B6B03F008037B6021
:100C30007B6801224FF40051414800F02FFF012250
:100C40008021404800F02AFF012202213E4800F0A6
:100C500025FF012248F21F013C4800F01FFF4FF41E
:100C600000537B620123BB620023FB6200233B63D2
:100C700007F124031946324800F05CFD80237B62B3
:100C80000123BB620023FB6203233B6307F12403C0
:100C900019462C4800F04EFD02237B620123BB6203
:100CA0000123FB6203233B6307F124031946264813
:100CB00000F040FD4FF470437B620023BB620123D0
:100CC000FB6207F124031946214800F033FD03239A
:100CD0007B621123BB620023FB6200233B6307F1AD
:100CE00024031946194800F025FD48F21C037B62D5
:100CF0000123BB620123FB6203233B6307F124034F
:100D00001946124800F016FD4FF400537B624FF471
:100D10004413BB620123FB6207F1240319460B480D
:100D200000F008FD00220021282000F03AFC2820D5
:100D300000F053FC00BF3837BD4680BD003802408C
:100D40000008024000000240000402400018024077
:100D50000014024080B58EB000AF07F11C030022E2
:100D60001A605A609A60DA601A615A619A613B4669
:100D700000221A605A609A60DA601A615A619A61B8
:100D80002F4B4FF020421A602D4B2E4A5A602C4BAD
:100D900000229A602A4B0022DA60294B00221A6155
:100DA000274B10225A61264B00229A61244B0022C5
:100DB000DA61234B00221A62214B00225A62204B37
:100DC0004FF480529A621E4B0022DA621C4B4FF4A1
:100DD00080421A631A4B00225A63194B00229A630D
:100DE000174B00225A640F23FB610F233B623C2305
:100DF0007B620023BB621023FB6211233B63002351
:100E00007B6309233B600F237B600823BB600023C7
:100E1000FB6010233B6111237B610023BB613A46D9
:100E200007F11C031946064802F0CEFA0346002BD0
:100E300001D000F009F800BF3837BD4680BD00BFC3
:100E400088270020040100A080B400AF72B600BF64
:100E500000BFFDE780B483B000AF00237B60104B80
:100E60005B6C0F4A43F4804353640D4B5B6C03F49B
:100E700080437B607B6800233B60094B1B6C084A06
:100E800043F080531364064B1B6C03F080533B60AC
:100E90003B6800BF0C37BD465DF8047B704700BF60
:100EA0000038024080B58AB000AF786007F11403C3
:100EB00000221A605A609A60DA601A617B681B68C7
:100EC000194A93422BD100233B61184B1B6B174AE5
:100ED00043F020031363154B1B6B03F020033B61AE
:100EE0003B6903237B611223BB610023FB61032366
:100EF0003B6204237B6207F1140319460C4800F09F
:100F000019FC0023FB60094B1B6C084A43F4800367
:100F10001364064B1B6C03F48003FB60FB6800BF8B
:100F20002837BD4680BD00BF005800400038024051
:100F30000014024080B584B000AF78607B681B6805
:100F40000E4A934215D10023FB600D4B1B6C0C4ADB
:100F500043F0020313640A4B1B6C03F00203FB60B3
:100F6000FB68002200211D2000F01BFB1D2000F06B
:100F700034FB00BF1037BD4680BD00BF00040040F9
:100F80000038024080B588B000AF786007F10C03EC
:100F900000221A605A609A60DA601A617B681B68E6
:100FA000124A93421DD10023BB60114B1B6B104AA8
:100FB00043F0020313630E4B1B6B03F00203BB6091
:100FC000BB682023FB6002233B6101237B61032379
:100FD000BB610223FB6107F10C031946054800F0D1
:100FE000A9FB00BF2037BD4680BD00BF0004004004
:100FF000003802400004024080B58AB000AF78603B
:1010000007F1140300221A605A609A60DA601A61CC
:101010007B681B681D4A934234D100233B611C4B03
:101020005B6C1B4A43F010035364194B5B6C03F079
:1010300010033B613B690023FB60154B1B6B144A9B
:1010400043F001031363124B1B6B03F00103FB60BE
:10105000FB684FF4C0637B610223BB610023FB612B
:1010600003233B6207237B6207F1140319460948F7
:1010700000F060FB00220021252000F092FA2520DC
:1010800000F0ABFA00BF2837BD4680BD001001401C
:10109000003802400000024080B586B000AF3B1D22
:1010A00000221A605A609A60DA601A611C4B1B6851
:1010B000002B31D11A4B01221A6000233B60194BDF
:1010C0009B6B184A43F001039363164B9B6B03F031
:1010D00001033B603B684FF680737B600223BB607B
:1010E0000123FB6003233B610C237B613B1D1946FD
:1010F0000D4800F01FFB4EF2B3737B600223BB6010
:101100000123FB6003233B610C237B613B1D1946DC
:10111000064800F00FFB00E000BF1837BD4680BD59
:10112000D82700200038024000100240000C024086
:1011300080B582B000AF7860FFF7AEFF00BF083720
:10114000BD4680BD80B400AF00BFFDE780B400AFF6
:1011500000BFFDE780B400AF00BFFDE780B400AF83
:1011600000BFFDE780B400AF00BFFDE780B400AF73
:1011700000BFBD465DF8047B704780B400AF00BF80
:10118000BD465DF8047B704780B400AF00BFBD462C
:101190005DF8047B704780B500AF00F0E3F800BF56
:1011A00080BD000080B500AF024802F03BFB00BFED
:1011B00080BD00BFFC26002080B500AF024803F0D0
:1011C000E3F900BF80BD00BF4427002080B500AF19
:1011D0004FF4005000F07CFC00BF80BD80B586B0AD
:1011E00000AF7860144A154BD31A7B617B693B6171
:1011F000134B1B68002B02D1114B124A1A60104B83
:101200001A687B6813443A699A4207D268F034FB43
:1012100003460C221A604FF0FF3309E0084B1B68AD
:10122000FB60074B1A687B681344054A1360FB6830
:1012300018461837BD4680BD00000220000400009B
:10124000DC270020702B012080B400AF064BD3F8C0
:101250008830054A43F47003C2F8883000BFBD46A9
:101260005DF8047B704700BF00ED00E0DFF834D08C
:101270000D480E490E4A002302E0D458C4500433EE
:10128000C4188C42F9D30B4A0B4C002301E01360C5
:101290000432A242FBD3FFF7D7FF68F0F3FAFFF75F
:1012A000A7FA70470000022000000020040100207F
:1012B000C4F10608040100206C2B0120FEE70000A9
:1012C00080B500AF0E4B1B680D4A43F400731360EA
:1012D0000B4B1B680A4A43F480631360084B1B687E
:1012E000074A43F480731360032000F04FF90F2086
:1012F00000F008F8FFF7AEFD0023184680BD00BFE0
:10130000003C024080B582B000AF7860124B1A6892
:10131000124B1B7819464FF47A73B3FBF1F3B2FB0F
:10132000F3F3184600F067F90346002B01D00123C0
:101330000EE07B680F2B0AD8002279684FF0FF304F
:1013400000F02FF9064A7B681360002300E00123B8
:1013500018460837BD4680BD000000200800002068
:101360000400002080B500AF064B1B781A46064BE0
:101370001B681344044A136001204DF04FFA00BF6C
:1013800080BD00BF08000020E027002080B400AF2F
:10139000034B1B681846BD465DF8047B704700BFD1
:1013A000E027002080B584B000AF7860FFF7EEFF43
:1013B000B8607B68FB60FB68B3F1FF3F05D00A4B68
:1013C0001B781A46FB681344FB6000BFFFF7DEFF83
:1013D0000246BB68D31AFA689A42F7D800BF00BF2A
:1013E0001037BD4680BD00BF0800002080B485B026
:1013F00000AF78607B6803F00703FB600C4BDB6891
:10140000BB60BA684FF6FF031340BB60FB681A026B
:10141000BB68134343F0BF6343F40033BB60044A2B
:10142000BB68D36000BF1437BD465DF8047B7047CE
:1014300000ED00E080B400AF044BDB681B0A03F052
:1014400007031846BD465DF8047B704700ED00E0D9
:1014500080B483B000AF0346FB7197F90730002BCF
:101460000BDBFB7903F01F02074997F907305B0993
:10147000012000FA02F241F8232000BF0C37BD46DC
:101480005DF8047B704700BF00E100E080B483B0EA
:1014900000AF03463960FB7197F90730002B0ADB78
:1014A0003B68DAB20C4997F907301201D2B20B440B
:1014B00083F800230AE03B68DAB20849FB7903F0BD
:1014C0000F03043B1201D2B20B441A7600BF0C3753
:1014D000BD465DF8047B704700E100E000ED00E0F0
:1014E00080B489B000AFF860B9607A60FB6803F03F
:1014F0000703FB61FB69C3F10703042B28BF042327
:10150000BB61FB690433062B02D9FB69033B00E096
:1015100000237B614FF0FF32BB6902FA03F3DA4329
:10152000BB681A407B699A404FF0FF317B6901FA32
:1015300003F3D9437B680B40134318462437BD4659
:101540005DF8047B7047000080B582B000AF786022
:101550007B68013BB3F1807F01D301230FE00A4A8E
:101560007B68013B53600F214FF0FF30FFF78EFF88
:10157000054B00229A60044B07221A60002318468C
:101580000837BD4680BD00BF10E000E080B582B0E6
:1015900000AF78607868FFF729FF00BF0837BD46C5
:1015A00080BD80B586B000AF0346B9607A60FB733A
:1015B00000237B61FFF73EFF78617A68B96878693C
:1015C000FFF78EFF024697F90F3011461846FFF7D6
:1015D0005DFF00BF1837BD4680BD80B582B000AF4B
:1015E0000346FB7197F907301846FFF731FF00BF3C
:1015F0000837BD4680BD80B582B000AF786078689E
:10160000FFF7A2FF034618460837BD4680BD80B5E8
:1016100084B000AF78607B689B6DFB60FFF7B6FE1F
:10162000B8607B6893F83530DBB2022B08D07B685A
:1016300080225A657B68002283F83420012352E01F
:101640007B681B681A687B681B6822F016021A60A8
:101650007B681B685A697B681B6822F080025A61AC
:101660007B681B6C002B03D17B689B6C002B07D025
:101670007B681B681A687B681B6822F008021A6086
:101680007B681B681A687B681B6822F001021A607D
:1016900013E0FFF77BFE0246BB68D31A052B0CD97B
:1016A0007B6820225A657B68032283F835207B689B
:1016B000002283F83420032315E07B681B681B6835
:1016C00003F00103002BE4D17B68DB6D3F229A40DD
:1016D000FB689A607B68012283F835207B680022D2
:1016E00083F83420002318461037BD4680BD80B4EF
:1016F00083B000AF78607B6893F83530DBB2022BA3
:1017000004D07B6880225A6501230CE07B680522A7
:1017100083F835207B681B681A687B681B6822F099
:1017200001021A60002318460C37BD465DF8047BA1
:101730007047000080B489B000AF78603960002342
:101740007B6100233B610023BB610023FB616BE1F4
:101750000122FB6902FA03F37B613B681B687A692B
:1017600013403B613A697B699A4240F05A813B6879
:101770005B6803F00303012B05D03B685B6803F053
:101780000303022B30D17B689B68BB61FB695B0064
:10179000032202FA03F3DB43BA691340BB613B68DF
:1017A000DA68FB695B0002FA03F3BA691343BB61B1
:1017B0007B68BA699A607B685B68BB610122FB69E0
:1017C00002FA03F3DB43BA691340BB613B685B6811
:1017D0001B0903F00102FB6902FA03F3BA69134320
:1017E000BB617B68BA695A603B685B6803F00303BE
:1017F000032B17D07B68DB68BB61FB695B000322AE
:1018000002FA03F3DB43BA691340BB613B689A6891
:10181000FB695B0002FA03F3BA691343BB617B689F
:10182000BA69DA603B685B6803F00303022B23D1DB
:10183000FB69DA087B68083253F82230BB61FB6928
:1018400003F007039B000F2202FA03F3DB43BA699C
:101850001340BB613B681A69FB6903F007039B00F7
:1018600002FA03F3BA691343BB61FB69DA087B68C8
:101870000832B96943F822107B681B68BB61FB69B9
:101880005B00032202FA03F3DB43BA691340BB6136
:101890003B685B6803F00302FB695B0002FA03F339
:1018A000BA691343BB617B68BA691A603B685B68BD
:1018B00003F44033002B00F0B4800023FB60604B46
:1018C0005B6C5F4A43F4804353645D4B5B6C03F491
:1018D0008043FB60FB685B4AFB699B08023352F85C
:1018E0002330BB61FB6903F003039B000F2202FA64
:1018F00003F3DB43BA691340BB617B68524A9342EE
:101900002BD07B68514A934225D07B68504A934242
:101910001FD07B684F4A934219D07B684E4A93424E
:1019200013D07B684D4A93420DD07B684C4A93425A
:1019300007D07B684B4A934201D107230EE008236E
:101940000CE006230AE0052308E0042306E0032355
:1019500004E0022302E0012300E00023FA6902F020
:10196000030292009340BA691343BB613549FB6996
:101970009B080233BA6941F823203B4B1B68BB61CB
:101980003B69DB43BA691340BB613B685B6803F4A6
:101990008033002B03D0BA693B691343BB61324AE1
:1019A000BB691360304B5B68BB613B69DB43BA6961
:1019B0001340BB613B685B6803F40033002B03D02A
:1019C000BA693B691343BB61274ABB695360264B25
:1019D0009B68BB613B69DB43BA691340BB613B68F1
:1019E0005B6803F48013002B03D0BA693B6913438F
:1019F000BB611D4ABB6993601B4BDB68BB613B69E4
:101A0000DB43BA691340BB613B685B6803F40013B6
:101A1000002B03D0BA693B691343BB61124ABB690F
:101A2000D360FB690133FB61FB690F2B7FF690AE3E
:101A300000BF00BF2437BD465DF8047B704700BF80
:101A4000003802400038014000000240000402401B
:101A500000080240000C0240001002400014024046
:101A600000180240001C0240003C014080B485B0D8
:101A700000AF78600B467B807B681A697B881340D7
:101A8000002B02D00123FB7301E00023FB73FB7BDF
:101A900018461437BD465DF8047B704780B483B0A8
:101AA00000AF78600B467B8013467B707B78002B01
:101AB00003D07A887B689A6103E07B881A047B688C
:101AC0009A6100BF0C37BD465DF8047B704700008B
:101AD00080B582B000AF0346FB80084B5A69FB8893
:101AE0001340002B06D0054AFB885361FB8818463B
:101AF00000F006F800BF0837BD4680BD003C01403D
:101B000080B483B000AF0346FB8000BF0C37BD46F6
:101B10005DF8047B7047000080B584B000AF78604A
:101B20007B68002B01D101232BE17B6893F83D30CA
:101B3000DBB2002B06D17B68002283F83C2078685A
:101B4000FFF7B0F97B68242283F83D207B681B688F
:101B50001A687B681B6822F001021A607B681B68A8
:101B60001A687B681B6842F400421A607B681B6835
:101B70001A687B681B6822F400421A6001F0FCFBC3
:101B8000F8607B685B68814A934207D8FB68804AAB
:101B9000934294BF01230023DBB206E0FB687D4A39
:101BA000934294BF01230023DBB2002B01D0012319
:101BB000E7E0FB68784AA2FB03239B0CBB607B68D1
:101BC0001B685B6823F03F017B681B68BA680A43A7
:101BD0005A607B681B681B6A23F03F017B685B6867
:101BE0006A4A934202D8BB68013309E0BB684FF4EC
:101BF000967202FB03F3694AA2FB03239B0901339C
:101C00007A6812680B4313627B681B68DB6923F4F4
:101C10004F4222F0FF027B685B685C498B4219D817
:101C2000FB68591E7B685B685B00B1FBF3F3591CD2
:101C300040F6FC730B40002B0AD0FB68591E7B68F2
:101C40005B685B00B1FBF3F30133C3F30B0351E0BB
:101C500004234FE07B689B68002B11D1FB68581E62
:101C60007B6859680B465B000B44B0FBF3F3013310
:101C7000C3F30B03002B0CBF01230023DBB212E0E4
:101C8000FB68581E7B6859680B469B000B44990003
:101C90000B44B0FBF3F30133C3F30B03002B0CBF76
:101CA00001230023DBB2002B01D0012322E07B685B
:101CB0009B68002B0ED1FB68581E7B6859680B4649
:101CC0005B000B44B0FBF3F30133C3F30B0343F4AA
:101CD00000430FE0FB68581E7B6859680B469B0069
:101CE0000B4499000B44B0FBF3F30133C3F30B0334
:101CF00043F44043796809681343CB617B681B68F0
:101D00001B6823F0C0017B68DA697B681B6A1A4391
:101D10007B681B680A431A607B681B689B6823F416
:101D2000034323F0FF037A6811697A68D26811438C
:101D30007A6812680B4393607B681B68DB6823F04A
:101D4000FF017B685A697B689B691A437B681B6843
:101D50000A43DA607B681B681A687B681B6842F07C
:101D600001021A607B6800221A647B68202283F8D3
:101D70003D207B6800221A637B68002283F83E20A6
:101D8000002318461037BD4680BD00BFA086010065
:101D90007F841E00FF083D0083DE1B43D34D62108D
:101DA00080B588B002AFF860084611461A4603466F
:101DB0007B810B463B811346FB80FFF7E7FA786196
:101DC000FB6893F83D30DBB2202B40F0D9807B6973
:101DD0000093192301226D49F86800F07FFC034647
:101DE000002B01D00223CCE0FB6893F83C30012BA0
:101DF00001D10223C5E0FB68012283F83C20FB6887
:101E00001B681B6803F00103012B07D0FB681B68EC
:101E10001A68FB681B6842F001021A60FB681B68C5
:101E20001A68FB681B6822F400621A60FB682122B2
:101E300083F83D20FB68402283F83E20FB680022A7
:101E40001A64FB683A6A5A62FB68BA8C5A85FB6866
:101E50005B8D9AB2FB681A85FB684D4ADA62F88896
:101E60003A8979897B690193BB6A00930346F868D4
:101E700000F0B6FA0346002B52D0012381E07A69C4
:101E8000B96AF86800F000FD0346002B0DD0FB682E
:101E90001B6C042B07D1FB681B681A68FB681B6866
:101EA00042F400721A6001236BE0FB685B6A1A78E7
:101EB000FB681B681A61FB685B6A5A1CFB685A6204
:101EC000FB681B8D013B9AB2FB681A85FB685B8D32
:101ED0009BB2013B9AB2FB685A85FB681B685B6941
:101EE00003F00403042B1BD1FB681B8D002B17D0C0
:101EF000FB685B6A1A78FB681B681A61FB685B6A9F
:101F00005A1CFB685A62FB681B8D013B9AB2FB6846
:101F10001A85FB685B8D9BB2013B9AB2FB685A85C0
:101F2000FB681B8D002BAAD17A69B96AF86800F0AA
:101F3000ECFC0346002B0DD0FB681B6C042B07D177
:101F4000FB681B681A68FB681B6842F400721A6021
:101F5000012316E0FB681B681A68FB681B6842F4E3
:101F600000721A60FB68202283F83D20FB68002283
:101F700083F83E20FB68002283F83C20002300E029
:101F8000022318461837BD4680BD00BF020010006E
:101F90000000FFFF80B58CB002AFF8600846114624
:101FA0001A4603467B810B463B811346FB80FFF7B5
:101FB000EDF97862FB6893F83D30DBB2202B40F0FE
:101FC00008827B6A0093192301227B49F86800F09C
:101FD00085FB0346002B01D00223FBE1FB6893F84D
:101FE0003C30012B01D10223F4E1FB68012283F88C
:101FF0003C20FB681B681B6803F00103012B07D022
:10200000FB681B681A68FB681B6842F001021A60D3
:10201000FB681B681A68FB681B6822F400621A6080
:10202000FB68222283F83D20FB68402283F83E2093
:10203000FB6800221A64FB683A6B5A62FB68BA8E2E
:102040005A85FB685B8D9AB2FB681A85FB685B4A10
:10205000DA62F8883A8979897B6A0193BB6B0093CD
:102060000346F86800F052FA0346002B01D0012322
:10207000B0E1FB681B8D002B13D100233B62FB6892
:102080001B685B693B62FB681B689B693B623B6A40
:10209000FB681B681A68FB681B6842F400721A60D0
:1020A00084E1FB681B8D012B1BD1FB681B681A6840
:1020B000FB681B6822F480621A600023FB61FB68E6
:1020C0001B685B69FB61FB681B689B69FB61FB69C3
:1020D000FB681B681A68FB681B6842F400721A6090
:1020E00064E1FB681B8D022B1BD1FB681B681A681F
:1020F000FB681B6822F480621A60FB681B681A6820
:10210000FB681B6842F400621A600023BB61FB6835
:102110001B685B69BB61FB681B689B69BB61BB6932
:1021200044E100237B61FB681B685B697B61FB68A2
:102130001B689B697B617B6938E1FB681B8D032B06
:1021400000F2F180FB681B8D012B23D17A6AB96BF9
:10215000F86800F01BFC0346002B01D0012339E195
:10216000FB681B681A69FB685B6AD2B21A70FB686D
:102170005B6A5A1CFB685A62FB681B8D013B9AB272
:10218000FB681A85FB685B8D9BB2013B9AB2FB68CA
:102190005A850BE1FB681B8D022B4ED17B6A0093A5
:1021A000BB6B00220649F86800F098FA0346002B42
:1021B00008D001230EE100BF020010000000FFFF65
:1021C00004000100FB681B681A68FB681B6842F486
:1021D00000721A60FB681B681A69FB685B6AD2B2FE
:1021E0001A70FB685B6A5A1CFB685A62FB681B8D9D
:1021F000013B9AB2FB681A85FB685B8D9BB2013B81
:102200009AB2FB685A85FB681B681A69FB685B6AAF
:10221000D2B21A70FB685B6A5A1CFB685A62FB6890
:102220001B8D013B9AB2FB681A85FB685B8D9BB2E4
:10223000013B9AB2FB685A85B8E07B6A0093BB6B9E
:1022400000226649F86800F049FA0346002B01D0E5
:102250000123BFE0FB681B681A68FB681B6822F457
:1022600080621A60FB681B681A69FB685B6AD2B2FD
:102270001A70FB685B6A5A1CFB685A62FB681B8D0C
:10228000013B9AB2FB681A85FB685B8D9BB2013BF0
:102290009AB2FB685A857B6A0093BB6B00224F4958
:1022A000F86800F01BFA0346002B01D0012391E0EF
:1022B000FB681B681A68FB681B6842F400721A60AE
:1022C000FB681B681A69FB685B6AD2B21A70FB680C
:1022D0005B6A5A1CFB685A62FB681B8D013B9AB211
:1022E000FB681A85FB685B8D9BB2013B9AB2FB6869
:1022F0005A85FB681B681A69FB685B6AD2B21A7060
:10230000FB685B6A5A1CFB685A62FB681B8D013BC9
:102310009AB2FB681A85FB685B8D9BB2013B9AB24F
:10232000FB685A8542E07A6AB96BF86800F02EFBC8
:102330000346002B01D001234CE0FB681B681A699F
:10234000FB685B6AD2B21A70FB685B6A5A1CFB6856
:102350005A62FB681B8D013B9AB2FB681A85FB68C9
:102360005B8D9BB2013B9AB2FB685A85FB681B6888
:102370005B6903F00403042B18D1FB681B681A691E
:10238000FB685B6AD2B21A70FB685B6A5A1CFB6816
:102390005A62FB681B8D013B9AB2FB681A85FB6889
:1023A0005B8D9BB2013B9AB2FB685A85FB681B8D23
:1023B000002B7FF4C2AEFB68202283F83D20FB682F
:1023C000002283F83E20FB68002283F83C20002393
:1023D00000E0022318462837BD4680BD04000100F6
:1023E00080B588B002AFF860084611461A46034629
:1023F0007B810B463B811346FB80FB681B681A6898
:10240000FB681B6842F480721A607B6A00933B6A27
:1024100000224FF00111F86800F060F90346002B2C
:102420000DD0FB681B681B6803F48073B3F5807FD5
:1024300003D1FB684FF400721A6403235FE07B89C9
:10244000DBB21A46FB681B6802F0FE021A617B6A67
:102450003A6A2D49F86800F098F90346002B01D03C
:1024600001234CE000237B61FB681B685B697B6197
:10247000FB681B689B697B617B697A6A396AF868CB
:1024800000F002FA0346002B0DD0FB681B6C042BF6
:1024900007D1FB681B681A68FB681B6842F400726E
:1024A0001A6001232BE0FB88012B05D13B89DAB2AE
:1024B000FB681B681A6121E03B891B0A9BB2DAB2F8
:1024C000FB681B681A617A6A396AF86800F0DCF9FF
:1024D0000346002B0DD0FB681B6C042B07D1FB6857
:1024E0001B681A68FB681B6842F400721A600123BB
:1024F00005E03B89DAB2FB681B681A6100231846C5
:102500001837BD4680BD00BF0200010080B588B00D
:1025100002AFF860084611461A4603467B810B4617
:102520003B811346FB80FB681B681A68FB681B68CD
:1025300042F480621A60FB681B681A68FB681B68BB
:1025400042F480721A607B6A00933B6A00224FF06B
:102550000111F86800F0C2F80346002B0DD0FB68AB
:102560001B681B6803F48073B3F5807F03D1FB689D
:102570004FF400721A640323AAE07B89DBB21A4687
:10258000FB681B6802F0FE021A617B6A3A6A5249D4
:10259000F86800F0FAF80346002B01D0012397E019
:1025A00000237B61FB681B685B697B61FB681B68C0
:1025B0009B697B617B697A6A396AF86800F064F923
:1025C0000346002B0DD0FB681B6C042B07D1FB6866
:1025D0001B681A68FB681B6842F400721A600123CA
:1025E00076E0FB88012B05D13B89DAB2FB681B68DA
:1025F0001A6121E03B891B0A9BB2DAB2FB681B68B7
:102600001A617A6A396AF86800F03EF90346002BCD
:102610000DD0FB681B6C042B07D1FB681B681A6884
:10262000FB681B6842F400721A60012350E03B898A
:10263000DAB2FB681B681A617A6A396AF86800F0D6
:1026400023F90346002B0DD0FB681B6C042B07D12C
:10265000FB681B681A68FB681B6842F400721A600A
:10266000012335E0FB681B681A68FB681B6842F4AD
:1026700080721A607B6A00933B6A00224FF001115E
:10268000F86800F02BF80346002B0DD0FB681B68A0
:102690001B6803F48073B3F5807F03D1FB684FF4AC
:1026A00000721A64032313E07B89DBB243F0010359
:1026B000DAB2FB681B681A617B6A3A6A0649F868F5
:1026C00000F063F80346002B01D0012300E0002353
:1026D00018461837BD4680BD0200010080B584B0A1
:1026E00000AFF860B9603B601346FB7125E03B68C2
:1026F000B3F1FF3F21D0FEF749FE0246BB69D31A72
:102700003A689A4202D33B68002B16D1FB6800223C
:102710001A63FB68202283F83D20FB68002283F8BF
:102720003E20FB681B6C43F02002FB681A64FB68C8
:10273000002283F83C20012323E0BB681B0CDBB2A2
:10274000012B0DD1FB681B685B69DA43BB68134042
:102750009BB2002B0CBF01230023DBB21A460CE016
:10276000FB681B689B69DA43BB6813409BB2002B74
:102770000CBF01230023DBB21A46FB799A42B6D084
:10278000002318461037BD4680BD80B584B000AF29
:10279000F860B9607A603B6051E0FB681B685B6978
:1027A00003F48063B3F5806F23D1FB681B681A685C
:1027B000FB681B6842F400721A60FB681B686FF4C8
:1027C00080625A61FB6800221A63FB68202283F84A
:1027D0003D20FB68002283F83E20FB681B6C43F021
:1027E0000402FB681A64FB68002283F83C20012382
:1027F00046E07B68B3F1FF3F21D0FEF7C7FD0246FC
:102800003B68D31A7A689A4202D37B68002B16D1B0
:10281000FB6800221A63FB68202283F83D20FB68D6
:10282000002283F83E20FB681B6C43F02002FB680B
:102830001A64FB68002283F83C20012320E0BB6877
:102840001B0CDBB2012B0CD1FB681B685B69DA4304
:10285000BB6813409BB2002B14BF01230023DBB2E3
:102860000BE0FB681B689B69DA43BB6813409BB2B3
:10287000002B14BF01230023DBB2002B8DD10023DA
:1028800018461037BD4680BD80B584B000AFF860F3
:10289000B9607A602DE0F86800F0CEF80346002BAE
:1028A00001D001232DE0BB68B3F1FF3F21D0FEF73B
:1028B0006DFD02467B68D31ABA689A4202D3BB68A0
:1028C000002B16D1FB6800221A63FB68202283F8D4
:1028D0003D20FB68002283F83E20FB681B6C43F020
:1028E0002002FB681A64FB68002283F83C20012365
:1028F00007E0FB681B685B6903F08003802BCAD18B
:10290000002318461037BD4680BD80B584B000AFA7
:10291000F860B9607A602DE0F86800F08DF8034641
:10292000002B01D001232DE0BB68B3F1FF3F21D084
:10293000FEF72CFD02467B68D31ABA689A4202D38E
:10294000BB68002B16D1FB6800221A63FB682022AB
:1029500083F83D20FB68002283F83E20FB681B6C57
:1029600043F02002FB681A64FB68002283F83C20D5
:10297000012307E0FB681B685B6903F00403042B79
:10298000CAD1002318461037BD4680BD80B584B03B
:1029900000AFF860B9607A6042E0FB681B685B6971
:1029A00003F01003102B19D1FB681B686FF01002A5
:1029B0005A61FB6800221A63FB68202283F83D20DD
:1029C000FB68002283F83E20FB681A6CFB681A64DF
:1029D000FB68002283F83C20012329E0FEF7D6FCA7
:1029E00002467B68D31ABA689A4202D3BB68002BAE
:1029F00016D1FB6800221A63FB68202283F83D2071
:102A0000FB68002283F83E20FB681B6C43F0200229
:102A1000FB681A64FB68002283F83C20012307E06E
:102A2000FB681B685B6903F04003402BB5D10023B2
:102A300018461037BD4680BD80B483B000AF7860C3
:102A40007B681B685B6903F48063B3F5806F1BD1FF
:102A50007B681B686FF480625A617B6800221A638E
:102A60007B68202283F83D207B68002283F83E208B
:102A70007B681B6C43F004027B681A647B6800224D
:102A800083F83C20012300E0002318460C37BD46A4
:102A90005DF8047B7047000080B586B000AF7860B9
:102AA0007B68002B01D1012367E27B681B6803F080
:102AB0000103002B75D0884B9B6803F00C03042B9B
:102AC0000CD0854B9B6803F00C03082B12D1824B72
:102AD0005B6803F48003B3F5800F0BD17E4B1B685A
:102AE00003F40033002B5BD07B685B68002B57D16D
:102AF000012342E27B685B68B3F5803F06D1764BE9
:102B00001B68754A43F4803313601DE07B685B6883
:102B1000B3F5A02F0CD1704B1B686F4A43F4802390
:102B200013606D4B1B686C4A43F4803313600BE0F9
:102B3000694B1B68684A23F480331360664B1B683B
:102B4000654A23F4802313607B685B68002B13D0F5
:102B5000FEF71CFC386108E0FEF718FC02463B69F2
:102B6000D31A642B01D9032307E25B4B1B6803F4E0
:102B70000033002BF0D014E0FEF708FC386108E0C9
:102B8000FEF704FC02463B69D31A642B01D90323E8
:102B9000F3E1514B1B6803F40033002BF0D100E04C
:102BA00000BF7B681B6803F00203002B63D04A4B15
:102BB0009B6803F00C03002B0BD0474B9B6803F082
:102BC0000C03082B1CD1444B5B6803F48003002BDF
:102BD00016D1414B1B6803F00203002B05D07B6824
:102BE000DB68012B01D00123C7E13B4B1B6823F0BD
:102BF000F8027B681B69DB00374913430B603AE03E
:102C00007B68DB68002B20D0344B01221A60FEF772
:102C1000BDFB386108E0FEF7B9FB02463B69D31AF9
:102C2000022B01D90323A8E12B4B1B6803F00203FD
:102C3000002BF0D0284B1B6823F0F8027B681B693F
:102C4000DB00254913430B6015E0244B00221A607A
:102C5000FEF79CFB386108E0FEF798FB02463B69F3
:102C6000D31A022B01D9032387E11B4B1B6803F006
:102C70000203002BF0D17B681B6803F00803002BD4
:102C800036D07B685B69002B16D0154B01221A6089
:102C9000FEF77CFB386108E0FEF778FB02463B69F3
:102CA000D31A022B01D9032367E10B4B5B6F03F0AF
:102CB0000203002BF0D01BE0094B00221A60FEF744
:102CC00065FB38610EE0FEF761FB02463B69D31AF3
:102CD000022B07D9032350E100380240000047428D
:102CE000800E4742884B5B6F03F00203002BEAD152
:102CF0007B681B6803F00403002B00F0978000231F
:102D0000FB75814B1B6C03F08053002B0FD100230C
:102D1000BB607D4B1B6C7C4A43F0805313647A4B41
:102D20001B6C03F08053BB60BB680123FB75774BC2
:102D30001B6803F48073002B18D1744B1B68734A13
:102D400043F480731360FEF721FB386108E0FEF75F
:102D50001DFB02463B69D31A022B01D903230CE168
:102D60006A4B1B6803F48073002BF0D07B689B6870
:102D7000012B06D1644B1B6F634A43F001031367B9
:102D80001CE07B689B68052B0CD15F4B1B6F5E4A78
:102D900043F0040313675C4B1B6F5B4A43F0010372
:102DA00013670BE0584B1B6F574A23F0010313675F
:102DB000554B1B6F544A23F0040313677B689B68D1
:102DC000002B15D0FEF7E2FA38610AE0FEF7DEFAD2
:102DD00002463B69D31A41F28832934201D9032358
:102DE000CBE0494B1B6F03F00203002BEED014E045
:102DF000FEF7CCFA38610AE0FEF7C8FA02463B69F2
:102E0000D31A41F28832934201D90323B5E03E4BF5
:102E10001B6F03F00203002BEED1FB7D012B05D1CC
:102E2000394B1B6C384A23F0805313647B689B69D1
:102E3000002B00F0A180344B9B6803F00C03082B9F
:102E40005CD07B689B69022B41D1314B00221A6018
:102E5000FEF79CFA386108E0FEF798FA02463B69F3
:102E6000D31A022B01D9032387E0274B1B6803F0F9
:102E70000073002BF0D17B68DA697B681B6A1A4308
:102E80007B685B6A9B011A437B689B6A5B08013B1A
:102E90001B041A437B68DB6A1B061B4913434B6008
:102EA0001B4B01221A60FEF771FA386108E0FEF749
:102EB0006DFA02463B69D31A022B01D903235CE069
:102EC000114B1B6803F00073002BF0D054E0104B43
:102ED00000221A60FEF75AFA386108E0FEF756FA47
:102EE00002463B69D31A022B01D9032345E0064B66
:102EF0001B6803F00073002BF0D13DE07B689B69F9
:102F0000012B07D1012338E0003802400070004057
:102F1000600047421B4B5B68FB607B689B69012B31
:102F200028D0FB6803F480027B68DB699A4221D1D8
:102F3000FB6803F03F027B681B6A9A421AD1FA6869
:102F400047F6C07313407A68526A9201934211D1D6
:102F5000FB6803F440327B689B6A5B08013B1B04FF
:102F60009A4207D1FB6803F070627B68DB6A1B063C
:102F70009A4201D0012300E0002318461837BD46CD
:102F800080BD00BF0038024080B584B000AF7860DB
:102F900039607B68002B01D10123CCE0684B1B68B2
:102FA00003F007033A689A420CD9654B3A68D2B2EB
:102FB0001A70634B1B6803F007033A689A4201D00A
:102FC0000123B8E07B681B6803F00203002B20D0CC
:102FD0007B681B6803F00403002B05D0594B9B68EA
:102FE000584A43F4E05393607B681B6803F008037E
:102FF000002B05D0534B9B68524A43F460439360C7
:10300000504B9B6823F0F0027B689B684D4913434B
:103010008B607B681B6803F00103002B44D07B6846
:103020005B68012B07D1474B1B6803F40033002B6F
:1030300019D101237FE07B685B68022B03D07B689A
:103040005B68032B07D13F4B1B6803F00073002B19
:1030500009D101236FE03B4B1B6803F00203002BF7
:1030600001D1012367E0374B9B6823F003027B68A3
:103070005B68344913438B60FEF788F9F8600AE017
:10308000FEF784F90246FB68D31A41F28832934274
:1030900001D903234FE02B4B9B6803F00C027B68A4
:1030A0005B689B009A42EBD1254B1B6803F007033A
:1030B0003A689A420CD2224B3A68D2B21A70204B2C
:1030C0001B6803F007033A689A4201D0012332E0FB
:1030D0007B681B6803F00403002B08D0194B9B6826
:1030E00023F4E0527B68DB68164913438B607B68EE
:1030F0001B6803F00803002B09D0124B9B6823F4D4
:1031000060427B681B69DB000E4913438B6000F053
:1031100021F802460B4B9B681B0903F00F030A4979
:10312000CB5C22FA03F3094A1360094B1B6818466B
:10313000FEF7E8F8002318461037BD4680BD00BFF3
:10314000003C0240003802409CAC06080000002011
:10315000040000202DE9B04F94B000AF00237B6441
:103160000023FB6400233B640023BB64794B9B6812
:1031700003F00C03082B0DD0082B00F2E180002B8C
:1031800002D0042B03D0DBE0734BBB64DBE0734B5A
:10319000BB64D8E06F4B5B6803F03F037B646D4B0F
:1031A0005B6803F48003002B63D06A4B5B689B0968
:1031B0000022BB63FA63BB6BC3F308033B630023CA
:1031C0007B63D7E90C4522462B464FF000004FF0B9
:1031D0000001590141EAD261500102460B462146E5
:1031E000511A3961294663EB01037B614FF00002FC
:1031F0004FF00003D7E904AB59468B01514643EA2F
:10320000916351468A015146B2EB0108594663EB7E
:1032100001094FF000024FF000034FEAC90343EAEF
:1032200058734FEAC80290469946234618EB0303A9
:10323000BB602B4649EB0303FB604FF000024FF0ED
:103240000003D7E9024529464B02214643EAD15300
:1032500021464A02104619467B6C0022BB62FA6284
:10326000D7E90A23FDF764F802460B461346FB64D0
:1032700058E0384B5B689B09002218461146C0F3A2
:1032800008033B6200237B62D7E9088942464B462C
:103290004FF000004FF00001590141EAD2615001A6
:1032A00002460B464146B2EB010A494663EB010B6D
:1032B0004FF000024FF000034FEA8B1343EA9A638A
:1032C0004FEA8A12B2EB0A0463EB0B054FF00002DF
:1032D0004FF00003EB0043EA5473E20014461D462E
:1032E0004346E3183B604B4645EB03037B604FF0DE
:1032F00000024FF00003D7E9004529468B02214622
:1033000043EA915321468A02104619467B6C0022FB
:10331000BB61FA61D7E90623FDF70AF802460B46BE
:103320001346FB640B4B5B681B0C03F00303013378
:103330005B003B64FA6C3B6CB2FBF3F3BB6402E0F2
:10334000054BBB6400BFBB6C18465037BD46BDE89B
:10335000B08F00BF003802400024F40000127A0051
:1033600080B400AF034B1B681846BD465DF8047B74
:10337000704700BF0000002080B500AFFFF7F0FFEE
:103380000246054B9B689B0A03F007030349CB5C8D
:1033900022FA03F3184680BD00380240ACAC0608A0
:1033A00080B500AFFFF7DCFF0246054B9B685B0B67
:1033B00003F007030349CB5C22FA03F3184680BDF0
:1033C00000380240ACAC060880B584B000AFF860AD
:1033D000B9607A60FB68002B01D1012334E0FB68FF
:1033E00093F84930DBB2002B06D1FB68002283F84A
:1033F0004820F868FDF79CFEFB681A68FB680833F4
:103400001946104601F086FFFB681868FB689B6848
:103410001A46B96801F0D0FFFB685868FB689A68E3
:10342000FB681B6B796802F005F8FB681B68FA689B
:10343000926853F82210FB681B68FA68926841F0A2
:10344000010143F82210002318461037BD4680BD05
:1034500080B487B000AFF860B9607A603B60BB6849
:103460007B61FB6893F84830012B01D1022322E0F5
:10347000FB68012283F84820FB68022283F8492078
:103480000DE07B691B889AB27B681A807B680233E7
:103490007B607B6902337B613B68013B3B603B683F
:1034A000002BEED1FB68012283F84920FB68002243
:1034B00083F84820002318461C37BD465DF8047B7E
:1034C000704780B487B000AFF860B9607A603B6045
:1034D000BB687B61FB6893F84930DBB2042B01D1F8
:1034E000012328E0FB6893F84830012B01D1022327
:1034F00021E0FB68012283F84820FB68022283F860
:1035000049200CE07B681A887B691A807B6802334B
:103510007B607B6902337B613B68013B3B603B68BE
:10352000002BEFD1FB68012283F84920FB680022C1
:1035300083F84820002318461C37BD465DF8047BFD
:10354000704780B582B000AF78607B68002B01D1F6
:10355000012341E07B6893F83D30DBB2002B06D1BC
:103560007B68002283F83C207868FDF7E3FC7B68E9
:10357000022283F83D207B681A687B680433194671
:10358000104600F013FC7B68012283F846207B681C
:10359000012283F83E207B68012283F83F207B686C
:1035A000012283F840207B68012283F841207B6858
:1035B000012283F842207B68012283F843207B6844
:1035C000012283F844207B68012283F845207B6830
:1035D000012283F83D20002318460837BD4680BDF0
:1035E00080B582B000AF78607B68002B01D10123E9
:1035F00041E07B6893F83D30DBB2002B06D17B685D
:10360000002283F83C20786800F039F87B680222B9
:1036100083F83D207B681A687B680433194610469E
:1036200000F0C4FB7B68012283F846207B680122FE
:1036300083F83E207B68012283F83F207B680122CB
:1036400083F840207B68012283F841207B680122B7
:1036500083F842207B68012283F843207B680122A3
:1036600083F844207B68012283F845207B6801228F
:1036700083F83D20002318460837BD4680BD80B43E
:1036800083B000AF786000BF0C37BD465DF8047BA7
:103690007047000080B584B000AF786039603B6847
:1036A000002B09D17B6893F83E30DBB2012B14BFAD
:1036B00001230023DBB222E03B68042B09D17B68A5
:1036C00093F83F30DBB2012B14BF01230023DBB2A0
:1036D00015E03B68082B09D17B6893F84030DBB2DA
:1036E000012B14BF01230023DBB208E07B6893F8B1
:1036F0004130DBB2012B14BF01230023DBB2002BCE
:1037000001D001237CE03B68002B04D17B680222BE
:1037100083F83E2013E03B68042B04D17B6802222F
:1037200083F83F200BE03B68082B04D17B68022222
:1037300083F8402003E07B68022283F841207B6805
:103740001B6801223968184600F01AFE7B681B6866
:103750002D4A934204D07B681B682C4A934201D1C6
:10376000012300E00023002B07D07B681B685A6C04
:103770007B681B6842F400425A647B681B68224ADB
:10378000934222D07B681B68B3F1804F1DD07B68C9
:103790001B681F4A934218D07B681B681D4A9342DE
:1037A00013D07B681B681C4A93420ED07B681B6851
:1037B000164A934209D07B681B68184A934204D08A
:1037C0007B681B68164A934211D17B681B689B6813
:1037D00003F00703FB60FB68062B10D07B681B68B7
:1037E0001A687B681B6842F001021A6007E07B6878
:1037F0001B681A687B681B6842F001021A6000238C
:1038000018461037BD4680BD00000140000401404D
:103810000004004000080040000C0040004001404F
:103820000018004080B582B000AF78607B681B68EC
:103830001B6903F00203022B22D17B681B68DB6843
:1038400003F00203022B1BD17B681B686FF002029E
:103850001A617B6801221A777B681B689B6903F0F9
:103860000303002B03D0786800F081FA05E0786844
:1038700000F073FA786800F084FA7B6800221A7707
:103880007B681B681B6903F00403042B22D17B684F
:103890001B68DB6803F00403042B1BD17B681B68E7
:1038A0006FF004021A617B6802221A777B681B683A
:1038B0009B6903F44073002B03D0786800F057FA3B
:1038C00005E0786800F049FA786800F05AFA7B68F9
:1038D00000221A777B681B681B6903F00803082B1A
:1038E00022D17B681B68DB6803F00803082B1BD11F
:1038F0007B681B686FF008021A617B6804221A77E4
:103900007B681B68DB6903F00303002B03D0786836
:1039100000F02DFA05E0786800F01FFA786800F0F2
:1039200030FA7B6800221A777B681B681B6903F0FA
:103930001003102B22D17B681B68DB6803F0100397
:10394000102B1BD17B681B686FF010021A617B681B
:1039500008221A777B681B68DB6903F44073002B2D
:1039600003D0786800F003FA05E0786800F0F5F914
:10397000786800F006FA7B6800221A777B681B687B
:103980001B6903F00103012B0ED17B681B68DB6808
:1039900003F00103012B07D17B681B686FF0010264
:1039A0001A61786800F0CFF97B681B681B6903F027
:1039B0008003802B0ED17B681B68DB6803F08003DB
:1039C000802B07D17B681B686FF080021A617868D2
:1039D00000F082FD7B681B681B6903F04003402BED
:1039E0000ED17B681B68DB6803F04003402B07D1D6
:1039F0007B681B686FF040021A61786800F0CBF9B1
:103A00007B681B681B6903F02003202B0ED17B68A9
:103A10001B68DB6803F02003202B07D17B681B6841
:103A20006FF020021A61786800F04CFD00BF083783
:103A3000BD4680BD80B586B000AFF860B9607A60E1
:103A40000023FB75FB6893F83C30012B01D1022366
:103A5000AEE0FB68012283F83C207B680C2B00F26F
:103A60009F8001A252F823F09D3A0008A13B000874
:103A7000A13B0008A13B0008DD3A0008A13B00087B
:103A8000A13B0008A13B00081F3B0008A13B000828
:103A9000A13B0008A13B00085F3B0008FB681B68D6
:103AA000B968184600F022FAFB681B689A69FB683F
:103AB0001B6842F008029A61FB681B689A69FB6800
:103AC0001B6822F004029A61FB681B689969BB6855
:103AD0001A69FB681B680A439A6164E0FB681B680B
:103AE000B968184600F072FAFB681B689A69FB68AF
:103AF0001B6842F400629A61FB681B689A69FB6864
:103B00001B6822F480629A61FB681B689969BB6834
:103B10001B691A02FB681B680A439A6143E0FB6851
:103B20001B68B968184600F0C7FAFB681B68DA69B9
:103B3000FB681B6842F00802DA61FB681B68DA69FF
:103B4000FB681B6822F00402DA61FB681B68D96914
:103B5000BB681A69FB681B680A43DA6123E0FB68EB
:103B60001B68B968184600F01BFBFB681B68DA6924
:103B7000FB681B6842F40062DA61FB681B68DA6963
:103B8000FB681B6822F48062DA61FB681B68D969F4
:103B9000BB681B691A02FB681B680A43DA6102E012
:103BA0000123FB7500BFFB68002283F83C20FB7DEE
:103BB00018461837BD4680BD80B584B000AF786028
:103BC00039600023FB737B6893F83C30012B01D1F3
:103BD0000223B4E07B68012283F83C207B68022248
:103BE00083F83D207B681B689B68BB60BB6823F043
:103BF0007703BB60BB6823F47F43BB607B681B68B3
:103C0000BA689A603B681B68B3F5005F3ED0B3F5B5
:103C1000005F00F28780B3F5805F00F08680B3F527
:103C2000805F7FD8702B1AD0702B7BD8602B50D040
:103C3000602B77D8502B3CD0502B73D8402B58D0CA
:103C4000402B6FD8302B64D0302B6BD8202B60D01A
:103C5000202B67D8002B5CD0102B5AD062E07B68F9
:103C600018683B6899683B685A683B68DB6800F0F5
:103C700067FB7B681B689B68BB60BB6843F077038E
:103C8000BB607B681B68BA689A604FE07B68186805
:103C90003B6899683B685A683B68DB6800F050FBFA
:103CA0007B681B689A687B681B6842F480429A6054
:103CB0003CE07B6818683B6859683B68DB681A46DB
:103CC00000F0C4FA7B681B685021184600F01DFB09
:103CD0002CE07B6818683B6859683B68DB681A46CB
:103CE00000F0E3FA7B681B686021184600F00DFBCA
:103CF0001CE07B6818683B6859683B68DB681A46BB
:103D000000F0A4FA7B681B684021184600F0FDFA19
:103D10000CE07B681A683B681B681946104600F087
:103D2000F4FA03E00123FB7300E000BF7B6801228B
:103D300083F83D207B68002283F83C20FB7B1846FB
:103D40001037BD4680BD80B483B000AF786000BF3F
:103D50000C37BD465DF8047B704780B483B000AF7C
:103D6000786000BF0C37BD465DF8047B704780B4B7
:103D700083B000AF786000BF0C37BD465DF8047BB0
:103D8000704780B483B000AF786000BF0C37BD4689
:103D90005DF8047B704780B483B000AF786000BFEB
:103DA0000C37BD465DF8047B7047000080B485B0D9
:103DB00000AF786039607B681B68FB607B68404AB5
:103DC000934213D07B68B3F1804F0FD07B683D4A9C
:103DD00093420BD07B683C4A934207D07B683B4AB6
:103DE000934203D07B683A4A934208D1FB6823F0A0
:103DF0007003FB603B685B68FA681343FB607B6899
:103E00002F4A93422BD07B68B3F1804F27D07B6839
:103E10002C4A934223D07B682B4A93421FD07B6865
:103E20002A4A93421BD07B68294A934217D07B6869
:103E3000284A934213D07B68274A93420FD07B686D
:103E4000264A93420BD07B68254A934207D07B6871
:103E5000244A934203D07B68234A934208D1FB68EB
:103E600023F44073FB603B68DB68FA681343FB6034
:103E7000FB6823F080023B685B691343FB607B684F
:103E8000FA681A603B689A687B68DA623B681A686D
:103E90007B689A627B680A4A934203D07B680C4A2B
:103EA000934203D13B681A697B681A637B680122DD
:103EB0005A6100BF1437BD465DF8047B704700BFF0
:103EC000000001400004004000080040000C0040D9
:103ED000000401400040014000440140004801400E
:103EE00000180040001C00400020004080B487B053
:103EF00000AF786039607B681B6A23F001027B6841
:103F00001A627B681B6A7B617B685B683B617B68CC
:103F10009B69FB60FB6823F07003FB60FB6823F088
:103F20000303FB603B681B68FA681343FB607B6913
:103F300023F002037B613B689B687A6913437B61D2
:103F40007B68204A934203D07B681F4A93420CD17E
:103F50007B6923F008037B613B68DB687A69134364
:103F60007B617B6923F004037B617B68154A934284
:103F700003D07B68144A934211D13B6923F48073C8
:103F80003B613B6923F400733B613B685B693A69C1
:103F900013433B613B689B693A6913433B617B6810
:103FA0003A695A607B68FA689A613B685A687B682C
:103FB0005A637B687A691A6200BF1C37BD465DF898
:103FC000047B7047000001400004014080B487B0CA
:103FD00000AF786039607B681B6A23F010027B6851
:103FE0001A627B681B6A7B617B685B683B617B68EC
:103FF0009B69FB60FB6823F4E043FB60FB6823F4F0
:104000004073FB603B681B681B02FA681343FB604C
:104010007B6923F020037B613B689B681B017A6905
:1040200013437B617B68224A934203D07B68214A19
:1040300093420DD17B6923F080037B613B68DB6891
:104040001B017A6913437B617B6923F040037B6129
:104050007B68174A934203D07B68164A934213D178
:104060003B6923F480633B613B6923F400633B615C
:104070003B685B699B003A6913433B613B689B6902
:104080009B003A6913433B617B683A695A607B68DD
:10409000FA689A613B685A687B689A637B687A69B8
:1040A0001A6200BF1C37BD465DF8047B704700BF35
:1040B000000001400004014080B487B000AF786088
:1040C00039607B681B6A23F480727B681A627B68A4
:1040D0001B6A7B617B685B683B617B68DB69FB60BB
:1040E000FB6823F07003FB60FB6823F00303FB60B5
:1040F0003B681B68FA681343FB607B6923F4007319
:104100007B613B689B681B027A6913437B617B6818
:10411000214A934203D07B68204A93420DD17B69A8
:1041200023F400637B613B68DB681B027A691343FD
:104130007B617B6923F480637B617B68164A9342D1
:1041400003D07B68154A934213D13B6923F4805313
:104150003B613B6923F400533B613B685B691B0196
:104160003A6913433B613B689B691B013A691343FE
:104170003B617B683A695A607B68FA68DA613B6840
:104180005A687B68DA637B687A691A6200BF1C37F9
:10419000BD465DF8047B704700000140000401400B
:1041A00080B487B000AF786039607B681B6A23F405
:1041B00080527B681A627B681B6A3B617B685B6824
:1041C0007B617B68DB69FB60FB6823F4E043FB6099
:1041D000FB6823F44073FB603B681B681B02FA68B2
:1041E0001343FB603B6923F400533B613B689B68CE
:1041F0001B033A6913433B617B68124A934203D025
:104200007B68114A934209D17B6923F480437B6127
:104210003B685B699B017A6913437B617B687A69C0
:104220005A607B68FA68DA613B685A687B681A648E
:104230007B683A691A6200BF1C37BD465DF8047B93
:10424000704700BF000001400004014080B487B007
:1042500000AFF860B9607A60FB681B6A7B61FB683D
:104260001B6A23F00102FB681A62FB689B693B61D1
:104270003B6923F0F0033B617B681B013A69134300
:104280003B617B6923F00A037B617A69BB68134356
:104290007B61FB683A699A61FB687A691A6200BFC0
:1042A0001C37BD465DF8047B704780B487B000AF13
:1042B000F860B9607A60FB681B6A23F01002FB6843
:1042C0001A62FB689B697B61FB681B6A3B617B69C7
:1042D00023F470437B617B681B037A6913437B6122
:1042E0003B6923F0A0033B61BB681B013A691343A0
:1042F0003B61FB687A699A61FB683A691A6200BFA0
:104300001C37BD465DF8047B704780B485B000AFB4
:10431000786039607B689B68FB60FB6823F0700302
:10432000FB603A68FB68134343F00703FB607B685C
:10433000FA689A6000BF1437BD465DF8047B704789
:1043400080B487B000AFF860B9607A603B60FB680A
:104350009B687B617B6923F47F437B613B681A0226
:104360007B681A43BB6813437A6913437B61FB681C
:104370007A699A6000BF1C37BD465DF8047B7047C0
:1043800080B487B000AFF860B9607A60BB6803F0B2
:104390001F03012202FA03F37B61FB681A6A7B693F
:1043A000DB431A40FB681A62FB681A6ABB6803F0B9
:1043B0001F03796801FA03F31A43FB681A6200BF0E
:1043C0001C37BD465DF8047B7047000080B485B0A3
:1043D00000AF786039607B6893F83C30012B01D1E5
:1043E00002235AE07B68012283F83C207B6802228A
:1043F00083F83D207B681B685B68FB607B681B68FB
:104400009B68BB60FB6823F07003FB603B681B6824
:10441000FA681343FB607B681B68FA685A607B6824
:104420001B68214A934222D07B681B68B3F1804FFE
:104430001DD07B681B681D4A934218D07B681B689F
:104440001B4A934213D07B681B681A4A93420ED0D2
:104450007B681B68184A934209D07B681B68174A1F
:10446000934204D07B681B68154A93420CD1BB6809
:1044700023F08003BB603B685B68BA681343BB6092
:104480007B681B68BA689A607B68012283F83D20CC
:104490007B68002283F83C20002318461437BD4671
:1044A0005DF8047B704700BF00000140000400403D
:1044B00000080040000C00400004014000400140A2
:1044C0000018004080B483B000AF786000BF0C37A4
:1044D000BD465DF8047B704780B483B000AF786060
:1044E00000BF0C37BD465DF8047B704780B582B0D5
:1044F00000AF78607B68002B01D101233FE07B682F
:1045000093F83D30DBB2002B06D17B68002283F8A4
:104510003C207868FCF770FD7B68242283F83D20FE
:104520007B681B68DA687B681B6822F40052DA60DB
:10453000786800F07BFC7B681B681A697B681B68E5
:1045400022F490421A617B681B685A697B681B6879
:1045500022F02A025A617B681B68DA687B681B6854
:1045600042F40052DA607B6800221A647B682022E1
:1045700083F83D207B68202283F83E2000231846E4
:104580000837BD4680BD000080B5BAB000AF786086
:104590007B681B681B68C7F8E4307B681B68DB68B6
:1045A000C7F8E0307B681B685B69C7F8DC30002324
:1045B000C7F8D8300023C7F8D430D7F8E43003F078
:1045C0000F03C7F8D830D7F8D830002B0FD1D7F861
:1045D000E43003F02003002B09D0D7F8E03003F0DB
:1045E0002003002B03D0786800F065FB56E2D7F873
:1045F000D830002B00F0DE80D7F8DC3003F0010368
:10460000002B06D1D7F8E03003F49073002B00F0B4
:10461000D180D7F8E43003F00103002B0BD0D7F89A
:10462000E03003F48073002B05D07B681B6C43F0F3
:1046300001027B681A64D7F8E43003F00403002B0E
:104640000BD0D7F8DC3003F00103002B05D07B68DA
:104650001B6C43F002027B681A64D7F8E43003F065
:104660000203002B0BD0D7F8DC3003F00103002B42
:1046700005D07B681B6C43F004027B681A64D7F892
:10468000E43003F00803002B11D0D7F8E03003F03A
:104690002003002B05D1D7F8DC3003F00103002BF9
:1046A00005D07B681B6C43F008027B681A647B684A
:1046B0001B6C002B00F0ED81D7F8E43003F02003F1
:1046C000002B08D0D7F8E03003F02003002B02D0F5
:1046D000786800F0F0FA7B681B685B6903F04003C0
:1046E000402B0CBF01230023DBB2C7F8D4307B681A
:1046F0001B6C03F00803002B03D1D7F8D430002B38
:104700004FD0786800F0F8F97B681B685B6903F0AC
:104710004003402B41D17B681B681433C7F89C30A1
:10472000D7F89C3053E8003FC7F89830D7F8983056
:1047300023F04003C7F8D0307B681B681433D7F8E8
:10474000D020C7F8A820C7F8A430D7F8A410D7F80D
:10475000A82041E80023C7F8A030D7F8A030002BEC
:10476000D9D17B689B6B002B13D07B689B6B7D4AF8
:104770001A657B689B6B1846FCF7B9FF0346002B54
:1047800016D07B689B6B1B6D7A68926B10469847BE
:104790000EE0786800F09AF90AE0786800F096F97F
:1047A00006E0786800F092F97B6800221A6470E1F4
:1047B00000BF6EE17B681B6B012B40F04A81D7F88C
:1047C000E43003F01003002B00F04381D7F8E03011
:1047D00003F01003002B00F03C810023BB607B68DA
:1047E0001B681B68BB607B681B685B68BB60BB6841
:1047F0007B681B685B6903F04003402B40F0B4808A
:104800007B689B6B1B685B68A7F8BE30B7F8BE304F
:10481000002B00F040817B689B8DB7F8BE209A4248
:1048200080F039817B68B7F8BE20DA857B689B6BA6
:10483000DB69B3F5807F00F088807B681B680C33F0
:10484000C7F88830D7F8883053E8003FC7F884307D
:10485000D7F8843023F48073C7F8B8307B681B68BE
:104860000C33D7F8B820C7F89420C7F89030D7F8A1
:104870009010D7F8942041E80023C7F88C30D7F87F
:104880008C30002BD9D17B681B6814337B677B6F1E
:1048900053E8003F3B673B6F23F00103C7F8B43098
:1048A0007B681B681433D7F8B420C7F88020FB67F7
:1048B000F96FD7F8802041E80023BB67BB6F002B5E
:1048C000E1D17B681B6814333B663B6E53E8003FC5
:1048D000FB65FB6D23F04003C7F8B0307B681B68B5
:1048E0001433D7F8B020FA66BB66B96EFA6E41E8A9
:1048F00000237B667B6E002BE3D17B68202283F84C
:104900003E207B6800221A637B681B680C33FB64C3
:10491000FB6C53E8003FBB64BB6C23F01003C7F88B
:10492000AC307B681B680C33D7F8AC20BA657B656C
:10493000796DBA6D41E800233B653B6D002BE3D1F7
:104940007B689B6B1846FCF762FE7B689A8D7B68E0
:10495000DB8D9BB2D31A9BB21946786800F0C0F881
:1049600099E000BFBF4B00087B689A8D7B68DB8DA8
:104970009BB2D31AA7F8CE307B68DB8D9BB2002B9D
:1049800000F08B80B7F8CE30002B00F086807B687B
:104990001B680C33BB63BB6B53E8003F7B637B6BD3
:1049A00023F49073C7F8C8307B681B680C33D7F8C2
:1049B000C8207A643B64396C7A6C41E80023FB635D
:1049C000FB6B002BE3D17B681B6814337B627B6A33
:1049D00053E8003F3B623B6A23F00103C7F8C43051
:1049E0007B681B681433D7F8C4203A63FB62F96A0A
:1049F0003A6B41E80023BB62BB6A002BE3D17B68C2
:104A0000202283F83E207B6800221A637B681B68A3
:104A10000C333B613B6953E8003FFB60FB6823F0CC
:104A20001003C7F8C0307B681B680C33D7F8C02070
:104A3000FA61BB61B969FA6941E800237B617B696E
:104A4000002BE3D1B7F8CE301946786800F048F86B
:104A500023E0D7F8E43003F08003002B09D0D7F827
:104A6000E03003F08003002B03D0786800F0BBF83F
:104A700014E0D7F8E43003F04003002B0ED0D7F851
:104A8000E03003F04003002B08D0786800F0FBF81A
:104A900004E000BF02E000BF00E000BFE837BD4611
:104AA00080BD00BF80B483B000AF786000BF0C371A
:104AB000BD465DF8047B704780B483B000AF78607A
:104AC00000BF0C37BD465DF8047B704780B483B0EF
:104AD00000AF786000BF0C37BD465DF8047B7047BF
:104AE00080B483B000AF78600B467B8000BF0C378A
:104AF000BD465DF8047B704780B495B000AF786028
:104B00007B681B680C337B637B6B53E8003F3B6324
:104B10003B6B23F49073FB647B681B680C33FA6C6B
:104B20003A64FB63F96B3A6C41E80023BB63BB6BEF
:104B3000002BE5D17B681B6814333B623B6A53E86A
:104B4000003FFB61FB6923F00103BB647B681B68CA
:104B50001433BA6CFA62BB62B96AFA6A41E800239C
:104B60007B627B6A002BE5D17B681B6B012B19D123
:104B70007B681B680C33FB60FB6853E8003FBB603D
:104B8000BB6823F010037B647B681B680C337A6C72
:104B9000BA617B617969BA6941E800233B613B698D
:104BA000002BE5D17B68202283F83E207B68002221
:104BB0001A6300BF5437BD465DF8047B704780B56B
:104BC00084B000AF78607B689B6BFB60FB68002261
:104BD000DA85FB680022DA84F868FFF777FF00BF08
:104BE0001037BD4680BD80B485B000AF78607B686B
:104BF00093F83D30DBB2212B3ED17B689B68B3F547
:104C0000805F14D17B681B69002B10D17B681B6A05
:104C1000FB60FB681B881A467B681B68C2F30802AE
:104C20005A607B681B6A9A1C7B681A6208E07B6882
:104C30001B6A591C7A6811621A787B681B685A6073
:104C40007B68DB8C9BB2013B9BB27A681946D184AE
:104C5000002B0FD17B681B68DA687B681B6822F029
:104C60008002DA607B681B68DA687B681B6842F048
:104C70004002DA60002300E0022318461437BD46E4
:104C80005DF8047B704780B582B000AF78607B68C8
:104C90001B68DA687B681B6822F04002DA607B6878
:104CA000202283F83D207868FFF7FCFE0023184699
:104CB0000837BD4680BD80B58CB000AF78607B689A
:104CC00093F83E30DBB2222B40F0AB807B689B68D0
:104CD000B3F5805F17D17B681B69002B13D10023CC
:104CE000FB627B689B6ABB627B681B685B689BB2EC
:104CF000C3F308039AB2BB6A1A807B689B6A9A1C4A
:104D00007B689A6226E07B689B6AFB620023BB6239
:104D10007B689B68B3F5805F07D07B689B68002B3E
:104D20000AD17B681B69002B06D17B681B685B6816
:104D3000DAB2FB6A1A7008E07B681B685B68DBB25A
:104D400003F07F03DAB2FB6A1A707B689B6A5A1C15
:104D50007B689A627B68DB8D9BB2013B9BB27A6871
:104D60001946D185002B5AD17B681B68DA687B68AD
:104D70001B6822F02002DA607B681B68DA687B68B7
:104D80001B6822F48072DA607B681B685A697B6852
:104D90001B6822F001025A617B68202283F83E20C2
:104DA0007B681B6B012B35D17B6800221A637B6803
:104DB0001B680C337B617B6953E8003F3B613B69B7
:104DC00023F010037B627B681B680C337A6A3A62BB
:104DD000FB61F9693A6A41E80023BB61BB69002BBA
:104DE000E5D17B681B681B6803F01003102B0AD108
:104DF0000023FB607B681B681B68FB607B681B688B
:104E00005B68FB60FB687B689B8D19467868FFF7E1
:104E100067FE02E07868FFF74FFE002302E0002300
:104E200000E0022318463037BD4680BD2DE9B04F63
:104E3000C0B000AFC7F8F400D7F8F4301B681B69A6
:104E400023F44050D7F8F430D968D7F8F4301A6812
:104E500040EA01031361D7F8F4309A68D7F8F430C8
:104E60001B691A43D7F8F4305B691A43D7F8F4305A
:104E7000DB691343C7F8F830D7F8F4301B68DB68F8
:104E800023F4164121F00C01D7F8F4301A68D7F852
:104E9000F8300B43D360D7F8F4301B685B6923F418
:104EA0004070D7F8F4309969D7F8F4301A6840EABE
:104EB00001035361D7F8F4301A688F4B9A4205D03A
:104EC000D7F8F4301A688D4B9A4204D1FEF768FA8D
:104ED000C7F8FC0003E0FEF74FFAC7F8FC00D7F86C
:104EE000F430DB69B3F5004F40F00C81D7F8FC30AB
:104EF0000022C7F8E830C7F8EC20D7E93A45224647
:104F00002B469118B9655B41FB65D7E9162321460D
:104F100012EB0108294643EB01094FF000024FF064
:104F200000034FEAC90343EA58734FEAC8029046A8
:104F30009946234618EB0303C7F8E0302B4649EBAC
:104F40000303C7F8E430D7F8F4305B680022C7F8F1
:104F5000D830C7F8DC20D7E936120B46DB183B65A2
:104F6000134642EB03037B65D7E91423D7E93801E5
:104F7000FBF7DEF902460B46614BA3FB02235B09FC
:104F80001C01D7F8FC300022C7F8D030C7F8D42075
:104F9000D7E9348942464B469118B9645B41FB64BA
:104FA000D7E91223414612EB010A494643EB010BB4
:104FB0004FF000024FF000034FEACB0343EA5A736D
:104FC0004FEACA0292469B4643461AEB0303C7F8D0
:104FD000C8304B464BEB0303C7F8CC30D7F8F4305E
:104FE0005B680022C7F8C030C7F8C420D7E9301288
:104FF0000B46DB183B64134642EB03037B64D7E9A3
:105000001023D7E93201FBF793F902460B4611460C
:105010003B4BA3FB01235B09642202FB03F3CB1A86
:10502000DB0003F13202364BA3FB02235B095B007A
:1050300003F4F8731C44D7F8FC300022C7F8B830EA
:10504000C7F8BC20D7E92E8942464B469118B96370
:105050005B41FB63D7E90E2341465118396349464A
:105060004B417B634FF000024FF00003D7E90CABDC
:105070005946CB00514643EA51735146CA00104687
:105080001946034642469B18C7F8B0304B460A46BD
:1050900042EB0303C7F8B430D7F8F4305B68002262
:1050A000C7F8A830C7F8AC20D7E92A120B46DB189E
:1050B000BB62134642EB0303FB62D7E90A23D7E93D
:1050C0002C01FBF735F902460B460D4BA3FB0213EF
:1050D0005B09642101FB03F3D31ADB003233084A76
:1050E000A2FB03235B0903F00702D7F8F4301B6827
:1050F00022449A6006E100BF001001400014014004
:105100001F85EB51D7F8FC300022C7F8A030C7F854
:10511000A420D7E9288942464B46911839625B4161
:105120007B62D7E9082341465418494643EB010501
:105130004FF000024FF00003EB0043EA5473E2002B
:1051400014461D464346E318C7F898304B4645EBD6
:105150000303C7F89C30D7F8F4305B680022C7F827
:105160009030C7F894204FF000024FF00003D7E9C9
:10517000244529468B00214643EA917321468A0043
:10518000D7E92601FBF7D4F802460B46604BA3FB98
:1051900002235B091C01D7F8FC300022C7F88830D5
:1051A000C7F88C20D7E9228942464B469118B9614D
:1051B0005B41FB61D7E906234146511839614946F5
:1051C0004B417B614FF000024FF00003D7E904AB85
:1051D0005946CB00514643EA51735146CA00104626
:1051E0001946034642469B18C7F880304B460A468C
:1051F00042EB0303C7F88430D7F8F4305B68002231
:10520000BB67FA674FF000024FF00003D7E91E8931
:1052100049468B00414643EA917341468A00D7E9EB
:105220002001FBF785F802460B461146384BA3FBDD
:1052300001235B09642202FB03F3CB1A1B01323307
:10524000334AA2FB03235B0903F0F0031C44D7F8A5
:10525000FC3000223B677A67D7E91C8942464B46FF
:105260009118B9605B41FB60D7E9022341465118B0
:10527000396049464B417B604FF000024FF000031C
:10528000D7E900AB5946CB00514643EA517351462A
:10529000CA0010461946034642469B18BB664B4659
:1052A0000A4642EB0303FB66D7F8F4305B68002242
:1052B0003B667A664FF000024FF00003D7E9188989
:1052C00049468B00414643EA917341468A00D7E93B
:1052D0001A01FBF72DF802460B460D4BA3FB0213F8
:1052E0005B09642101FB03F3D31A1B013233084A23
:1052F000A2FB03235B0903F00F02D7F8F4301B680D
:1053000022449A6000BF07F58077BD46BDE8B08FA4
:105310001F85EB5180B485B000AF78603960002301
:10532000FB603B681A687B6853F82230FB60FA68C0
:10533000204B1340FB603B685A683B689B681A43EC
:105340003B68DB681A433B681B691A433B685B692F
:105350001A433B689B691A433B68DB691A433B6805
:105360001B6A1A433B685B6A1A433B689B6A1A4391
:105370003B68DB6A1A433B68DB6B1A433B681B6B79
:105380001343FA681343FB603B689B68082B03D107
:10539000FB6843F04003FB603B681A687B68F96870
:1053A00043F82210002318461437BD465DF8047BED
:1053B000704700BF8000F0FF80B487B000AFF86096
:1053C000B9607A6000237B617B685A1CFB6853F8E4
:1053D00022307B617B6903F040437B61BB681A68C4
:1053E000BB685B681B011A43BB689B681B021A43BE
:1053F000BB68DB681B041A43BB681B69013B1B05C8
:105400001A43BB685B69023B1B061A43BB689B6976
:1054100013437A6913437B617B685A1CFB68796983
:1054200043F82210002318461C37BD465DF8047B64
:105430007047000080B487B000AFF860B9607A6050
:105440003B6000237B613B68B3F5804F22D1FB6852
:105450007A6853F822307B617A69154B13407B617F
:10546000BB681A68BB685B681B011A43BB689B6812
:105470001B021A43BB68DB681B041A43BB689B69A9
:1054800013437A6913437B61FB687A68796943F84F
:10549000221005E0FB687A686FF0704143F8221033
:1054A000002318461C37BD465DF8047B704700BFDB
:1054B0000000F0CF80B500AF202102483FF032FB62
:1054C00000BF80BD1C28002080B400AF034B5B6C84
:1054D0001846BD465DF8047B704700BFE4270020F6
:1054E00080B584B000AF786039607B68002B29D02C
:1054F000386800F02DF83B689B68002B02D13868B3
:1055000000F0D1FF3B689B687A685A607B68184658
:105510003FF09CFBF860FB68002B01D100BFFDE76A
:10552000FB68002B10D0FB683A681A607B6818464D
:105530003FF046FC0246FB68934206D1786800F0D3
:1055400002FA02E000BF00E000BF1037BD4680BD98
:1055500090B585B000AF7860786800F08CFFB860D7
:10556000BB68002B6AD0BB68DB68002B33D0BB68FC
:10557000DB681B687A689A422DD1BB681B7F03F0F9
:105580000103DBB2002B04D0BA68137F23F00103C0
:105590001377BB6818463FF013FC0246BB68DB6814
:1055A0009A4215D1BB6818463FF01BFC0246BB6807
:1055B000DB689A420CD1BB68DB681C68B86800F0F5
:1055C000C9FA03461A461421204603F0EDFC02E016
:1055D000B86800F0B8F9BB68DB68002B08D0BB687E
:1055E000DB681B687A689A4202D1BB680022DA60E5
:1055F000BB6818463FF0E4FBF8601BE0FB681B68E3
:105600007A689A4210D1BB68F96818463FF052FB9D
:10561000F86844F019FF7B689B68002B10D07B680A
:105620009B6800225A600BE0BB68F96818463FF09F
:10563000E9FBF860FB68002BE0D102E000BF00E06E
:1056400000BF1437BD4690BD90B587B000AF7860FD
:105650007B68002B6ED0786800F00DFF38613B69E5
:10566000002B69D03B691B7F03F00103DBB2002BE9
:1056700064D10021386900F0E2F83B6918463FF038
:105680009FFB786152E07B691B687A689A4247D138
:105690003B69DB68002B1CD03B69DB681B687A68C0
:1056A0009A4216D03B69DB681C68386900F052FAF0
:1056B00003461A461421204603F076FC0346FB738A
:1056C000FB7B012B3CD13B69DB681B68184605F06E
:1056D000ADFD3B697A69DA603B69DB68002B31D04C
:1056E0003B691B69002B03D03B691B6938699847EC
:1056F0003B69DB681C68386900F02CFA03461A46DF
:105700001321204603F050FC0346BB73BB7B012BE7
:105710001AD13B69DB681B68184605F087FD11E06C
:105720003B69796918463FF06DFB78617B69002B16
:10573000A9D10AE000BF08E000BF06E000BF04E016
:1057400000BF02E000BF00E000BF1C37BD4690BDB7
:1057500080B584B000AF78607B68002B01D100BFBA
:10576000FDE70D4A0D49786800F01EF90346FB730A
:105770007B685B69002B0AD0FB7B83F00103DBB203
:10578000002B04D07B685B6901217868984700BFD3
:105790001037BD4680BD00BF054E0408C14D04084A
:1057A00080B584B000AF78607B68002B01D100BF6A
:1057B000FDE70D4A0D49786800F0F6F80346FB73E3
:1057C0007B685B69002B0AD0FB7B83F00103DBB2B3
:1057D000002B04D07B685B6900217868984700BF84
:1057E0001037BD4680BD00BF2F4E0408E34D0408AE
:1057F00080B584B000AF786039607B68002B01D140
:1058000000BFFDE7786800F05BF8F860FB68002BEC
:1058100001D101230FE08021F86800F011FE03465A
:10582000002B01D0012306E03B461A461121F868FF
:1058300003F0BAFB034618461037BD4680BD90B54D
:1058400087B000AF78600B46FB707B68002B01D1FE
:1058500000BFFDE7FB78FB757B681B7FC3F340034C
:10586000DBB21A46FB7D934224D0FB7D03F001039B
:10587000D9B27A68137F61F341031377786800F037
:105880001FF838613B69002B17D07B68DB681C6808
:10589000786800F05FF903461A461321204603F0AA
:1058A00083FB0346FB73FB7B012B05D1386905F0B5
:1058B000BDFC02E000BF00E000BF1C37BD4690BD4C
:1058C00080B483B000AF78607B68002B01D10023E7
:1058D00008E07B68DB68002B01D1002302E07B68D5
:1058E000DB681B6818460C37BD465DF8047B7047C3
:1058F00080B483B000AF78607B68002B01D10023B7
:1059000009E07B681B7FC3F34003DBB2002B14BFAD
:1059100001230023DBB218460C37BD465DF8047B3B
:10592000704780B582B000AF78607B68002B01D1F2
:1059300000BFFDE77B6818463FF08DFA0346184626
:105940000837BD4680BD80B584B000AF78607B6805
:105950001B7FC3F3C003DBB2FB737A68137F43F092
:10596000080313777B681B7F03F00403DBB2002B73
:1059700003D17868FFF7ECFE09E07B681B7F03F03A
:105980000403DBB2002B02D07868FFF709FFFB7B32
:1059900003F00103D9B27A68137F61F3C30313776D
:1059A00000BF1037BD4680BD90B58BB000AFF8602A
:1059B000B9607A600023FB75FB681B7F03F001036D
:1059C000DBB2002B01D0FB7DC0E0FB68DB687B62B3
:1059D00000233B620123FB770123BB777B6A002B0B
:1059E0001DD1FB681B7F03F00803DBB2002B02D143
:1059F0003B6A002B11D1BB7F83F00103DBB2002B8C
:105A000001D0FB7DA2E0FA68BB6810469847786237
:105A10000023FB770023BB7701E0FB7D96E03B6A28
:105A2000002B06D17B6A3B623B6A002B01D1FB7DD8
:105A30008CE0FB7F002B0BD0FA687B68796A1046FC
:105A4000984778627A6A3B6A9A4201D1FB7D7DE091
:105A50000123FB777B6A002B28D07B6A1B681846E2
:105A600000F0DDFC034603F08003002B20D17B6AAD
:105A70001B68BB610AE00121B86900F09DFC034688
:105A8000002B07D1B8690AF02BFBB861BB69002B6A
:105A9000F1D100E000BFBB69002B0BD00121B86938
:105AA00000F08AFC0346002B04D002E000BF95E71B
:105AB00000BF93E700BFFB68DB687A6A9A4201D1B6
:105AC000FB7D43E0FB68DB68002B18D0FB68DB68DC
:105AD0001C68F86800F03EF803461A461421204678
