:020000040800F2
:1000000000000220C9120008310D0008350D00085B
:10001000390D00083D0D0008410D000800000000EA
:10002000000000000000000000000000450D000876
:10003000490D0008000000004D0D0008510D00089A
:1000400019130008191300081913000819130008E0
:1000500019130008191300081913000819130008D0
:1000600019130008191300081913000819130008C0
:1000700019130008191300081913000819130008B0
:1000800019130008191300081913000819130008A0
:100090001913000819130008191300081913000890
:1000A0001913000819130008191300081913000880
:1000B00019130008550D000819130008191300083A
:1000C0001913000819130008191300081913000860
:1000D00019130008610D000819130008191300080E
:1000E0006D0D0008191300081913000819130008F2
:1000F0001913000819130008191300081913000830
:10010000191300081913000819130008191300081F
:10011000191300081913000819130008191300080F
:1001200019130008191300081913000819130008FF
:1001300019130008191300081913000819130008EF
:1001400019130008191300081913000819130008DF
:1001500019130008191300081913000819130008CF
:1001600019130008191300081913000819130008BF
:1001700019130008191300081913000800000000E3
:0801800019130008191300080F
:1001880010B5054C237833B9044B13B10448AFF3C9
:1001980000800123237010BDB00000200000000083
:1001A8002CB3050808B5034B1BB103490348AFF34B
:1001B800008008BD00000000B40000202CB3050832
:1001C80010F8012B11F8013B012A28BF9A42F7D0F9
:1001D800D01A7047034613F8012B002AFBD1181ACE
:1001E800013870477BB972B90029BEBF00204FF0B3
:1001F800004106E008BF00281CBF6FF000414FF027
:10020800FF3000F0D3B9ADF1080C6DE904CE002938
:1002180009DB002B1ADB00F04DF8DDF804E0DDE91E
:10022800022304B07047404261EB4101002B1BDB05
:1002380000F040F8DDF804E0DDE9022304B04042B4
:1002480061EB4101524263EB43037047524263EB57
:10025800430300F02FF8DDF804E0DDE9022304B0E1
:10026800404261EB41017047524263EB430300F0A7
:1002780021F8DDF804E0DDE9022304B0524263EB23
:100288004303704753B94AB9002908BF00281CBF67
:100298004FF0FF314FF0FF3000F088B9ADF1080C96
:1002A8006DE904CE00F006F8DDF804E0DDE902238C
:1002B80004B070472DE9F047089D8E4604468846ED
:1002C800002B4AD18A42174662D9B2FA82F64EB159
:1002D800C6F1200301FA06F820FA03F3B74043EA0F
:1002E8000808B4404FEA174E1FFA87FCB8FBFEF126
:1002F800230C0EFB118843EA084301FB0CF29A42D7
:1003080009D9FB1801F1FF3080F0EA809A4240F2E7
:10031800E78002393B449A1AA3B2B2FBFEF00EFB07
:10032800102243EA024300FB0CFC9C4509D9FB1848
:1003380000F1FF3280F0D6809C4540F2D3803B44E8
:10034800023840EA0140A3EB0C0300211DB1F34041
:100358000022C5E90032BDE8F0878B4205D90DB10E
:10036800C5E9000100210846F5E7B3FA83F1002941
:1003780046D1734502D3824200F20581841A6EEB9E
:10038800030201209046002DE5D0C5E90048E2E7C8
:10039800002A00F09080B2FA82F6002E40F0A48085
:1003A8008A1A030C4FEA174E80B2BCB20121B2FB85
:1003B800FEFC0EFB1C2243EA024304FB0CF29A42A9
:1003C80007D9FB180CF1FF3802D29A4200F2E080FC
:1003D800C4469B1AB3FBFEF20EFB123340EA0343FA
:1003E80002FB04F49C4207D9FB1802F1FF3002D249
:1003F8009C4200F2CA8002461B1B42EA0C40A5E759
:10040800C1F120068B4022FA06F71F430EFA01F4C9
:1004180020FA06F32EFA06FE4FEA1749234300FA9C
:1004280001F81FFA87FCBEFBF9F01C0C09FB10EE63
:1004380044EA0E4400FB0CFEA64502FA01F209D973
:100448003C1900F1FF3A80F09C80A64540F2998063
:1004580002383C44A4EB0E041FFA83FEB4FBF9F304
:1004680009FB13444EEA044403FB0CFCA44508D9D9
:100478003C1903F1FF3E80F08280A4457FD9023BFE
:100488003C4443EA0040A4EB0C04A0FB02EC6445A6
:100498007346E14662D35FD05DB1B8EB030264EB0B
:1004A800090404FA06F622FA01F31E43CC40C5E912
:1004B800006400214FE7B1FBF2FC010C41EA0E4158
:1004C80080B240EA01423B4638463C46B846BE4602
:1004D8002026B1FBF7F1A2EB080241EA0C4166E7DE
:1004E800014618E710462CE7C6F120022EFA02F35F
:1004F800B740B14020FA02F24FEA174E0A43B3FB65
:10050800FEF8BCB20EFB1833110C41EA034108FB9C
:1005180004F9B04089454FEA104380B23ED97918B2
:1005280008F1FF3C01D289451FD8A1EB0901B1FBB5
:10053800FEF909FB04F80EFB191192B242EA0142D6
:10054800424529D2BA1809F1FF31C4D24245C2D274
:10055800A9F102013A44BEE7F0459DD2BEEB020381
:100568006CEB070C0138E14696E7A7EB090949440B
:10057800A8F1020CB1FBFEF909FB04F8DBE77346AE
:100588007FE7504666E70846FDE63B44023A33E714
:10059800ACF1020C3B441CE749469CE7A1EB09017E
:1005A800C446B1FBFEF909FB04F8C4E7704700BF75
:1005B8002DE9F0411C4F80460E4638884FEA182135
:1005C80015461C4655F0C2FD388801305FFA88F19F
:1005D80080B255F0BBFD38880230290A80B255F048
:1005E800B5FD3888E9B20330104D80B255F0AEFD44
:1005F8002888310A55F0AAFD28880130F1B280B266
:1006080055F0A4FD28880230210A80B255F09EFDDD
:1006180028880330E1B280B255F098FDBDE8F0417A
:100628004FF4305055F07EBD304F01202E4F012041
:1006380070B50C468B89164605460A892088898834
:10064800FFF7B6FFA3682168581A6168E3685B1A68
:100658000133324600FB03330449054854F058FE81
:100668002846BDE870400BF039BB00BF00000860A9
:10067800D04B002010B501200C465AF053FC0B4B10
:1006880093F900201B78002A03DB002384F820302C
:1006980010BD13F00F03F9D0054A064B12881B88CA
:1006A800C4E90923012384F8203010BD3C4F012000
:1006B8004C4F0120404F012010B5002394B0CDE9E4
:1006C8000A33CDE90C33CDE90333CDE905332049AD
:1006D80001930793086C1F4A40F080500864096C26
:1006E80001F08051019101990293136843F480430A
:1006F8001360136801204FF4803103F48043CDE97F
:10070800080102934FF480010224CDE90E410298BA
:1007180004210220CDE912010422482308A81092DE
:10072800119354F0D5FA08B172B6FEE70F210346CB
:10073800CDE903144FF4805203A82146CDE90532D0
:10074800079354F0DBFC08B172B6FEE714B010BD95
:100758000038024000700040F0B500249DB053F00E
:10076800CFF9FFF7A9FFCDE91444CDE91644AC4B06
:10077800029418941A6BAB4842F004021A63196B7E
:1007880001F00401029102990394196B41F02001D0
:100798001963196B01F02001039103990494196BF3
:1007A80041F080011963196B01F0800104910499EB
:1007B8000594196B012211431963196B11400591B6
:1007C80005990694196B41F002011963196B01F040
:1007D8000201069106990794196B41F040011963CB
:1007E800196B01F04001079107990894196B41F0C2
:1007F80010011963196B01F0100108910899099407
:10080800196B41F0080119631B6B03F00803099386
:100818004FF40051099B53F075FC83480122802155
:1008280053F070FC81480122022153F06BFC012235
:100838007F4848F21F0153F065FC01254FF400532F
:10084800784814A90327CDE91435CDE91644802644
:1008580053F068FA744814A9CDE91647CDE9146530
:1008680053F060FA02237148149314A9CDE9155581
:10087800179753F057FA4FF4704200236D481695B6
:1008880014A9CDE9142353F04DFA112368481593A0
:1008980014A9CDE91644149753F044FA48F21C03FE
:1008A8006348149314A9CDE91555179753F03AFAEC
:1008B8004FF444134FF400525D48169514A9CDE93E
:1008C800142353F02FFA22462146282053F06AF9C0
:1008D800282053F0A3F95848DFF878C1574BC0E9EE
:1008E8000244C0E90544C0E907444FF48044C0E924
:1008F80000C3046153F062FE08B172B6FEE7034616
:100908004F48504F0361C0E90233C0E906334FF442
:10091800E133C0E900730C23436155F0E3F8034663
:1009280008B172B6FEE79FED367B8DED107B8DED3D
:10093800187B9FED357B0F90129017901A904248C4
:1009480080ED007B9FED327BC0E90233C0E90633BE
:10095800C0E90833C0E90D338DED0C7B03619FEDD1
:100968002E7BC3624364102343613C234FF48057BA
:100978000E9314AA08230CA98DED147B04638762D7
:10098800169354F07FFCE8B9304C314A0A9047235B
:10099800CDE90C00CDE90E00CDE91400CDE9160033
:1009A800CDE91800C4E900231A900B90A0602061DB
:1009B80040F2F3132046A661E36054F0C9FC18B175
:1009C80072B6FEE772B6FEE70CA920460C9754F003
:1009D800E7FE08B172B6FEE7204654F04BFD08B1B9
:1009E80072B6FEE7002200230AA92046CDE90A23B1
:1009F80055F034F880B372B6FEE700BFAFF300805D
:100A08001000000011000000000000A0040100A078
:100A18000F0000000F000000090000000F00000098
:100A28000038024000080240000002400004024072
:100A38000018024000140240AC4C0020801A060046
:100A4800204C002000100140D04B0020644C0020B6
:100A5800000400400058004016901890602614A921
:100A6800042220460027CDE9146754F093FD06467A
:100A780008B172B6FEE7204600F0A6F855F0A6FDCC
:100A88005AF08EF938F02EFE4FF4F0714FF448709A
:100A98000AF056FF0E4904460BF00AF94FF4964344
:100AA80032460C49009620460BF082F833F024FDBC
:100AB8002946044633F064FD0749204633F068FDB3
:100AC80000F068FB3DF0A0FF052053F047F8F9E778
:100AD80039060008CC0000207D06000882B00C4BC7
:100AE800002100915A6C42F480425A645A6C02F414
:100AF80080420092009A01911A6C42F080521A6466
:100B08001B6C03F080530193019B02B0704700BF38
:100B18000038024030B5184B026889B000249A4268
:100B2800CDE90244CDE90444069401D009B030BDB2
:100B3800124D00942B6B43F020032B632B6B03F0B7
:100B48002003009303221223CDE9022300980C48C6
:100B58000322042302A9CDE9052353F0E3F8019405
:100B68002B6C43F480032B642B6C03F480030193F8
:100B7800019B09B030BD00BF00580040003802405A
:100B8800001402400E4B02689A4200D0704700B52C
:100B980083B0002203F50D330192196C41F0020174
:100BA80019641B6C03F00203019311461D20019B7D
:100BB80052F0F8FF1D2003B05DF804EB53F02EB897
:100BC800000400400000000000B5174A016889B021
:100BD80000239142CDE90233CDE90433069302D0D4
:100BE80009B05DF804FB02F50D320193136B0F4851
:100BF80043F002031363136B9FED097B03F00203B9
:100C0800019301220323CDE9042302A902238DEDD8
:100C1800027B019A069353F085F809B05DF804FB4E
:100C28002000000002000000000400400004024010
:100C380030B51F4B026889B000249A42CDE90244BE
:100C4800CDE90444069401D009B030BD03F59433CE
:100C580000945A6C174842F010025A645A6C02F019
:100C680010020092009A01941A6B42F001021A6372
:100C78001B6B9FED0D7B03F00103019302A9072372
:100C88000322CDE905238DED027B019D53F04AF83F
:100C980022462146252052F085FF252052F0BEFF2E
:100CA80009B030BDAFF3008000060000020000006C
:100CB8000010014000000240174B1A6802B170474B
:100CC800D0B588B015490192012018608B6B034399
:100CD8008B638B6B4FF68070022103F00103CDE923
:100CE80002010193012603270C2402A90C48019B49
:100CF8000694CDE9046753F015F84EF2B372022357
:100D08000848069402A9CDE90467CDE9022353F007
:100D180009F808B0D0BD00BF004D002000380240DF
:100D280000100240000C0240FEE700BFFEE700BFD3
:100D3800FEE700BFFEE700BFFEE700BF704700BF49
:100D4800704700BF704700BF52F0F4BE014854F02E
:100D5800DBBD00BF644C0020014854F0C3BF00BF96
:100D6800204C00204FF4005053F0D2B9034AD2F877
:100D7800883043F47003C2F88830704700ED00E013
:100D880010B504463AF0F2FF0A2800D010BD054B12
:100D980001221868114600F069FA2046BDE81040A3
:100DA80000F03ABA184D002008B53AF0DFFF2628BF
:100DB80000D008BD034B002218680121BDE8084097
:100DC80000F066BA044D002010B53AF0CFFF0A28AB
:100DD80000D010BD064C01222068114600F058FAD8
:100DE800044B20681968BDE8104000F04FBA00BFF6
:100DF800044D00200C4D002010B53AF0B7FF0A282A
:100E080000D010BD064C01222068114600F040FABF
:100E1800044B20681968BDE8104000F037BA00BFDD
:100E2800044D0020084D0020F0B5002085B001F0E9
:100E38000DF9C34DC34F2860102101F01FF9C248B6
:100E48002C683AF057FBC0F30743C0F307228DF82C
:100E580002308DF800008DF8012020460099BB4C27
:100E6800002208F0D1FE0022FF21286808F0E0FEE9
:100E7800286844F007FCA821386003F003FB3868B1
:100E88004B2103F019FB38686FF0E90103F09AFA77
:100E980038686FF00F0103F0AFFA3868092103F0E2
:100EA80083FB38684FF4806101F0DEF83868102160
:100EB80001F0E4F8A6493868002208F0E5FE286841
:100EC80044F018FB00221921206044F01FFB002287
:100ED8001146206844F052FB206840F26F1103F07D
:100EE800D1FA2068132103F0E7FA20686C2103F097
:100EF80069FA20686FF0150103F07EFA092120686D
:100F080003F052FB934826683AF0F4FA0346C3F319
:100F18000722C3F307438DF806308DF804008DF8D7
:100F2800052030460199002208F092FE0022FF2198
:100F3800206808F0A1FE884826683AF0DBFA0346E4
:100F4800C3F30722C3F307438DF80A308DF808006E
:100F58008DF80920029930464FF4003208F054FE0B
:100F680020684FF40032FF2108F062FE206810224A
:100F7800002107F03FF8002803900CDD24681322B5
:100F88000021204607F036F801460391002220464A
:100F9800013108F031FE2868704C714E4BF062FA4E
:100FA8006FF04041206003F06DFA20686FF0404117
:100FB80003F082FA2068B42103F004FA20686FF085
:100FC800920103F019FA2068092103F0EDFA20686C
:100FD80064494BF053FA002263492068634C08F0D7
:100FE80053FE28684BF03EFA6FF04041206003F052
:100FF80049FA20686FF0404103F05EFA20686FF00C
:10100800E50103F0DFF920686FF00E0103F0F4F951
:101018002068092103F0C8FA206855494BF02EFAD8
:1010280000224B492068534C08F02EFE286851F0E6
:101038002DFEB221306003F025FA30682C2103F030
:101048003BFA30686FF0F90103F0BCF930686FF0D3
:10105800950103F0D1F93068092103F0A5FA306849
:10106800454952F0B7FA3068444952F057FB00221C
:101078003D49306808F008FE286851F007FEB121A4
:10108800206003F0FFF920682D2103F015FA20688D
:101098006FF0200103F096F920686FF0940103F0D7
:1010A800ABF92068092103F07FFA2068324952F031
:1010B80091FA2068314952F031FB00222449206816
:1010C80008F0E2FD28682E4D4AF086F903212860D1
:1010D8004AF0A2F9286840F2612103F0D3F92868A0
:1010E800F12103F0E9F928686FF0010103F06AF9CA
:1010F8002868722103F080F92868092103F054FA5E
:101108002868012100F0B0FF00231A4638681D49FD
:1011180002F0CAFB00231A4630681B4902F0C4FBE0
:1011280000231A461949206802F0BEFB002318491B
:1011380028681A4605B0BDE8F04002F0B5BB00BF0C
:10114800204D00201C4D0020A7DDC200184D0020B6
:10115800ECF105081C58E2000F78E700144D002058
:101168000C4D0020B8B30508443C0608104D00207B
:10117800C4B30508084D0020C0B30508D0B305085E
:10118800044D0020890D0008D10D0008010E00084B
:10119800B10D000810B584B00AF0B6FC044605206D
:1011A8003BF0B2FC0346C0F30721C0F3074200201E
:1011B8008DF808308DF809108DF80A203BF0A4FC52
:1011C800C0F30721C0F307428DF80C008DF80D100D
:1011D8008DF80E200D4B0093DDE902120023204606
:1011E80040F05CFA014620460AF0F6FEFFF71CFEC6
:1011F800002000F02BFF0649064B024608681A60DB
:1012080004B0BDE810400AF0AFBD00BF9CBC0508A3
:10121800204D0020244D002038B50F4B186852F09F
:1012280019FB0E4B0446186852F014FB054620467D
:1012380059F096FF0446284659F092FF084B094991
:101248000246224418684BF087F9074B01211868B9
:10125800BDE8384000F008BF0C4D0020084D0020C4
:10126800144D0020E0B30508044D002070B5044675
:101278000D46164644F0C2F9321E00EB050118BFB0
:1012880001222046BDE8704044F040B94AF0B0B8A9
:10129800022A04D00AB900F0E7BE00F0EFBE38B564
:1012A8000D46044601F0A0FA294620B12046BDE8C3
:1012B800384000F0E3BE2046BDE8384000F0D4BE18
:1012C800DFF834D00D480E490E4A002302E0D45806
:1012D800C4500433C4188C42F9D30B4A0B4C002376
:1012E80001E013600432A242FBD3FFF73FFD59F03F
:1012F800E7FFFFF731FA70470000022000000020E6
:10130800B000002040A20608B0000020985001203C
:10131800FEE700002DE9F047077F17F0010722D10B
:10132800C66805468946904616B1B246012708E0C8
:1013380088470646B8B18246306801F065FA030668
:1013480014D531462846C047504506460BD00028DC
:10135800F2D12B7F1A0706D52FB12846C847002798
:1013680006460028E8D10020BDE8F08734682CB98B
:1013780010E0204608F0DAFF044658B10121204663
:1013880001F032FA0028F4D02046012101F02CFAAD
:101398000028D6D1EB68B342E5D02BB30020D3F8B0
:1013A800008033F0DDF8044698B100270BE033F0F5
:1013B800FBF8034620469D4208BF274633F0D0F885
:1013C800044600283BD0204633F0E6F801282046A2
:1013D800EDD122461421404602F096F90128C2D1E7
:1013E800EB68186804F02CFCEE600020376833F0D6
:1013F800B7F8044690B100260AE033F0D5F8034662
:1014080020469D4208BF264633F0AAF80446F8B1A4
:10141800204633F0C1F801282046EED12246132198
:10142800384602F071F901289DD1EB68186804F07C
:1014380007FC2B690BB128469847012094E73C46E6
:1014480022461421404602F05FF901288BD1C7E7F4
:10145800344622461321384602F056F9012882D133
:10146800E3E700BF2DE9F041064601F0D9F900286D
:1014780054D0037F13F0010705464FD19A0717D5BB
:10148800C26867F34103037792B1D2F80080B8F1DC
:10149800000F0DD0384633F063F8044600284BD1CE
:1014A80022461321404602F02FF9012800F08280DD
:1014B80028463AF04DFF044620B92FE03AF050FF95
:1014C800044658B323689E4221462846F6D1EB6865
:1014D800002B43D0D3F8008046453FD0002033F09E
:1014E8003FF8064698B100270BE033F05DF8034655
:1014F80030469D4208BF374633F032F8064600288A
:1015080060D0304633F048F801283046EDD13246F5
:101518001421404602F0F8F801281BD0BDE8F081FC
:1015280033F042F8034620469D4208BF274633F071
:1015380017F80446002841D0204633F02DF801283A
:101548002046EDD122461321404602F0DDF801285D
:10155800AED12FE0EB68186804F072FB2B69EC60E1
:1015680013B128469847EC682768002032F0F8FF46
:10157800044690B100260AE033F016F803462046E8
:101588009D4208BF264632F0EBFF0446C0B1204614
:1015980033F002F801282046EED1224613213846BE
:1015A80002F0B2F80128B9D1EB68BDE8F04118683B
:1015B80004F046BB404604F043FB79E73C466FE73E
:1015C8003446EAE73E46A2E7014820213AF038BE11
:1015D800604D0020014B586C704700BF284D00201B
:1015E8002DE9F04182B0054601F01AF9F0B1C3685F
:1015F800044613B11B68AB421BD020463AF0A8FE44
:10160800014620B912E03AF0ABFE014670B10B6812
:10161800AB422046F7D101913AF072FE0199084693
:101628003FF07AF8AB680BB100225A6002B0BDE80F
:10163800F081037FDA0744BF23F0010303773AF010
:1016480087FEE36883422BD0227F42F0080323778A
:101658005B07C2F3C00615D4284A29492046FFF77C
:1016680059FE63690BB1002841D0237F66F3C30399
:101678002377E368002BC0D01B689D4204BF00237A
:10168800E360BAE71F4A20492046FFF743FE636933
:10169800002BEAD00028E8D1014620469847E4E725
:1016A80020463AF059FEE26890420346CCD1002029
:1016B800D3F8008032F054FF064690B100270AE0C4
:1016C80032F072FF034630469C4208BF374632F07C
:1016D80047FF064678B1304632F05EFF01283046B3
:1016E800EED132461421404602F00EF8C1E701213E
:1016F80020469847B9E73E46F3E700BF69C30308A9
:1017080059C3030871C3030861C30308A8B170B5BE
:101718000D4604460846FFF763FFAB6833B35C60C9
:1017280020463AF0D7FD064630B1056020463AF02B
:101738000FFE864202D070BDFEE77047227F42F05E
:10174800080323775B07C2F3C00514D51149124A71
:101758002046FFF7DFFD6369014613B108B920464B
:101768009847237F65F3C303237770BD284601F0AC
:101778005DF8AB68D3E7094A09492046FFF7CAFD77
:101788006269002AEDD00028EBD10121204690475C
:10179800E7E700BF61C3030871C3030869C303080F
:1017A80059C3030808B1FFF75DBE704768B110B5AB
:1017B8000446074A0749FFF7ADFD636933B128B905
:1017C80020460121BDE810401847FEE710BD00BFC4
:1017D80069C3030859C3030868B110B50446074A2A
:1017E8000749FFF797FD636933B128B901462046D9
:1017F800BDE810401847FEE710BD00BF71C30308DD
:1018080061C3030810B582B0019178B1C36873B1A0
:101818001C6864B18021204600F0FAFF38B901AA9B
:101828001121204601F070FF02B010BDFEE7012033
:1018380002B010BD68B3F8B5037FC3F340028A4213
:10184800054625D0C26861F34103037702B31768E0
:10185800F7B1002032F084FE044690B100260AE079
:1018680032F0A2FE034620469D4208BF264632F0CB
:1018780077FE044698B1204632F08EFE01282046B5
:10188800EED122461321384601F03EFF012801D04F
:10189800F8BDFEE73846BDE8F84004F0D1B9344653
:1018A80022461321384601F02FFF0128F0D1F1E735
:1018B80010B1C06800B10068704700BF10B1007F68
:1018C800C0F34000704700BF08B13AF051BDFEE7D1
:1018D8002DE9F041AEB006463AF048FA05463046E2
:1018E8003AF040FA1A2D044606D01D2D18D0202DA6
:1018F80059D02EB0BDE8F08130463AF03BFA037873
:10190800022B0546F5D02D220021204606F072FB59
:1019180006460990002800F0FD8002232B70E8E7B6
:10192800304601F0E3FF09AD064628460DF090FC6D
:1019380000212A4620460D9601F036F9352200216D
:10194800204606F057FB0590002840F0E1809DF8FE
:101958009820C2F340129DF89830002162F3451395
:1019680020466A228DF8983006F044FB6B22074621
:1019780005900021204606F03DFB059002463946B9
:10198800D4E90670236A6469CDE9070305A8CDE99F
:10199800054738F021FF05AA294630460DF0DCFC42
:1019A8002EB0BDE8F081304601F0A0FF05AA06463A
:1019B80001A9204605F0F0FE01A838F0FFFE20B985
:1019C80005A838F0FBFE002860D009AD28460DF0C8
:1019D8003FFC1D224FF48031204606F00BFB00909F
:1019E800C0B202288DF8520000F2078132224FF46B
:1019F8008031204606F0FEFAC3B2022B00908DF823
:101A0800533000F216813E224FF48031204606F012
:101A1800F1FAC3B2022B00908DF8553000F2FB802A
:101A28004FF48031204606F0B7FCFC280FD89DF80B
:101A3800523013FB00F3C3F307234FF0000263F3A4
:101A4800070263F30F228DF85530ADF85220BDF828
:101A5800523013B99DF85530C3B10C224FF4803180
:101A6800204606F0C7FA0090109001A838F0A6FEAC
:101A7800002840F0BA8005A838F0A0FE30B1012354
:101A8800294605AA30460B930DF066FC302200214A
:101A9800204606F0AFFA099000283FF42AAF352215
:101AA8000021204606F0A6FA099000283FF421AF4D
:101AB800002509A80DF0CCFB09AA294620468DF877
:101AC80052508DF84F50ADF854500D9601F06CF807
:101AD80029466A22204606F08DFA294607460590CF
:101AE8006B22204606F086FA05900246D4E9065095
:101AF800236A64693946CDE9070305A8CDE9054598
:101B080038F06AFE05AA09A930460DF025FCF0E672
:101B1800012220E701460C22204606F06BFA6A22D1
:101B2800074609903146204606F064FA6B22804643
:101B380009903146204606F05DFA09900246D4E93C
:101B480006E0D4F820C063694146CDE90B0C09A82A
:101B5800CDE9093E38F040FE68683A4609A939F0EF
:101B680029F810B901232B70C3E61D2231462046FF
:101B780006F040FAC3B2FC2B0590F3D96222314635
:101B8800204606F037FAC3B2FC2B0590EAD920228A
:101B98003146204606F02EFAC3B205908BB12522B5
:101BA8003146204606F026FAC3B2FC2B0590D9D957
:101BB80024223146204606F01DFAC2B2FC2A0590BE
:101BC800D0D926220021204606F014FA059048B103
:101BD800837A3BB1C278FC2AC4D9012B02D0037A9C
:101BE800FC2BBFD900232B7083E6002301AA2946CA
:101BF80030460B930DF0B0FB3DE71C224FF48031CB
:101C0800204606F0F7F90090ADF85600C0F30740FB
:101C18008DF85800EAE63C224FF48031204606F061
:101C2800E9F9002800902A9011DC00238DF855303E
:101C3800F6E630224FF48031204606F0DBF9002822
:101C48000090259019DC00238DF85330DBE6422202
:101C58004FF48031204606F0CDF93D2200902D90BA
:101C68004FF48031204606F0C5F90090ADF8A40085
:101C7800C0F307408DF8A600D2E631224FF4803138
:101C8800204606F0B7F90090ADF89000C0F3074081
:101C98008DF89200B7E600BF2DE9F0414E6882B09A
:101CA8000C462EB3304604F08BFE0746304604F04F
:101CB8007DFE1022804600213046B56906F09AF96B
:101CC8002B18A3EB0803A361013B019023621222A6
:101CD80000213046756906F08DF90544ED1B4BF679
:101CE80076336A1E6561E261636202B0BDE8F08125
:101CF80041F67603636202B0BDE8F08170B588B042
:101D08000D46044602F012FCEA06064623D4636A2E
:101D180023EA05036362EB0711D4204602F006FCB0
:101D2800864202D115F0C07F07D0204608F0FEFA9F
:101D380008B0BDE8704002F015BC08B070BD204680
:101D480003F07EFF204608F0F1FA02F00BFC204673
:101D580002F008FCE1E704AA6946204605F01CFDEC
:101D68006946204602F0FAFF04A9204602F0F6FF71
:101D7800CDE700BF10B508460C463AF005F800203C
:101D880006F032F9204607F037FD012006F02CF95D
:101D98000021204638F074FBCCB1A368B3B15A686F
:101DA80022B12046FFF71CFCA3687BB1186820B15C
:101DB8003EF0B2FCA36800221A6003F1080039F073
:101DC80083FFA0683EF0A8FC0023A36010BDFEE7D7
:101DD800F0B589B00D46044602F0A8FBE9070646AF
:101DE80027D4636A2B436362204602F09FFB864236
:101DF80006D115F0C07F03D1EB060BD409B0F0BDB6
:101E0800204608F093FA02F0ADFB204602F0AAFB48
:101E1800EB06F3D504AA6946204605F0BDFC6946E1
:101E2800204602F09BFF04A9204602F097FF09B064
:101E3800F0BD204603F004FF636A228D2B4392070E
:101E48006362D1D5A368002BCED05F68002FCBD0BA
:101E58003846FFF7ABFC3846FFF72AFD0028C3D009
:101E680003F0EEFEC0E700BF2DE9F04F048D8C4271
:101E78008BB008D00A460F462146054606F0F8F80A
:101E8800804618B92F850BB0BDE8F08F284603F0BF
:101E9800D7FE28462F8506F015FB4FF420703EF03C
:101EA80027FC6B8D13F4FC6F8246C3F3451B76D079
:101EB800EB6809950026FA43079303929C4631463E
:101EC8000894C1463D46DCF80440039B1FFA84FE93
:101ED8001EEA030FC4F3170440F091809CF8073002
:101EE80013F0020340F08B80079A52F83620177AD5
:101EF800D2F80080FF2F00F08880BA0042441FB952
:101F08007DE001339F427AD012F8010B6828F8D19E
:101F180058F82330D3F8008098F80000002800F023
:101F2800818004F47F07002950D0CDE904940693FA
:101F38005346002204E001328A4203F1140342D0DE
:101F48001C7A8442F7D15C6804F47F09B945F2D160
:101F5800A4B27445EFD38A4235D018F8010F00288F
:101F6800E6D1DDF8109001365E455ED020290CF1EF
:101F7800080CA8D12F46089C099DC84601EB810191
:101F88000AEB81095646716800963B46224601F4E1
:101F98007F012846143606F073FF4E45F3D15046AC
:101FA8003EF0BAFB08F0FD03012B45D0B8F1020F53
:101FB8007FF469AF284603F043FE28460BB0BDE81E
:101FC800F04F01F0E1BADDE90494069BD86801EB13
:101FD800810201312AF822000AEB82021869508036
:101FE8009868D06098F800001072586810615460C2
:101FF80018F8010F0028B6D0202996D1B3E701368A
:102008005E4512D00CF1080C5DE798F8003023B952
:10201800F5E718F8083F002BF1D0682BF9D1D8F86C
:10202800043077E70136B345ECD12F46089C099D6B
:10203800C8460029A2D1B2E7FF224FF470212846F2
:102048000BB0BDE8F04F06F07FBC00BF10B50146ED
:10205800044800F043FC20B1044600F0A3FC2046ED
:1020680010BDFEE7DCBB05080A4620B1436A9A4367
:1020780002D0FFF7ADBEFEE7704700BF18B1436A54
:10208800194201D17047FEE7FFF738BE60B12DE96C
:10209800F04F038D0D46194335EA030387B0044614
:1020A80003D107B0BDE8F08FFEE7FFF7DDFE636AF6
:1020B8005802F6D5204608F085F983460028F0D066
:1020C800002726463946304608F034F9044650B110
:1020D800038D45EA030135EA030304D0FFF7C4FE84
:1020E800636A590203D40137BB45EBD1D9E72046CF
:1020F80008F068F901900028F5D0CDE902764FF094
:10210800000A5146204608F015F9064650B1028DDE
:1021180045EA020135EA020204D0FFF7A5FE726A19
:10212800520207D4019B0AF1010A5345E9D1DDE9BE
:102138000276D8E7304608F045F907460028F1D07E
:10214800CDE904B44FF000094946304608F0F2F8EA
:10215800044650B1038D45EA030135EA030304D070
:10216800FFF782FE636A5B0206D409F101094F4555
:10217800EAD1DDE904B4D5E7204608F023F983461F
:102188000028F2D04FF000084146204608F0D2F867
:1021980010B12946FFF77AFF08F10108C345F3D1CA
:1021A800E3E700BF78B12DE9F04F028DCD438B46B0
:1021B80005EA0201AA4387B004461FFA85F803D14D
:1021C80007B0BDE8F08FFEE7FFF74EFE626A5002E7
:1021D800F6D5204608F0F6F882460028F0D000260A
:1021E8002546D9463146284608F0A4F8044650B199
:1021F800038D08EA030133EA080304D0FFF734FE2D
:10220800636A590203D40136B245EBD1D8E72046B8
:1022180008F0D8F801900028F5D0CDE902A64FF0D3
:10222800000BCDF800B004950099204608F082F81C
:10223800054650B1028D08EA020132EA080204D0CC
:10224800FFF712FE6A6A520209D4009B019A013311
:102258009A420093E8D1DDE902A6049DD3E7284617
:1022680008F0B0F806460028EFD000270594394654
:10227800284608F05FF8044650B1038D08EA0301C8
:1022880033EA080304D0FFF7EFFD636A5B0204D466
:102298000137BE42EBD1059CD7E7204608F092F8FB
:1022A80083460028F4D04FF0000A5146204608F033
:1022B80041F810B14946FFF775FF0AF1010AD34505
:1022C800F3D1E5E7F0B5084689B00E4639F04EFD82
:1022D8000446304639F046FD631E0546312B55D875
:1022E800DFE813F05C00540063005400540054000D
:1022F80054005400540054006A008B0054008D00B0
:1023080054005400A3005400C600EB0054005400CD
:1023180029012E0130015600ED00540056005400EA
:102328005400560054005400540054005400540003
:10233800540054005400F70054001E015400540087
:1023480054005400320032010A22002105F052FEE6
:102358001622044600212846049405F04BFE83B259
:1023680004900BB9E4B214B1284602F0FBF82846F1
:1023780008F028F8064648B10024AB681B6853F8F3
:102388002400013402F0EEF8A642F6D109B0F0BDFF
:10239800304609B0BDE8F040FFF79ABA2021284638
:1023A80009B0BDE8F040FFF771BE2021284609B00A
:1023B800BDE8F040FFF7F6BE2021FFF7F3FE3046F8
:1023C80039F0D8FC32F046FA0028DFD1002D00F0B1
:1023D800CC806B6A1E07D9D52B8DDC074FF0010125
:1023E800284600F12781FFF751FE002223212846C5
:1023F80009B0BDE8F04001F087B94021CFE740219E
:10240800FFF7D0FE284604F0A3FA0228BED104AA9A
:102418006946284605F0C0F96946284602F09EFC40
:1024280004A9284602F09AFCB0E700B3436A1807EB
:1024380000F1F38003F40163B3F5016FA6D12846D8
:1024480000F022FB0028A1D1284604F0B9FA07467B
:10245800284604F0CFFA0446304601F04FFAA0F1BE
:102468001103032B92D8DFE803F09481BEA2FEE7A4
:1024780010B3436A5B0500F1E380A86800B14068C7
:10248800FFF71CFA044632F075F8002800F0DC80EB
:1024980032F082F8022800F0BD8004280BBF0E211C
:1024A8000A2106230223002C7FF479AF1946284617
:1024B800FFF7ECFD082179E7FEE70E2176E700211A
:1024C80000F0F6FF0146304609B0BDE8F04001F0E3
:1024D8002DBA0122002105F08DFD022206460021B9
:1024E8002846049605F086FD0A2200210490074636
:1024F800284605F07FFD1622049004460021284650
:1025080005F078FD83B2049043B9E4B234B96FF0B2
:1025180040439E4202D09F427FF438AF284605E0F0
:1025280090F82A3043F0020380F82A3009B0BDE859
:10253800F04002F017B82021FFF734FE402135E7BC
:1025480010212CE7102131E707F03CFF0646002850
:102558003FF41CAF0024AB681B6853F82400013417
:1025680002F000F8A642F6D110E7FEE7284604F08C
:1025780017FA0446284602F0F5F8011EB8BF0331E1
:10258800002204EBA101284609B0BDE8F04004F0A0
:10259800B1BF284604F004FA0446284602F0E2F8DF
:1025A800011E00DA03310022A4EBA101EBE7284663
:1025B80004F0D8F98207ECD0002F01DC002CE8DD0C
:1025C800284604F0E7F90446284602F0C5F8011E3B
:1025D800B8BF03310022A4EBA101284609B0BDE829
:1025E800F04004F0B1BE284604F0BCF98107BDD024
:1025F800002F01DC002CB9DD284604F0CBF9044695
:10260800284602F0A9F8011EB8BF0331002204EBE6
:10261800A101E2E70E21062345E7304601F06EF9F5
:10262800A0F11103032B13D8DFE803F00702070218
:1026380001212846FFF7B6FDD7E601212846D2E654
:10264800012105F053F818E7304601F041F91FE77A
:102658000A283FF49BAEC8E62DE9F04F044685B042
:102668000E464AB138B1038D194336EA030327D120
:1026780005B0BDE8F08FFEE708B3038D1546CA43E1
:1026880002EA0301934397B2F2D0FFF7EDFB636AC6
:102698005902EDD5204607F095FE83460028E7D07D
:1026A8002946204607F046FE804620B1038D07EAFA
:1026B8000301BB4320D10135AB45F1D1D8E7FEE793
:1026C800FFF7D2FB636A5A02D2D5204607F07AFE9A
:1026D80080460028CCD000273946204607F02AFE3D
:1026E800054628B1038D46EA030136EA03032CD1D7
:1026F8000137B845F0D1BBE7FFF7B6FBD8F824306F
:102708005A02D8D5404607F05DFE82460028D2D04E
:10271800CDE901B54FF0000903944946404607F05A
:1027280009FE054648B1028D07EA0201BA4304D002
:10273800FFF79AFB6A6A530242D409F10109CA45B4
:10274800EBD1DDE901B5039CB5E7FFF78DFB6B6ABB
:102758005B02CDD5284607F035FE01900028C7D08A
:102768004FF000094946284607F0E4FD824658B173
:10277800028D46EA020136EA020205D0FFF774FB31
:10278800DAF82420500205D4019B09F101094B45D0
:10279800E8D1ADE7504607F015FE02900028F3D0C7
:1027A8004FF0000B5946504607F0C4FD10B13146B2
:1027B800FFF76CFC029B0BF1010B5B45F2D1E3E7E1
:1027C800284607F0FFFD83460028B6D0002421469E
:1027D800284607F0AFFD10B13146FFF7E3FC01349E
:1027E800A345F4D1A9E700BF28B1436A99430CBFB8
:1027F800012000207047FEE728B1436A194214BF40
:10280800012000207047FEE708B1008D7047FEE701
:1028180028B1038D194214BF012000207047FEE73C
:1028280018B1806800B140687047FEE720B183683E
:1028380010B504460BB110BDFEE734203DF058FF3B
:10284800A06030B1438E43F4707343F003034386B2
:1028580010BDFEE720B10068401AB0FA80F04009C8
:10286800704700BF2DE9F0470F683E680C460546E3
:102878005EB3D6F800800E60B8F1000F1FD0D8F80C
:102888000090C1F80080B9F1000F11D0D9F80020EC
:10289800C1F8009022B10A60FFF7E4FFC4F8009085
:1028A800D9F8043013B1214628469847C4F8008067
:1028B800D8F8043013B12146284698472660736833
:1028C80013B121462846984727607B6823B12146E3
:1028D8002846BDE8F0471847BDE8F08770B50D46B3
:1028E800064650B12E4C034601E01B682BB11A6A0C
:1028F80014EA0200F9D0C2F30F103DF0F9FE0446C5
:1029080000284AD0C0E90065ADB1AE68002E38D0C5
:10291800318E3068013189B2318689003DF006FF79
:10292800AA683060138E126803F18043013B42F8B5
:102938002340204670BD09F0E7F8064650B3D0F8AA
:10294800BC0218B3D6F8D832013399003DF0EEFE38
:10295800B0B1D6F8D832C6F8BC025A1C0025C6F861
:10296800D82240F82340C4E90555284609F0DCF888
:102978000138E061284609F0E9F801382062D8E713
:10298800FEE72846FFF752FFAE68C1E7C6F8D852FF
:102998000421DBE720463DF0BFFE0024C9E700BF65
:1029A800F0FF0F0000285CD0F8B5044601F0DAFD0E
:1029B800002005F019FB204641F076F925682E68BD
:1029C800BEB13768266077B13B6827602BB12360BA
:1029D80021462846FFF746FF27607B6813B121464A
:1029E800284698472660736813B1214628469847B9
:1029F80025606B6813B1214628469847012005F0E9
:102A0800F3FAFF224FF47021204605F09DFF20467F
:102A180001F0E2FEFEF7DEFD58B1226812B908E0C7
:102A2800126832B192F8203013F00C03F8D0042B5E
:102A380013D0204607F07AFC054668B122462A21C1
:102A480000F062FE224628462B2100F05DFE20465B
:102A5800BDE8F84003F0F4B8F8BD2146FEF756FE8D
:102A6800E7E7704710B50446006804E09847236814
:102A7800186838B1206083682146002BF6D10068B9
:102A88000028F7D110BD00BF006810B90CE000683D
:102A980048B190F8203013F00303F8D0A3F10100F7
:102AA800B0FA80F040097047704700BF70B586B033
:102AB8009DF828400193002A39D01346926C93F868
:102AC8004B50039209BB3CB125BB0198214606B087
:102AD800BDE8704038F0BCBC002DF6D08DF80F5022
:102AE800039B05939DF814309DF815109DF816204A
:102AF800204663F3070061F30F209DF8173062F357
:102B0800174063F31F6006B070BD06F0CBFE03905C
:102B1800050ED8E72146019838F09AFC8DF80F5039
:102B28000146039806B0BDE8704038F0B3BE06F021
:102B380037FF0390050EC6E770B586B0019352B310
:102B48001346966C93F849E092F8482093F84AC0E7
:102B580093F84B40A9B97146604638F0DBFCC0F3E6
:102B68000722C0F307438DF80D208DF80C008DF86F
:102B78000E3001990398224606B0BDE8704038F03F
:102B8800BBBD324606F08EFEC2B2C0F3072EC0F3BC
:102B9800074C040EDFE706F003FFC2B2C0F3072EAE
:102BA800C0F3074C040ED6E7F0B513698BB0144692
:102BB800C2E9000106460D46002B00F0248293F876
:102BC8004E70002949D10C222946304605F012FAE8
:102BD80094F82E300990E061002B40F0858194F83C
:102BE8002F30002B40F03E8194F83030002B40F01D
:102BF800A78094F82B30002B40D194F83130002B6B
:102C080040F0DB80FC2F26D894F82E1094F82F0083
:102C180094F8302011FB07F1C1F30721002310FBC2
:102C280007F061F30703001212FB07F2121260F3B8
:102C38000F2362F3174394F8312094F82B1012FBFA
:102C480007F211FB07F11212091262F31F6384F8ED
:102C58002B10C4F82E300BB0F0BD622205F0CAF973
:102C68000990C0B207FB00F0070A022FABD8002377
:102C780084F82B30C4F82E300BB0F0BD282229463A
:102C8800304605F0B7F9099020620028B5D029220E
:102C98002946304605F0AEF90990C0B2022884F8FA
:102CA8002B00AAD9206A0AF067FE022800F0B98131
:102CB8002A222946304605F09DF929460246079002
:102CC800304605F0D1F90990ADF81800C0F3074077
:102CD8008DF81A002B222946304605F08BF9099009
:102CE800C0B20090069B226929463046FFF7DEFEF7
:102CF800030EC2B2C0F30721089084F82C30C0F349
:102D0800074038F007FCC0F3072384F82800C0F315
:102D1800074084F82A0084F829302C2229463046B6
:102D280005F068F90990003818BF012084F82D00D3
:102D380089222946304605F05DF90990A0665CE7CE
:102D480038222946304605F055F90990A067002831
:102D58003FF44FAF3A222946304605F04BF9099027
:102D6800C0B2022884F830007FF643AF3B222946E0
:102D7800304605F03FF93922E06709902946304688
:102D880005F038F929460246304605F06DF90990F4
:102D9800C0F307408DF82600099B22692946304672
:102DA800FFF7CAFEC0F3072384F87500C0F3074095
:102DB80084F8763084F877001BE73C2229463046B1
:102DC80005F018F90990C4F8840000283FF41AAFF8
:102DD80094F83130022B7FF615AF3E222946304653
:102DE80005F008F9C3B2022B099084F831307FF658
:102DF80009AF40222946304605F0FCF84122C4F8C4
:102E0800880009902946304605F0F4F84222C4F8B3
:102E18008C0009902946304605F0ECF83D22C4F8AC
:102E2800900009902946304605F0E4F82946024604
:102E38000990304605F018F90890C0F307408DF85E
:102E48002200089B226929463046FFF775FEC0F329
:102E58000722C0F3074384F8800084F8812084F8AF
:102E68008230CFE630222946304605F0C3F8099073
:102E7800206700283FF4B8AE32222946304605F0D4
:102E8800B9F80990C0B2022884F82F007FF6ACAEDA
:102E980034222946304605F0ADF894F8743009908C
:102EA80060F3040384F8743031222946304605F073
:102EB800A1F829460246304605F0D6F80990C0F335
:102EC80007408DF82600099B226929463046FFF7FE
:102ED80033FEC0F3072384F86C00C0F3074084F87E
:102EE8006D3084F86E007FE61D222946304605F0D5
:102EF80081F80990C0B2022884F82E007FF66FAEE0
:102F08001C222946304605F075F8294602460290EB
:102F1800304605F0A9F8ADF81C000990C0F3074049
:102F28008DF81E00079B226929463046FFF704FEEC
:102F3800C0F3072384F83200C0F3074084F8340054
:102F480084F8333026222946304605F053F8099094
:102F580010B1C37A1A075DD120222946304605F000
:102F680049F894F84330099060F3030384F8433038
:102F78001B073FF434AE638E238794F8343084F80B
:102F88003A3023222946304605F034F829460246CD
:102F9800304605F069F8ADF820000990C0F3074005
:102FA8008DF82200089B226929463046FFF7C4FDA8
:102FB800C0F3072384F83D00C0F3074084F83E308F
:102FC80084F83F0021222946304605F013F82222D2
:102FD80084F83C0009902946304605F00BF8242275
:102FE80084F8410009902946304605F003F8252267
:102FF80084F83B0009902946304604F0FBFF09900D
:1030080084F84000EBE505F0C7F90746002D7FF48A
:103018002CAED8E50146302204F138003CF036FEEB
:10302800DDE55A222946304604F0E4FF5822606262
:1030380009902946304604F0DDFF294602460690ED
:10304800304605F011F80990C0F307408DF82600C6
:10305800099B226929463046FFF76EFDC0F3072316
:1030680084F82800C0F3074084F8293084F82A003F
:103078005EE600BFF0B5144685B0C2E900015922EA
:1030880006460D4604F0B6FFC3B2022B039084F83F
:103098005A3001D805B0F0BD2269002A6AD092F8EA
:1030A8004E70002D56D1FC2F07D813FB07F3C3F33E
:1030B800072384F85A30022BECD929465822304687
:1030C80004F098FF294602460390304604F0CCFFEE
:1030D800C0F30743ADF804008DF80630019B226960
:1030E800029029463046FFF727FDC0F3072384F8EE
:1030F8002C00C0F3074084F82D3084F82E002946B0
:103108005B22304604F076FF2946606302905C2219
:10311800304604F06FFF2946206302905D22304656
:1031280004F068FF94F85C30029060F3020384F8BE
:103138005C3029465A22304604F05CFF5E22034682
:10314800A06229463046029304F054FF84F85800E0
:1031580005B0F0BD62222946304604F04BFF0390CB
:10316800C0B200FB07F7C7F30727FC2F94F85A30C3
:10317800A1D89AE72946304605F00EF90746F4E744
:10318800F0B5144687B0C2E90001442206460D4650
:1031980004F030FFC3B2022B059084F8503001D8F8
:1031A80007B0F0BD2269002A7CD092F84E70002D3D
:1031B80068D1FC2F07D813FB07F3C3F3072384F860
:1031C8005030022BECD94FF48073002206F114071B
:1031D800C4E90D332263384638F010F800EBD0709C
:1031E80040106064384638F00FF800EBD07040109B
:1031F800A06445222946304604F0FCFE29460246D2
:103208000590304604F030FF4622C0F3074304908F
:10321800ADF80800294630468DF80A3004F0EAFE79
:10322800C3B200932269029B049029463046FFF7F7
:103238003DFC030EC2B2C0F3072184F84F30C0F33F
:10324800074038F067F9C0F3072384F84C00C0F34F
:10325800074084F84E0084F84D30892229463046CC
:1032680004F0C8FE04906065002D99D069222946B3
:10327800304604F0BFFE94F8513060F3030384F83D
:1032880051308DE762222946304604F0B3FE05909E
:10329800C0B200FB07F7C7F30727FC2F94F850309C
:1032A8008FD888E72946304605F076F80746F4E7D0
:1032B800F0B5144685B0C2E900014D2206460D4618
:1032C80004F098FEC3B2022B039084F83C3001D876
:1032D80005B0F0BD2269002A62D092F84E70002D28
:1032E8004ED1FC2F07D813FB07F3C3F3072384F849
:1032F8003C30022BECD948222946304604F07AFEAD
:10330800039020630028E3D04C222946304604F07D
:1033180071FE294602460390304604F0A5FEC0F32C
:103328000743ADF804008DF80630019B226902902E
:1033380029463046FFF700FCC0F3072384F82C0029
:10334800C0F3074084F82E0084F82D30492229461E
:10335800304604F04FFE0290606338BB4B2229468A
:10336800304604F047FE94F83D30003818BF01207D
:1033780060F3000360F3410384F83D3005B0F0BD0D
:1033880062222946304604F035FE0390C0B200FBA5
:1033980007F7C7F30727FC2F94F83C30A9D8A2E712
:1033A8002946304604F0F8FF0746F4E74A22294642
:1033B800304604F01FFE0290A063CFE7F0B5144634
:1033C80085B0C2E90001502206460D4604F012FEFF
:1033D8000390206208B905B0F0BD53222946304653
:1033E80004F008FEC3B2022B039084F83A30F2D9F5
:1033F8002269002A55D092F84E70002D38D1FC2F42
:1034080045D929465222304604F0F4FD29460246A1
:103418000390304604F028FEC0F30743ADF80400DB
:103428008DF80630019B2269029029463046FFF745
:1034380083FBC0F307232077C0F307406377A077A7
:1034480029465422304604F0D5FD512203466063D4
:1034580029463046029304F0CDFD94F83B300038FD
:1034680018BF012060F3000384F83B3005B0F0BDBD
:1034780062222946304604F0BDFD0390C0B200FB2D
:1034880007F7C7F30727FC2F94F83A3005D813FB42
:1034980007F3C3F3072384F83A30022BB1D805B0F9
:1034A800F0BD2946304604F077FF0746EBE700BF3A
:1034B800F0B53C2283B005460E4604F09BFD019012
:1034C800F0B9002438223146284604F093FD074617
:1034D8000190002843D131466A22284604F08AFD2B
:1034E8006B22074631462846019704F083FDB8420F
:1034F800B8BF38460028C8BF2418204603B0F0BD1E
:1035080004463E223146284604F074FDC3B2022B1D
:103518000190D6D942223146284604F06BFD04EBCF
:10352800D474641001344022019004443146284682
:1035380004F060FD4122074601903146284604F018
:1035480059FD002FB8BF7F4200280190B8BF404204
:10355800B842ACBF2418E41924EAE474B2E73A226A
:103568003146284604F046FD0190C0B20228B2D97F
:103578003B223146284604F03DFD0744BC420190F9
:10358800B8BF3C46A7E700BFA0B130B5856883B097
:10359800044605B1ED6A002301AA1B2120460193C8
:1035A80000F0B2F8A268019B52B1D3629D4202D1E9
:1035B80003B030BDFEE7204602F042FB03B030BD49
:1035C800002BF3D02046FFF731F9A268019BECE706
:1035D800806800B1C06A7047806818B190F83300FD
:1035E800C0F38100704700BFF8B5044630F0C2FF51
:1035F80020B1237E9A0710D4DB0710D42568AE6863
:1036080006B1083601222146304638F0E1FA012891
:1036180000D0F8BD237E9F0703D50120F8BD002008
:10362800F8BD2368186810B90DE0006858B1C36880
:10363800002BFAD00022E26021469847237EDA0761
:10364800EDD49807E9D400222146304638F0C0FA74
:103658000128DED1237E9907DFD4206806F066FEB4
:10366800237E064660B15A070AD4A3682B3B012B78
:1036780036D826602046FFF7B7FF0128C9D1237E38
:103688001F07CAD420684FF40011FFF7ADF80028CF
:10369800C3D0A368163B1E2B04D81A4A22FA03F398
:1036A800DE07BAD4284606F08DFE237E43F00403D5
:1036B80007462376002670B9AFE7284606F03AFE9B
:1036C8000346204623B12360FFF78EFF0128A0D1CF
:1036D8000136B742A1D0237E98073146EDD59CE745
:1036E80020684FF48041FFF77FF80028C7D0A3680F
:1036F800163B1E2BBDD8034A22FA03F3DB07B8D5C5
:10370800BDE700BFF19F7858F0B589B078B39DF850
:103718001830029123F00F03CDE900000024684619
:1037280004928DF81830039438F006FA30F022FF2E
:1037380030B19DF818309E0712D4DD0700F184805F
:10374800009DAE6806B1083601226946304638F059
:103758003FFA0128044604D19DF818309C070AD581
:103768000124684638F0F0F9204609B0F0BD01247C
:10377800204609B0F0BD009B186810B90EE000683B
:1037880060B1C368002BFAD00022039269469847BB
:103798009DF81830DA0757D49807E1D40022694613
:1037A800304638F015FA01280446DAD19DF8183069
:1037B8009907D5D4009806F0B9FD9DF8183004464D
:1037C80070B15A070CD4029B2B3B012B3ED868469C
:1037D8000094FFF709FF01280446C2D19DF818306C
:1037E8001E07BDD400984FF40011FEF7FDFF002816
:1037F800B6D0029B163B1E2B04D81D4A22FA03F3AF
:10380800DC07ADD4284606F0DDFD9DF8183043F0FE
:10381800040307468DF81830002678B9A0E7284633
:1038280006F088FD034668462BB10093FFF7DCFEDF
:103838000128044695D10136B74291D09DF8183039
:1038480098073146EBD58BE700248AE700984FF4B8
:103858008041FEF7C9FF0028C0D0029B163B1E2BF3
:10386800B5D8034A22FA03F3DF07B0D5B6E700BF9D
:10387800F19F785810B50C4690B1006810B90DE06A
:10388800006858B1C368002BFAD00022E2602146D4
:103898009847207EC04300F0010010BD012010BDF4
:1038A8000B681868EAE700BF80B12DE9F0410446CB
:1038B8000D4616461F46FEF7B9FFA0683B4632463E
:1038C80029460830BDE8F04138F08CB9FEE700BF62
:1038D8008268192A05D8044BD340DB0701D538F094
:1038E80049BA0020704700BF1EDF3B0383681C3BBA
:1038F800052B01D90020704738F03CBA08B5836819
:10390800112B01D0002008BD38F034FA0028F9D076
:10391800006808BD08B58368122B01D0002008BDD7
:1039280038F028FA0028F9D0006808BD83681B2BF6
:1039380000D0704710B50C4638F01CFA03689C425A
:10394800B8BF1C46046010BD08B500223521FFF73A
:10395800DBFE002008BD00BF2DE9F04F8BB091467B
:1039680004917022002105461E4604F043FB6E2296
:10397800074608900021284604F03CFB0446012C29
:1039880008904FF06F024FF000012846A246B8BFDA
:103998004FF0010A04F02EFB01288046BB46089030
:1039A800B8BF4FF0010817B9B4F5807F3AD071223B
:1039B8000021284604F01EFB7222089000212846A8
:1039C80004F018FB089A099002F0C041B1F1005FB9
:1039D800044647D004F0C041B1F1005F26D06969C0
:1039E8001144AA690891224409927EB908AB86F06D
:1039F800010601930498CDF80080029653465A4672
:103A0800494637F0D3FA0BB0BDE8F08F4FF6FF7296
:103A18000AEB0201C7F1000B4244B1FBFAFAB2FB10
:103A2800F8F8E3E7B0F5807FC1D1ECE724F0C041B6
:103A38006FF060408142D2D0B1F1805FA4BF6FF0D7
:103A48007042511A05F11400059137F0DDFB059914
:103A5800134A01FB00F082FB0012C017C0EB62148E
:103A6800089ABCE722F0C0416FF060408142B1D0B3
:103A7800B1F1805FA4BF6FF07042511A05F11400D4
:103A8800059137F0BBFB0599054A099C01FB00F03D
:103A980082FB0012C017C0EB621208929AE700BFBF
:103AA8001F85EB51F0B50D46D1E9021389B02A689C
:103AB8006E68009201330131CDE90223CDE9061386
:103AC800049101960596044600284DD02046FFF73C
:103AD80083FD022820463BD006F028FC0446002837
:103AE800F4D1069C0498029A009F079BDDF814E025
:103AF800DDF80CC0019E84422146A8BF01468442DD
:103B0800B8BF044673451846A8BF70467345B8BF8A
:103B180073466045A8BF60466345B8BF6346B04278
:103B2800A8BF3046B342B8BF3346BA42EB6013462B
:103B3800A8BF3B46BA42B8BF3A468B42A8BF0B461D
:103B4800A242B8BF224668602B60AA6009B0F0BDE7
:103B5800002304226946FFF7FFFE204606F0E6FB35
:103B680004460028B2D1BCE7B6469C460C46174628
:103B7800C8E700BFF0B5122283B00021044604F064
:103B880039FA3022064600212046019604F032FA1E
:103B98003422054601900021204604F02BFA00212A
:103BA800420701904FF01302204648BF761904F0EF
:103BB80021FA3022054601900021204604F01AFA25
:103BC8003422074601900021204604F013FA030727
:103BD800019004F1140048BFED1937F00FFB801B6A
:103BE800401B03B0F0BD00BFF0B5102283B0002128
:103BF800044604F0FFF930220646002120460196CB
:103C080004F0F8F93422054601900021204604F01A
:103C1800F1F90021820701904FF01102204648BFB8
:103C2800761904F0E7F93022054601900021204674
:103C380004F0E0F93422074601900021204604F000
:103C4800D9F9C307019004F1140048BFED1937F002
:103C5800DBFA801B401B03B0F0BD00BFF0B50D467A
:103C6800D0E90736D0E9051283B085E84E00122264
:103C78000021044604F0BEF93022064601900021D6
:103C8800204604F0B7F93422074601900021204667
:103C980004F0B0F92B680190400748BFF619334487
:103CA8002B6013220021204604F0A4F93022064696
:103CB80001900021204604F09DF90021074601905B
:103CC8003422204604F096F9AB680190010748BFFA
:103CD800F6199B1BAB6010220021204604F08AF9DC
:103CE8003022064601900021204604F083F9342250
:103CF800074601900021204604F07CF96B6801908A
:103D0800820748BFF61933446B6011220021204610
:103D180004F070F93022064601900021204604F094
:103D280069F93422074600212046019704F062F918
:103D3800C307EB6848BFF6199B1BEB6003B0F0BDE7
:103D48002DE9F04F6FF0404787B0B9420546009221
:103D58003FD001F0C043B3F1005F0C4603D02046CA
:103D680007B0BDE8F08F21F0C0466FF060439E4277
:103D7800F5D006F0DBFA90F82B1011F0080804468D
:103D880007D10222414604F035F9B842049000F008
:103D9800CB802046FFF728FFB6F1805FA4BF6FF005
:103DA80070439E1B884B06FB00F083FB0023C4175F
:103DB800182200212846C4EB631404F01BF91922C9
:103DC800064600212846049604F014F90644A41B6C
:103DD800C5E71468002CC2DA02F0E2FDAB680646BB
:103DE8000BB100225A6210220021284604F002F981
:103DF80030220490019000210746284604F0FAF882
:103E08003422049004460021284604F0F3F8049074
:103E1800800700F1858011220021284604F0EAF885
:103E28003022814604900021284604F0E3F800215E
:103E3800044604903422284604F0DCF8DFF890A108
:103E4800C10704AA4FF0340128464FF0000B48BFC1
:103E5800A144CDE904ABFFF757FC059C019B28461C
:103E68001C4406F0AFFA4C440746002800F0A68030
:103E7800CDE90269DFF858B1DFF858A14FF0000822
:103E880003E008F1010847453AD0AB681B6853F8CE
:103E9800286051463046FEF7AFFC0028F1D14B4967
:103EA8003046FEF7A9FC814650B9304606F03EFA86
:103EB80030B14946162204F09DF8049080B240B90A
:103EC8000A220021304604F095F810F0FC0F049007
:103ED8005AD1336AAA699B1A03F1010919220021F0
:103EE800304604F087F8049048445845C9DB30460A
:103EF8001922002104F07EF8049009EB000BC0E7BA
:103F0800AA68DDE902690AB173425362304B9B45E6
:103F180003D0CB445C45B8BF5C46009B1C601EE7E1
:103F28003B462344019376E710224146284604F095
:103F380061F83022064641460490284604F05AF8B3
:103F48003422044641460490284604F053F80021E0
:103F5800820704904FF01102284648BF361904F032
:103F680049F83022044600210490284604F042F81B
:103F78003422074600212846049704F03BF8C3077B
:103F880048BFE4193444EAE609220021304604F027
:103F980031F88146049010B1DFF834909EE706F1BD
:103FA800140037F031F9019B4946182200EB030948
:103FB800304604F01FF8049081448FE7AB68002B6B
:103FC800ABD077425F62A8E71F85EB51010006007E
:103FD800010000E0010004002DE9F04F6FF04046B9
:103FE800B14287B005463FD001F0C043B3F1005F4E
:103FF8000C4603D0204607B0BDE8F08F21F0C0473B
:104008006FF060439F42F5D006F090F990F82B10BE
:1040180011F01008044607D10122414603F0EAFFD7
:10402800B042049000F0EC802046FFF7A3FDB7F102
:10403800805FA4BF6FF07043DF1BB44B07FB00F039
:1040480083FB0023C4171A2200212846C4EB6314FB
:1040580003F0D0FF1B22064600212846049603F0F1
:10406800C9FF0644A41BC5E71468002C9046C1DAB2
:1040780002F090FCAB6802900BB100221A62132286
:104088000021284603F0B6FF30220490009000215A
:104098000646284603F0AEFF342204900446002169
:1040A800284603F0A7FF0307049002D533462344AC
:1040B800009312220021284603F09CFF302204902E
:1040C800019000210646284603F094FF342204900C
:1040D80004460021284603F08DFF470700F185803C
:1040E8008B4F04AA342128460026CDE90467FFF740
:1040F8000BFB019B049C1C44009B28461C4406F0B7
:1041080061F9272281460021284603F073FF0490B5
:10411800C0B2012800F0A480B9F1000F69D0DFF81F
:10412800F0B1DFF8F4A103940027AB681B6853F8DB
:10413800274051462046FEF75FFBE8B975492046FF
:10414800FEF75AFB064670BB204606F0EFF850B360
:104158003146162203F04EFF049080B218B3E66988
:104168006B69F61A01361B220021204603F042FF34
:104178000490304458452FDA0137B945D5D1644BFE
:10418800039C9B4535D0009A5A44A96811B1029BFB
:104198005B420B625E4B9A4202D09442B8BF14460F
:1041A800C8F8004026E70A220021204603F022FF33
:1041B8000490C0B2072803D89323C340D907CED4AC
:1041C80008220021204603F015FF06460490002827
:1041D80000F0AE804E4EC6E720461B22002103F0B9
:1041E80009FF049006EB000BC6E73346234401930E
:1041F80076E7AB68002BD3D0029A52421A62CFE717
:1042080012224146284603F0F5FE30220646414672
:104218000490284603F0EEFE3422044641460490FA
:10422800284603F0E7FE0021420704904FF01302EE
:10423800284648BF361903F0DDFE30220446002127
:104248000490284603F0D6FE34220746002128466B
:10425800049703F0CFFE030748BFE4193444C9E6C6
:10426800B9F1000FC5D02A4ADFF8ACB00394002793
:10427800924602E00137B9453ED0AB681B6853F857
:10428800274059462046FEF7B7FA0028F2D12149BF
:104298002046FEF7B1FA064650B9204606F046F821
:1042A80030B13146162203F0A5FE049080B268B9F9
:1042B8000A220021204603F09DFE0490C0B208287F
:1042C8002CD840F24913C340D80727D5EE69636953
:1042D800F61A01361A220021204603F08BFE0490BC
:1042E80030445045C6DB20461A22002103F082FEE6
:1042F800049006EB000ABDE7054B039C9A4552461D
:104308003FF477AF019B1A443FE700BF1F85EB518D
:10431800010000E00100060001000400082200215D
:10432800204603F067FE0646049078B10E4ED1E7AA
:1043380004F1140036F062FF019B31461B22C618B7
:10434800204603F057FE049006440CE704F11400DD
:1043580036F054FF009B31461A22C618204603F057
:1043680049FE04900644B5E7010000E008B370B5C3
:1043780082B00D461646002301AA0821044603F020
:1043880051FE012816D020B900222946204605F002
:104398001BFC002301AA0921204603F043FE012843
:1043A8000CD020B900223146204605F015FC02B099
:1043B80070BDFEE7019B9D42E6D1EAE7019B9E4264
:1043C800F0D1F4E790B130B583B00D46002301AACF
:1043D8000821044603F026FE012808D020B900224F
:1043E8002946204605F0F0FB03B030BDFEE7019BEF
:1043F800AB42F4D1F8E700BF90B130B583B00D46B9
:10440800002301AA0921044603F00CFE012808D064
:1044180020B900222946204605F0DEFB03B030BD56
:10442800FEE7019BAB42F4D1F8E700BF08B370B5D3
:1044380082B00D461646002301AA0121044603F066
:10444800F1FD012816D020B900222946204605F0A2
:10445800A3FB002301AA0221204603F0E3FD012863
:104468000CD020B900223146204605F0A5FB02B049
:1044780070BDFEE7019B9D42E6D1EAE7019B9E42A3
:10448800F0D1F4E790B130B583B00D46002301AA0E
:104498000121044603F0C6FD012808D020B90022F6
:1044A8002946204605F078FB03B030BDFEE7019BA6
:1044B800AB42F4D1F8E700BF90B130B583B00D46F8
:1044C800002301AA0221044603F0ACFD012808D00C
:1044D80020B900222946204605F06EFB03B030BD06
:1044E800FEE7019BAB42F4D1F8E700BFE0B110B59D
:1044F800044689B2002205F0D7FB94F82A3043F02D
:10450800010384F82A30204605F0DEFE90F82A20C0
:1045180042F0040280F82A2005F0DEFEBDE81040D3
:104528000022392107F044BDFEE700BF30B50C4931
:1045380083B00546FEF760F910B1002003B030BD26
:104548000446284605F0F2FE0028F6D01622214639
:1045580003F050FD80B2003818BF012003B030BD11
:104568000100060090F82A2042F0010208B580F800
:104578002A2005F0A9FE90F82A2042F0040280F8CB
:104588002A2005F0A9FEBDE808400022392107F0DD
:104598000FBD00BF08B505F097FE90F82A3043F02C
:1045A800080380F82A3008BD002205F01DBB00BFB3
:1045B80070B5044682B0154600221E4605F014FB6D
:1045C800ECB1002301AA0821204603F02BFD0128A5
:1045D80016D020B900222946204605F0F5FA002316
:1045E80001AA0921204603F01DFD01280CD020B99D
:1045F80000223146204605F0EFFA02B070BDFEE712
:10460800019B9D42E6D1EAE7019B9E42F0D1F4E787
:1046180058B110B4D0E90542D0E90730C1E90042E9
:10462800C8605DF8044B8B607047FEE728B3F0B5AF
:1046380083B0044605F07AFE0546F8B1436964691B
:10464800E41A02F0A7F9122204440021284603F0D4
:10465800D1FC3022064601900021284603F0CAFC0E
:104668003422074600212846019703F0C3FC43077C
:1046780048BFF619A01B03B0F0BDFEE7606903B0A0
:10468800F0BD00BF28B3F0B583B0044605F04EFE78
:104698000546F8B18369A469E41A02F081F9102289
:1046A80004440021284603F0A5FC30220646019068
:1046B8000021284603F09EFC3422074600212846A4
:1046C800019703F097FC830748BFF619A01B03B0B6
:1046D800F0BDFEE7A06903B0F0BD00BF70B32DE9DF
:1046E800F04182B0044605F021FE054638B3A369BF
:1046F80082699F1A02F054F91022074400212846C3
:1047080003F078FC3022064601900021284603F089
:1047180071FC3422804600212846CDF8048003F03D
:1047280069FC830748BF46440190BE1B04F114008E
:1047380036F06AFD304402B0BDE8F081FEE7A669B4
:10474800F4E700BF00B5092283B0002103F052FC52
:1047580003B05DF804FB00BF10B1143036F04EBD55
:10476800FEE700BF10B1143036F04EBDFEE700BFC3
:1047780008B1FFF7FFB9FEE708B1FFF735BAFEE762
:1047880008B1FFF76BBAFEE700B59FED077B83B072
:104798006A4634218DED007BFEF7B6FF009803B022
:1047A8005DF804FBAFF3008000000000010000E0AA
:1047B80000B59FED077B83B06A4634218DED007B01
:1047C800FEF7A2FF019803B05DF804FBAFF3008089
:1047D800010000E00000000030B5012283B0002194
:1047E800044603F007FC02220546002120460195F5
:1047F80003F000FC6FF040439D42019001D09842C5
:1048080017D194F82A3043F0010384F82A3020465F
:1048180005F05AFD90F82A2042F0040280F82A2078
:1048280005F05AFD0022392107F0C2FB012003B030
:1048380030BD002003B030BD2DE9F04F97B0814660
:104848008B4690461C4605F0BDFD002800F05481BB
:104858000025234682462C464D46C1469846AB68FD
:104868001B6853F824300493B8F1000F07D018469A
:104878004FF48021FDF7B8FF002840F03981049AF1
:1048880053695B44536193694B449361D3695B44B7
:10489800D361136A4B441362104605F093FD002858
:1048A80000F02681CDE90A58CDE908A4002704467E
:1048B800049B9B681B6853F82750D5E905025844A8
:1048C8004A44C5E90502EB692A6A5B444A44EB613C
:1048D8002A62284605F076FD0690002800F000813F
:1048E800CDE90C474FF00008AB681B6853F8284027
:1048F80063695B446361A3694B44A361E3695B44F7
:10490800E361236A4B442362204605F05BFD079070
:10491800002800F0DD80CDE90E54DA460026CB46AB
:104928000F9B9B681B6853F8264063695344636177
:10493800A3695B44A361E3695344E361236A5B446D
:104948002362204605F03EFD0390002800F0B88061
:104958005B4600273546D3462646CDF840803C4680
:104968009A46B3681B6853F824707B695B447B6183
:10497800BB695344BB61FB695B44FB613B6A5344BD
:104988003B62384605F01EFD002800F08E80D846B0
:104998004FF00009AB4601940546BB681B6853F805
:1049A8002940636943446361A3695344A361E3698C
:1049B8004344E361236A53442362204605F002FD21
:1049C80000286AD0CDE913750023CDE9116B059352
:1049D800CDF854908346A368059A1B6853F8226063
:1049E800736943447361B3695344B361F3694344DE
:1049F800F361336A53443362304605F0E3FC0746FB
:104A080000283FD00025B3681B6853F82590D9F8D3
:104A180014304344C9F81430D9F818305344C9F84D
:104A28001830D9F81C304344C9F81C30D9F8203064
:104A38005344C9F82030484605F0C4FCF8B10023B7
:104A480000930290D9F80830009A1B6853F82200A6
:104A5800426942444261826952448261C269424465
:104A6800C261026A52440023026241465246FFF77D
:104A7800E3FE009A531C029A00939A42E2D1013550
:104A8800AF42C0D1059B01339B450593A3D1DDE916
:104A9800116BDDE91375DDF8549009F101094D45F5
:104AA8007FF47BAF019C5D46C346039B0134A34260
:104AB8007FF457AF5346DDF84080DA462E469B46D2
:104AC800079B0136B3427FF42BAF0E9DD946D346E0
:104AD800069B08F1010843457FF406AFDDE90C4762
:104AE8000137BC427FF4E4AEDDE908A4DDE90A58E9
:104AF8000134A2457FF4B3AE17B0BDE8F08F00BF14
:104B0800002845D02DE9F0471D4603F00108AB0702
:104B18000E46174604461BD4B8F1000F29D020468C
:104B2800FEF75AFD0228204606D005F0FFFB044692
:104B38000028F4D1BDE8F08700233A463146FEF755
:104B48000BFF204605F0F2FB04460028E7D1F1E709
:104B5800FEF742FD8146B8F1000F10D1B9F1020FFE
:104B6800E8D101233A4631462046BDE8F047FEF732
:104B7800F3BEFEF731FD0228DCD14346F2E72046BA
:104B880005F0D4FB2B463A463146FFF7B9FFE5E777
:104B9800704700BF13460122FFF7B2BFF0B50C46BD
:104BA800D1E9001589B0CDE900150291E1680595B4
:104BB800A56801311346039107910135694604221E
:104BC80004950695FFF79CFF069ADDF810E0DDF8DE
:104BD80008C0009F079B059E039D019872451146DA
:104BE800A8BF71467245B8BF72466145A8BF614605
:104BF8006245B8BF6246B942A8BF3946BA42B8BF93
:104C08003A46B342A2601A46A8BF3246B342B8BF7A
:104C18003346AA42A8BF2A46AB42B8BF2B468242B7
:104C2800A8BF02468342B8BF034621606260E360C2
:104C380009B0F0BDF0B50E4689B001210446FDF774
:104C4800D3FD18B10027384609B0F0BD204605F05D
:104C58003BFB054605F040FB074607F049F885424F
:104C680013D0384607F050F885420ED0384607F082
:104C78006FF8854209D0384607F052F8854204D0CB
:104C8800384607F059F88542DCD12046FEF7A0FCEB
:104C9800A3690193E3690293236A03930246636954
:104CA80000930146684635F097FD6A46314630461E
:104CB80035F0B2FD07460028C4D023469A682AB1C9
:104CC80092F8332002F00C02082A42D05B68002BCD
:104CD800F4D1204605F02AFB04460028B3D004ADE1
:104CE80001212046FDF780FD0028ABD104F1140313
:104CF8000FCB85E80F004FF480112046FDF774FDB7
:104D0800C8B923469A682AB192F8332002F00C02F7
:104D1800082A19D05B68002BF4D12A463146304660
:104D280035F07AFD00288DD0204605F0FFFA0446BC
:104D38000028D5D187E72046FEF74AFC02460146FF
:104D4800284635F049FDDCE729462046FEF7AAFE4D
:104D5800E3E731462046FEF7A5FEBAE750B130B585
:104D680085B00D46044605F0B7FA07F087F910B983
:104D780005B030BDFEE76B680193D5E902232968C9
:104D8800009120466946CDE90223FFF753FF00282A
:104D9800EED0A3682BB193F8333003F00C03082B43
:104DA80007D0204605F098FA694605F0B9FF05B026
:104DB80030BD05221146684635F00EFDF1E700BF0B
:104DC8002DE9F04385B00446FEF702FC054620466F
:104DD800D4E90587E669D4F8209005F07DFA07F054
:104DE8004DF910B905B0BDE8F083A8EB05037F1BAA
:104DF8002E4469464D442046CDE90176009303953B
:104E0800FFF718FF0028EDD0A3682BB193F83330D3
:104E180003F00C03082B08D0204605F05DFA69461C
:104E280005F07EFF05B0BDE8F0830522114668460F
:104E380035F0D2FCF0E700BF002800F0A0802DE993
:104E4800F04790F82B3003F01803182B8AB004466B
:104E580000F09B8005F06AFA0746002800F095806C
:104E680094F82B3013F0100540F093804FF0FF3387
:104E7800012229462046029303F0BCF802AA014603
:104E880006902046FFF7A8F8042206462946204641
:104E980003F0B0F802AA014606902046FFF79CF8F6
:104EA800294680460522204603F0A4F802AA0146B6
:104EB80006902046FFF790F8864294F82B30A8BF5A
:104EC80006464645B8BF464613F0080904F11408DB
:104ED8006AD0404636F098F90546404636F08EF9D5
:104EE80086424DD02046FFF76BFFA3690393E36921
:104EF8000493236A059306A9636902933846FEF76B
:104F0800ADFE002206A902A835F054FE814600280D
:104F18007CD0A3692B44013B236227220021204631
:104F280003F068F8C3B2012B6BD063693344013BCB
:104F3800E36102AA31212046FEF7E6FB22462A2138
:104F48003846FEF7E1FB2046FFF73AFF94F82A308F
:104F580043F0020306A9404684F82A30002235F0BF
:104F680029FEB9F1000F00D110B1384602F038FC23
:104F78002046FEF709FB01200AB0BDE8F087FEE7EE
:104F8800404636F041F98542ACD100200AB0BDE870
:104F9800F08704F11408404636F030F994F82B30C5
:104FA80013F00809064694D14FF0FF330222494610
:104FB8002046029303F01EF802AA014606902046F6
:104FC800FEF7BEFE062205464946204603F012F8C3
:104FD80002AA014606902046FEF7B2FE49468246DE
:104FE8000722204603F006F802AA0146069020464A
:104FF800FEF7A6FE8542A8BF05465545B8BF5546EB
:105008006BE7E3699B1B0133636192E7384602F063
:10501800E7FB7EE72DE9F04FD0F8048089B006461B
:105028000C461546B8F1000F3ED04FF48021FDF72D
:10503800DBFB002800F0B080D8F81430D8F81870DE
:1050480004EB03092F4412220021404602F0D2FF4C
:105058003022044604900021404602F0CBFF34225F
:10506800054604900021404602F0C4FF0021420793
:1050780004904FF01002404648BF641902F0BAFF8E
:105088003022054604900021404602F0B3FF4C440C
:105098000490814634220021404602F0ABFF83078A
:1050A80048BF4D4404903D447369E41AB369ED1A4E
:1050B80054EA050365D03046FFF782FE7069B1698E
:1050C800F269336A0090019102920393B8F1000FDC
:1050D8005AD004A94046FEF7C1FD04A9002268463B
:1050E80035F068FD8246002866D0D6E90501D6E984
:1050F80007232044294422442B447061B161F261A2
:105108003362304605F05EF9814610B34FF0000B6C
:10511800B268116851F82B00476907EB040C8769DE
:10512800C0F814C007EB050CC769C0F818C007EB36
:10513800040C076AC0F81CC007EB050C00232A46BC
:105148002146C0F820C00BF1010BFFF775FBD945CC
:10515800DED1B8F1000F19D032462A214046FEF7B9
:10516800D3FA3046FFF72CFE002204A906F11400FA
:1051780035F020FDBAF1000F00D110B1404602F021
:105188002FFB09B0BDE8F08FC246B2E73046FFF703
:1051980017FE09B0BDE8F08F4046D8F8147001F04A
:1051A800F9FBA7EB00094046D8F8187001F0F8FBA6
:1051B8003F1AA1442F4446E7404602F011FB94E70A
:1051C8002DE9F04F87B0044605F0B0F80822002119
:1051D8000546204602F00EFF0922059006460021EA
:1051E8008346204602F006FF07460590002D00F092
:1051F800C78082462846FEF7BDFC00902846FEF789
:10520800F3FC06F0C043B3F1005F804675D007F0A9
:10521800C043B3F1005F4ED06C220021204602F05B
:10522800E9FE6D22074605900021204602F0E2FEC5
:10523800B946064605906CB304F11401029008467D
:10524800019135F0DBFF01990390084635F0DCFF4A
:1052580007F0C041B1F1005F029A019000F0988018
:1052680006F0C043B3F1005F00F0A980002192442A
:1052780020460A2202F0BEFE10F0FF01D944059034
:1052880009D08B1E072B0ED8DFE803F06158CE5DDE
:10529800D3706CBAFEE72846272202F0ABFE0590D1
:1052A800C0B201284AD052464946204607B0BDE858
:1052B800F04FFFF7AFBE27F0C0496FF06043994544
:1052C800AAD002220021284602F094FE6FF0404343
:1052D8009842059000F0B680B9F1805FC0F28680F0
:1052E8006FF070435A4AA3EB090308FB03F382FBF0
:1052F8000312DB17C3EB621A8EE726F0C0466FF085
:1053080060439E4283D001220021284602F072FEAB
:105318006FF040439842059000F09780B6F1805FA7
:10532800A4BF6FF070439E1B009B03FB06F6484B1F
:1053380083FB063BF617C6EB6B1B68E7009B039ADB
:105348009F1AB944AFE7019BA8EB0308C244039B2B
:10535800009A03EBD37302EBD2775B10C3EB6703BE
:105368009944A0E7009B039A9F1AB944019B03EB59
:10537800D37308EBD8785B10C3EB68039A4492E7C1
:1053880002463146204607B0BDE8F04FFFF742BE5F
:1053980027F0C0436FF060418B423FF461AFB3F137
:1053A800805FA4BF6FF07041CB1A039901FB03F330
:1053B800274981FB0319DB17C3EB691950E726F06E
:1053C800C0466FF060439E423FF450AFB6F1805F35
:1053D800A4BF6FF070439E1B019B1D4A03FB06F69A
:1053E80082FB0632F617C6EB62123FE7184B09FB41
:1053F80008F983FB093A4FEAE979C9EB6A1A0BE71E
:10540800039B0099019A03EBD37301EBD1775B10EF
:10541800C3EB670302EBD272994408EBD8785310B8
:10542800C3EB68039A443EE7019BA8EB0308C24418
:1054380039E7009B039A9F1A019BA8EB0308B9441C
:10544800C24430E74FF0000AE6E64FF0000BDEE614
:105458001F85EB5170B582B0054604F0B3FF0646D0
:1054680048B10024AB681B6853F824000134FFF7E7
:10547800F1FFA642F6D195F82A30DA0703D49B0744
:1054880016D402B070BD23F0010385F82A302846EF
:10549800FFF7D2FC16492846FDF7AEF90446A0B13D
:1054A8002846FFF78DFEF6B995F82A309B07E8D510
:1054B80095F82A30002123F00203284685F82A307F
:1054C80002B0BDE8704002F0C9B9284604F02EFFCA
:1054D8000028E5D01622214602F08CFD80B2002873
:1054E800DED0002EE0D0284633F090FCDCE700BF89
:1054F80001000600002800F096802DE9F04FDFF843
:1055080044861E4698F8643085B00C469246054697
:10551800002B00F08A80002C00F0BE80284604F0A2
:1055280005FF074600287FD01222002102F062FD05
:105538003022039083460021384602F05BFD342276
:10554800804603900021384602F054FD1022039053
:1055580000214007384648BFC34402F04BFD3022C3
:105568000390009000218146384602F043FD002157
:10557800039080463422384602F03CFD81070390B0
:1055880000F1248112220021204602F033FD30224E
:10559800039080460021204602F02CFD34228146EB
:1055A80003900021204602F025FD002142070390C8
:1055B8004FF01002204648BFC84402F01BFD3022BD
:1055C800039081460021204602F014FD3422039006
:1055D80001900021204602F00DFD830748BF019B82
:1055E800039048BF9944BAF1000F5DD00AF1FF3A21
:1055F800BAF1140F00F29D82DFE81AF0600085020C
:105608004301E301EF010C0225024F016D01800106
:105618008901A101B301BB01D2012C0235024D025F
:105628005F0267027402FEE7FEE7012388F8643030
:1056380004F04AFEDFF810950095B3460546264665
:1056480095F82A1011F0040200F0B38095F82A208A
:1056580022F00402284685F82A2004F0B3FE044606
:1056680048B10027AA68126852F827000137FFF7E7
:10567800F1FEBC42F6D195F82A10CA0774D48B07FC
:10568800E0D595F82A2022F0020285F82A20002188
:10569800284602F0E3F8D3E7284604F047FE04461C
:1056A80000287FF43BAFFEE751462722204602F050
:1056B800A1FC0390C0B2012800F0E38006F0C043CB
:1056C800B3F1005F00F0A4800E9B03F0C043B3F178
:1056D800005F7FD027220021384602F08BFC039020
:1056E800C0B20128636900F0B0801E447B69384667
:1056F800F61A01F065F90644A6EB0B06464438464F
:10570800D7F81880A46901F051F900220121074651
:10571800284604F069FA0023082103AA284602F063
:1057280081FC012800F0A88020B9314600222846D3
:1057380004F04AFA0E9BE118A1EB0801009B3944DA
:10574800C91A03AA002389442846092102F06AFCE1
:10575800012800F0E98120B900224946284604F0D2
:105768003BFA05B0BDE8F08F21F0010185F82A1059
:105778002846FFF761FB49462846FDF73DF80746EE
:1057880070B9284604F0D2FD50B13946162202F00D
:1057980031FC039080B218B13CB995F82A106EE735
:1057A8002846FFF70DFD002CF7D0284633F02EFBD6
:1057B800F3E70F0734465E46AB46009D51D40023FD
:1057C80088F86430002C7FF4A9AE65E74B46434463
:1057D8000093D7E60E9B23F0C04A6FF060439A45CA
:1057E8003FF478AF04F1140035F00EFDBAF1805F94
:1057F800A4BF6FF07042A2EB0A0AD04B00FB0AFA72
:1058080083FB0A234FEAEA7ACAEB63130E9361E734
:1058180026F0C04A6FF060439A453FF455AF04F153
:10582800140035F0EBFCBAF1805FA8BF6FF070424E
:10583800C24EA8BFA2EB0A0A00FB0AFA86FB0A3688
:105848004FEAEA7ACAEB66163EE77A693344384685
:105858009E1A01F0CFF83318A3EB0B0303EB0806ED
:105868004DE79BF82A30B64962F3C3038BF82A3018
:10587800584604F0C3FDA2E7039B9E427FF455AF50
:1058880058E72046FEF776F9824605F1140035F010
:10589800B5FCAAEB000AD04410E72046FEF76AF9E7
:1058A80005F1140382461846019335F0A7FCAAEBCC
:1058B800000AD0442046FEF797F9019B8246184615
:1058C80035F0A2FC00EBD0700AEBDA7A4310C3EB98
:1058D8006A039944F2E62046FEF74CF905F11403F1
:1058E80082461846019335F089FC00EBD0700AEB2C
:1058F800DA7A4210C2EB6A029044DBE705F1140041
:1059080035F082FC4FF00008C0F10009D6E604F13A
:10591800140035F073FC05F114098046484635F04B
:105928006DFC00EBD07008EBD8734FEA600848466E
:10593800C8EB630835F068FCC0F10009BEE604F165
:10594800140035F05BFC05F114098046484635F033
:1059580055FCA8EB0008484635F056FCC0F1000994
:10596800ACE604F1140035F04FFC4FF00008814616
:10597800A4E604F11409484635F040FC804605F1D8
:10598800140035F03BFC00EBD07008EBD8734FEAFD
:1059980060084846C8EB630835F036FC81468DE65A
:1059A80004F11409484635F029FC804605F1140035
:1059B80035F024FCA8EB0008484635F025FC814664
:1059C8007CE62046FEF710F9824605F1140035F012
:1059D8001BFCAAEB000AD14470E62046FEF7CAF881
:1059E80005F1140A0190504635F008FC019A00EBC5
:1059F800D07002EBD2724310C3EB62032046984486
:105A0800FEF7F2F80190504635F0FEFB019B1B1A99
:105A1800994453E62046FEF7ADF805F11403824693
:105A28001846019335F0EAFBAAEB000A2046FEF778
:105A3800DBF8019BD0448246184635F0E5FBAAEB1B
:105A4800000AD1443AE62046FEF7CEF8824605F130
:105A5800140035E705F1140035F0D0FB4FF00009CC
:105A6800C0F100082AE605F1140A504635F0C6FBD5
:105A7800C0F1000804F1140035F0C6FB8146504619
:105A880035F0C2FB00EBD07009EBD9734FEA60091F
:105A9800C9EB630912E605F1140A504635F0AEFB6E
:105AA800C0F1000804F1140035F0AEFB8146504601
:105AB80035F0AAFBA9EB000900E604F1140035F063
:105AC8009DFB4FF000098046F8E504F114094846AB
