:020000040800F2
:1000000000000220E9220008491A00084D1A0008E1
:10001000511A0008551A0008591A0008000000007B
:100020000000000000000000000000005D1A000851
:10003000611A000800000000651A0008691A00082B
:100040003923000839230008392300083923000820
:100050003923000839230008392300083923000810
:100060003923000839230008392300083923000800
:1000700039230008392300083923000839230008F0
:1000800039230008392300083923000839230008E0
:1000900039230008392300083923000839230008D0
:1000A00039230008392300083923000839230008C0
:1000B000392300086D1A0008392300083923000885
:1000C00039230008392300083923000839230008A0
:1000D0003923000839230008392300083923000890
:1000E000791A000839230008392300083923000849
:1000F0003923000839230008392300083923000870
:10010000392300083923000839230008392300085F
:10011000392300083923000839230008392300084F
:10012000392300083923000839230008392300083F
:10013000392300083923000839230008392300082F
:10014000392300083923000839230008392300081F
:10015000392300083923000839230008392300080F
:1001600039230008392300083923000839230008FF
:100170003923000839230008392300080000000053
:080180003923000839230008AF
:1001900010B5054C237833B9044B13B10448AFF3C1
:1001A00000800123237010BD280200200000000001
:1001B000A4F2050808B5034B1BB103490348AFF38C
:1001C000008008BD000000002C020020A4F20508F9
:1001D00010F8012B11F8013B012A28BF9A42F7D0F1
:1001E000D01A70470000000000000000000000006E
:1001F00001F0FF01102A2BDB10F0070F08D010F8D8
:10020000013B013A8B422DD010F0070F42B3F6D1DB
:10021000F0B441EA012141EA014122F007047FF0F4
:1002200000070023F0E80256083C85EA010586EA4B
:10023000010685FA47F5A3FA87F586FA47F6A5FA87
:1002400087F68EB9EED1F0BC01F0FF0102F0070293
:1002500032B110F8013B013A83EA010313B1F8D13E
:100260000020704701387047002D06BF354603381F
:10027000073815F0010F07D1013015F4807F02BF58
:10028000013015F4C03F0130F0BC0138704700BFA9
:10029000034613F8012B002AFBD1181A01387047C6
:1002A00081F0004102E000BF83F0004330B54FEA27
:1002B00041044FEA430594EA050F08BF90EA020F94
:1002C0001FBF54EA000C55EA020C7FEA645C7FEA27
:1002D000655C00F0E2804FEA5454D4EB5555B8BF4A
:1002E0006D420CDD2C4480EA020281EA030382EABB
:1002F000000083EA010180EA020281EA0303362D4D
:1003000088BF30BD11F0004F4FEA01314FF4801C1F
:100310004CEA113102D0404261EB410113F0004F31
:100320004FEA03334CEA133302D0524263EB4303E8
:1003300094EA050F00F0A780A4F10104D5F1200E86
:100340000DDB02FA0EFC22FA05F2801841F10001E1
:1003500003FA0EF2801843FA05F359410EE0A5F1B5
:1003600020050EF1200E012A03FA0EFC28BF4CF0E6
:10037000020C43FA05F3C01851EBE37101F000459C
:1003800007D54FF0000EDCF1000C7EEB00006EEBA9
:100390000101B1F5801F1BD3B1F5001F0CD3490833
:1003A0005FEA30004FEA3C0C04F101044FEA44528A
:1003B00012F5800F80F09A80BCF1004F08BF5FEA11
:1003C000500C50F1000041EB045141EA050130BDF1
:1003D0005FEA4C0C404141EB0101013C28BFB1F503
:1003E000801FE9D291F0000F04BF01460020B1FA4E
:1003F00081F308BF2033A3F10B03B3F120020CDA21
:100400000C3208DD02F1140CC2F10C0201FA0CF0FE
:1004100021FA02F10CE002F11402D8BFC2F1200C63
:1004200001FA02F120FA0CFCDCBF41EA0C01904019
:10043000E41AA2BF01EB0451294330BD6FEA040462
:100440001F3C1CDA0C340EDC04F11404C4F120024D
:1004500020FA04F001FA02F340EA030021FA04F35F
:1004600045EA030130BDC4F10C04C4F1200220FAB6
:1004700002F001FA04F340EA0300294630BD21FAF4
:1004800004F0294630BD94F0000F83F4801306BFBA
:1004900081F480110134013D4EE77FEA645C18BFAE
:1004A0007FEA655C29D094EA050F08BF90EA020F45
:1004B00005D054EA000C04BF1946104630BD91EA3D
:1004C000030F1EBF0021002030BD5FEA545C05D140
:1004D0004000494128BF41F0004130BD14F580047F
:1004E0003CBF01F5801130BD01F0004545F0FE41F3
:1004F00041F470014FF0000030BD7FEA645C1ABF28
:10050000194610467FEA655C1CBF0B46024650EA5E
:10051000013406BF52EA033591EA030F41F400218A
:1005200030BD00BF90F0000F04BF0021704730B510
:100530004FF4806404F132044FF000054FF00001E5
:1005400050E700BF90F0000F04BF0021704730B5A6
:100550004FF4806404F1320410F0004548BF40427B
:100560004FF000013EE700BF42004FEAE2014FEAD0
:1005700031014FEA02701FBF12F07F4393F07F4FAB
:1005800081F06051704732F07F4208BF704793F0AE
:100590007F4F04BF41F40021704730B54FF46074C1
:1005A00001F0004521F000411CE700BF50EA0102C4
:1005B00008BF704730B54FF000050AE050EA01026D
:1005C00008BF704730B511F0004502D5404261EBDD
:1005D00041014FF4806404F132045FEA915C3FF41E
:1005E000D8AE4FF003025FEADC0C18BF03325FEABB
:1005F000DC0C18BF033202EBDC02C2F1200300FA6C
:1006000003FC20FA02F001FA03FE40EA0E0021FA90
:1006100002F11444BDE600BF70B54FF0FF0C4CF47E
:10062000E06C1CEA11541DBF1CEA135594EA0C0F30
:1006300095EA0C0F00F0DEF82C4481EA030621EA6B
:100640004C5123EA4C5350EA013518BF52EA0335A6
:1006500041F4801143F4801338D0A0FB02CE4FF058
:100660000005E1FB02E506F00042E0FB03E54FF088
:100670000006E1FB03569CF0000F18BF4EF0010E80
:10068000A4F1FF04B6F5007F64F5407404D25FEA7C
:100690004E0E6D4146EB060642EAC62141EA55512F
:1006A0004FEAC52040EA5E504FEACE2EB4F1FD0C71
:1006B00088BFBCF5E06F1ED8BEF1004F08BF5FEAEF
:1006C000500E50F1000041EB045170BD06F00046A1
:1006D00046EA010140EA020081EA0301B4EB5C044E
:1006E000C2BFD4EB0C0541EA045170BD41F4801146
:1006F0004FF0000E013C00F3AB8014F1360FDEBF6B
:10070000002001F0004170BDC4F10004203C35DA46
:100710000C341BDC04F11404C4F1200500FA05F3C9
:1007200020FA04F001FA05F240EA020001F000426A
:1007300021F0004110EBD37021FA04F642EB0601E0
:100740005EEA430E08BF20EAD37070BDC4F10C040A
:10075000C4F1200500FA04F320FA05F001FA04F2CE
:1007600040EA020001F0004110EBD37041F10001BA
:100770005EEA430E08BF20EAD37070BDC4F12005C5
:1007800000FA05F24EEA020E20FA04F301FA05F22D
:1007900043EA020321FA04F001F0004121FA04F2D5
:1007A00020EA020000EBD3705EEA430E08BF20EAA5
:1007B000D37070BD94F0000F0FD101F000464000DF
:1007C00041EB010111F4801F08BF013CF7D041EA61
:1007D000060195F0000F18BF704703F00046520065
:1007E00043EB030313F4801F08BF013DF7D043EA36
:1007F0000603704794EA0C0F0CEA135518BF95EAEC
:100800000C0F0CD050EA410618BF52EA4306D1D172
:1008100081EA030101F000414FF0000070BD50EA91
:10082000410606BF1046194652EA430619D094EA1B
:100830000C0F02D150EA013613D195EA0C0F05D105
:1008400052EA03361CBF104619460AD181EA030159
:1008500001F0004141F0FE4141F470014FF0000011
:1008600070BD41F0FE4141F4780170BD70B54FF0AC
:10087000FF0C4CF4E06C1CEA11541DBF1CEA13552C
:1008800094EA0C0F95EA0C0F00F0A7F8A4EB05040E
:1008900081EA030E52EA03354FEA013100F0888005
:1008A0004FEA03334FF0805545EA131343EA1263CE
:1008B0004FEA022245EA111545EA10654FEA002683
:1008C0000EF000419D4208BF964244F1FD0404F53C
:1008D000407402D25B084FEA3202B61A65EB030598
:1008E0005B084FEA32024FF480104FF4002CB6EB55
:1008F000020E75EB030E22BFB61A754640EA0C00D5
:100900005B084FEA3202B6EB020E75EB030E22BF14
:10091000B61A754640EA5C005B084FEA3202B6EB55
:10092000020E75EB030E22BFB61A754640EA9C0014
:100930005B084FEA3202B6EB020E75EB030E22BFE4
:10094000B61A754640EADC0055EA060E18D04FEAA2
:10095000051545EA16754FEA06164FEAC30343EA42
:1009600052734FEAC2025FEA1C1CC0D111F4801F0F
:100970000BD141EA00014FF000004FF0004CB6E708
:1009800011F4801F04BF01430020B4F1FD0C88BFA7
:10099000BCF5E06F3FF6AFAEB5EB030C04BFB6EBB2
:1009A000020C5FEA500C50F1000041EB045170BDA5
:1009B0000EF0004E4EEA113114EB5C04C2BFD4EBD2
:1009C0000C0541EA045170BD41F480114FF0000E56
:1009D000013C90E645EA060E8DE60CEA135594EAD2
:1009E0000C0F08BF95EA0C0F3FF43BAF94EA0C0FD5
:1009F0000AD150EA01347FF434AF95EA0C0F7FF44A
:100A000025AF104619462CE795EA0C0F06D152EA9D
:100A100003353FF4FDAE1046194622E750EA410681
:100A200018BF52EA43067FF4C5AE50EA41047FF492
:100A30000DAF52EA43057FF4EBAE12E74FF0FF3CF7
:100A400006E000BF4FF0010C02E000BF4FF0010CC8
:100A50004DF804CD4FEA410C7FEA6C5C4FEA430C41
:100A600018BF7FEA6C5C1BD001B050EA410C0CBF90
:100A700052EA430C91EA030F02BF90EA020F0020F2
:100A8000704710F1000F91EA030F58BF994208BF59
:100A900090422CBFD8176FEAE37040F00100704716
:100AA0004FEA410C7FEA6C5C02D150EA013C07D16D
:100AB0004FEA430C7FEA6C5CD6D152EA033CD3D0B8
:100AC0005DF8040B704700BF8446104662468C46B2
:100AD0001946634600E000BF01B5FFF7B7FF0028E5
:100AE00048BF10F1000F01BD4DF808EDFFF7F4FF0E
:100AF0000CBF012000205DF808FB00BF4DF808ED99
:100B0000FFF7EAFF34BF012000205DF808FB00BFBB
:100B10004DF808EDFFF7E0FF94BF012000205DF8DD
:100B200008FB00BF4DF808EDFFF7CEFF94BF012092
:100B300000205DF808FB00BF4DF808EDFFF7C4FF8B
:100B400034BF012000205DF808FB00BF4FEA410CD4
:100B50007FEA6C5C02D150EA013C0AD14FEA430CB7
:100B60007FEA6C5C02D152EA033C02D14FF00000F4
:100B700070474FF0010070474FEA410212F5001232
:100B800015D211D56FF47873B3EB625212D94FEAD4
:100B9000C12343F0004343EA505311F0004F23FABE
:100BA00002F018BF404270474FF00000704750EA13
:100BB000013005D111F0004008BF6FF000407047D0
:100BC0004FF00000704700BF7BB972B90029BEBF6B
:100BD00000204FF0004106E008BF00281CBF6FF066
:100BE00000414FF0FF3000F0D3B9ADF1080C6DE9D2
:100BF00004CE002909DB002B1ADB00F04DF8DDF8EC
:100C000004E0DDE9022304B07047404261EB41019A
:100C1000002B1BDB00F040F8DDF804E0DDE90223E7
:100C200004B0404261EB4101524263EB4303704721
:100C3000524263EB430300F02FF8DDF804E0DDE9F6
:100C4000022304B0404261EB41017047524263EB22
:100C5000430300F021F8DDF804E0DDE9022304B0ED
:100C6000524263EB4303704753B94AB9002908BFA6
:100C700000281CBF4FF0FF314FF0FF3000F088B963
:100C8000ADF1080C6DE904CE00F006F8DDF804E0E3
:100C9000DDE9022304B070472DE9F047089D8E4638
:100CA00004468846002B4AD18A42174662D9B2FAD6
:100CB00082F64EB1C6F1200301FA06F820FA03F3DA
:100CC000B74043EA0808B4404FEA174E1FFA87FCC2
:100CD000B8FBFEF1230C0EFB118843EA084301FB2D
:100CE0000CF29A4209D9FB1801F1FF3080F0EA803A
:100CF0009A4240F2E78002393B449A1AA3B2B2FB0F
:100D0000FEF00EFB102243EA024300FB0CFC9C4564
:100D100009D9FB1800F1FF3280F0D6809C4540F2E3
:100D2000D3803B44023840EA0140A3EB0C0300218E
:100D30001DB1F3400022C5E90032BDE8F0878B42C7
:100D400005D90DB1C5E9000100210846F5E7B3FA60
:100D500083F1002946D1734502D3824200F2058116
:100D6000841A6EEB030201209046002DE5D0C5E900
:100D70000048E2E7002A00F09080B2FA82F6002EE6
:100D800040F0A4808A1A030C4FEA174E80B2BCB21E
:100D90000121B2FBFEFC0EFB1C2243EA024304FBD2
:100DA0000CF29A4207D9FB180CF1FF3802D29A4292
:100DB00000F2E080C4469B1AB3FBFEF20EFB123336
:100DC00040EA034302FB04F49C4207D9FB1802F1FA
:100DD000FF3002D29C4200F2CA8002461B1B42EA4C
:100DE0000C40A5E7C1F120068B4022FA06F71F430D
:100DF0000EFA01F420FA06F32EFA06FE4FEA17491E
:100E0000234300FA01F81FFA87FCBEFBF9F01C0C23
:100E100009FB10EE44EA0E4400FB0CFEA64502FA64
:100E200001F209D93C1900F1FF3A80F09C80A645F7
:100E300040F2998002383C44A4EB0E041FFA83FE72
:100E4000B4FBF9F309FB13444EEA044403FB0CFC26
:100E5000A44508D93C1903F1FF3E80F08280A445E7
:100E60007FD9023B3C4443EA0040A4EB0C04A0FBC6
:100E700002EC64457346E14662D35FD05DB1B8EBE6
:100E8000030264EB090404FA06F622FA01F31E4396
:100E9000CC40C5E9006400214FE7B1FBF2FC010C36
:100EA00041EA0E4180B240EA01423B4638463C46A8
:100EB000B846BE462026B1FBF7F1A2EB080241EA94
:100EC0000C4166E7014618E710462CE7C6F1200200
:100ED0002EFA02F3B740B14020FA02F24FEA174E61
:100EE0000A43B3FBFEF8BCB20EFB1833110C41EA07
:100EF000034108FB04F9B04089454FEA104380B232
:100F00003ED9791808F1FF3C01D289451FD8A1EBE1
:100F10000901B1FBFEF909FB04F80EFB191192B2AD
:100F200042EA0142424529D2BA1809F1FF31C4D23E
:100F30004245C2D2A9F102013A44BEE7F0459DD232
:100F4000BEEB02036CEB070C0138E14696E7A7EB1A
:100F500009094944A8F1020CB1FBFEF909FB04F8A8
:100F6000DBE773467FE7504666E70846FDE63B440D
:100F7000023A33E7ACF1020C3B441CE749469CE7DC
:100F8000A1EB0901C446B1FBFEF909FB04F8C4E773
:100F9000704700BF2DE9F0411C4F80460E4638884F
:100FA0004FEA182115461C4656F012FB38880130CE
:100FB0005FFA88F180B256F00BFB38880230290ABC
:100FC00080B256F005FB3888E9B20330104D80B28C
:100FD00056F0FEFA2888310A56F0FAFA28880130CD
:100FE000F1B280B256F0F4FA28880230210A80B2B9
:100FF00056F0EEFA28880330E1B280B256F0E8FAF3
:10100000BDE8F0414FF4305056F0CEBA24550120DF
:101010002255012070B50C468B89164605460A8973
:1010200020888988FFF7B6FFA3682168581A61688D
:10103000E3685B1A0133324600FB03330449054879
:1010400055F0DCFB2846BDE870400BF01BBE00BF2E
:1010500000000860604D002010B501200C465BF0D8
:10106000A3F90B4B93F900201B78002A03DB002324
:1010700084F8203010BD13F00F03F9D0054A064B59
:1010800012881B88C4E90923012384F8203010BD8D
:1010900030550120405501203455012070B50B4ECC
:1010A00002240125052303222146304654F07EFF09
:1010B00008B94F2D06D00234A4B20135FE2CEDB292
:1010C000F0D170BD024B9E221A7070BD3C4E0020C4
:1010D0005C4D002030B5002395B0CDE90A33CDE951
:1010E0000C33CDE90333CDE905332149019307934F
:1010F000086C204A40F080500864096C01F080516F
:10110000019101990293136843F4804313601368BB
:1011100001204FF4803103F48043CDE908010293AC
:101120004FF480010224CDE90E41029807210220EC
:10113000CDE912010422A82308A81092119355F0BA
:101140003DF808B172B6FEE70F220346CDE903244D
:101150004FF4A0554FF4805203A80521CDE9053581
:10116000079255F041FA08B172B6FEE715B030BDEE
:1011700000380240007000402DE9F04F2DED028B49
:1011800000249FB053F052FCFFF7A4FFCDE91644B2
:10119000CDE91844AB4B04941A941A6BAA48DFF8B3
:1011A000CC8242F004021A63196B01F0040104912D
:1011B00004990594196B41F020011963196B01F032
:1011C0002001059105990694196B41F0800119637E
:1011D000196B01F08001069106990794196B41F093
:1011E00001011963196B01F0010107910799089436
:1011F000196B41F002011963196B01F002010891AA
:1012000008990994196B41F040011963196B01F0B9
:101210004001099109990A94196B41F01001196371
:10122000196B01F010010A910A990B94196B41F0A6
:10123000080119631B6B03F0080322460B934FF45C
:1012400000510B9B54F0CCF880480122802154F0CF
:10125000C7F87F480122022154F0C2F801227D48DC
:1012600048F21F0154F0BCF801254FF400537648B2
:1012700016A90327CDE91635CDE91844802653F089
:10128000BFFE724816A9CDE91847CDE9166553F09F
:10129000B7FE02236E48169316A9CDE91755199784
:1012A00053F0AEFE4FF4805200236B48189416A9F9
:1012B000CDE9162353F0A4FE4FF4604200236648A4
:1012C000189516A9CDE9162353F09AFE112361480B
:1012D000179316A9CDE91844169753F091FE48F2DA
:1012E0001C035C48169316A9CDE91755199753F0BE
:1012F00087FE4FF444134FF400525648189516A930
:10130000CDE9162353F07CFE22462146282053F0D7
:1013100013FE282053F04CFE5048514BC0E90244C4
:10132000C0E90544C0E907444FF48044C0E90083A4
:10133000046154F0B1FA08B172B6FEE703464FF00B
:1013400010084FF011091190149019901C90454805
:10135000CDE91289CDE91A89DFF8149103614FF0C4
:101360002048C0E90233C0E90633C0E90833C0E9C8
:101370000D33C36243641023C0E9008943614FF019
:101380000F083C234FF00F09CDE90E894FF4805729
:1013900010934FF0090808234FF00F0916AA0EA961
:1013A000CDE9168904638762189355F0E1F908B115
:1013B00072B6FEE72C4CDFF8BCC00C905323CDE98D
:1013C0000E00CDE91000CDE91600CDE91800CDE9F9
:1013D0001A00C4E900C31C900D90A060206140F683
:1013E000FF732046A661E36055F028FA08B172B693
:1013F000FEE70EA920460E9755F0B0FC08B172B674
:10140000FEE7204655F0ACFA08B172B6FEE70022BE
:1014100000230CA92046CDE90C2355F0FDFD08B1B1
:1014200072B6FEE718901A906026042216A90027CB
:101430002046CDE9166755F08BFB0646E0B172B643
:10144000FEE700BF003802400008024000000240F2
:101450000004024000180240001402403C4E0020EC
:10146000801A0600604D0020F44D00200058004016
:10147000040100A000040040204600F041FA824828
:10148000C0E90266C0E906660661804E4FF4E133AA
:10149000C0E900630C23436155F002FE08B172B647
:1014A000FEE77B4E7B497C4AB0604FF48033CDE948
:1014B0001600CDE91800C6E900133061307686F8D1
:1014C0002000F06086F8300000233046C6E90A2389
:1014D000F561756153F0E8FA08B172B6FEE718904D
:1014E0000D22012316A93046CDE9162353F06AFCDC
:1014F00008B172B6FEE739F0CDF86848DFF8D4A13C
:10150000DFED678ADFF8888143F018FC0421654825
:1015100055F0B6FA56F09CFA5AF084FE4FF4F0718A
:101520004FF448700BF0E0F9002507465E490BF0D8
:1015300093FB4FF496432A465C49009538460BF0DE
:101540000BFB33F0ADFF0121064633F0EDFF5849A8
:10155000304633F0F1FF3946304633F0FDFF554F4A
:1015600000F090FD00F010FBFFF798FD67E0BDF87C
:101570005830DBBA5B1108EE103ABAEEEE8A4046FC
:1015800053F03EFB0A21404653F0BEFB002876D0C4
:101590000026DAF80030F31A002BB8BF5B42282B84
:1015A00003DD2368CAF800609E63002000F094FA0F
:1015B0000021022000F060FDBDEEC87A3E4A3F489F
:1015C000F8EEC77A17EE103A78EE677A142167EED4
:1015D000A87A4FF0010BFDEEE77ACDED007A5BF0D3
:1015E00019FD97E80E003548CDF800B000F026FD53
:1015F0001421022000F040FD07EE106ADFED307A82
:10160000B8EE477A67EE277A17EE900AFEF7ACFF3E
:101610002C4ACDE900013346142128485BF0FAFC3E
:1016200097E80E002548CDF800B000F007FD00F067
:101630005FFA4846052828BF052053F023FA3EF0FC
:10164000C3F9814653F018FA431BB3F5FA7FF0D380
:1016500053F012FA16AB00934FF0FF320223CDE99C
:101660000132194B0546197818480123002254F01D
:10167000E9FA00283FF47BAF9FED158A7FE74046EB
:1016800053F09CFB064684E7B04D0020001001405B
:10169000904E0020002001400100000F794A05080B
:1016A0000000C842F44D0020151000084802002038
:1016B000591000087CFB05081CF30508484D002064
:1016C0006840533A2CF305085C4D00203C4E002046
:1016D00000007AC4440200204FF0FF30704700BF82
:1016E00001207047022801D80120704708B55BF03F
:1016F00077FD09230360002008BD00BF01380128E1
:1017000010B50CD81446094A4FF0FF331068A2B246
:1017100055F058FD00280CBF2046052010BD5BF099
:101720005FFD092303604FF0FF3010BDD84E00204D
:10173000022801D80020704708B55BF051FD09234D
:1017400003604FF0FF3008BD08B55BF049FD092389
:1017500003604FF0FF3008BD08B558B9094A4FF093
:10176000FF331068012255F0F3FD002814BF052057
:10177000012008BD5BF034FD092303604FF0FF300A
:1017800008BD00BFD84E0020022808B504D84FF489
:1017900000534B60002008BD5BF022FD092303606D
:1017A000002008BD82B00C4B002100915A6C42F41D
:1017B00080425A645A6C02F480420092009A01916D
:1017C0001A6C42F080521A641B6C03F08053019330
:1017D000019B02B0704700BF0038024000000000CB
:1017E00000B5194A016889B000239142CDE902335E
:1017F000CDE90433069302D009B05DF804FB02F58D
:101800008C320093506C40F480705064506C00F443
:101810008070009000980193136B0C4843F0040310
:101820001363136B9FED067B03F00403019302A97E
:101830008DED027B019B53F0E3FB09B05DF804FBE7
:1018400008000000030000000020014000080240E2
:1018500030B5184B026889B000249A42CDE90244A1
:10186000CDE90444069401D009B030BD124D009476
:101870002B6B43F020032B632B6B03F020030093AF
:1018800003221223CDE9022300980C4803220423EB
:1018900002A9CDE9052353F0B3FB01942B6C43F46B
:1018A00080032B642B6C03F480030193019B09B02C
:1018B00030BD00BF00580040003802400014024014
:1018C0000E4B02689A4200D0704700B583B00022E8
:1018D00003F50D330192196C41F0020119641B6C80
:1018E00003F00203019311461D20019B53F024FBDA
:1018F0001D2003B05DF804EB53F05ABB0004004018
:1019000000B5154A016889B000239142CDE9023340
:10191000CDE90433069302D009B05DF804FB02F56B
:101920000D320193136B0D4843F002031363136BE5
:101930009FED077B03F00203019302A902238DEDC3
:10194000027B019A069353F05BFB09B05DF804FB40
:1019500020000000020000000004004000040240DB
:1019600010B51B4A016888B000239142CDE90233CB
:10197000CDE90433069301D008B010BD02F59432CE
:101980000093506C40F010005064506C00F0100058
:10199000009000980193136B0E4843F0010313630A
:1019A000136B9FED097B03F00103019303220723CF
:1019B00002A98DED027BCDE90523019C53F020FBAC
:1019C00008B010BDAFF30080000600000200000068
:1019D0000010014000000240174B1A6802B1704726
:1019E000D0B588B015490192012018608B6B034374
:1019F0008B638B6B4FF68070022103F00103CDE9FE
:101A000002010193012603270C2402A90C48019B23
:101A10000694CDE9046753F0F3FA4EF2B372022351
:101A20000848069402A9CDE90467CDE9022353F0E2
:101A3000E7FA08B0D0BD00BFDC4E002000380240FD
:101A400000100240000C0240FEE700BFFEE700BFAE
:101A5000FEE700BFFEE700BFFEE700BF704700BF24
:101A6000704700BF704700BF52F0FABF014855F001
:101A700029BA00BFF44D00204FF4005053F0B6BC1B
:101A80000C490D4A0B6810B50C4C121B2BB11844B5
:101A9000904207D80860184610BD094B0B601844E7
:101AA0009042F7D95BF09CFB0C2303604FF0FF33AF
:101AB000184610BDE04E0020000002200004000087
:101AC000A0560120034AD2F8883043F47003C2F8CC
:101AD0008830704700ED00E000284FF48262034830
:101AE00014BFFF2100215BF028BB00BFEC4E00209B
:101AF0002DE9F047DFF88C90214F86B0B0250DF12D
:101B000017084FF0000A01244FF0FF362346002249
:101B10007821CDE90146CDF8008038468DF8175080
:101B200053F082FF002278212346CDE90146CDF80B
:101B3000008038468DF817A053F076FF4FF0100C58
:101B4000002223467821CDE90146CDF800803846B1
:101B50008DF817C0254453F067FF8223CDE9013685
:101B6000CDF800904022234678213846EDB253F05C
:101B70005BFFB82D09F18209C5D106B0BDE8F08739
:101B80003C4E0020EC4E00202DE9F047642086B04A
:101B9000C24FDFF81093012400254FF0FF360DF1FE
:101BA000170852F06FFFAE2301948DF8173089F8B3
:101BB000055023462A460296CDF800807821384603
:101BC00053F032FF4FF0200A23462A46CDE9014662
:101BD000CDF80080782138468DF817A053F024FF07
:101BE00023462A46CDE90146CDF8008078213846C3
:101BF0008DF8175053F018FFB0238DF817302A4690
:101C00002346CDE90146CDF800807821384653F0CF
:101C10000BFFC8238DF817302A462346CDE901462D
:101C2000CDF800807821384653F0FEFE23462A4640
:101C3000CDE90146CDF80080782138468DF817505F
:101C400053F0F2FE10238DF817302A462346CDE9D3
:101C50000146CDF800807821384653F0E5FE402358
:101C60008DF817302A462346CDE90146CDF800808D
:101C70007821384653F0D8FE81238DF817302A4654
:101C80002346CDE90146CDF800807821384653F04F
:101C9000CBFE23462A46CDE90146CDF800807821C7
:101CA00038468DF8176053F0BFFEA1238DF817302A
:101CB0002A462346CDE90146CDF8008078213846F2
:101CC00053F0B2FEA6238DF817302A462346CDE9FD
:101CD0000146CDF800807821384653F0A5FEA823B0
:101CE0008DF817302A462346CDE90146CDF800800D
:101CF0007821384653F098FE3F238DF817302A4656
:101D00002346CDE90146CDF800807821384653F0CE
:101D10008BFEA4238DF817302A462346CDE90146D1
:101D2000CDF800807821384653F07EFED3238DF81D
:101D300017302A462346CDE90146CDF800807821A8
:101D4000384653F071FE23462A46CDE90146CDF8C8
:101D50000080782138468DF8175053F065FED52362
:101D60008DF817302A462346CDE90146CDF800808C
:101D70007821384653F058FEF0238DF817302A4664
:101D80002346CDE90146CDF800807821384653F04E
:101D90004BFED9238DF817302A462346CDE901465C
:101DA000CDF800807821384653F03EFE22238DF88E
:101DB00017302A462346CDE90146CDF80080782128
:101DC000384653F031FEDA238DF817302A46234681
:101DD000CDE90146CDF800807821384653F024FE45
:101DE00012238DF817302A462346CDE90146CDF857
:101DF00000807821384653F017FEDB238DF817302A
:101E00002A462346CDE90146CDF8008078213846A0
:101E100053F00AFE23462A46CDE90146CDF800805C
:101E2000782138468DF817A053F0FEFD8D238DF8EC
:101E300017302A462346CDE90146CDF800807821A7
:101E4000384653F0F1FD14238DF817302A46234607
:101E5000CDE90146CDF800807821384653F0E4FD05
:101E6000AF222346CDE90146CDF800808DF817203A
:101E700038462A4689F80540782153F0D5FD4FF4BD
:101E80008262294606485BF058F9FFF731FEC9F82F
:101E9000005089F8044006B0BDE8F0873C4E0020B1
:101EA000EC4E0020E44E00202DE9F04F87B0A0F169
:101EB000200506AC04E90E00EBB25E2B9DF840A0B5
:101EC00065D8059B002B00F0B180034413F8204C2B
:101ED00058490A8802EB040EBEF1820F57DC9DF8C8
:101EE0000D30B1F802C00CEB030140294FDC002B90
:101EF00047D0049903FB05F5002C42D02B4405F193
:101F00000045013DCDE9010E01EB45054A4E023980
:101F100001EB430B5FFA8CFC5FFA82F9BCF13F0FD7
:101F200005F1020525D801230CF0070E03FA0EFE79
:101F30004FEADC0202EB82126FEA0E079A40288811
:101F4000FFB24B46BAF1000F25D0BAF1010F4FF0A6
:101F500000014CD0812B03EB020E05D816F80E8041
:101F600007EA080806F80E80013101338C42DBB223
:101F7000F0D10CF1010C5D455FFA8CFCCED1DDE9AE
:101F8000010E2C4BA3F800E007B0BDE8F08F002055
:101F900007B0BDE8F08F514600950CE0812B05D8C5
:101FA00016F8058048EA0E0806F80580013101336D
:101FB000A142DBB213D000FA01F515F4004F03EB98
:101FC0000205EBD0812BF1D816F80580013107EA24
:101FD00008080133A14206F80580DBB2EBD1009D71
:101FE0000CF1010C5D455FFA8CFC97D1C7E70095B9
:101FF0000CE0812B05D816F8058048EA0E0806F893
:10200000058001310133A142DBB2E8D000FA01F5CD
:1020100015F4004F03EB0205EBD1812BF1D816F834
:10202000058007EA080806F80580EAE79DF80C40F5
:102030004EE700BFE44E0020EC4E002070B5054690
:1020400086B000789DF8286003AC84E80E0018B9CB
:102050000DE015F8010F50B194E80E000096FFF75F
:1020600023FF2B789842F4D0184606B070BD0023A9
:10207000184606B070BD00BF014B188059807047EC
:10208000E44E002010B584B03AF056FE1D4B1860A7
:102090000AF00EFD044605203BF016FD0346C0F392
:1020A0000721C0F3074200208DF808308DF8091091
:1020B0008DF80A203BF008FDC0F30721C0F307426A
:1020C0008DF80C008DF80D108DF80E200E4B00933E
:1020D000DDE902120023204640F0C0FA0146204606
:1020E0000AF04EFF00F022F8002000F0C3FF07497D
:1020F000074B024608681A6004B0BDE810400AF0B9
:1021000007BE00BF18530020B40306081453002074
:10211000FC52002010B504463AF000FE0A2800D018
:1021200010BD2046BDE8104000F0DCB870B50020BE
:1021300000F0A0FF5D4E5E4C3060102100F0B2FF59
:1021400030685C4D51F038FD4FF48D71206003F024
:10215000ADF9206840F2151103F0C2F92068CD21D5
:1021600003F044F920686FF0260103F059F9206864
:10217000092103F02DFA20684F4952F065FA002238
:10218000294620684D4C08F053FD30684BF000F9AB
:102190006FF04041206003F089F920686FF0404102
:1021A00003F09EF920687B2103F020F920686FF08E
:1021B000CC0103F035F92068092103F009FA206801
:1021C0003F494BF0F1F80022294620683D4C3E4D36
:1021D00008F02EFD306844F023FAA821206003F0B7
:1021E00065F92068322103F07BF92068374903F054
:1021F000FDF820686FF0960103F012F920680921BC
:1022000003F0E6F920684FF4806100F041FF206898
:10221000102100F047FF306848F0C4FC2C492860CA
:1022200048F0CCFC2868962103F040F928686FF04C
:10223000404103F055F928686FF04D0103F0D6F8DE
:1022400028686FF0950103F0EBF82868092103F086
:10225000BFF928681F4D4FF4806100F019FF306806
:102260004BF096F86FF04041286003F01FF92868A2
:102270006FF0404103F034F92868174903F0B6F8CD
:1022800028686FF0940103F0CBF82868092103F067
:102290009FF9286811494BF087F8002320681049FE
:1022A000BDE870401A4602F013BB00BF1453002073
:1022B000105300200439060840F305080C53002091
:1022C00050F305080853002004530020EEFEFFFFE2
:1022D0005CF3050800530020ECFEFFFF78F30508CF
:1022E00015210008704700BFDFF834D00D480E49B3
:1022F0000E4A002302E0D458C4500433C4188C4260
:10230000F9D30B4A0B4C002301E013600432A242C4
:10231000FBD3FFF7D7FB5AF069FFFEF72DFF70479D
:102320000000022000000020280200209C960608E1
:1023300028020020A0560120FEE700002DE9F0470A
:10234000077F17F0010722D1C668054689469046E7
:1023500016B1B246012708E088470646B8B1824662
:10236000306801F065FA030614D531462846C047A7
:10237000504506460BD00028F2D12B7F1A0706D510
:102380002FB12846C847002706460028E8D100207C
:10239000BDE8F08734682CB910E0204608F09AFFB9
:1023A000044658B10121204601F032FA0028F4D049
:1023B0002046012101F02CFA0028D6D1EB68B34267
:1023C000E5D02BB30020D3F8008033F09DF804460D
:1023D00098B100270BE033F0BBF8034620469D423E
:1023E00008BF274633F090F8044600283BD020462B
:1023F00033F0A6F801282046EDD1224614214046AC
:1024000002F096F90128C2D1EB68186804F02CFCA0
:10241000EE600020376833F077F8044690B100266C
:102420000AE033F095F8034620469D4208BF264651
:1024300033F06AF80446F8B1204633F081F80128F9
:102440002046EED122461321384602F071F90128C8
:102450009DD1EB68186804F007FC2B690BB1284686
:102460009847012094E73C4622461421404602F05A
:102470005FF901288BD1C7E734462246132138463D
:1024800002F056F9012882D1E3E700BF2DE9F041BF
:10249000064601F0D9F9002854D0037F13F0010754
:1024A00005464FD19A0717D5C26867F341030377F2
:1024B00092B1D2F80080B8F1000F0DD0384633F059
:1024C00023F8044600284BD122461321404602F04F
:1024D0002FF9012800F0828028463AF019FF0446BF
:1024E00020B92FE03AF01CFF044658B323689E42FF
:1024F00021462846F6D1EB68002B43D0D3F8008064
:1025000046453FD0002032F0FFFF064698B1002735
:102510000BE033F01DF8034630469D4208BF3746B6
:1025200032F0F2FF0646002860D0304633F008F85B
:1025300001283046EDD132461421404602F0F8F829
:1025400001281BD0BDE8F08133F002F80346204695
:102550009D4208BF274632F0D7FF0446002841D0ED
:10256000204632F0EDFF01282046EDD1224613210E
:10257000404602F0DDF80128AED12FE0EB68186884
:1025800004F072FB2B69EC6013B128469847EC68A5
:102590002768002032F0B8FF044690B100260AE018
:1025A00032F0D6FF034620469D4208BF264632F051
:1025B000ABFF0446C0B1204632F0C2FF01282046DE
:1025C000EED122461321384602F0B2F80128B9D1E3
:1025D000EB68BDE8F041186804F046BB404604F0E3
:1025E00043FB79E73C466FE73446EAE73E46A2E71D
:1025F000014820213AF004BE54530020014B586C8E
:10260000704700BF1C5300202DE9F04182B0054601
:1026100001F01AF9F0B1C368044613B11B68AB426C
:102620001BD020463AF074FE014620B912E03AF081
:1026300077FE014670B10B68AB422046F7D101919D
:102640003AF03EFE019908463FF046F8AB680BB100
:1026500000225A6002B0BDE8F081037FDA0744BF70
:1026600023F0010303773AF053FEE36883422BD053
:10267000227F42F0080323775B07C2F3C00615D41C
:10268000284A29492046FFF759FE63690BB1002803
:1026900041D0237F66F3C3032377E368002BC0D0C8
:1026A0001B689D4204BF0023E360BAE71F4A20492C
:1026B0002046FFF743FE6369002BEAD00028E8D1EB
:1026C000014620469847E4E720463AF025FEE268B6
:1026D00090420346CCD10020D3F8008032F014FFA2
:1026E000064690B100270AE032F032FF034630463A
:1026F0009C4208BF374632F007FF064678B13046A5
:1027000032F01EFF01283046EED1324614214046F9
:1027100002F00EF8C1E7012120469847B9E73E468E
:10272000F3E700BF21D3030811D3030829D303081B
:1027300019D30308A8B170B50D4604460846FFF743
:1027400063FFAB6833B35C6020463AF0A3FD0646F6
:1027500030B1056020463AF0DBFD864202D070BD04
:10276000FEE77047227F42F0080323775B07C2F33E
:10277000C00514D51149124A2046FFF7DFFD6369F1
:10278000014613B108B920469847237F65F3C30378
:10279000237770BD284601F05DF8AB68D3E7094A9E
:1027A00009492046FFF7CAFD6269002AEDD00028DA
:1027B000EBD1012120469047E7E700BF19D303087A
:1027C00029D3030821D3030811D3030808B1FFF765
:1027D0005DBE704768B110B50446074A0749FFF768
:1027E000ADFD636933B128B920460121BDE8104031
:1027F0001847FEE710BD00BF21D3030811D303081B
:1028000068B110B50446074A0749FFF797FD6369A9
:1028100033B128B901462046BDE810401847FEE70D
:1028200010BD00BF29D3030819D3030810B582B027
:10283000019178B1C36873B11C6864B180212046EE
:1028400000F0FAFF38B901AA1121204601F070FF0B
:1028500002B010BDFEE7012002B010BD68B3F8B5AC
:10286000037FC3F340028A42054625D0C26861F364
:102870004103037702B31768F7B1002032F044FE3A
:10288000044690B100260AE032F062FE034620467C
:102890009D4208BF264632F037FE044698B12046D6
:1028A00032F04EFE01282046EED122461321384652
:1028B00001F03EFF012801D0F8BDFEE73846BDE833
:1028C000F84004F0D1B9344622461321384601F0CD
:1028D0002FFF0128F0D1F1E710B1C06800B1006806
:1028E000704700BF10B1007FC0F34000704700BFC9
:1028F00008B13AF01DBDFEE72DE9F041AEB0064645
:102900003AF00CFA054630463AF004FA1A2D04461D
:1029100006D01D2D18D0202D59D02EB0BDE8F08145
:1029200030463AF0FFF90378022B0546F5D02D2208
:102930000021204606F072FB06460990002800F0B0
:10294000FD8002232B70E8E7304601F0E3FF09AD7C
:10295000064628460DF050FC00212A4620460D96DA
:1029600001F036F935220021204606F057FB05908C
:10297000002840F0E1809DF89820C2F340129DF8B5
:102980009830002162F3451320466A228DF8983072
:1029900006F044FB6B22074605900021204606F016
:1029A0003DFB059002463946D4E90670236A646906
:1029B000CDE9070305A8CDE9054738F0E5FE05AAEE
:1029C000294630460DF09CFC2EB0BDE8F081304623
:1029D00001F0A0FF05AA064601A9204605F0F0FE79
:1029E00001A838F0C3FE20B905A838F0BFFE0028C2
:1029F00060D009AD28460DF0FFFB1D224FF4803159
:102A0000204606F00BFB0090C0B202288DF8520061
:102A100000F2078132224FF48031204606F0FEFAA0
:102A2000C3B2022B00908DF8533000F216813E2283
:102A30004FF48031204606F0F1FAC3B2022B009029
:102A40008DF8553000F2FB804FF48031204606F0BF
:102A5000B7FCFC280FD89DF8523013FB00F3C3F3EA
:102A600007234FF0000263F3070263F30F228DF890
:102A70005530ADF85220BDF8523013B99DF855309D
:102A8000C3B10C224FF48031204606F0C7FA009003
:102A9000109001A838F06AFE002840F0BA8005A81E
:102AA00038F064FE30B10123294605AA30460B9365
:102AB0000DF026FC30220021204606F0AFFA0990E6
:102AC00000283FF42AAF35220021204606F0A6FA5E
:102AD000099000283FF421AF002509A80DF08CFBD8
:102AE00009AA294620468DF852508DF84F50ADF86E
:102AF00054500D9601F06CF829466A22204606F0E3
:102B00008DFA2946074605906B22204606F086FA84
:102B100005900246D4E90650236A64693946CDE936
:102B2000070305A8CDE9054538F02EFE05AA09A939
:102B300030460DF0E5FBF0E6012220E701460C22CD
:102B4000204606F06BFA6A22074609903146204675
:102B500006F064FA6B22804609903146204606F062
:102B60005DFA09900246D4E906E0D4F820C0636912
:102B70004146CDE90B0C09A8CDE9093E38F004FE29
:102B800068683A4609A938F0EDFF10B901232B70A7
:102B9000C3E61D223146204606F040FAC3B2FC2BA4
:102BA0000590F3D962223146204606F037FAC3B2C7
:102BB000FC2B0590EAD920223146204606F02EFA59
:102BC000C3B205908BB125223146204606F026FA85
:102BD000C3B2FC2B0590D9D924223146204606F0F9
:102BE0001DFAC2B2FC2A0590D0D926220021204627
:102BF00006F014FA059048B1837A3BB1C278FC2AFA
:102C0000C4D9012B02D0037AFC2BBFD900232B702F
:102C100083E6002301AA294630460B930DF070FB92
:102C20003DE71C224FF48031204606F0F7F9009072
:102C3000ADF85600C0F307408DF85800EAE63C2294
:102C40004FF48031204606F0E9F9002800902A90E0
:102C500011DC00238DF85530F6E630224FF4803138
:102C6000204606F0DBF900280090259019DC0023AF
:102C70008DF85330DBE642224FF48031204606F0D7
:102C8000CDF93D2200902D904FF48031204606F082
:102C9000C5F90090ADF8A400C0F307408DF8A60078
:102CA000D2E631224FF48031204606F0B7F9009089
:102CB000ADF89000C0F307408DF89200B7E600BF72
:102CC0002DE9F0414E6882B00C462EB3304604F038
:102CD0008BFE0746304604F07DFE10228046002120
:102CE0003046B56906F09AF92B18A3EB0803A361E7
:102CF000013B01902362122200213046756906F0E3
:102D00008DF90544ED1B4BF676336A1E6561E26171
:102D1000636202B0BDE8F08141F67603636202B0FF
:102D2000BDE8F08170B588B00D46044602F012FC93
:102D3000EA06064623D4636A23EA05036362EB07C7
:102D400011D4204602F006FC864202D115F0C07F65
:102D500007D0204608F0BEFA08B0BDE8704002F087
:102D600015BC08B070BD204603F07EFF204608F079
:102D7000B1FA02F00BFC204602F008FCE1E704AADD
:102D80006946204605F01CFD6946204602F0FAFF20
:102D900004A9204602F0F6FFCDE700BF10B50846B3
:102DA0000C4639F0D1FF002006F032F9204607F03A
:102DB00037FD012006F02CF90021204638F038FBC1
:102DC000CCB1A368B3B15A6822B12046FFF71CFC0E
:102DD000A3687BB1186820B13EF07EFCA368002296
:102DE0001A6003F1080039F047FFA0683EF074FC58
:102DF0000023A36010BDFEE7F0B589B00D46044680
:102E000002F0A8FBE907064627D4636A2B436362F6
:102E1000204602F09FFB864206D115F0C07F03D109
:102E2000EB060BD409B0F0BD204608F053FA02F0CF
:102E3000ADFB204602F0AAFBEB06F3D504AA6946D7
:102E4000204605F0BDFC6946204602F09BFF04A920
:102E5000204602F097FF09B0F0BD204603F004FFC2
:102E6000636A228D2B4392076362D1D5A368002B3E
:102E7000CED05F68002FCBD03846FFF7ABFC38468A
:102E8000FFF72AFD0028C3D003F0EEFEC0E700BF25
:102E90002DE9F04F048D8C428BB008D00A460F46C6
:102EA0002146054606F0F8F8804618B92F850BB084
:102EB000BDE8F08F284603F0D7FE28462F8506F0A0
:102EC00015FB4FF420703EF0F3FB6B8D13F4FC6F99
:102ED0008246C3F3451B76D0EB6809950026FA437A
:102EE000079303929C4631460894C1463D46DCF860
:102EF0000440039B1FFA84FE1EEA030FC4F3170469
:102F000040F091809CF8073013F0020340F08B8072
:102F1000079A52F83620177AD2F80080FF2F00F077
:102F20008880BA0042441FB97DE001339F427AD0C5
:102F300012F8010B6828F8D158F82330D3F8008034
:102F400098F80000002800F0818004F47F07002931
:102F500050D0CDE9049406935346002204E0013298
:102F60008A4203F1140342D01C7A8442F7D15C6890
:102F700004F47F09B945F2D1A4B27445EFD38A4273
:102F800035D018F8010F0028E6D1DDF81090013691
:102F90005E455ED020290CF1080CA8D12F46089C74
:102FA000099DC84601EB81010AEB8109564671680B
:102FB00000963B46224601F47F012846143606F06F
:102FC00073FF4E45F3D150463EF086FB08F0FD03FB
:102FD000012B45D0B8F1020F7FF469AF284603F00A
:102FE00043FE28460BB0BDE8F04F01F0E1BADDE941
:102FF0000494069BD86801EB810201312AF8220073
:103000000AEB8202186950809868D06098F8000036
:10301000107258681061546018F8010F0028B6D07B
:10302000202996D1B3E701365E4512D00CF1080C89
:103030005DE798F8003023B9F5E718F8083F002B52
:10304000F1D0682BF9D1D8F8043077E70136B345D1
:10305000ECD12F46089C099DC8460029A2D1B2E7B1
:10306000FF224FF4702128460BB0BDE8F04F06F068
:103070007FBC00BF10B50146044800F043FC20B1FE
:10308000044600F0A3FC204610BDFEE7F40206084B
:103090000A4620B1436A9A4302D0FFF7ADBEFEE76D
:1030A000704700BF18B1436A194201D17047FEE76B
:1030B000FFF738BE60B12DE9F04F038D0D4619437F
:1030C00035EA030387B0044603D107B0BDE8F08FAB
:1030D000FEE7FFF7DDFE636A5802F6D5204608F0EA
:1030E00045F983460028F0D0002726463946304669
:1030F00008F0F4F8044650B1038D45EA030135EABF
:10310000030304D0FFF7C4FE636A590203D40137F6
:10311000BB45EBD1D9E7204608F028F901900028FB
:10312000F5D0CDE902764FF0000A5146204608F06E
:10313000D5F8064650B1028D45EA020135EA020291
:1031400004D0FFF7A5FE726A520207D4019B0AF170
:10315000010A5345E9D1DDE90276D8E7304608F0A7
:1031600005F907460028F1D0CDE904B44FF0000975
:103170004946304608F0B2F8044650B1038D45EA9E
:10318000030135EA030304D0FFF782FE636A5B02A2
:1031900006D409F101094F45EAD1DDE904B4D5E7C8
:1031A000204608F0E3F883460028F2D04FF00008EC
:1031B0004146204608F092F810B12946FFF77AFF01
:1031C00008F10108C345F3D1E3E700BF78B12DE969
:1031D000F04F028DCD438B4605EA0201AA4387B02A
:1031E00004461FFA85F803D107B0BDE8F08FFEE76B
:1031F000FFF74EFE626A5002F6D5204608F0B6F898
:1032000082460028F0D000262546D9463146284679
:1032100008F064F8044650B1038D08EA030133EA6C
:10322000080304D0FFF734FE636A590203D4013661
:10323000B245EBD1D8E7204608F098F80190002875
:10324000F5D0CDE902A64FF0000BCDF800B0049503
:103250000099204608F042F8054650B1028D08EA70
:10326000020132EA080204D0FFF712FE6A6A520233
:1032700009D4009B019A01339A420093E8D1DDE919
:1032800002A6049DD3E7284608F070F806460028F9
:10329000EFD0002705943946284608F01FF8044669
:1032A00050B1038D08EA030133EA080304D0FFF7A5
:1032B000EFFD636A5B0204D40137BE42EBD1059C8B
:1032C000D7E7204608F052F883460028F4D04FF0A4
:1032D000000A5146204608F001F810B14946FFF7B0
:1032E00075FF0AF1010AD345F3D1E5E7F0B50846C9
:1032F00089B00E4639F012FD0446304639F00AFD19
:10330000631E0546312B55D8DFE813F05C005400EE
:1033100063005400540054005400540054005400FE
:103320006A008B0054008D0054005400A300540028
:10333000C600EB005400540029012E013001560054
:10334000ED00540056005400540056005400540040
:103350005400540054005400540054005400F7002A
:1033600054001E0154005400540054003200320135
:103370000A22002105F052FE1622044600212846AA
:10338000049405F04BFE83B204900BB9E4B214B17F
:10339000284602F0FBF8284607F0E8FF064648B149
:1033A0000024AB681B6853F82400013402F0EEF8E7
:1033B000A642F6D109B0F0BD304609B0BDE8F040F4
:1033C000FFF79ABA2021284609B0BDE8F040FFF780
:1033D00071BE2021284609B0BDE8F040FFF7F6BED7
:1033E0002021FFF7F3FE304639F09CFC32F00AFA58
:1033F0000028DFD1002D00F0CC806B6A1E07D9D5E4
:103400002B8DDC074FF00101284600F12781FFF7E3
:1034100051FE00222321284609B0BDE8F04001F00A
:1034200087B94021CFE74021FFF7D0FE284604F0BE
:10343000A3FA0228BED104AA6946284605F0C0F9BD
:103440006946284602F09EFC04A9284602F09AFC30
:10345000B0E700B3436A180700F1F38003F4016397
:10346000B3F5016FA6D1284600F022FB0028A1D1B8
:10347000284604F0B9FA0746284604F0CFFA044675
:10348000304601F04FFAA0F11103032B92D8DFE888
:1034900003F09481BEA2FEE710B3436A5B0500F11E
:1034A000E380A86800B14068FFF71CFA044632F0D8
:1034B00035F8002800F0DC8032F042F8022800F0F5
:1034C000BD8004280BBF0E210A2106230223002CF5
:1034D0007FF479AF19462846FFF7ECFD082179E71C
:1034E000FEE70E2176E7002100F0F6FF01463046A8
:1034F00009B0BDE8F04001F02DBA0122002105F02D
:103500008DFD0222064600212846049605F086FD20
:103510000A22002104900746284605F07FFD162266
:10352000049004460021284605F078FD83B20490FB
:1035300043B9E4B234B96FF040439E4202D09F4297
:103540007FF438AF284605E090F82A3043F00203B4
:1035500080F82A3009B0BDE8F04002F017B8202109
:10356000FFF734FE402135E710212CE7102131E729
:1035700007F0FCFE064600283FF41CAF0024AB68B1
:103580001B6853F82400013402F000F8A642F6D17B
:1035900010E7FEE7284604F017FA0446284602F032
:1035A000F5F8011EB8BF0331002204EBA101284643
:1035B00009B0BDE8F04004F0B1BF284604F004FAB9
:1035C0000446284602F0E2F8011E00DA0331002228
:1035D000A4EBA101EBE7284604F0D8F98207ECD070
:1035E000002F01DC002CE8DD284604F0E7F9044652
:1035F000284602F0C5F8011EB8BF03310022A4EB33
:10360000A101284609B0BDE8F04004F0B1BE28464B
:1036100004F0BCF98107BDD0002F01DC002CB9DD1E
:10362000284604F0CBF90446284602F0A9F8011E0A
:10363000B8BF0331002204EBA101E2E70E2106230B
:1036400045E7304601F06EF9A0F11103032B13D8C2
:10365000DFE803F00702070201212846FFF7B6FD65
:10366000D7E601212846D2E6012105F053F818E7F4
:10367000304601F041F91FE70A283FF49BAEC8E647
:103680002DE9F04F044685B00E464AB138B1038D9E
:10369000194336EA030327D105B0BDE8F08FFEE7F2
:1036A00008B3038D1546CA4302EA0301934397B258
:1036B000F2D0FFF7EDFB636A5902EDD5204607F023
:1036C00055FE83460028E7D02946204607F006FE2F
:1036D000804620B1038D07EA0301BB4320D10135A9
:1036E000AB45F1D1D8E7FEE7FFF7D2FB636A5A0298
:1036F000D2D5204607F03AFE80460028CCD00027DD
:103700003946204607F0EAFD054628B1038D46EA12
:10371000030136EA03032CD10137B845F0D1BBE7EA
:10372000FFF7B6FBD8F824305A02D8D5404607F048
:103730001DFE82460028D2D0CDE901B54FF0000928
:1037400003944946404607F0C9FD054648B1028D3D
:1037500007EA0201BA4304D0FFF79AFB6A6A5302F0
:1037600042D409F10109CA45EBD1DDE901B5039C59
:10377000B5E7FFF78DFB6B6A5B02CDD5284607F0F6
:10378000F5FD01900028C7D04FF0000949462846B2
:1037900007F0A4FD824658B1028D46EA020136EADE
:1037A000020205D0FFF774FBDAF82420500205D49A
:1037B000019B09F101094B45E8D1ADE7504607F0FF
:1037C000D5FD02900028F3D04FF0000B594650462B
:1037D00007F084FD10B13146FFF76CFC029B0BF142
:1037E000010B5B45F2D1E3E7284607F0BFFD8346B6
:1037F0000028B6D000242146284607F06FFD10B1FE
:103800003146FFF7E3FC0134A345F4D1A9E700BF3B
:1038100028B1436A99430CBF012000207047FEE79E
:1038200028B1436A194214BF012000207047FEE707
:1038300008B1008D7047FEE728B1038D194214BF0F
:10384000012000207047FEE718B1806800B1406891
:103850007047FEE720B1836810B504460BB110BD78
:10386000FEE734203DF024FFA06030B1438E43F4E6
:10387000707343F00303438610BDFEE720B1006878
:10388000401AB0FA80F04009704700BF2DE9F047B8
:103890000F683E680C4605465EB3D6F800800E60A1
:1038A000B8F1000F1FD0D8F80090C1F80080B9F12E
:1038B000000F11D0D9F80020C1F8009022B10A60A1
:1038C000FFF7E4FFC4F80090D9F8043013B12146A3
:1038D00028469847C4F80080D8F8043013B1214630
:1038E000284698472660736813B1214628469847B2
:1038F00027607B6823B121462846BDE8F04718477A
:10390000BDE8F08770B50D46064650B12E4C034613
:1039100001E01B682BB11A6A14EA0200F9D0C2F365
:103920000F103DF0C5FE044600284AD0C0E90065EE
:10393000ADB1AE68002E38D0318E3068013189B219
:10394000318689003DF0D2FEAA683060138E12687D
:1039500003F18043013B42F82340204670BD09F04B
:10396000A7F8064650B3D0F8BC0218B3D6F8D83240
:10397000013399003DF0BAFEB0B1D6F8D832C6F89E
:10398000BC025A1C0025C6F8D82240F82340C4E9DE
:103990000555284609F09CF80138E061284609F0F1
:1039A000A9F801382062D8E7FEE72846FFF752FF62
:1039B000AE68C1E7C6F8D8520421DBE720463DF0E7
:1039C0008BFE0024C9E700BFF0FF0F0000285CD089
:1039D000F8B5044601F0DAFD002005F019FB204699
:1039E00041F042F925682E68BEB13768266077B18C
:1039F0003B6827602BB1236021462846FFF746FF2E
:103A000027607B6813B12146284698472660736873
:103A100013B121462846984725606B6813B12146AB
:103A200028469847012005F0F3FAFF224FF4702151
:103A3000204605F09DFF204601F0E2FEFEF7DEFD88
:103A400058B1226812B908E0126832B192F82030F9
:103A500013F00C03F8D0042B13D0204607F03AFCE7
:103A6000054668B122462A2100F062FE2246284619
:103A70002B2100F05DFE2046BDE8F84003F0F4B8CD
:103A8000F8BD2146FEF756FEE7E7704710B504463D
:103A9000006804E098472368186838B1206083689C
:103AA0002146002BF6D100680028F7D110BD00BFD9
:103AB000006810B90CE0006848B190F8203013F0AD
:103AC0000303F8D0A3F10100B0FA80F04009704779
:103AD000704700BF70B586B09DF828400193002A5A
:103AE00039D01346926C93F84B50039209BB3CB10A
:103AF00025BB0198214606B0BDE8704038F080BC77
:103B0000002DF6D08DF80F50039B05939DF81430CF
:103B10009DF815109DF81620204663F3070061F309
:103B20000F209DF8173062F3174063F31F6006B053
:103B300070BD06F0CBFE0390050ED8E72146019834
:103B400038F05EFC8DF80F500146039806B0BDE8D2
:103B5000704038F077BE06F037FF0390050EC6E7D9
:103B600070B586B0019352B31346966C93F849E052
:103B700092F8482093F84AC093F84B40A9B971468F
:103B8000604638F09FFCC0F30722C0F307438DF86E
:103B90000D208DF80C008DF80E3001990398224607
:103BA00006B0BDE8704038F07FBD324606F08EFEAC
:103BB000C2B2C0F3072EC0F3074C040EDFE706F0D5
:103BC00003FFC2B2C0F3072EC0F3074C040ED6E7C2
:103BD000F0B513698BB01446C2E9000106460D46E4
:103BE000002B00F0248293F84E70002949D10C225A
:103BF0002946304605F012FA94F82E300990E0611B
:103C0000002B40F0858194F82F30002B40F03E814E
:103C100094F83030002B40F0A78094F82B30002B24
:103C200040D194F83130002B40F0DB80FC2F26D8B7
:103C300094F82E1094F82F0094F8302011FB07F11F
:103C4000C1F30721002310FB07F061F30703001203
:103C500012FB07F2121260F30F2362F3174394F87A
:103C6000312094F82B1012FB07F211FB07F112120E
:103C7000091262F31F6384F82B10C4F82E300BB0C6
:103C8000F0BD622205F0CAF90990C0B207FB00F04E
:103C9000070A022FABD8002384F82B30C4F82E304B
:103CA0000BB0F0BD28222946304605F0B7F909903F
:103CB00020620028B5D029222946304605F0AEF909
:103CC0000990C0B2022884F82B00AAD9206A0AF011
:103CD00027FE022800F0B9812A222946304605F045
:103CE0009DF9294602460790304605F0D1F9099022
:103CF000ADF81800C0F307408DF81A002B222946B2
:103D0000304605F08BF90990C0B20090069B2269FD
:103D100029463046FFF7DEFE030EC2B2C0F307218C
:103D2000089084F82C30C0F3074038F0CBFBC0F388
:103D3000072384F82800C0F3074084F82A0084F899
:103D400029302C222946304605F068F909900038C0
:103D500018BF012084F82D0089222946304605F03D
:103D60005DF90990A0665CE738222946304605F0E7
:103D700055F90990A06700283FF44FAF3A22294631
:103D8000304605F04BF90990C0B2022884F83000A3
:103D90007FF643AF3B222946304605F03FF93922F2
:103DA000E06709902946304605F038F92946024671
:103DB000304605F06DF90990C0F307408DF82600F4
:103DC000099B226929463046FFF7CAFEC0F3072344
:103DD00084F87500C0F3074084F8763084F87700E3
:103DE0001BE73C222946304605F018F90990C4F833
:103DF000840000283FF41AAF94F83130022B7FF68C
:103E000015AF3E222946304605F008F9C3B2022B11
:103E1000099084F831307FF609AF402229463046B8
:103E200005F0FCF84122C4F8880009902946304684
:103E300005F0F4F84222C4F88C0009902946304677
:103E400005F0ECF83D22C4F8900009902946304670
:103E500005F0E4F8294602460990304605F018F9C5
:103E60000890C0F307408DF82200089B226929467C
:103E70003046FFF775FEC0F30722C0F3074384F80E
:103E8000800084F8812084F88230CFE630222946F1
:103E9000304605F0C3F80990206700283FF4B8AE1B
:103EA00032222946304605F0B9F80990C0B20228FE
:103EB00084F82F007FF6ACAE34222946304605F058
:103EC000ADF894F87430099060F3040384F874300A
:103ED00031222946304605F0A1F8294602463046EF
:103EE00005F0D6F80990C0F307408DF82600099B2D
:103EF000226929463046FFF733FEC0F3072384F8D2
:103F00006C00C0F3074084F86D3084F86E007FE6E3
:103F10001D222946304605F081F80990C0B20228DA
:103F200084F82E007FF66FAE1C222946304605F03D
:103F300075F8294602460290304605F0A9F8ADF81A
:103F40001C000990C0F307408DF81E00079B2269F2
:103F500029463046FFF704FEC0F3072384F83200F9
:103F6000C0F3074084F8340084F833302622294611
:103F7000304605F053F8099010B1C37A1A075DD1A5
:103F800020222946304605F049F894F8433009903C
:103F900060F3030384F843301B073FF434AE638EB1
:103FA000238794F8343084F83A3023222946304667
:103FB00005F034F829460246304605F069F8ADF8B8
:103FC00020000990C0F307408DF82200089B226969
:103FD00029463046FFF7C4FDC0F3072384F83D00AF
:103FE000C0F3074084F83E3084F83F002122294680
:103FF000304605F013F8222284F83C000990294647
:10400000304605F00BF8242284F841000990294637
:10401000304605F003F8252284F83B000990294634
:10402000304604F0FBFF099084F84000EBE505F012
:10403000C7F90746002D7FF42CAED8E501463022A3
:1040400004F138003CF002FEDDE55A2229463046F4
:1040500004F0E4FF5822606209902946304604F0DB
:10406000DDFF294602460690304605F011F809901A
:10407000C0F307408DF82600099B22692946304687
:10408000FFF76EFDC0F3072384F82800C0F3074054
:1040900084F8293084F82A005EE600BFF0B51446A3
:1040A00085B0C2E90001592206460D4604F0B6FF6C
:1040B000C3B2022B039084F85A3001D805B0F0BD8A
:1040C0002269002A6AD092F84E70002D56D1FC2F3A
:1040D00007D813FB07F3C3F3072384F85A30022BE6
:1040E000ECD929465822304604F098FF294602466A
:1040F0000390304604F0CCFFC0F30743ADF8040052
:104100008DF80630019B2269029029463046FFF760
:1041100027FDC0F3072384F82C00C0F3074084F880
:104120002D3084F82E0029465B22304604F076FFBD
:104130002946606302905C22304604F06FFF2946F6
:10414000206302905D22304604F068FF94F85C30F2
:10415000029060F3020384F85C3029465A2230460C
:1041600004F05CFF5E220346A062294630460293BB
:1041700004F054FF84F8580005B0F0BD62222946CF
:10418000304604F04BFF0390C0B200FB07F7C7F3C3
:104190000727FC2F94F85A30A1D89AE729463046D1
:1041A00005F00EF90746F4E7F0B5144687B0C2E90A
:1041B0000001442206460D4604F030FFC3B2022B34
:1041C000059084F8503001D807B0F0BD2269002A6C
:1041D0007CD092F84E70002D68D1FC2F07D813FBCD
:1041E00007F3C3F3072384F85030022BECD94FF4C4
:1041F0008073002206F11407C4E90D3322633846A8
:1042000037F0D4FF00EBD07040106064384637F0D0
:10421000D3FF00EBD0704010A06445222946304601
:1042200004F0FCFE294602460590304604F030FFBB
:104230004622C0F307430490ADF8080029463046F3
:104240008DF80A3004F0EAFEC3B200932269029BA3
:10425000049029463046FFF73DFC030EC2B2C0F37E
:10426000072184F84F30C0F3074038F02BF9C0F332
:10427000072384F84C00C0F3074084F84E0084F80C
:104280004D3089222946304604F0C8FE049060650E
:10429000002D99D069222946304604F0BFFE94F8DB
:1042A000513060F3030384F851308DE762222946D0
:1042B000304604F0B3FE0590C0B200FB07F7C7F329
:1042C0000727FC2F94F850308FD888E729463046CE
:1042D00005F076F80746F4E7F0B5144685B0C2E974
:1042E00000014D2206460D4604F098FEC3B2022B93
:1042F000039084F83C3001D805B0F0BD2269002A53
:1043000062D092F84E70002D4ED1FC2F07D813FBCF
:1043100007F3C3F3072384F83C30022BECD948227F
:104320002946304604F07AFE039020630028E3D04B
:104330004C222946304604F071FE2946024603907D
:10434000304604F0A5FEC0F30743ADF804008DF835
:104350000630019B2269029029463046FFF700FC97
:10436000C0F3072384F82C00C0F3074084F82E0024
:1043700084F82D3049222946304604F04FFE029041
:10438000606338BB4B222946304604F047FE94F860
:104390003D30003818BF012060F3000360F3410393
:1043A00084F83D3005B0F0BD62222946304604F065
:1043B00035FE0390C0B200FB07F7C7F30727FC2FB9
:1043C00094F83C30A9D8A2E72946304604F0F8FF1B
:1043D0000746F4E74A222946304604F01FFE0290C1
:1043E000A063CFE7F0B5144685B0C2E900015022C2
:1043F00006460D4604F012FE0390206208B905B08F
:10440000F0BD53222946304604F008FEC3B2022B09
:10441000039084F83A30F2D92269002A55D092F8F4
:104420004E70002D38D1FC2F45D9294652223046F6
:1044300004F0F4FD294602460390304604F028FEBD
:10444000C0F30743ADF804008DF80630019B2269E4
:10445000029029463046FFF783FBC0F307232077FD
:10446000C0F307406377A07729465422304604F012
:10447000D5FD51220346606329463046029304F07D
:10448000CDFD94F83B30003818BF012060F30003E5
:1044900084F83B3005B0F0BD62222946304604F076
:1044A000BDFD0390C0B200FB07F7C7F30727FC2F41
:1044B00094F83A3005D813FB07F3C3F3072384F8C5
:1044C0003A30022BB1D805B0F0BD2946304604F091
:1044D00077FF0746EBE700BFF0B53C2283B0054607
:1044E0000E4604F09BFD0190F0B9002438223146BD
:1044F000284604F093FD07460190002843D1314639
:104500006A22284604F08AFD6B2207463146284677
:10451000019704F083FDB842B8BF38460028C8BFF1
:104520002418204603B0F0BD04463E2231462846FA
:1045300004F074FDC3B2022B0190D6D94222314659
:10454000284604F06BFD04EBD4746410013440225F
:10455000019004443146284604F060FD412207469C
:1045600001903146284604F059FD002FB8BF7F4224
:1045700000280190B8BF4042B842ACBF2418E419EB
:1045800024EAE474B2E73A223146284604F046FDB4
:104590000190C0B20228B2D93B223146284604F02D
:1045A0003DFD0744BC420190B8BF3C46A7E700BFB1
:1045B000A0B130B5856883B0044605B1ED6A00232B
:1045C00001AA1B212046019300F0B2F8A268019BCA
:1045D00052B1D3629D4202D103B030BDFEE7204606
:1045E00002F042FB03B030BD002BF3D02046FFF7B2
:1045F00031F9A268019BECE7806800B1C06A70479E
:10460000806818B190F83300C0F38100704700BF94
:10461000F8B5044630F082FF20B1237E9A0710D40B
:10462000DB0710D42568AE6806B1083601222146A2
:10463000304638F0A5FA012800D0F8BD237E9F0748
:1046400003D50120F8BD0020F8BD2368186810B913
:104650000DE0006858B1C368002BFAD00022E26078
:1046600021469847237EDA07EDD49807E9D4002243
:104670002146304638F084FA0128DED1237E99079E
:10468000DFD4206806F026FE237E064660B15A0776
:104690000AD4A3682B3B012B36D826602046FFF7AF
:1046A000B7FF0128C9D1237E1F07CAD420684FF461
:1046B0000011FFF7ADF80028C3D0A368163B1E2BEE
:1046C00004D81A4A22FA03F3DE07BAD4284606F0C1
:1046D0004DFE237E43F0040307462376002670B97F
:1046E000AFE7284606F0FAFD0346204623B12360D3
:1046F000FFF78EFF0128A0D10136B742A1D0237E5B
:1047000098073146EDD59CE720684FF48041FFF7CC
:104710007FF80028C7D0A368163B1E2BBDD8034ADC
:1047200022FA03F3DB07B8D5BDE700BFF19F785845
:10473000F0B589B078B39DF81830029123F00F03DB
:10474000CDE900000024684604928DF818300394E7
:1047500038F0CAF930F0E2FE30B19DF818309E070B
:1047600012D4DD0700F18480009DAE6806B10836E2
:1047700001226946304638F003FA0128044604D184
:104780009DF818309C070AD50124684638F0B4F922
:10479000204609B0F0BD0124204609B0F0BD009BC1
:1047A000186810B90EE0006860B1C368002BFAD039
:1047B00000220392694698479DF81830DA0757D4CB
:1047C0009807E1D400226946304638F0D9F901282B
:1047D0000446DAD19DF818309907D5D4009806F030
:1047E00079FD9DF81830044670B15A070CD4029B2D
:1047F0002B3B012B3ED868460094FFF709FF0128A8
:104800000446C2D19DF818301E07BDD400984FF45D
:104810000011FEF7FDFF0028B6D0029B163B1E2BB1
:1048200004D81D4A22FA03F3DC07ADD4284606F06B
:104830009DFD9DF8183043F0040307468DF81830AD
:10484000002678B9A0E7284606F048FD03466846EA
:104850002BB10093FFF7DCFE0128044695D1013609
:10486000B74291D09DF8183098073146EBD58BE7C9
:1048700000248AE700984FF48041FEF7C9FF002822
:10488000C0D0029B163B1E2BB5D8034A22FA03F375
:10489000DF07B0D5B6E700BFF19F785810B50C46DA
:1048A00090B1006810B90DE0006858B1C368002BE2
:1048B000FAD00022E26021469847207EC04300F0F3
:1048C000010010BD012010BD0B681868EAE700BFA9
:1048D00080B12DE9F04104460D4616461F46FEF70D
:1048E000B9FFA0683B46324629460830BDE8F04192
:1048F00038F050B9FEE700BF8268192A05D8044B8A
:10490000D340DB0701D538F00DBA0020704700BF57
:104910001EDF3B0383681C3B052B01D90020704739
:1049200038F000BA08B58368112B01D0002008BD0B
:1049300038F0F8F90028F9D0006808BD08B5836898
:10494000122B01D0002008BD38F0ECF90028F9D076
:10495000006808BD83681B2B00D0704710B50C465B
:1049600038F0E0F903689C42B8BF1C46046010BDF3
:1049700008B500223521FFF7DBFE002008BD00BF8F
:104980002DE9F04F8BB0914604917022002105462D
:104990001E4604F043FB6E2207460890002128467D
:1049A00004F03CFB0446012C08904FF06F024FF0DE
:1049B00000012846A246B8BF4FF0010A04F02EFBC2
:1049C00001288046BB460890B8BF4FF0010817B9D0
:1049D000B4F5807F3AD071220021284604F01EFBF6
:1049E000722208900021284604F018FB089A0990CA
:1049F00002F0C041B1F1005F044647D004F0C0416D
:104A0000B1F1005F26D069691144AA690891224476
:104A100009927EB908AB86F0010601930498CDF89F
:104A20000080029653465A46494637F097FA0BB033
:104A3000BDE8F08F4FF6FF720AEB0201C7F1000BE1
:104A40004244B1FBFAFAB2FBF8F8E3E7B0F5807F35
:104A5000C1D1ECE724F0C0416FF060408142D2D078
:104A6000B1F1805FA4BF6FF07042511A05F11400DC
:104A7000059137F0A1FB0599134A01FB00F082FB79
:104A80000012C017C0EB6214089ABCE722F0C041C4
:104A90006FF060408142B1D0B1F1805FA4BF6FF090
:104AA0007042511A05F11400059137F07FFB05990A
:104AB000054A099C01FB00F082FB0012C017C0EB05
:104AC000621208929AE700BF1F85EB51F0B50D46C0
:104AD000D1E9021389B02A686E680092013301316E
:104AE000CDE90223CDE9061304910196059604460B
:104AF00000284DD02046FFF783FD022820463BD0FA
:104B000006F0E8FB04460028F4D1069C0498029ABB
:104B1000009F079BDDF814E0DDF80CC0019E844285
:104B20002146A8BF01468442B8BF044673451846D3
:104B3000A8BF70467345B8BF73466045A8BF6046BE
:104B40006345B8BF6346B042A8BF3046B342B8BF62
:104B50003346BA42EB601346A8BF3B46BA42B8BFE1
:104B60003A468B42A8BF0B46A242B8BF22466860B5
:104B70002B60AA6009B0F0BD002304226946FFF74C
:104B8000FFFE204606F0A6FB04460028B2D1BCE793
:104B9000B6469C460C461746C8E700BFF0B5122241
:104BA00083B00021044604F039FA30220646002181
:104BB0002046019604F032FA342205460190002185
:104BC000204604F02BFA0021420701904FF0130217
:104BD000204648BF761904F021FA3022054601909C
:104BE0000021204604F01AFA3422074601900021E1
:104BF000204604F013FA0307019004F1140048BFA3
:104C0000ED1937F0D3FA801B401B03B0F0BD00BF95
:104C1000F0B5102283B00021044604F0FFF93022E1
:104C2000064600212046019604F0F8F93422054694
:104C300001900021204604F0F1F900218207019043
:104C40004FF01102204648BF761904F0E7F93022F0
:104C5000054601900021204604F0E0F93422074681
:104C600001900021204604F0D9F9C307019004F116
:104C7000140048BFED1937F09FFA801B401B03B0AA
:104C8000F0BD00BFF0B50D46D0E90736D0E90512FA
:104C900083B085E84E0012220021044604F0BEF9DC
:104CA0003022064601900021204604F0B7F9342254
:104CB000074601900021204604F0B0F92B680190CE
:104CC000400748BFF61933442B60132200212046C9
:104CD00004F0A4F93022064601900021204604F099
:104CE0009DF90021074601903422204604F096F9F0
:104CF000AB680190010748BFF6199B1BAB601022FF
:104D00000021204604F08AF9302206460190002155
:104D1000204604F083F93422074601900021204602
:104D200004F07CF96B680190820748BFF6193344A0
:104D30006B6011220021204604F070F930220646F3
:104D400001900021204604F069F934220746002131
:104D50002046019704F062F9C307EB6848BFF619D3
:104D60009B1BEB6003B0F0BD2DE9F04F6FF04047A7
:104D700087B0B942054600923FD001F0C043B3F17D
:104D8000005F0C4603D0204607B0BDE8F08F21F04D
:104D9000C0466FF060439E42F5D006F09BFA90F853
:104DA0002B1011F00808044607D10222414604F0F6
:104DB00035F9B842049000F0CB802046FFF728FF79
:104DC000B6F1805FA4BF6FF070439E1B884B06FB5B
:104DD00000F083FB0023C417182200212846C4EBEF
:104DE000631404F01BF91922064600212846049694
:104DF00004F014F90644A41BC5E71468002CC2DAB9
:104E000002F0E2FDAB6806460BB100225A621022A6
:104E10000021284604F002F930220490019000217C
:104E20000746284604F0FAF834220490044600218C
:104E3000284604F0F3F80490800700F185801122E1
:104E40000021284604F0EAF830228146049000212F
:104E5000284604F0E3F80021044604903422284652
:104E600004F0DCF8DFF890A1C10704AA4FF0340188
:104E700028464FF0000B48BFA144CDE904ABFFF733
:104E800057FC059C019B28461C4406F06FFA4C44D5
:104E90000746002800F0A680CDE90269DFF858B186
:104EA000DFF858A14FF0000803E008F1010847457A
:104EB0003AD0AB681B6853F8286051463046FEF77D
:104EC000AFFC0028F1D14B493046FEF7A9FC8146E2
:104ED00050B9304606F0FEF930B14946162204F0CA
:104EE0009DF8049080B240B90A220021304604F0B7
:104EF00095F810F0FC0F04905AD1336AAA699B1AF6
:104F000003F1010919220021304604F087F80490CA
:104F100048445845C9DB30461922002104F07EF888
:104F2000049009EB000BC0E7AA68DDE902690AB149
:104F300073425362304B9B4503D0CB445C45B8BFB2
:104F40005C46009B1C601EE73B462344019376E7CA
:104F500010224146284604F061F8302206464146B8
:104F60000490284604F05AF834220446414604903E
:104F7000284604F053F80021820704904FF01102F4
:104F8000284648BF361904F049F83022044600216B
:104F90000490284604F042F83422074600212846AF
:104FA000049704F03BF8C30748BFE4193444EAE629
:104FB00009220021304604F031F88146049010B1F6
:104FC000DFF834909EE706F1140037F0F5F8019B06
:104FD0004946182200EB0309304604F01FF80490FC
:104FE00081448FE7AB68002BABD077425F62A8E7C4
:104FF0001F85EB5101000600010000E001000400E4
:105000002DE9F04F6FF04046B14287B005463FD0E2
:1050100001F0C043B3F1005F0C4603D0204607B057
:10502000BDE8F08F21F0C0476FF060439F42F5D09C
:1050300006F050F990F82B1011F01008044607D133
:105040000122414603F0EAFFB042049000F0EC80F8
:105050002046FFF7A3FDB7F1805FA4BF6FF0704358
:10506000DF1BB44B07FB00F083FB0023C4171A229D
:1050700000212846C4EB631403F0D0FF1B22064630
:1050800000212846049603F0C9FF0644A41BC5E787
:105090001468002C9046C1DA02F090FCAB680290D4
:1050A0000BB100221A6213220021284603F0B6FF3A
:1050B00030220490009000210646284603F0AEFFFF
:1050C0003422049004460021284603F0A7FF03077A
:1050D000049002D53346234400931222002128462F
:1050E00003F09CFF302204900190002106462846E0
:1050F00003F094FF3422049004460021284603F074
:105100008DFF470700F185808B4F04AA3421284684
:105110000026CDE90467FFF70BFB019B049C1C44B0
:10512000009B28461C4406F021F9272281460021D5
:10513000284603F073FF0490C0B2012800F0A48059
:10514000B9F1000F69D0DFF8F0B1DFF8F4A10394F2
:105150000027AB681B6853F8274051462046FEF7EE
:105160005FFBE8B975492046FEF75AFB064670BB5F
:10517000204606F0AFF850B33146162203F04EFF3A
:10518000049080B218B3E6696B69F61A01361B22E7
:105190000021204603F042FF0490304458452FDAA6
:1051A0000137B945D5D1644B039C9B4535D0009A56
:1051B0005A44A96811B1029B5B420B625E4B9A4252
:1051C00002D09442B8BF1446C8F8004026E70A222D
:1051D0000021204603F022FF0490C0B2072803D824
:1051E0009323C340D907CED408220021204603F0E0
:1051F00015FF06460490002800F0AE804E4EC6E72C
:1052000020461B22002103F009FF049006EB000B4F
:10521000C6E733462344019376E7AB68002BD3D02F
:10522000029A52421A62CFE712224146284603F000
:10523000F5FE3022064641460490284603F0EEFE75
:105240003422044641460490284603F0E7FE00213C
:10525000420704904FF01302284648BF361903F066
:10526000DDFE3022044600210490284603F0D6FEDD
:105270003422074600212846049703F0CFFE030797
:1052800048BFE4193444C9E6B9F1000FC5D02A4A31
:10529000DFF8ACB003940027924602E00137B9452D
:1052A0003ED0AB681B6853F8274059462046FEF7AE
:1052B000B7FA0028F2D121492046FEF7B1FA064696
:1052C00050B9204606F006F830B13146162203F0F8
:1052D000A5FE049080B268B90A220021204603F09E
:1052E0009DFE0490C0B208282CD840F24913C34058
:1052F000D80727D5EE696369F61A01361A2200210C
:10530000204603F08BFE049030445045C6DB204617
:105310001A22002103F082FE049006EB000ABDE78A
:10532000054B039C9A4552463FF477AF019B1A44C4
:105330003FE700BF1F85EB51010000E001000600C0
:105340000100040008220021204603F067FE064603
:10535000049078B10E4ED1E704F1140036F026FF28
:10536000019B31461B22C618204603F057FE0490CD
:1053700006440CE704F1140036F018FF009B314698
:105380001A22C618204603F049FE04900644B5E7E9
:10539000010000E008B370B582B00D461646002348
:1053A00001AA0821044603F051FE012816D020B9B5
:1053B00000222946204605F01BFC002301AA0921F2
:1053C000204603F043FE01280CD020B900223146CC
:1053D000204605F015FC02B070BDFEE7019B9D4222
:1053E000E6D1EAE7019B9E42F0D1F4E790B130B5F7
:1053F00083B00D46002301AA0821044603F026FECF
:10540000012808D020B900222946204605F0F0FBEB
:1054100003B030BDFEE7019BAB42F4D1F8E700BF1B
:1054200090B130B583B00D46002301AA092104468E
:1054300003F00CFE012808D020B90022294620469E
:1054400005F0DEFB03B030BDFEE7019BAB42F4D1BB
:10545000F8E700BF08B370B582B00D4616460023CA
:1054600001AA0121044603F0F1FD012816D020B95C
:1054700000222946204605F0A3FB002301AA0221B1
:10548000204603F0E3FD01280CD020B9002231466C
:10549000204605F0A5FB02B070BDFEE7019B9D42D2
:1054A000E6D1EAE7019B9E42F0D1F4E790B130B536
:1054B00083B00D46002301AA0121044603F0C6FD76
:1054C000012808D020B900222946204605F078FBA3
:1054D00003B030BDFEE7019BAB42F4D1F8E700BF5B
:1054E00090B130B583B00D46002301AA02210446D5
:1054F00003F0ACFD012808D020B90022294620463F
:1055000005F06EFB03B030BDFEE7019BAB42F4D16A
:10551000F8E700BFE0B110B5044689B2002205F0FB
:1055200097FB94F82A3043F0010384F82A30204690
:1055300005F09EFE90F82A2042F0040280F82A200E
:1055400005F09EFEBDE810400022392107F004BDA1
:10555000FEE700BF30B50C4983B00546FEF760F9A1
:1055600010B1002003B030BD0446284605F0B2FE5D
:105570000028F6D01622214603F050FD80B20038F4
:1055800018BF012003B030BD0100060090F82A20AA
:1055900042F0010208B580F82A2005F069FE90F873
:1055A0002A2042F0040280F82A2005F069FEBDE8B6
:1055B00008400022392107F0CFBC00BF08B505F034
:1055C00057FE90F82A3043F0080380F82A3008BDCF
:1055D000002205F01DBB00BF70B5044682B0154621
:1055E00000221E4605F014FBECB1002301AA08219D
:1055F000204603F02BFD012816D020B900222946B1
:10560000204605F0F5FA002301AA0921204603F0FF
:105610001DFD01280CD020B900223146204605F09E
:10562000EFFA02B070BDFEE7019B9D42E6D1EAE7CA
:10563000019B9E42F0D1F4E758B110B4D0E9054285
:10564000D0E90730C1E90042C8605DF8044B8B60C7
:105650007047FEE728B3F0B583B0044605F03AFE84
:105660000546F8B143696469E41A02F0A7F9122209
:1056700004440021284603F0D1FC30220646019064
:105680000021284603F0CAFC3422074600212846A0
:10569000019703F0C3FC430748BFF619A01B03B0F2
:1056A000F0BDFEE7606903B0F0BD00BF28B3F0B500
:1056B00083B0044605F00EFE0546F8B18369A4697F
:1056C000E41A02F081F9102204440021284603F074
:1056D000A5FC3022064601900021284603F09EFCDE
:1056E0003422074600212846019703F097FC8307E0
:1056F00048BFF619A01B03B0F0BDFEE7A06903B0D8
:10570000F0BD00BF70B32DE9F04182B0044605F052
:10571000E1FD054638B3A36982699F1A02F054F986
:10572000102207440021284603F078FC3022064668
:1057300001900021284603F071FC342280460021AC
:105740002846CDF8048003F069FC830748BF46442F
:105750000190BE1B04F1140036F02EFD304402B05F
:10576000BDE8F081FEE7A669F4E700BF00B50922B5
:1057700083B0002103F052FC03B05DF804FB00BFCE
:1057800010B1143036F012BDFEE700BF10B1143076
:1057900036F012BDFEE700BF08B1FFF7FFB9FEE724
:1057A00008B1FFF735BAFEE708B1FFF76BBAFEE7BD
:1057B00000B59FED077B83B06A4634218DED007BF9
:1057C000FEF7B6FF009803B05DF804FBAFF300806E
:1057D00000000000010000E000B59FED077B83B0F2
:1057E0006A4634218DED007BFEF7A2FF019803B0DD
:1057F0005DF804FBAFF30080010000E00000000052
:1058000030B5012283B00021044603F007FC0222D8
:10581000054600212046019503F000FC6FF040434F
:105820009D42019001D0984217D194F82A3043F05C
:10583000010384F82A30204605F01AFD90F82A204A
:1058400042F0040280F82A2005F01AFD00223921D6
:1058500007F082FB012003B030BD002003B030BD53
:105860002DE9F04F97B081468B4690461C4605F0D7
:105870007DFD002800F054810025234682462C46F9
:105880004D46C1469846AB681B6853F824300493D4
:10589000B8F1000F07D018464FF48021FDF7B8FF8C
:1058A000002840F03981049A53695B44536193693D
:1058B0004B449361D3695B44D361136A4B441362D5
:1058C000104605F053FD002800F02681CDE90A5866
:1058D000CDE908A400270446049B9B681B6853F885
:1058E0002750D5E9050258444A44C5E90502EB6949
:1058F0002A6A5B444A44EB612A62284605F036FD79
:105900000690002800F00081CDE90C474FF0000818
:10591000AB681B6853F8284063695B446361A36903
:105920004B44A361E3695B44E361236A4B44236214
:10593000204605F01BFD0790002800F0DD80CDE932
:105940000E54DA460026CB460F9B9B681B6853F823
:105950002640636953446361A3695B44A361E369BF
:105960005344E361236A5B442362204605F0FEFC56
:105970000390002800F0B8805B4600273546D346E8
:105980002646CDF840803C469A46B3681B6853F8DB
:1059900024707B695B447B61BB695344BB61FB69D9
:1059A0005B44FB613B6A53443B62384605F0DEFCD6
:1059B000002800F08E80D8464FF00009AB460194D5
:1059C0000546BB681B6853F829406369434463611B
:1059D000A3695344A361E3694344E361236A5344E5
:1059E0002362204605F0C2FC00286AD0CDE9137579
:1059F0000023CDE9116B0593CDF854908346A3683D
:105A0000059A1B6853F82260736943447361B36954
:105A10005344B361F3694344F361336A53443362DB
:105A2000304605F0A3FC074600283FD00025B368A8
:105A30001B6853F82590D9F814304344C9F8143042
:105A4000D9F818305344C9F81830D9F81C304344F9
:105A5000C9F81C30D9F820305344C9F820304846E2
:105A600005F084FCF8B1002300930290D9F80830C7
:105A7000009A1B6853F822004269424442618269DD
:105A800052448261C2694244C261026A52440023A4
:105A9000026241465246FFF7E3FE009A531C029A07
:105AA00000939A42E2D10135AF42C0D1059B013348
:105AB0009B450593A3D1DDE9116BDDE91375DDF895
:105AC000549009F101094D457FF47BAF019C5D467F
:105AD000C346039B0134A3427FF457AF5346DDF81E
