:020000040800F2
:1000000000000220E1120008490D00084D0D000813
:10001000510D0008550D0008590D000800000000A2
:100020000000000000000000000000005D0D00085E
:10003000610D000800000000650D0008690D000852
:100040003113000831130008311300083113000880
:100050003113000831130008311300083113000870
:100060003113000831130008311300083113000860
:100070003113000831130008311300083113000850
:100080003113000831130008311300083113000840
:100090003113000831130008311300083113000830
:1000A0003113000831130008311300083113000820
:1000B000311300086D0D00083113000831130008DA
:1000C0003113000831130008311300083113000800
:1000D00031130008790D00083113000831130008AE
:1000E000850D000831130008311300083113000892
:1000F00031130008311300083113000831130008D0
:1001000031130008311300083113000831130008BF
:1001100031130008311300083113000831130008AF
:10012000311300083113000831130008311300089F
:10013000311300083113000831130008311300088F
:10014000311300083113000831130008311300087F
:10015000311300083113000831130008311300086F
:10016000311300083113000831130008311300085F
:10017000311300083113000831130008000000009B
:080180003113000831130008DF
:1001880010B5054C237833B9044B13B10448AFF3C9
:1001980000800123237010BDB00000200000000083
:1001A80014B4050808B5034B1BB103490348AFF362
:1001B800008008BD00000000B400002014B4050849
:1001C80010F8012B11F8013B012A28BF9A42F7D0F9
:1001D800D01A7047034613F8012B002AFBD1181ACE
:1001E800013870477BB972B90029BEBF00204FF0B3
:1001F800004106E008BF00281CBF6FF000414FF027
:10020800FF3000F0D3B9ADF1080C6DE904CE002938
:1002180009DB002B1ADB00F04DF8DDF804E0DDE91E
:10022800022304B07047404261EB4101002B1BDB05
:1002380000F040F8DDF804E0DDE9022304B04042B4
:1002480061EB4101524263EB43037047524263EB57
:10025800430300F02FF8DDF804E0DDE9022304B0E1
:10026800404261EB41017047524263EB430300F0A7
:1002780021F8DDF804E0DDE9022304B0524263EB23
:100288004303704753B94AB9002908BF00281CBF67
:100298004FF0FF314FF0FF3000F088B9ADF1080C96
:1002A8006DE904CE00F006F8DDF804E0DDE902238C
:1002B80004B070472DE9F047089D8E4604468846ED
:1002C800002B4AD18A42174662D9B2FA82F64EB159
:1002D800C6F1200301FA06F820FA03F3B74043EA0F
:1002E8000808B4404FEA174E1FFA87FCB8FBFEF126
:1002F800230C0EFB118843EA084301FB0CF29A42D7
:1003080009D9FB1801F1FF3080F0EA809A4240F2E7
:10031800E78002393B449A1AA3B2B2FBFEF00EFB07
:10032800102243EA024300FB0CFC9C4509D9FB1848
:1003380000F1FF3280F0D6809C4540F2D3803B44E8
:10034800023840EA0140A3EB0C0300211DB1F34041
:100358000022C5E90032BDE8F0878B4205D90DB10E
:10036800C5E9000100210846F5E7B3FA83F1002941
:1003780046D1734502D3824200F20581841A6EEB9E
:10038800030201209046002DE5D0C5E90048E2E7C8
:10039800002A00F09080B2FA82F6002E40F0A48085
:1003A8008A1A030C4FEA174E80B2BCB20121B2FB85
:1003B800FEFC0EFB1C2243EA024304FB0CF29A42A9
:1003C80007D9FB180CF1FF3802D29A4200F2E080FC
:1003D800C4469B1AB3FBFEF20EFB123340EA0343FA
:1003E80002FB04F49C4207D9FB1802F1FF3002D249
:1003F8009C4200F2CA8002461B1B42EA0C40A5E759
:10040800C1F120068B4022FA06F71F430EFA01F4C9
:1004180020FA06F32EFA06FE4FEA1749234300FA9C
:1004280001F81FFA87FCBEFBF9F01C0C09FB10EE63
:1004380044EA0E4400FB0CFEA64502FA01F209D973
:100448003C1900F1FF3A80F09C80A64540F2998063
:1004580002383C44A4EB0E041FFA83FEB4FBF9F304
:1004680009FB13444EEA044403FB0CFCA44508D9D9
:100478003C1903F1FF3E80F08280A4457FD9023BFE
:100488003C4443EA0040A4EB0C04A0FB02EC6445A6
:100498007346E14662D35FD05DB1B8EB030264EB0B
:1004A800090404FA06F622FA01F31E43CC40C5E912
:1004B800006400214FE7B1FBF2FC010C41EA0E4158
:1004C80080B240EA01423B4638463C46B846BE4602
:1004D8002026B1FBF7F1A2EB080241EA0C4166E7DE
:1004E800014618E710462CE7C6F120022EFA02F35F
:1004F800B740B14020FA02F24FEA174E0A43B3FB65
:10050800FEF8BCB20EFB1833110C41EA034108FB9C
:1005180004F9B04089454FEA104380B23ED97918B2
:1005280008F1FF3C01D289451FD8A1EB0901B1FBB5
:10053800FEF909FB04F80EFB191192B242EA0142D6
:10054800424529D2BA1809F1FF31C4D24245C2D274
:10055800A9F102013A44BEE7F0459DD2BEEB020381
:100568006CEB070C0138E14696E7A7EB090949440B
:10057800A8F1020CB1FBFEF909FB04F8DBE77346AE
:100588007FE7504666E70846FDE63B44023A33E714
:10059800ACF1020C3B441CE749469CE7A1EB09017E
:1005A800C446B1FBFEF909FB04F8C4E7704700BF75
:1005B8002DE9F0411C4F80460E4638884FEA182135
:1005C80015461C4655F036FE388801305FFA88F12A
:1005D80080B255F02FFE38880230290A80B255F0D3
:1005E80029FE3888E9B20330104D80B255F022FE5A
:1005F8002888310A55F01EFE28880130F1B280B2F1
:1006080055F018FE28880230210A80B255F012FEF3
:1006180028880330E1B280B255F00CFEBDE8F04105
:100628004FF4305055F0F2BD304F01202E4F0120CD
:1006380070B50C468B89164605460A892088898834
:10064800FFF7B6FFA3682168581A6168E3685B1A68
:100658000133324600FB03330449054802F092FA9D
:100668002846BDE870400DF0E1BE00BF00000860FC
:10067800D04B002010B501200C465AF0C7FC0B4B9C
:1006880093F900201B78002A03DB002384F820302C
:1006980010BD13F00F03F9D0054A064B12881B88CA
:1006A800C4E90923012384F8203010BD3C4F012000
:1006B8004C4F0120404F012010B5002394B0CDE9E4
:1006C8000A33CDE90C33CDE90333CDE905332049AD
:1006D80001930793086C1F4A40F080500864096C26
:1006E80001F08051019101990293136843F480430A
:1006F8001360136801204FF4803103F48043CDE97F
:10070800080102934FF480010224CDE90E410298BA
:1007180004210220CDE912010422482308A81092DE
:10072800119301F00FFF08B172B6FEE70F210346DF
:10073800CDE903144FF4805203A82146CDE90532D0
:10074800079302F015F908B172B6FEE714B010BDB0
:1007580000380240007000402DE9F04100249CB0B0
:1007680000F008FEFFF7A8FFCDE91444CDE91644D0
:10077800AB4B029418941A6BAA4842F004021A630D
:10078800196B01F00401029102990394196B41F06D
:1007980020011963196B01F0200103910399049456
:1007A800196B41F080011963196B01F08001049104
:1007B80004990594196B012211431963196B1140AF
:1007C800059105990694196B41F002011963196B9B
:1007D80001F00201069106990794196B41F0400156
:1007E8001963196B01F04001079107990894196B77
:1007F80041F010011963196B01F010010891089973
:100808000994196B41F0080119631B6B03F0080385
:1008180009934FF40051099B01F0AEF88248012278
:10082800802101F0A9F881480122022101F0A4F8F1
:1008380001227F4848F21F0101F09EF801254FF47C
:100848000053784814A90327CDE91435CDE9164497
:10085800802600F0A1FE744814A9CDE91647CDE919
:10086800146500F099FE02237048149314A9CDE989
:100878001555179700F090FE4FF4704200236D480D
:10088800169514A9CDE9142300F086FE11236848B3
:10089800159314A9CDE91644149700F07DFE48F28B
:1008A8001C036348149314A9CDE91555179700F054
:1008B80073FE4FF444134FF400525D48169514A983
:1008C800CDE9142300F068FE22462146282000F0D6
:1008D800A3FD282000F0DCFD5748DFF878C1574B0E
:1008E800C0E90244C0E90544C0E907444FF4804424
:1008F800C0E900C3046101F09BFA08B172B6FEE7D3
:1009080003464F484F4F0361C0E90233C0E906333D
:100918004FF4E133C0E900730C23436102F084FD16
:10092800034608B172B6FEE79FED357B8DED107B6F
:100938008DED187B9FED347B0F90129017901A90D5
:10094800414880ED007B9FED327BC0E90233C0E96E
:100958000633C0E90833C0E90D338DED0C7B036124
:100968009FED2D7BC3624364102343613C234FF406
:1009780080570E9314AA08230CA98DED147B0463E9
:100988008762169302F0B8F8F0B9304C304A0A90F2
:10099800CDE90C00CDE90E00CDE91400CDE9160033
:1009A800CDE918001A900B90A0602061472340F20F
:1009B800F3182046C4E90023A661C4F80C8002F0AD
:1009C80001F918B172B6FEE772B6FEE70CA9204627
:1009D8000C9702F087FB08B172B6FEE7204602F0DA
:1009E80083F908B172B6FEE7002200230AA920465F
:1009F800CDE90A2302F0D4FC70B372B6FEE700BF5B
:100A08001000000011000000000000A0040100A078
:100A18000F0000000F000000090000000F00000098
:100A28000038024000080240000002400004024072
:100A38000018024000140240AC4C0020801A060046
:100A4800204C002000100140D04B0020644C0020B6
:100A5800000400400058004016901890602614A921
:100A6800042220460027CDE9146702F035FA06462D
:100A780008B172B6FEE7204600F0B2F84FF4FA70FB
:100A880000F0A6FC0421204602F0BEF92368C3F852
:100A9800388055F00FFE5AF0F7F93BF0CBF94FF4D8
:100AA800F0714FF448700DF0F3FA0F4904460DF059
:100AB800A7FC4FF4964332460C49009620460DF0A9
:100AC8001FFC36F0C1F82946044636F001F90849FA
:100AD800204636F005F900F069FB40F03DFB0520A3
:100AE80000F076FCF9E700BF39060008CC000020CA
:100AF8007D06000882B00C4B002100915A6C42F42C
:100B080080425A645A6C02F480420092009A019121
:100B18001A6C42F080521A641B6C03F080530193E4
:100B2800019B02B0704700BF0038024030B5184B37
:100B3800026889B000249A42CDE90244CDE9044410
:100B4800069401D009B030BD124D00942B6B43F0D0
:100B580020032B632B6B03F0200300930322122343
:100B6800CDE9022300980C480322042302A9CDE909
:100B7800052300F011FD01942B6C43F480032B64D2
:100B88002B6C03F480030193019B09B030BD00BFB7
:100B98000058004000380240001402400E4B026822
:100BA8009A4200D0704700B583B0002203F50D3398
:100BB8000192196C41F0020119641B6C03F00203E5
:100BC800019311461D20019B00F026FC1D2003B057
:100BD8005DF804EB00F05CBC00040040000000007D
:100BE80000B5174A016889B000239142CDE9023364
:100BF800CDE90433069302D009B05DF804FB02F591
:100C08000D320193136B0F4843F002031363136B08
:100C18009FED097B03F00203019301220323CDE931
:100C2800042302A902238DED027B019A069300F0AA
:100C3800B3FC09B05DF804FB2000000002000000CE
:100C4800000400400004024030B51F4B026889B020
:100C580000249A42CDE90244CDE90444069401D027
:100C680009B030BD03F5943300945A6C174842F02C
:100C780010025A645A6C02F010020092009A019411
:100C88001A6B42F001021A631B6B9FED0D7B03F098
:100C98000103019302A907230322CDE905238DED62
:100CA800027B019D00F078FC22462146252000F0B9
:100CB800B3FB252000F0ECFB09B030BDAFF300809A
:100CC8000006000002000000001001400000024081
:100CD800174B1A6802B17047D0B588B01549019210
:100CE800012018608B6B03438B638B6B4FF680700E
:100CF800022103F00103CDE9020101930126032734
:100D08000C2402A90C48019B0694CDE9046700F065
:100D180043FC4EF2B37202230848069402A9CDE9B7
:100D28000467CDE9022300F037FC08B0D0BD00BF4E
:100D3800004D00200038024000100240000C024024
:100D4800FEE700BFFEE700BFFEE700BFFEE700BF0B
:100D5800FEE700BF704700BF704700BF704700BF85
:100D680000F022BB014802F071BA00BF644C0020B9
:100D7800014802F059BC00BF204C00204FF400503D
:100D880000F000BE034AD2F8883043F47003C2F87A
:100D98008830704700ED00E010B504463DF08EFB4A
:100DA8000A2800D010BD054B01221868114600F032
:100DB80069FA2046BDE8104000F03ABA184D002004
:100DC80008B53DF07BFB262800D008BD034B002268
:100DD80018680121BDE8084000F066BA044D0020FB
:100DE80010B53DF06BFB0A2800D010BD064C01225F
:100DF8002068114600F058FA044B20681968BDE8CD
:100E0800104000F04FBA00BF044D00200C4D0020E8
:100E180010B53DF053FB0A2800D010BD064C012246
:100E28002068114600F040FA044B20681968BDE8B4
:100E3800104000F037BA00BF044D0020084D0020D4
:100E4800F0B5002085B003F0A9FCC34DC34F28605E
:100E5800102103F0BBFCC2482C683CF0F3FEC0F341
:100E68000743C0F307228DF802308DF800008DF893
:100E7800012020460099BB4C00220BF06DFA00229D
:100E8800FF2128680BF07CFA286846F0A3FFA82108
:100E9800386005F09FFE38684B2105F0B5FE3868CC
:100EA8006FF0E90105F036FE38686FF00F0105F0C4
:100EB8004BFE3868092105F01FFF38684FF4806140
:100EC80003F07AFC3868102103F080FCA6493868E2
:100ED80000220BF081FA286846F0B4FE002219219E
:100EE800206046F0BBFE00221146206846F0EEFE68
:100EF800206840F26F1105F06DFE2068132105F09F
:100F080083FE20686C2105F005FE20686FF015014E
:100F180005F01AFE0921206805F0EEFE93482668C0
:100F28003CF090FE0346C3F30722C3F307438DF852
:100F380006308DF804008DF805203046019900220E
:100F48000BF02EFA0022FF2120680BF03DFA8848AA
:100F580026683CF077FE0346C3F30722C3F3074332
:100F68008DF80A308DF808008DF80920029930466E
:100F78004FF400320BF0F0F920684FF40032FF21F3
:100F88000BF0FEF920681022002109F0DBFB002895
:100F980003900CDD246813220021204609F0D2FBBF
:100FA800014603910022204601310BF0CDF9286853
:100FB800704C714E4DF0FEFD6FF04041206005F021
:100FC80009FE20686FF0404105F01EFE2068B4213C
:100FD80005F0A0FD20686FF0920105F0B5FD2068CE
:100FE800092105F089FE206864494DF0EFFD0022D3
:100FF80063492068634C0BF0EFF928684DF0DAFD7F
:101008006FF04041206005F0E5FD20686FF0404139
:1010180005F0FAFD20686FF0E50105F07BFD20681A
:101028006FF00E0105F090FD2068092105F064FEBF
:10103800206855494DF0CAFD00224B492068534CA1
:101048000BF0CAF9286854F0C9F9B221306005F0EC
:10105800C1FD30682C2105F0D7FD30686FF0F9012B
:1010680005F058FD30686FF0950105F06DFD3068AA
:10107800092105F041FE3068454954F053FE3068B7
:10108800444954F0F3FE00223D4930680BF0A4F9BE
:10109800286854F0A3F9B121206005F09BFD206871
:1010A8002D2105F0B1FD20686FF0200105F032FD1B
:1010B80020686FF0940105F047FD2068092105F0CC
:1010C8001BFE2068324954F02DFE2068314954F047
:1010D800CDFE0022244920680BF07EF928682E4DA9
:1010E8004CF022FD032128604CF03EFD286840F2B8
:1010F800612105F06FFD2868F12105F085FD28685C
:101108006FF0010105F006FD2868722105F01CFD4D
:101118002868092105F0F0FD2868012103F04CFB3F
:1011280000231A4638681D4904F066FF00231A4652
:1011380030681B4904F060FF00231A4619492068EB
:1011480004F05AFF0023184928681A4605B0BDE87C
:10115800F04004F051BF00BF204D00201C4D00207E
:10116800A7DDC200184D0020D4F205081C58E20083
:101178000F78E700144D00200C4D0020A0B405089E
:101188002C3D0608104D0020ACB40508084D002081
:10119800A8B40508B8B40508044D0020A10D00083E
:1011A800E90D0008190E0008C90D000810B584B033
:1011B8000DF052F8044605203EF04EF80346C0F301
:1011C8000721C0F3074200208DF808308DF8091078
:1011D8008DF80A203EF040F8C0F30721C0F307421B
:1011E8008DF80C008DF80D108DF80E200D4B009326
:1011F800DDE902120023204642F0F8FD01462046B0
:101208000DF092FAFFF71CFE002003F0C7FA06491A
:10121800064B024608681A6004B0BDE810400DF09D
:101228004BB900BF84BD0508204D0020244D002087
:1012380038B50F4B186854F0B5FE0E4B04461868C5
:1012480054F0B0FE0546204659F0FEFF04462846F5
:1012580059F0FAFF084B09490246224418684DF034
:1012680023FD074B01211868BDE8384003F0A4BAF4
:101278000C4D0020084D0020144D0020C8B405086E
:10128800044D002070B504460D46164646F05EFD36
:10129800321E00EB050118BF01222046BDE8704050
:1012A80046F0DCBC4CF04CBC022A04D00AB903F06E
:1012B80083BA03F08BBA38B50D46044603F03CFEFA
:1012C800294620B12046BDE8384003F07FBA2046C1
:1012D800BDE8384003F070BADFF834D00D480E4945
:1012E8000E4A002302E0D458C4500433C4188C4278
:1012F800F9D30B4A0B4C002301E013600432A242DD
:10130800FBD3FFF73FFD5AF04FF8FFF725FA704778
:101318000000022000000020B000002028A30608DA
:10132800B000002098500120FEE7000038B50E4AB2
:101338000E4B1278054618684FF47A73B3FBF2F334
:10134800B0FBF3F000F0B2F808B90F2D01D9012075
:1013580038BD0446024629464FF0FF3000F05CF8DD
:10136800034B20461D6038BD04000020000000200B
:101378000800002008B50B4B1A6842F400721A6086
:101388001A6842F480621A601A6842F480721A601D
:10139800032000F02FF80F20FFF7C8FFFFF7AAFB84
:1013A800002008BD003C0240044A054B11681B7828
:1013B80001200B44136045F05FB800BF284D0020A2
:1013C80004000020014B1868704700BF284D00201A
:1013D80038B50446FFF7F6FF631C054602D0044BF8
:1013E8001B781C44FFF7EEFF401BA042FAD338BD20
:1013F800040000200749CA6803024FF6FF0003F4FF
:10140800E0630240134343F0BF6343F40033CB600F
:10141800704700BF00ED00E01B4BDB68C3F30223FD
:1014280000B5C3F1070EBEF1040F03F1040C28BF89
:101438004FF0040EBCF1060F1CD9A3F1030C4FF0BA
:10144800FF3303FA0CF322EA03024FF0FF3303FAE7
:101458000EF321EA030303FA0CF313431B010028DC
:10146800DBB20ADB00F1604000F5614080F8003330
:101478005DF804FB00229446E7E7044A00F00F00F9
:10148800024413765DF804FB00ED00E0FCEC00E09C
:10149800002807DB4109044A00F01F0001238340AC
:1014A80042F82130704700BF00E100E00138B0F198
:1014B800807F01D30120704710B44FF0E023074C20
:1014C80058614FF0F00C84F823C000220721104621
:1014D8009A615DF8044B1961704700BF00ED00E0A8
:1014E80070B50446866DFFF76DFF94F83530022B12
:1014F80006D080236365002384F83430012070BD52
:1015080023681A6822F016021A605A6922F08002CB
:101518005A61226C054642B31A6822F008021A6022
:101528001A6822F001021A6005E0FFF74BFF431B1F
:10153800052B10D823681B6813F00103F5D1E16D62
:101548003F228A40184601210023B26084F83510F2
:1015580084F8343070BD032320226265184684F86D
:101568003530002384F8343070BDA26C002AD3D102
:10157800D6E700BF90F83530022B03D080234365AF
:10158800012070470268052380F83530136823F07E
:1015980001030020136070472DE9F04FA44A0B683F
:1015A800904285B04FF0000200F0D480DFF89082BE
:1015B8004FF0010B8A4603E00132102A00F09E80AA
:1015C8000BFA02F101EA03069943F5D1DAF804406F
:1015D80004F0030C510003250CF1FF378D40012F57
:1015E8006FEA050550D9BCF1030F40F0A5810768E3
:1015F8000CFA01F13D40294314F4403F0160DBD06F
:101608008C4D00210391696C41F480416964696CD7
:1016180001F480410391039922F0030101F1804113
:1016280001F59C3102F003078D68BF004FF00F0CE5
:101638000CFA07FC25EA0C0E7F4DA84261D07F4DBD
:10164800A84200F05681DFF8FCC1604500F05881DF
:10165800DFF8F4C1604500F06181DFF8F0C1604552
:1016680000F06381DFF8E8C1604500F05081DFF8E1
:10167800E4C160450CBF4FF0070C4FF0080C0CFAA2
:1016880007F74EEA070542E0876807EA050EDAF829
:101698000C708F4047EA0E078760476827EA060EF6
:1016A800C4F30017974047EA0E074760C76807EA80
:1016B800050EDAF808708F4047EA0E07BCF1020FF2
:1016C800C76094D14FEAD20900EB890902F0070EEE
:1016D800D9F820700097DAF810704FEA8E0E07FAE2
:1016E8000EF701970F2707FA0EFE009F27EA0E0E46
:1016F800019F47EA0E07C9F8207078E705B0BDE8F2
:10170800F08F4FF0010C0CFA07F74EEA07058D60D1
:10171800D8F80010F543E70354BF29403143C8F80F
:101728000010D8F80410A70354BF29403143C8F863
:101738000410D8F80810E70254BF29403143C8F80C
:101748000810D8F80C10A40254BF29403143C8F837
:101758000C1031E7DFF8DCB04FF0010A02E001328B
:10176800102ACBD00AFA02F403EA04069C43F6D105
:101778004D685400032707FA04FC05F003086FEAD4
:101788000C0908F1FF3CBCF1010F65D9B8F1030F52
:1017980040F0DC80D0F800C008FA04F40CEA090C28
:1017A80044EA0C0415F4403F0460D8D000240394A4
:1017B800DBF8444044F48044CBF84440DBF8444030
:1017C80004F480440394039C22F0030404F180444D
:1017D80004F59C3402F0030CD4F808E00F274FEA14
:1017E8008C0C07FA0CFC2EEA0C0CC4F808C0144C3C
:1017F800EF0324686FEA060C79D404EA0C04104F4E
:101808003C607C68AF0370D404EA0C040C4F7C6025
:10181800BC68EF0267D40CEA0404094FAD02BC604F
:10182800FC685ED40CEA0404054DEC6097E700BF41
:101838000000024000380240000402400008024054
:10184800003C0140000C024000100240001402401D
:1018580000180240001C0240D0F808E0CF6809EAEE
:101868000E0E07FA04FC4CEA0E0CC0F808C0D0F8BB
:1018780004E0C5F3001C2EEA060E0CFA02FC4CEA42
:101888000E0CC0F804C0D0F80CE08F6809EA0E0E00
:1018980007FA04FC4CEA0E0CB8F1020FC0F80CC0B1
:1018A8007FF478AF4FEAD20C4FEA8C0C0CF1804CE5
:1018B8000CF5003C02F0070EDCF8207000970F6969
:1018C8004FEA8E0E07FA0EF701970F2707FA0EFE5A
:1018D800009F27EA0E0E019F47EA0E0ECCF820E083
:1018E80058E73443A0E7344397E734438EE734435B
:1018F80085E74FF0020C0CFA07F74EEA070506E7F2
:101908004FF0030C0CFA07F74EEA0705FFE64FF015
:10191800060C0CFA07F74EEA0705F8E64FF0040C38
:101928000CFA07F74EEA0705F1E64FF0050C0CFA3A
:1019380007F74EEA0705EAE6C76807EA050EDAF888
:1019480008708F4047EA0E07C76050E6DFF818C0F6
:101958008F68DCF80CE0A74009EA0E0E47EA0E0E85
:10196800CCF80CE016E700BF0000024003691942FA
:1019780014BF01200020704702B909048161704733
:10198800704700BF044A5169014200D1704708B549
:101998005061FFF7F5FF08BD003C01402DE970419B
:1019A800046885B006460A9D2068984640F4807011
:1019B8006B1C20604DD16569ED07FCD501F0FE0177
:1019C800216102E0616949052BD46169C94311F0BD
:1019D8000201F7D1039163690393A3690393039BFE
:1019E80063691D0600F1928063695805F8D50023E4
:1019F8006FF4806120226161336386F83D2086F8A8
:101A08003E30336C43F004033364336C0022042B00
:101A180086F83C2019D13268136843F400731360C8
:101A280013E0236843F400732360002220236FF43B
:101A380080616161326386F83D3086F83E20336C00
:101A480086F83C2043F004033364012005B0BDE868
:101A580070816369D80726D4CDE90012FFF7B2FC7C
:101A68000B9BC31A9D42DDE900121AD33468204645
:101A7800002DEED100222023326386F83D3086F80F
:101A88003E20336C86F83C2043F02003336403681F
:101A9800DC0502D54FF400733364032005B0BDE8BC
:101AA80070813068E6E701F0FE0121616369DB437C
:101AB80013F0020312D063695B05B2D40092FFF7FA
:101AC80081FC0B9BC31A9D4232D3009A002D2FD064
:101AD80034686369DB4313F00203ECD10393636951
:101AE8000393A3690393039B63691B0639D4636952
:101AF80059053FF57CAF0092FFF764FC0B9BC31AB6
:101B08009D4223D3009A0DB33468EDE7B8F1010F75
:101B180008D0130A236163691D0603D46369580555
:101B2800F9D564E7D2B20020226105B0BDE8708122
:101B380000222023326386F83D3086F83E20336C3D
:101B480086F83C2043F0200333647EE700232022FC
:101B5800336386F83D2086F83E30336C1343336494
:101B680053E7B8F1010FDDD0130A236163691B063F
:101B7800D8D4636959053FF53AAF0092FFF722FCC4
:101B88000B9BC31A9D42E1D3009A002DDED0346826
:101B9800ECE700BF2DE9F04304689846236885B058
:101BA80043F4806323600C9D064620686B1C40F458
:101BB80080701746206050D16569ED07FCD501F0AB
:101BC800FE032361CAB202E0656969052DD4616923
:101BD8006FEA010C1CF0020CF6D1CDF80CC0636959
:101BE8000393A3690393039B6369180600F18B8031
:101BF80063695905F8D500236FF48061202261617B
:101C0800336386F83D2086F83E30336C43F0040396
:101C18003364336C0022042B86F83C2019D13268D7
:101C2800136843F40073136013E0236843F40073EC
:101C38002360002220236FF480616161326386F89B
:101C48003D3086F83E20336C86F83C2043F0040390
:101C58003364012005B0BDE8F0836369D80722D456
:101C68000191FFF7AFFB0D9B0199C31A9D4218D351
:101C780034682046002DF0D100222023326386F8F4
:101C88003D3086F83E20336C86F83C2043F0200334
:101C980033640368DB0502D54FF400733364032013
:101CA800D8E73068E8E701F0FE0323616369DB43A6
:101CB80013F002035FFA81F90FD063695B05B4D4AE
:101CC800FFF780FB0D9BC31A9D4228D33DB33468B0
:101CD8006369DB4313F00203EFD103936369039352
:101CE800A3690393039B63691B064ED463695A0572
:101CF80081D4FFF767FB0D9BC31A9D423AD3002D91
:101D080038D03468EFE7B8F1010F16D03B0A2361E9
:101D180063691D0611D463695805F9D56BE700227C
:101D28002023326386F83D3086F83E20336C86F8EF
:101D38003C2043F0200333648BE7FFB227616369DB
:101D48001F0603D463695D05F9D554E7236843F496
:101D5800807323606369D907FCD542F001022261D0
:101D680003E0636959053FF560AF63699807F8D5E3
:101D780000206FE700232022336386F83D2086F891
:101D88003E30336C1343336443E7B8F1010F12D08C
:101D98003B0A236163691A060DD4636959053FF547
:101DA8002AAFFFF70FFB0D9BC31A9D42E2D3002D0C
:101DB800E0D03468EEE7FFB22761636918060DD4F6
:101DC80063695B053FF517AFFFF7FCFA0D9BC31A74
:101DD8009D42CFD3002DCDD03468EEE7236843F47D
:101DE800807323606369DF070BD4FFF7EBFA0D9B61
:101DF800C31A9D42FFF455AF34682046002DF1D137
:101E08003AE749F00101216163699B07B0D463692E
:101E18005A053FF50AAFFFF7D5FA0D9BC31A9D4245
:101E2800FFF47DAF002D3FF47AAF3468ECE700BFD4
:101E3800002800F0B88070B590F83D30044603F0F3
:101E4800FF02002B00F098802368242284F83D20AC
:101E58001A6822F001021A601A6842F400421A60F5
:101E68001A6822F400421A6000F026FE4F4B65689B
:101E78009D424FD84E4B98427CD94E4B6A00A3FBEB
:101E88000035431EB3FBF2F32268516821F03F018D
:101E980041EA95415160116A4FEA954C0CF1010CE9
:101EA80021F03F0141EA0C011162D16940F6FC7052
:101EB800013321F44F41034221F0FF0161D1042392
:101EC8000B43D361D4E907301168034321F0C00103
:101ED8000B4313609168D4E9030321F403410343DE
:101EE80021F0FF010B439360D4E90530D168034327
:101EF80021F0FF010B43D3601168002341F0010179
:101F080020201160236484F83D00236384F83E3068
:101F1800184670BD284B98422CD92268254B274E6D
:101F2800A3FB003C431E506820F03F0040EA9C4061
:101F380050604FEA9C414FF4967000FB01F1A6FBFC
:101F48000161106A890920F03F00013101431162E3
:101F5800D169A06821F44F4121F0FF01A0B905EB38
:101F68004505B3FBF5F30133C3F30B03CBB143F4DE
:101F78000043A5E7012070BD80F83C20FEF7D6FDA0
:101F880062E7C3F30B039BE705EB850505EB8505C6
:101F9800B3FBF5F30133C3F30B0313B143F440432D
:101FA8008EE701238CE70120704700BFA08601005F
:101FB8007F841E0083DE1B43FF083D00D34D621063
:101FC8002DE9F047044682B09946BDF82CA00F468B
:101FD8009046FFF7F7F994F83D30202B04D00225FE
:101FE800284602B0BDE8F087064605E0FFF7EAF9A3
:101FF800801B192800F2A780206885696FEA050C04
:102008001CF00205F2D094F83C30012BE7D00123F4
:1020180084F83C300368D9076ED5056825F4006557
:1020280005600A9860620C9800902120019684F857
:102038003D00402084F83E0000202064A4F82AA037
:10204800608D20856448E0624B464246394620460A
:10205800FFF7A4FC054630BB228D2368002A00F058
:10206800B6800C9A01325ED15A6917061DD45A6996
:102078005605F9D500226FF480602021586122634B
:1020880084F83D1084F83E20236C43F00403236455
:10209800236C0022042B84F83C2004D122681368A6
:1020A80043F40073136001259AE7666A278D30466A
:1020B800791E10F8012B1A61628D013A92B262857D
:1020C8005A69606289B25007218512D531B95A69B7
:1020D800500745D45A695105F9D5CBE772781A618A
:1020E800628D023F013AB9B2023692B26662218528
:1020F80062850029B8D1EAE7036843F00103036069
:102108008BE7616A208D0A4612F8017B1F616262C3
:10211800628D013A92B262855F69421E92B27F0770
:1021280022852AD452B35A691206EAD45A6952054A
:10213800A0D4FFF747F90C9A831B9A423CD3002A94
:102148003AD02368EFE72023256384F83D3084F8EC
:102158003E50236C84F83C5043F0200323643EE750
:102168001A68002142F4007220201A6084F83D00A9
:1021780084F83C1084F83E1032E77AB95A6952075D
:10218800EED45A6957053FF575AFFFF71BF90C9A5E
:10219800831B9A4210D37AB12368EFE74A781A6111
:1021A800678D0238013F82B20231B8B2616222857E
:1021B8006085002AB7D1E1E700232022236384F851
:1021C8003D2084F83E30236C1343236460E70C9A67
:1021D80001323FF47CAFD1E70000FFFF2DE9F04F5B
:1021E800044687B09946BDF844A0129E0F46904613
:1021F800FFF7E8F894F83D30202B04D00227384642
:1022080007B0BDE8F08F054605E0FFF7DBF8401B97
:10221800192800F2F480D4F800C0DCF81800C04394
:1022280010F0020BF1D094F83C30012BE6D00123DA
:1022380084F83C30DCF80030DB0753D5DCF80000CC
:1022480020F40060CCF80000109860622220CDE9EC
:10225800006584F83D00402084F83E00002020649A
:10226800A4F82AA0608D20859948E06239464B463B
:1022780042462046FFF78EFC074600282DD1228DC6
:102288002368002A35D102905A6902929A6902920B
:10229800029A1A6842F400721A600023202284F815
:1022A8003D2084F83C3084F83E30A8E75A6952064D
:1022B80000F183805A69D10600F11D81FFF782F889
:1022C80000222023226384F83D3084F83E20236CCA
:1022D80084F83C2043F0200323640127384607B0E4
:1022E800BDE8F08FDCF8003043F00103CCF8003093
:1022F800A4E7012A00F01481022A00F0AC800590BE
:1023080059690591996905910599032A46D8012AC1
:1023180000F0DB80022A00F0AD80721C7DD15A6982
:102328005007FCD51A68616A22F480621A601B693A
:102338000B70638D228D616A013A013B01319BB2BA
:102348002285721C6162638578D1226853695B07B4
:10235800FCD5136843F40073136013690B70638D25
:10236800228D606A2168013B9BB263850969531E0F
:1023780000F1010C2385C4F824C04170228D638DBF
:10238800616A013A013B013192B29BB261622285D6
:102398006385002A81D0032A2368B8D956B985E70E
:1023A8005A69D10600F1A780FFF70CF8401B864256
:1023B80086D323685A695006F2D5626A1B6913707E
:1023C800638D2068228D616A013B9BB263854369F6
:1023D800013A92B201F1010C5B072285C4F824C0CE
:1023E800D7D503694B70636A228D01336362638DAD
:1023F800013A013B92B29BB222856385C9E720234B
:10240800C4F830B084F83D3084F83EB0236C84F8CA
:102418003CB043F020032364F0E65A69510781D4A5
:10242800FEF7D0FF431B9E42FFF44AAF002E3FF455
:1024380047AF23685A695107F2D573E72268536991
:1024480058077CD4FEF7BEFF431B9E42FFF438AF0B
:10245800002EF3D134E7196821F4806119601968F6
:1024680041F40061196004905969049199690491D3
:1024780004994AE7711C17D15A695207FCD51A68A2
:1024880042F400721A601A69636A1A70638D626A8C
:10249800013B9BB26385238D013B23852368511C37
:1024A8001B69616253709EE75A695007E7D4FEF7CB
:1024B80089FF431B9E42FFF403AF002E3FF400AF99
:1024C80023685A695007F2D5D9E76EB923E000BFEF
:1024D8000000FFFF5A69D0060DD4FEF773FF401BBA
:1024E8008642FFF4EDAE23685A695206F2D51A699E
:1024F800636A1A7077E700226FF010002021586194
:10250800226384F83D1084F83E20236C236484F809
:102518003C200127E2E65A6951067FF5CBAEE6E793
:10252800196821F4806119600390596903919969C8
:1025380003910399196841F400711960E5E6616A2D
:1025480007E700BF002800F0D8812DE9F0410368B3
:10255800DD0782B004462FD59D498A6802F00C0237
:10256800042A00F0EC808A6802F00C02082A00F0C5
:10257800E2806368B3F5803F00F0EB80B3F5A02FED
:1025880000F07381924D2A6822F480322A602A680A
:1025980022F480222A60002B40F0E080FEF712FF30
:1025A800064605E0FEF70EFF801B642800F2008156
:1025B8002B689F03F6D423689D0728D5844A916821
:1025C80011F00C0F00F09B80916801F00C010829B4
:1025D80000F09180E368002B00F00C817D4B7C4E6D
:1025E80001221A60FEF7EEFE054605E0FEF7EAFE58
:1025F800401B022800F2DC8033689F07F6D5336859
:10260800226923F0F80343EAC203336023681A07F8
:102618005CD45D073AD56E4A136C13F0805340F0D2
:1026280088800193136C43F080531364136C03F098
:1026380080530193019B0125674E3368D80540F10B
:10264800A780A368012B00F0B780052B00F01D813F
:102658005F4E326F22F001023267326F22F00402BD
:102668003267002B40F0AD80FEF7ACFE41F28838AF
:10267800074605E0FEF7A6FEC01B404500F298801D
:10268800336F9B07F6D4002D40F0F980A369CBB1D6
:102698004F4DAA6802F00C02082A00F0BC80022BF9
:1026A8004C4B4FF000021A6600F0F980FEF78AFEE4
:1026B800044604E0FEF786FE001B022878D82B6843
:1026C8009B01F7D4002002B0BDE8F0816369FBB13B
:1026D800404B3F4E0122C3F8802EFEF773FE05469D
:1026E80004E0FEF76FFE401B022861D8736F9B075A
:1026F800F7D523688DE7526851023FF56BAF344A2E
:102708001268920738D5E268012A35D00120DAE745
:10271800304A2F4EC2F8803EFEF754FE054604E0CC
:10272800FEF750FE401B022842D8736F9F07F7D46C
:10273800DFE7002580E74A6851027FF51AAF244A8F
:10274800126892037FF538AF6268002A7FF434AFCD
:10275800DCE71F4A136843F480331360FEF732FE48
:102768001B4E054604E0FEF72DFE401B64281FD8CB
:1027780033689B03F7D51EE7154920690A6822F0DC
:10278800F80242EAC0020A601A077FF542AF9DE7E5
:10279800336843F480733360FEF714FE07463368EA
:1027A800D9053FF54EAFFEF70DFEC01B0228F6D93E
:1027B800032002B0BDE8F081054A136F43F001031E
:1027C8001367FEF7FFFD024F064641F288380AE01C
:1027D800003802400000474200700040FEF7F2FD5A
:1027E800801B4045E4D83B6F9A07F7D5002D3FF48E
:1027F8004DAF44E0424A434E1360FEF7E3FD054601
:1028080004E0FEF7DFFD401B0228D1D833689907A2
:10281800F7D42368FBE6012B3FF478AF6B68E269D5
:1028280003F4800191427FF471AF226A03F03F0103
:1028380091427FF46BAF616A47F6C0721A40B2EBFF
:10284800811F7FF463AFA26A520803F44031013A52
:10285800B1EB024F7FF45AAFE26A03F07063B3EB57
:10286800026F14BF012000202DE7264B1A6842F49E
:1028780080221A601A6842F480321A606EE7214A90
:10288800136C23F08053136400E71E4B1A6F42F059
:1028980004021A671A6F42F001021A6791E7FEF7FD
:1028A80091FD064605E0FEF78DFD801B02283FF6E8
:1028B8007FAF2B689901F6D4D4E90731626A0B43DC
:1028C80043EA8213D4E90A2052080D4943EA006317
:1028D800013A43EA024301226B600A66FEF772FD81
:1028E800084D044605E0FEF76DFD001B02283FF683
:1028F8005FAF2B689A01F6D5E4E60120704700BF68
:102908000000474200380240164908B58B6803F0BA
:102918000C03042B1BD0082B01D0134808BD4A68B0
:102928004B68496813F4800302F03F0211D10E4846
:10293800C1F38811A1FB0001FDF7A4FC094B5B68FA
:10294800C3F3014301335B00B0FBF3F008BD074854
:1029580008BD0648C1F388110023A1FB0001FDF75B
:1029680091FCEBE7003802400024F40000127A00E2
:10297800002800F08780484A136803F007038B4259
:102988002DE9F0410D46044609D2CBB21370136805
:1029980003F007038B4202D00120BDE8F0812368D1
:1029A800980714D5590704D53C498A6842F4E0527F
:1029B8008A601A0704D539498A6842F460428A60F5
:1029C8003649A0688A6822F0F00202438A60DF076D
:1029D80021D56268012A57D0931E012B2F4B1B6803
:1029E8004DD99907D8D52D4EB36823F00303134367
:1029F800B360FEF7E7FC41F28838074604E0FEF7CB
:102A0800E1FCC01B404544D8B368626803F00C037E
:102A1800B3EB820FF3D1204A136803F00703AB42EC
:102A280006D9EBB21370136803F00703AB42B3D1B6
:102A380023685A0706D51949E0688A6822F4E052E3
:102A480002438A601B0707D5144A2169936823F457
:102A5800604343EAC1039360FFF756FF0F4A104CE7
:102A680092681049C2F303120346A25C0E48D34091
:102A780000680B60FEF75AFC0020BDE8F081980161
:102A8800B1D489E701207047044B1B689E03AAD480
:102A980082E7032081E700BF003C02400038024083
:102AA80090B405080000002008000020014B1868B9
:102AB800704700BF00000020044B05499B68054A89
:102AC8000868C3F38223D35CD840704700380240BB
:102AD8000000002088B40508044B05499B68054A96
:102AE8000868C3F34233D35CD840704700380240CB
:102AF8000000002088B4050838B370B590F8493054
:102B080015460E46044603F0FF02CBB1214651F8A4
:102B1800080B00F037FFA2682068314600F05EFF1E
:102B2800D4E90102236B294600F07AFF2268A168E4
:102B380052F8213043F0010342F82130002070BDE3
:102B480080F84820FEF7C4F8E0E70120704700BF8E
:102B580000B5864690F8480001284FF002000ED0D4
:102B68008EF849002BB131F802CB22F802CB013B99
:102B7800F9D1002001238EF849308EF848005DF81D
:102B880004FB00BF00B5864690F84900042816D01B
:102B98009EF8480001284FF002000ED08EF8490038
:102BA8002BB132F802CB21F802CB013BF9D100203E
:102BB80001238EF849308EF848005DF804FB0120A7
:102BC8005DF804FB002800F0868038B590F83D30A9
:102BD800044603F0FF02002B78D022683F49022305
:102BE80084F83D308A4213685CD0B2F1804F30D00F
:102BF800A1F57C418A422CD001F580618A4228D017
:102C080001F580618A4224D001F578418A4249D091
:102C180033498A4221D001F580618A421DD001F5ED
:102C280080618A4219D0A1F598318A4215D001F500
:102C380080618A4211D001F580618A420DD0A56970
:102C48006168E06823F080032B431360D0629162CF
:102C580010E0A16823F070030B432069A16923F4F5
:102C68004073034323F08003E0680B4361681360FB
:102C7800D06291620123536184F8463084F83E3073
:102C880084F83F3084F8403084F8413084F842308A
:102C980084F8433084F8443084F8453084F83D3073
:102CA800002038BDA068216923F07003034323F492
:102CB80040730B43A16923F080030B431360E3685F
:102CC800D3626368936263691363D3E780F83C2037
:102CD800FDF764FF81E70120704700BF0000014055
:102CE80000400140704700BF002800F0868038B5DA
:102CF80090F83D30044603F0FF02002B78D022689C
:102D08003F49022384F83D308A4213685CD0B2F10F
:102D1800804F30D0A1F57C418A422CD001F58061EA
:102D28008A4228D001F580618A4224D001F5784191
:102D38008A4249D033498A4221D001F580618A42CA
:102D48001DD001F580618A4219D0A1F598318A42D7
:102D580015D001F580618A4211D001F580618A425F
:102D68000DD0A5696168E06823F080032B431360E8
:102D7800D062916210E0A16823F070030B432069D0
:102D8800A16923F44073034323F08003E0680B43F5
:102D980061681360D06291620123536184F8463000
:102DA80084F83E3084F83F3084F8403084F841306D
:102DB80084F8423084F8433084F8443084F845304D
:102DC80084F83D30002038BDA068216923F07003E5
:102DD800034323F440730B43A16923F080030B439F
:102DE8001360E368D3626368936263691363D3E72C
:102DF80080F83C20FFF776FF81E70120704700BF8D
:102E0800000001400040014069BB90F83E30012BB2
:102E180035D1022380F83E30036801F01F01186A9B
:102E280001228A4020EA02001862186A25490243F2
:102E38008B421A6225D0244A934222D0B3F1804FA4
:102E480006D0224A934203D002F5806293422DD1E4
:102E58009A6802F00702062A03D01A6842F00102B3
:102E68001A6000207047042910D0082916D090F85D
:102E78004130012B03D1022380F84130CCE70120F7
:102E880070475A6C42F400425A64E1E790F83F30C8
:102E9800012BF4D1022380F83F30BDE790F8403091
:102EA800012BECD1022380F84030B5E7084A934261
:102EB800CED0084A9342CBD0A2F594329342CCD1DB
:102EC800C6E700BF000001400004014000040040C4
:102ED800000C00400040014090F83C30012B00F00D
:102EE800C780012370B5844680F83C300C2A08D886
:102EF800DFE802F03E070707680707079407070798
:102F08000C0000238CF83C30012070BD03680D686C
:102F18001A6A22F480521A621A6A5C68D86920F424
:102F2800E64040EA05208D6822F4005242EA053264
:102F38006B4DAB4200F0AE8005F58065AB4200F00A
:102F4800A9805C60D861486818641A62DA690969FE
:102F580042F40062DA61DA6922F48062DA61DA69DD
:102F680042EA0122DA6100238CF83C30002070BD6F
:102F780003680D681A6A22F001021A621A6A5C680C
:102F8800986920F0730028438D6822F002022A43D2
:102F9800534DAB4200F0848005F58065AB427FD08D
:102FA8005C609861486858631A629A69096942F0D6
:102FB80008029A619A6922F004029A619A690A439E
:102FC8009A61D0E703680D681A6A22F010021A6243
:102FD8001A6A5C68986920F4E64040EA05208D6822
:102FE80022F0200242EA05123D4DAB4267D005F5BA
:102FF8008065AB4263D05C609861486898631A62E8
:103008009A69096942F400629A619A6922F48062B5
:103018009A619A6942EA01229A61A4E703680D68F5
:103028001A6A22F480721A621A6A5C68D86920F0F7
:10303800730028438D6822F4007242EA0522284D65
:10304800AB4217D005F58065AB4213D05C60D86100
:103058004868D8631A62DA69096942F00802DA61D5
:10306800DA6922F00402DA61DA690A43DA617AE796
:1030780002207047CD6822F4006242EA0522D1E9B5
:10308800056524F4405446EA050E22F4806244EAB9
:103098000E14DBE74D6924F4804444EA851450E7B4
:1030A800CD6822F008022A43D1E9056524F440746A
:1030B80046EA050E22F004024EEA040470E7CD68E1
:1030C80022F0800242EA0512D1E9056524F4406441
:1030D80046EA050E22F0400244EA8E048BE700BF60
:1030E8000000014090F83C20012A6ED00346026897
:1030F80030B40120022483F83C0083F83D409468F2
:1031080024F47F4424F0770494600C68602C76D013
:1031180011D8402C5BD02ED8202C04D000F2888007
:1031280034F010011FD1916821F07001214341F062
:103138000701916016E0B4F5805F13D0B4F5005F25
:1031480033D0702C0FD1D1E9015094682843CD6851
:1031580024F47F4140EA052008439060916841F0DB
:103168007701916000200121002283F83D1083F847
:103178003C2030BC7047502CF5D14868CC68116AA7
:1031880021F00A010843116A21F0010111629169D5
:1031980021F0F00141EA041191611062916821F077
:1031A800700141F057019160DCE7D1E90150946862
:1031B8002843CD6824F47F4140EA05200843906005
:1031C800916841F480419160CCE7022070474868DB
:1031D800CC68116A21F00A010843116A21F0010143
:1031E8001162916921F0F00141EA041191611062C4
:1031F800916821F0700141F047019160B2E74C6895
:10320800CD68116A21F0100111629069116A20F4E9
:10321800704021F0A00141EA041140EA05309061B4
:103228001162916821F0700141F06701916099E79E
:10323800302C3FF478AF96E7704700BF704700BF67
:10324800704700BF704700BF704700BF03681A6926
:10325800910710B5044602D5DA6892075FD41A6957
:10326800500702D5DA68510746D41A69120702D501
:10327800DA6810072ED41A69D20602D5DA68D006A1
:1032880018D41A69D10702D5DA68D2075DD41A6949
:10329800100602D5DA6811065FD41A69520602D5FB
:1032A800DA68500661D41A69910602D5DA6892067E
:1032B80043D410BD6FF01001082219612277DB6931
:1032C80013F4407F204664D0FFF7BAFF002223683A
:1032D8002277D6E76FF00801042219612277DB69AB
:1032E8009907204652D1FFF7A9FF2046FFF7AAFF0A
:1032F800002223682277BEE76FF0040102221961D9
:1033080022779B6913F4407F20463CD1FFF796FF54
:103318002046FFF797FF002223682277A5E76FF082
:1033280002010122196102779B699B0725D0FFF7EB
:1033380087FF00222368227791E76FF0200220465A
:103348001A61BDE8104000F06BB86FF001021A6115
:103358002046FFF771FF236899E76FF080021A6132
:10336800204600F05FF8236897E76FF040021A6183
:103378002046FFF769FF236895E7FFF75FFF2046C0
:10338800FFF760FFD5E7FFF75BFFC4E7FFF758FFDC
:10339800AEE7FFF753FF2046FFF754FF96E700BF5D
:1033A80090F83C20012A37D003460268022030B446
:1033B80083F83D0050680D68946820F07000284339
:1033C8005060164882421AD0B2F1804F17D0A0F54B
:1033D8007C40824213D000F5806082420FD000F515
:1033E800806082420BD000F57840824207D000F519
:1033F8007050824203D0A0F59430824204D14968CB
:1034080024F080040C4394600020012283F83D20BE
:1034180083F83C0030BC7047022070470000014030
:10342800704700BF704700BF002800F0868038B59D
:1034380090F83D30044603F0FF02002B78D0236853
:10344800E068242284F83D20DA6822F40052DA6029
:103458001969A26821F440510143206919610243A6
:103468006069D9680243E06921F4164121F00C0132
:1034780002430A43DA605A69A069314922F440726A
:1034880002438B425A6135D02E4A934232D0FFF71D
:1034980013FBE2691921B2F5004FD4E90053A0FBF0
:1034A80001012AD09A009B0FFCF7ECFE264AA2FBEA
:1034B80000135B09642101FB130000013230A2FBF9
:1034C80000201B0103EB5013AB602B6923F49043DE
:1034D8002B616B6923F02A036B61EB6800212022C2
:1034E80043F40053EB60216484F83D2084F83E20C7
:1034F800084638BDFFF7F0FACBE7DA184FF00003BB
:103508005B41FCF7BFFE104AA2FB00314909642366
:1035180003FB1103DB003233A2FB0323C3F3421284
:103528001B0902EB011203F4F8731344AB60CCE7F8
:1035380080F83C20FDF788FB81E70120704700BF39
:1035480000100140001401401F85EB51704700BF77
:10355800704700BF704700BF08B5806B0023C38564
:10356800C384FFF7F7FF08BD704700BF8368016891
:10357800826AB3F5805F41D0002B38D04B6803F0E6
:103588007F031370826A0132C38D8262013B9BB252
:10359800C385002B31D1026800B5D16821F0200124
:1035A80083B0D160D16821F48071D16051694FF046
:1035B800200C21F00101516180F83EC0016B012906
:1035C80025D1036302F10C0353E8003F23F01003F5
:1035D80002F10C0C4CE800310029F3D11368DB062A
:1035E8001AD4818DFFF7C0FF03B05DF804FB0369AF
:1035F800002BC3D14B68DBB2C3E770470369002BCC
:10360800F8D14B68C3F3080322F8023BBCE7FFF785
:103618009FFF03B05DF804FB002301931368019337
:1036280053680193019BDCE730B503681A68DD68CD
:10363800596912F00F0F83B004466ED1910602D576
:10364800A90600F1A180216B01290BD0100602D533
:10365800290600F1A380520602D5680600F1BD8054
:1036680003B030BDD006F1D5E906EFD500220192AE
:103678001A6801925A680192019A5A69550640F1EE
:103688003A81A06B0268526892B2002AE8D0A18DF4
:103698009142E5D9E285C269B2F5807F36D003F15F
:1036A8000C0252E8002F22F4807203F10C0545E861
:1036B80000210029F3D103F1140252E8002F22F06F
:1036C800010203F1140545E800210029F3D103F1B3
:1036D800140252E8002F22F0400203F1140545E8D5
:1036E80000210029F3D1202284F83E20216303F130
:1036F8000C0252E8002F22F0100203F10C0545E8F5
:1037080000210029F3D1FDF7EBFEA18DE38DC91A45
:10371800204689B2FFF728FFA2E711F0010140F027
:10372800CF8015F4907F8ED0D0070BD5E80540F1F7
:10373800DE80206C40F00100206450075CD5002931
:1037480040F0C280900766D5100700F1CD80216C4B
:10375800002985D0910609D5AA0607D594F83E20F8
:10376800222A03D12046FFF701FF23685A69216CFA
:1037780002F0400201F0080152EA010555D1204645
:10378800FFF7E8FE25646BE790F83E30222B7FF4C4
:1037980067AF03B0BDE83040FFF7E8BE94F83D20BE
:1037A800212A7FF45DAFA168226AB1F5805F00F03D
:1037B800DB80511C216212785A60E28C013A92B285
:1037C800E284002A7FF44CAFDA6822F08002DA60E3
:1037D800DA6842F04002DA6042E7DA68202122F033
:1037E8004002DA60204684F83D10FFF7AFFE37E765
:1037F800E8059ED4500767D490070CD50029A3D0BC
:10380800216C41F0040121641107A0D5216C41F01D
:10381800080121649BE7100799D505F020000843AB
:10382800F4D1226C002AA1D11AE703F10C0252E864
:10383800002F22F4907203F10C0040E800210029C7
:10384800F3D103F1140252E8002F22F0010203F130
:10385800140040E800210029F3D1226B012A22D06C
:103868000022202184F83E1022635A69550634D577
:1038780003F1140252E8002F22F0400203F1140071
:1038880040E800210029F3D1A06B30B33C4B03651D
:10389800FDF770FE00283FF4E3AEA06B036D03B0A4
:1038A800BDE83040184703F10C0252E8002F22F01F
:1038B800100203F10C0040E800210029F3D1CFE702
:1038C800D00795D450070CD5216C41F00201216432
:1038D800910795D4110799D439E72046FFF73AFEA6
:1038E800BEE691078CD4F5E7A9068FD499E750076F
:1038F8003FF528AF80E7E18DE28DA08D92B289B2C5
:10390800002A3FF4ADAE411A89B200293FF4A8AEAF
:1039180003F10C0252E8002F22F4907203F10C0517
:1039280045E800200028F3D103F1140252E8002FE3
:1039380022F0010203F1140545E800200028F3D124
:10394800202284F83E20206303F10C0252E8002F65
:1039580022F0100203F10C0545E800200028F3D1FD
:103968002046FFF701FE7BE6216900297FF421AF9D
:1039780032F8021BC1F30801596022621DE700BF3B
:10398800613500080A6870B450F82230124D8C680E
:10399800CE681D404B68234333430E6933434E6959
:1039A80033438E693343CE6933430E6A33434E6AD9
:1039B80033438E6A3343CE6A3343CE6B096B33434A
:1039C8000B432B43082C08BF43F0400340F8223038
:1039D80070BC0020704700BF8000F0FF10B40B6877
:1039E8008C6923434C6800EB820243EA0413D1E953
:1039F800020443EA002343EA0443D1E9044150683E
:103A080004F1FF3C43EA0C53A1F1020C43EA0C63B6
:103A180000F040410B4300205DF8044B53607047B1
:103A2800B3F5804F05D06FF0704340F82230002086
:103A3800704730B450F82230094C8D691C400B682F
:103A48002B434D6843EA05138D68C96843EA05238B
:103A580043EA0143234340F8223030BC002070473A
:103A68000000F0CF2DE9F047077F17F0010722D1BA
:103A7800C66805468946904616B1B246012708E051
:103A880088470646B8B18246306801F065FA0306F1
:103A980014D531462846C047504506460BD0002865
:103AA800F2D12B7F1A0706D52FB12846C847002721
:103AB80006460028E8D10020BDE8F08734682CB914
:103AC80010E0204608F0DAFF044658B101212046EC
:103AD80001F032FA0028F4D02046012101F02CFA36
:103AE8000028D6D1EB68B342E5D02BB30020D3F839
:103AF800008033F0DDF8044698B100270BE033F07E
:103B0800FBF8034620469D4208BF274633F0D0F80D
:103B1800044600283BD0204633F0E6F8012820462A
:103B2800EDD122461421404602F096F90128C2D16F
:103B3800EB68186804F02CFCEE600020376833F05E
:103B4800B7F8044690B100260AE033F0D5F80346EA
:103B580020469D4208BF264633F0AAF80446F8B12D
:103B6800204633F0C1F801282046EED12246132121
:103B7800384602F071F901289DD1EB68186804F005
:103B880007FC2B690BB128469847012094E73C466F
:103B980022461421404602F05FF901288BD1C7E77D
:103BA800344622461321384602F056F9012882D1BC
:103BB800E3E700BF2DE9F041064601F0D9F90028F6
:103BC80054D0037F13F0010705464FD19A0717D544
:103BD800C26867F34103037792B1D2F80080B8F165
:103BE800000F0DD0384633F063F8044600284BD157
:103BF80022461321404602F02FF9012800F0828066
:103C080028463AF04DFF044620B92FE03AF050FF1D
:103C1800044658B323689E4221462846F6D1EB68ED
:103C2800002B43D0D3F8008046453FD0002033F026
:103C38003FF8064698B100270BE033F05DF80346DD
:103C480030469D4208BF374633F032F80646002812
:103C580060D0304633F048F801283046EDD132467E
:103C68001421404602F0F8F801281BD0BDE8F08185
:103C780033F042F8034620469D4208BF274633F0FA
:103C880017F80446002841D0204633F02DF80128C3
:103C98002046EDD122461321404602F0DDF80128E6
:103CA800AED12FE0EB68186804F072FB2B69EC606A
:103CB80013B128469847EC682768002032F0F8FFCF
:103CC800044690B100260AE033F016F80346204671
:103CD8009D4208BF264632F0EBFF0446C0B120469D
:103CE80033F002F801282046EED122461321384647
:103CF80002F0B2F80128B9D1EB68BDE8F0411868C4
:103D080004F046BB404604F043FB79E73C466FE7C6
:103D18003446EAE73E46A2E7014820213AF038BE99
:103D2800644D0020014B586C704700BF2C4D00209B
:103D38002DE9F04182B0054601F01AF9F0B1C368E7
:103D4800044613B11B68AB421BD020463AF0A8FECC
:103D5800014620B912E03AF0ABFE014670B10B689B
:103D6800AB422046F7D101913AF072FE019908461C
:103D78003FF07AF8AB680BB100225A6002B0BDE898
:103D8800F081037FDA0744BF23F0010303773AF099
:103D980087FEE36883422BD0227F42F00803237713
:103DA8005B07C2F3C00615D4284A29492046FFF705
:103DB80059FE63690BB1002841D0237F66F3C30322
:103DC8002377E368002BC0D01B689D4204BF002303
:103DD800E360BAE71F4A20492046FFF743FE6369BC
:103DE800002BEAD00028E8D1014620469847E4E7AE
:103DF80020463AF059FEE26890420346CCD10020B2
:103E0800D3F8008032F054FF064690B100270AE04C
:103E180032F072FF034630469C4208BF374632F004
:103E280047FF064678B1304632F05EFF012830463B
:103E3800EED132461421404602F00EF8C1E70121C6
:103E480020469847B9E73E46F3E700BFB9EA0308BA
:103E5800A9EA0308C1EA0308B1EA0308A8B170B5E2
:103E68000D4604460846FFF763FFAB6833B35C6052
:103E780020463AF0D7FD064630B1056020463AF0B4
:103E88000FFE864202D070BDFEE77047227F42F0E7
:103E9800080323775B07C2F3C00514D51149124AFA
:103EA8002046FFF7DFFD6369014613B108B92046D4
:103EB8009847237F65F3C303237770BD284601F035
:103EC8005DF8AB68D3E7094A09492046FFF7CAFD00
:103ED8006269002AEDD00028EBD1012120469047E5
:103EE800E7E700BFB1EA0308C1EA0308B9EA030833
:103EF800A9EA030808B1FFF75DBE704768B110B5BD
:103F08000446074A0749FFF7ADFD636933B128B98D
:103F180020460121BDE810401847FEE710BD00BF4C
:103F2800B9EA0308A9EA030868B110B50446074AC4
:103F38000749FFF797FD636933B128B90146204661
:103F4800BDE810401847FEE710BD00BFC1EA0308EE
:103F5800B1EA030810B582B0019178B1C36873B1B2
:103F68001C6864B18021204600F0FAFF38B901AA24
:103F78001121204601F070FF02B010BDFEE70120BC
:103F880002B010BD68B3F8B5037FC3F340028A429C
:103F9800054625D0C26861F34103037702B3176869
:103FA800F7B1002032F084FE044690B100260AE002
:103FB80032F0A2FE034620469D4208BF264632F054
:103FC80077FE044698B1204632F08EFE012820463E
:103FD800EED122461321384601F03EFF012801D0D8
:103FE800F8BDFEE73846BDE8F84004F0D1B93446DC
:103FF80022461321384601F02FFF0128F0D1F1E7BE
:1040080010B1C06800B10068704700BF10B1007FF0
:10401800C0F34000704700BF08B13AF051BDFEE759
:104028002DE9F041AEB006463AF048FA054630466A
:104038003AF040FA1A2D044606D01D2D18D0202D2E
:1040480059D02EB0BDE8F08130463AF03BFA0378FB
:10405800022B0546F5D02D220021204606F072FBE2
:1040680006460990002800F0FD8002232B70E8E73F
:10407800304601F0E3FF09AD064628460DF090FCF6
:1040880000212A4620460D9601F036F935220021F6
:10409800204606F057FB0590002840F0E1809DF887
:1040A8009820C2F340129DF89830002162F345131E
:1040B80020466A228DF8983006F044FB6B220746AA
:1040C80005900021204606F03DFB05900246394642
:1040D800D4E90670236A6469CDE9070305A8CDE928
:1040E800054738F021FF05AA294630460DF0DCFCCB
:1040F8002EB0BDE8F081304601F0A0FF05AA0646C3
:1041080001A9204605F0F0FE01A838F0FFFE20B90D
:1041180005A838F0FBFE002860D009AD28460DF050
:104128003FFC1D224FF48031204606F00BFB009027
:10413800C0B202288DF8520000F2078132224FF4F3
:104148008031204606F0FEFAC3B2022B00908DF8AB
:10415800533000F216813E224FF48031204606F09B
:10416800F1FAC3B2022B00908DF8553000F2FB80B3
:104178004FF48031204606F0B7FCFC280FD89DF894
:10418800523013FB00F3C3F307234FF0000263F32D
:10419800070263F30F228DF85530ADF85220BDF8B1
:1041A800523013B99DF85530C3B10C224FF4803109
:1041B800204606F0C7FA0090109001A838F0A6FE35
:1041C800002840F0BA8005A838F0A0FE30B10123DD
:1041D800294605AA30460B930DF066FC30220021D3
:1041E800204606F0AFFA099000283FF42AAF35229E
:1041F8000021204606F0A6FA099000283FF421AFD6
:10420800002509A80DF0CCFB09AA294620468DF8FF
:1042180052508DF84F50ADF854500D9601F06CF88F
:1042280029466A22204606F08DFA29460746059057
:104238006B22204606F086FA05900246D4E906501D
:10424800236A64693946CDE9070305A8CDE9054520
:1042580038F06AFE05AA09A930460DF025FCF0E6FB
:10426800012220E701460C22204606F06BFA6A225A
:10427800074609903146204606F064FA6B228046CC
:1042880009903146204606F05DFA09900246D4E9C5
:1042980006E0D4F820C063694146CDE90B0C09A8B3
:1042A800CDE9093E38F040FE68683A4609A939F078
:1042B80029F810B901232B70C3E61D223146204688
:1042C80006F040FAC3B2FC2B0590F3D962223146BE
:1042D800204606F037FAC3B2FC2B0590EAD9202213
:1042E8003146204606F02EFAC3B205908BB125223E
:1042F8003146204606F026FAC3B2FC2B0590D9D9E0
:1043080024223146204606F01DFAC2B2FC2A059046
:10431800D0D926220021204606F014FA059048B18B
:10432800837A3BB1C278FC2AC4D9012B02D0037A24
:10433800FC2BBFD900232B7083E6002301AA294652
:1043480030460B930DF0B0FB3DE71C224FF4803153
:10435800204606F0F7F90090ADF85600C0F3074084
:104368008DF85800EAE63C224FF48031204606F0EA
:10437800E9F9002800902A9011DC00238DF85530C7
:10438800F6E630224FF48031204606F0DBF90028AB
:104398000090259019DC00238DF85330DBE642228B
:1043A8004FF48031204606F0CDF93D2200902D9043
:1043B8004FF48031204606F0C5F90090ADF8A4000E
:1043C800C0F307408DF8A600D2E631224FF48031C1
:1043D800204606F0B7F90090ADF89000C0F307400A
:1043E8008DF89200B7E600BF2DE9F0414E6882B023
:1043F8000C462EB3304604F08BFE0746304604F0D8
:104408007DFE1022804600213046B56906F09AF9F3
:104418002B18A3EB0803A361013B0190236212222E
:1044280000213046756906F08DF90544ED1B4BF601
:1044380076336A1E6561E261636202B0BDE8F081AD
:1044480041F67603636202B0BDE8F08170B588B0CA
:104458000D46044602F012FCEA06064623D4636AB7
:1044680023EA05036362EB0711D4204602F006FC39
:10447800864202D115F0C07F07D0204608F0FEFA28
:1044880008B0BDE8704002F015BC08B070BD204609
:1044980003F07EFF204608F0F1FA02F00BFC2046FC
:1044A80002F008FCE1E704AA6946204605F01CFD75
:1044B8006946204602F0FAFF04A9204602F0F6FFFA
:1044C800CDE700BF10B508460C463AF005F80020C5
:1044D80006F032F9204607F037FD012006F02CF9E6
:1044E8000021204638F074FBCCB1A368B3B15A68F8
:1044F80022B12046FFF71CFCA3687BB1186820B1E5
:104508003EF0B2FCA36800221A6003F1080039F0FB
:1045180083FFA0683EF0A8FC0023A36010BDFEE75F
:10452800F0B589B00D46044602F0A8FBE907064637
:1045380027D4636A2B436362204602F09FFB8642BE
:1045480006D115F0C07F03D1EB060BD409B0F0BD3E
:10455800204608F093FA02F0ADFB204602F0AAFBD1
:10456800EB06F3D504AA6946204605F0BDFC69466A
:10457800204602F09BFF04A9204602F097FF09B0ED
:10458800F0BD204603F004FF636A228D2B43920797
:104598006362D1D5A368002BCED05F68002FCBD043
:1045A8003846FFF7ABFC3846FFF72AFD0028C3D092
:1045B80003F0EEFEC0E700BF2DE9F04F048D8C42FA
:1045C8008BB008D00A460F462146054606F0F8F893
:1045D800804618B92F850BB0BDE8F08F284603F048
:1045E800D7FE28462F8506F015FB4FF420703EF0C5
:1045F80027FC6B8D13F4FC6F8246C3F3451B76D002
:10460800EB6809950026FA43079303929C463146C6
:104618000894C1463D46DCF80440039B1FFA84FE1B
:104628001EEA030FC4F3170440F091809CF807308A
:1046380013F0020340F08B80079A52F83620177A5D
:10464800D2F80080FF2F00F08880BA0042441FB9DA
:104658007DE001339F427AD012F8010B6828F8D127
:1046680058F82330D3F8008098F80000002800F0AC
:10467800818004F47F07002950D0CDE90494069383
:104688005346002204E001328A4203F1140342D067
:104698001C7A8442F7D15C6804F47F09B945F2D1E9
:1046A800A4B27445EFD38A4235D018F8010F002818
:1046B800E6D1DDF8109001365E455ED020290CF178
:1046C800080CA8D12F46089C099DC84601EB81011A
:1046D8000AEB81095646716800963B46224601F46A
:1046E8007F012846143606F073FF4E45F3D1504635
:1046F8003EF0BAFB08F0FD03012B45D0B8F1020FDC
:104708007FF469AF284603F043FE28460BB0BDE8A6
:10471800F04F01F0E1BADDE90494069BD86801EB9B
:10472800810201312AF822000AEB820218695080BE
:104738009868D06098F8000010725868106154604A
:1047480018F8010F0028B6D0202996D1B3E7013612
:104758005E4512D00CF1080C5DE798F8003023B9DB
:10476800F5E718F8083F002BF1D0682BF9D1D8F8F5
:10477800043077E70136B345ECD12F46089C099DF4
:10478800C8460029A2D1B2E7FF224FF4702128467B
:104798000BB0BDE8F04F06F07FBC00BF10B5014676
:1047A800044800F043FC20B1044600F0A3FC204676
:1047B80010BDFEE7C4BC05080A4620B1436A9A4307
:1047C80002D0FFF7ADBEFEE7704700BF18B1436ADD
:1047D800194201D17047FEE7FFF738BE60B12DE9F5
:1047E800F04F038D0D46194335EA030387B004469D
:1047F80003D107B0BDE8F08FFEE7FFF7DDFE636A7F
:104808005802F6D5204608F085F983460028F0D0EE
:10481800002726463946304608F034F9044650B198
:10482800038D45EA030135EA030304D0FFF7C4FE0C
:10483800636A590203D40137BB45EBD1D9E7204657
:1048480008F068F901900028F5D0CDE902764FF01C
:10485800000A5146204608F015F9064650B1028D67
:1048680045EA020135EA020204D0FFF7A5FE726AA2
:10487800520207D4019B0AF1010A5345E9D1DDE947
:104888000276D8E7304608F045F907460028F1D007
:10489800CDE904B44FF000094946304608F0F2F873
:1048A800044650B1038D45EA030135EA030304D0F9
:1048B800FFF782FE636A5B0206D409F101094F45DE
:1048C800EAD1DDE904B4D5E7204608F023F98346A8
:1048D8000028F2D04FF000084146204608F0D2F8F0
:1048E80010B12946FFF77AFF08F10108C345F3D153
:1048F800E3E700BF78B12DE9F04F028DCD438B4639
:1049080005EA0201AA4387B004461FFA85F803D1D5
:1049180007B0BDE8F08FFEE7FFF74EFE626A50026F
:10492800F6D5204608F0F6F882460028F0D0002692
:104938002546D9463146284608F0A4F8044650B121
:10494800038D08EA030133EA080304D0FFF734FEB5
:10495800636A590203D40136B245EBD1D8E7204641
:1049680008F0D8F801900028F5D0CDE902A64FF05C
:10497800000BCDF800B004950099204608F082F8A5
:10498800054650B1028D08EA020132EA080204D055
:10499800FFF712FE6A6A520209D4009B019A01339A
:1049A8009A420093E8D1DDE902A6049DD3E72846A0
:1049B80008F0B0F806460028EFD0002705943946DD
:1049C800284608F05FF8044650B1038D08EA030151
:1049D80033EA080304D0FFF7EFFD636A5B0204D4EF
:1049E8000137BE42EBD1059CD7E7204608F092F884
:1049F80083460028F4D04FF0000A5146204608F0BC
:104A080041F810B14946FFF775FF0AF1010AD3458D
:104A1800F3D1E5E7F0B5084689B00E4639F04EFD0A
:104A28000446304639F046FD631E0546312B55D8FD
:104A3800DFE813F05C005400630054005400540095
:104A480054005400540054006A008B0054008D0038
:104A580054005400A3005400C600EB005400540056
:104A680029012E0130015600ED0054005600540073
:104A7800540056005400540054005400540054008C
:104A8800540054005400F70054001E015400540010
:104A980054005400320032010A22002105F052FE6F
:104AA8001622044600212846049405F04BFE83B2E2
:104AB80004900BB9E4B214B1284602F0FBF828467A
:104AC80008F028F8064648B10024AB681B6853F87C
:104AD8002400013402F0EEF8A642F6D109B0F0BD88
:104AE800304609B0BDE8F040FFF79ABA20212846C1
:104AF80009B0BDE8F040FFF771BE2021284609B093
:104B0800BDE8F040FFF7F6BE2021FFF7F3FE304680
:104B180039F0D8FC32F046FA0028DFD1002D00F039
:104B2800CC806B6A1E07D9D52B8DDC074FF00101AD
:104B3800284600F12781FFF751FE0022232128464D
:104B480009B0BDE8F04001F087B94021CFE7402126
:104B5800FFF7D0FE284604F0A3FA0228BED104AA23
:104B68006946284605F0C0F96946284602F09EFCC9
:104B780004A9284602F09AFCB0E700B3436A180774
:104B880000F1F38003F40163B3F5016FA6D1284661
:104B980000F022FB0028A1D1284604F0B9FA074604
:104BA800284604F0CFFA0446304601F04FFAA0F147
:104BB8001103032B92D8DFE803F09481BEA2FEE72D
:104BC80010B3436A5B0500F1E380A86800B1406850
:104BD800FFF71CFA044632F075F8002800F0DC8074
:104BE80032F082F8022800F0BD8004280BBF0E21A5
:104BF8000A2106230223002C7FF479AF19462846A0
:104C0800FFF7ECFD082179E7FEE70E2176E70021A2
:104C180000F0F6FF0146304609B0BDE8F04001F06B
:104C28002DBA0122002105F08DFD02220646002141
:104C38002846049605F086FD0A22002104900746BE
:104C4800284605F07FFD16220490044600212846D8
:104C580005F078FD83B2049043B9E4B234B96FF03B
:104C680040439E4202D09F427FF438AF284605E079
:104C780090F82A3043F0020380F82A3009B0BDE8E2
:104C8800F04002F017B82021FFF734FE402135E745
:104C980010212CE7102131E707F03CFF06460028D9
:104CA8003FF41CAF0024AB681B6853F824000134A0
:104CB80002F000F8A642F6D110E7FEE7284604F015
:104CC80017FA0446284602F0F5F8011EB8BF03316A
:104CD800002204EBA101284609B0BDE8F04004F029
:104CE800B1BF284604F004FA0446284602F0E2F868
:104CF800011E00DA03310022A4EBA101EBE72846EC
:104D080004F0D8F98207ECD0002F01DC002CE8DD94
:104D1800284604F0E7F90446284602F0C5F8011EC3
:104D2800B8BF03310022A4EBA101284609B0BDE8B1
:104D3800F04004F0B1BE284604F0BCF98107BDD0AC
:104D4800002F01DC002CB9DD284604F0CBF904461D
:104D5800284602F0A9F8011EB8BF0331002204EB6F
:104D6800A101E2E70E21062345E7304601F06EF97E
:104D7800A0F11103032B13D8DFE803F007020702A1
:104D880001212846FFF7B6FDD7E601212846D2E6DD
:104D9800012105F053F818E7304601F041F91FE703
:104DA8000A283FF49BAEC8E62DE9F04F044685B0CB
:104DB8000E464AB138B1038D194336EA030327D1A9
:104DC80005B0BDE8F08FFEE708B3038D1546CA436A
:104DD80002EA0301934397B2F2D0FFF7EDFB636A4F
:104DE8005902EDD5204607F095FE83460028E7D006
:104DF8002946204607F046FE804620B1038D07EA83
:104E08000301BB4320D10135AB45F1D1D8E7FEE71B
:104E1800FFF7D2FB636A5A02D2D5204607F07AFE22
:104E280080460028CCD000273946204607F02AFEC5
:104E3800054628B1038D46EA030136EA03032CD15F
:104E48000137B845F0D1BBE7FFF7B6FBD8F82430F7
:104E58005A02D8D5404607F05DFE82460028D2D0D7
:104E6800CDE901B54FF0000903944946404607F0E3
:104E780009FE054648B1028D07EA0201BA4304D08B
:104E8800FFF79AFB6A6A530242D409F10109CA453D
:104E9800EBD1DDE901B5039CB5E7FFF78DFB6B6A44
:104EA8005B02CDD5284607F035FE01900028C7D013
:104EB8004FF000094946284607F0E4FD824658B1FC
:104EC800028D46EA020136EA020205D0FFF774FBBA
:104ED800DAF82420500205D4019B09F101094B4559
:104EE800E8D1ADE7504607F015FE02900028F3D050
:104EF8004FF0000B5946504607F0C4FD10B131463B
:104F0800FFF76CFC029B0BF1010B5B45F2D1E3E769
:104F1800284607F0FFFD83460028B6D00024214626
:104F2800284607F0AFFD10B13146FFF7E3FC013426
:104F3800A345F4D1A9E700BF28B1436A99430CBF40
:104F4800012000207047FEE728B1436A194214BFC8
:104F5800012000207047FEE708B1008D7047FEE78A
:104F680028B1038D194214BF012000207047FEE7C5
:104F780018B1806800B140687047FEE720B18368C7
:104F880010B504460BB110BDFEE734203DF058FFC4
:104F9800A06030B1438E43F4707343F0030343863B
:104FA80010BDFEE720B10068401AB0FA80F0400951
:104FB800704700BF2DE9F0470F683E680C4605466C
:104FC8005EB3D6F800800E60B8F1000F1FD0D8F895
:104FD8000090C1F80080B9F1000F11D0D9F8002075
:104FE800C1F8009022B10A60FFF7E4FFC4F800900E
:104FF800D9F8043013B1214628469847C4F80080F0
:10500800D8F8043013B121462846984726607368BB
:1050180013B121462846984727607B6823B121466B
:105028002846BDE8F0471847BDE8F08770B50D463B
:10503800064650B12E4C034601E01B682BB11A6A94
:1050480014EA0200F9D0C2F30F103DF0F9FE04464D
:1050580000284AD0C0E90065ADB1AE68002E38D04E
:10506800318E3068013189B2318689003DF006FF02
:10507800AA683060138E126803F18043013B42F83E
:105088002340204670BD09F0E7F8064650B3D0F833
:10509800BC0218B3D6F8D832013399003DF0EEFEC1
:1050A800B0B1D6F8D832C6F8BC025A1C0025C6F8EA
:1050B800D82240F82340C4E90555284609F0DCF811
:1050C8000138E061284609F0E9F801382062D8E79C
:1050D800FEE72846FFF752FFAE68C1E7C6F8D85288
:1050E8000421DBE720463DF0BFFE0024C9E700BFEE
:1050F800F0FF0F0000285CD0F8B5044601F0DAFD97
:10510800002005F019FB204641F076F925682E6845
:10511800BEB13768266077B13B6827602BB1236042
:1051280021462846FFF746FF27607B6813B12146D2
:10513800284698472660736813B121462846984741
:1051480025606B6813B1214628469847012005F071
:10515800F3FAFF224FF47021204605F09DFF204608
:1051680001F0E2FEFEF7DEFD58B1226812B908E050
:10517800126832B192F8203013F00C03F8D0042BE7
:1051880013D0204607F07AFC054668B122462A214A
:1051980000F062FE224628462B2100F05DFE2046E4
:1051A800BDE8F84003F0F4B8F8BD2146FEF756FE16
:1051B800E7E7704710B50446006804E0984723689D
:1051C800186838B1206083682146002BF6D1006842
:1051D8000028F7D110BD00BF006810B90CE00068C6
:1051E80048B190F8203013F00303F8D0A3F1010080
:1051F800B0FA80F040097047704700BF70B586B0BC
:105208009DF828400193002A39D01346926C93F8F0
:105218004B50039209BB3CB125BB0198214606B00F
:10522800BDE8704038F0BCBC002DF6D08DF80F50AA
:10523800039B05939DF814309DF815109DF81620D2
:10524800204663F3070061F30F209DF8173062F3DF
:10525800174063F31F6006B070BD06F0CBFE0390E5
:10526800050ED8E72146019838F09AFC8DF80F50C2
:105278000146039806B0BDE8704038F0B3BE06F0AA
:1052880037FF0390050EC6E770B586B0019352B399
:105298001346966C93F849E092F8482093F84AC070
:1052A80093F84B40A9B97146604638F0DBFCC0F36F
:1052B8000722C0F307438DF80D208DF80C008DF8F8
:1052C8000E3001990398224606B0BDE8704038F0C8
:1052D800BBBD324606F08EFEC2B2C0F3072EC0F345
:1052E800074C040EDFE706F003FFC2B2C0F3072E37
:1052F800C0F3074C040ED6E7F0B513698BB014461B
:10530800C2E9000106460D46002B00F0248293F8FE
:105318004E70002949D10C222946304605F012FA70
:1053280094F82E300990E061002B40F0858194F8C4
:105338002F30002B40F03E8194F83030002B40F0A5
:10534800A78094F82B30002B40D194F83130002BF3
:1053580040F0DB80FC2F26D894F82E1094F82F000C
:1053680094F8302011FB07F1C1F30721002310FB4B
:1053780007F061F30703001212FB07F2121260F341
:105388000F2362F3174394F8312094F82B1012FB83
:1053980007F211FB07F11212091262F31F6384F876
:1053A8002B10C4F82E300BB0F0BD622205F0CAF9FC
:1053B8000990C0B207FB00F0070A022FABD8002300
:1053C80084F82B30C4F82E300BB0F0BD28222946C3
:1053D800304605F0B7F9099020620028B5D0292297
:1053E8002946304605F0AEF90990C0B2022884F883
:1053F8002B00AAD9206A0AF067FE022800F0B981BA
:105408002A222946304605F09DF92946024607908A
:10541800304605F0D1F90990ADF81800C0F30740FF
:105428008DF81A002B222946304605F08BF9099091
:10543800C0B20090069B226929463046FFF7DEFE7F
:10544800030EC2B2C0F30721089084F82C30C0F3D1
:10545800074038F007FCC0F3072384F82800C0F39E
:10546800074084F82A0084F829302C22294630463F
:1054780005F068F90990003818BF012084F82D005C
:1054880089222946304605F05DF90990A0665CE757
:1054980038222946304605F055F90990A0670028BA
:1054A8003FF44FAF3A222946304605F04BF90990B0
:1054B800C0B2022884F830007FF643AF3B22294669
:1054C800304605F03FF93922E06709902946304611
:1054D80005F038F929460246304605F06DF909907D
:1054E800C0F307408DF82600099B226929463046FB
:1054F800FFF7CAFEC0F3072384F87500C0F307401E
:1055080084F8763084F877001BE73C222946304639
:1055180005F018F90990C4F8840000283FF41AAF80
:1055280094F83130022B7FF615AF3E2229463046DB
:1055380005F008F9C3B2022B099084F831307FF6E0
:1055480009AF40222946304605F0FCF84122C4F84C
:10555800880009902946304605F0F4F84222C4F83C
:105568008C0009902946304605F0ECF83D22C4F835
:10557800900009902946304605F0E4F8294602468D
:105588000990304605F018F90890C0F307408DF8E7
:105598002200089B226929463046FFF775FEC0F3B2
:1055A8000722C0F3074384F8800084F8812084F838
:1055B8008230CFE630222946304605F0C3F80990FC
:1055C800206700283FF4B8AE32222946304605F05D
:1055D800B9F80990C0B2022884F82F007FF6ACAE63
:1055E80034222946304605F0ADF894F87430099015
:1055F80060F3040384F8743031222946304605F0FC
:10560800A1F829460246304605F0D6F80990C0F3BD
:1056180007408DF82600099B226929463046FFF786
:1056280033FEC0F3072384F86C00C0F3074084F806
:105638006D3084F86E007FE61D222946304605F05D
:1056480081F80990C0B2022884F82E007FF66FAE68
:105658001C222946304605F075F829460246029074
:10566800304605F0A9F8ADF81C000990C0F30740D2
:105678008DF81E00079B226929463046FFF704FE75
:10568800C0F3072384F83200C0F3074084F83400DD
:1056980084F8333026222946304605F053F809901D
:1056A80010B1C37A1A075DD120222946304605F089
:1056B80049F894F84330099060F3030384F84330C1
:1056C8001B073FF434AE638E238794F8343084F894
:1056D8003A3023222946304605F034F82946024656
:1056E800304605F069F8ADF820000990C0F307408E
:1056F8008DF82200089B226929463046FFF7C4FD31
:10570800C0F3072384F83D00C0F3074084F83E3017
:1057180084F83F0021222946304605F013F822225A
:1057280084F83C0009902946304605F00BF82422FD
:1057380084F8410009902946304605F003F82522EF
:1057480084F83B0009902946304604F0FBFF099095
:1057580084F84000EBE505F0C7F90746002D7FF413
:105768002CAED8E50146302204F138003CF036FE74
:10577800DDE55A222946304604F0E4FF58226062EB
:1057880009902946304604F0DDFF29460246069076
:10579800304605F011F80990C0F307408DF826004F
:1057A800099B226929463046FFF76EFDC0F307239F
:1057B80084F82800C0F3074084F8293084F82A00C8
:1057C8005EE600BFF0B5144685B0C2E90001592273
:1057D80006460D4604F0B6FFC3B2022B039084F8C8
:1057E8005A3001D805B0F0BD2269002A6AD092F873
:1057F8004E70002D56D1FC2F07D813FB07F3C3F3C7
:10580800072384F85A30022BECD92946582230460F
:1058180004F098FF294602460390304604F0CCFF76
:10582800C0F30743ADF804008DF80630019B2269E8
:10583800029029463046FFF727FDC0F3072384F876
:105848002C00C0F3074084F82D3084F82E00294638
:105858005B22304604F076FF2946606302905C22A2
:10586800304604F06FFF2946206302905D223046DF
:1058780004F068FF94F85C30029060F3020384F847
:105888005C3029465A22304604F05CFF5E2203460B
:10589800A06229463046029304F054FF84F8580069
:1058A80005B0F0BD62222946304604F04BFF039054
:1058B800C0B200FB07F7C7F30727FC2F94F85A304C
:1058C800A1D89AE72946304605F00EF90746F4E7CD
:1058D800F0B5144687B0C2E90001442206460D46D9
:1058E80004F030FFC3B2022B059084F8503001D881
:1058F80007B0F0BD2269002A7CD092F84E70002DC6
:1059080068D1FC2F07D813FB07F3C3F3072384F8E8
:105918005030022BECD94FF48073002206F11407A3
:10592800C4E90D332263384638F010F800EBD07024
:1059380040106064384638F00FF800EBD070401023
:10594800A06445222946304604F0FCFE294602465A
:105958000590304604F030FF4622C0F30743049018
:10596800ADF80800294630468DF80A3004F0EAFE02
:10597800C3B200932269029B049029463046FFF780
:105988003DFC030EC2B2C0F3072184F84F30C0F3C8
:10599800074038F067F9C0F3072384F84C00C0F3D8
:1059A800074084F84E0084F84D3089222946304655
:1059B80004F0C8FE04906065002D99D0692229463C
:1059C800304604F0BFFE94F8513060F3030384F8C6
:1059D80051308DE762222946304604F0B3FE059027
:1059E800C0B200FB07F7C7F30727FC2F94F8503025
:1059F8008FD888E72946304605F076F80746F4E759
:105A0800F0B5144685B0C2E900014D2206460D46A0
:105A180004F098FEC3B2022B039084F83C3001D8FE
:105A280005B0F0BD2269002A62D092F84E70002DB0
:105A38004ED1FC2F07D813FB07F3C3F3072384F8D1
:105A48003C30022BECD948222946304604F07AFE35
:105A5800039020630028E3D04C222946304604F006
:105A680071FE294602460390304604F0A5FEC0F3B5
:105A78000743ADF804008DF80630019B22690290B7
:105A880029463046FFF700FCC0F3072384F82C00B2
:105A9800C0F3074084F82E0084F82D3049222946A7
:105AA800304604F04FFE0290606338BB4B22294613
:105AB800304604F047FE94F83D30003818BF012006
:105AC80060F3000360F3410384F83D3005B0F0BD96
