:020000040800F2
:1000000000000220351F0008B9130008BD130008C6
:10001000C1130008C5130008C91300080000000040
:10002000000000000000000000000000CD130008E8
:10003000D113000800000000D5130008D9130008F0
:10004000851F0008851F0008851F0008851F000800
:10005000851F0008851F0008851F0008851F0008F0
:10006000851F0008851F0008851F0008851F0008E0
:10007000851F0008851F0008851F0008851F0008D0
:10008000851F0008851F0008851F0008851F0008C0
:10009000851F0008851F0008851F0008851F0008B0
:1000A000851F0008851F0008851F0008851F0008A0
:1000B000851F0008DD130008851F0008851F000844
:1000C000851F0008851F0008851F0008851F000880
:1000D000851F0008851F0008851F0008851F000870
:1000E000E9130008851F0008851F0008851F000808
:1000F000851F0008851F0008851F0008851F000850
:10010000851F0008851F0008851F0008851F00083F
:10011000851F0008851F0008851F0008851F00082F
:10012000851F0008851F0008851F0008851F00081F
:10013000851F0008851F0008851F0008851F00080F
:10014000851F0008851F0008851F0008851F0008FF
:10015000851F0008851F0008851F0008851F0008EF
:10016000851F0008851F0008851F0008851F0008DF
:10017000851F0008851F0008851F0008000000007B
:08018000851F0008851F00081F
:1001900010B5054C237833B9044B13B10448AFF3C1
:1001A00000800123237010BDB0000020000000007B
:1001B000D4C9050808B5034B1BB103490348AFF385
:1001C000008008BD00000000B4000020D4C905086C
:1001D00010F8012B11F8013B012A28BF9A42F7D0F1
:1001E000D01A7047034613F8012B002AFBD1181AC6
:1001F000013870470000000000000000000000000F
:1002000001F0FF01102A2BDB10F0070F08D010F8C7
:10021000013B013A8B422DD010F0070F42B3F6D1CB
:10022000F0B441EA012141EA014122F007047FF0E4
:1002300000070023F0E80256083C85EA010586EA3B
:10024000010685FA47F5A3FA87F586FA47F6A5FA77
:1002500087F68EB9EED1F0BC01F0FF0102F0070283
:1002600032B110F8013B013A83EA010313B1F8D12E
:100270000020704701387047002D06BF354603380F
:10028000073815F0010F07D1013015F4807F02BF48
:10029000013015F4C03F0130F0BC0138704700BF99
:1002A00081F0004102E000BF83F0004330B54FEA27
:1002B00041044FEA430594EA050F08BF90EA020F94
:1002C0001FBF54EA000C55EA020C7FEA645C7FEA27
:1002D000655C00F0E2804FEA5454D4EB5555B8BF4A
:1002E0006D420CDD2C4480EA020281EA030382EABB
:1002F000000083EA010180EA020281EA0303362D4D
:1003000088BF30BD11F0004F4FEA01314FF4801C1F
:100310004CEA113102D0404261EB410113F0004F31
:100320004FEA03334CEA133302D0524263EB4303E8
:1003300094EA050F00F0A780A4F10104D5F1200E86
:100340000DDB02FA0EFC22FA05F2801841F10001E1
:1003500003FA0EF2801843FA05F359410EE0A5F1B5
:1003600020050EF1200E012A03FA0EFC28BF4CF0E6
:10037000020C43FA05F3C01851EBE37101F000459C
:1003800007D54FF0000EDCF1000C7EEB00006EEBA9
:100390000101B1F5801F1BD3B1F5001F0CD3490833
:1003A0005FEA30004FEA3C0C04F101044FEA44528A
:1003B00012F5800F80F09A80BCF1004F08BF5FEA11
:1003C000500C50F1000041EB045141EA050130BDF1
:1003D0005FEA4C0C404141EB0101013C28BFB1F503
:1003E000801FE9D291F0000F04BF01460020B1FA4E
:1003F00081F308BF2033A3F10B03B3F120020CDA21
:100400000C3208DD02F1140CC2F10C0201FA0CF0FE
:1004100021FA02F10CE002F11402D8BFC2F1200C63
:1004200001FA02F120FA0CFCDCBF41EA0C01904019
:10043000E41AA2BF01EB0451294330BD6FEA040462
:100440001F3C1CDA0C340EDC04F11404C4F120024D
:1004500020FA04F001FA02F340EA030021FA04F35F
:1004600045EA030130BDC4F10C04C4F1200220FAB6
:1004700002F001FA04F340EA0300294630BD21FAF4
:1004800004F0294630BD94F0000F83F4801306BFBA
:1004900081F480110134013D4EE77FEA645C18BFAE
:1004A0007FEA655C29D094EA050F08BF90EA020F45
:1004B00005D054EA000C04BF1946104630BD91EA3D
:1004C000030F1EBF0021002030BD5FEA545C05D140
:1004D0004000494128BF41F0004130BD14F580047F
:1004E0003CBF01F5801130BD01F0004545F0FE41F3
:1004F00041F470014FF0000030BD7FEA645C1ABF28
:10050000194610467FEA655C1CBF0B46024650EA5E
:10051000013406BF52EA033591EA030F41F400218A
:1005200030BD00BF90F0000F04BF0021704730B510
:100530004FF4806404F132044FF000054FF00001E5
:1005400050E700BF90F0000F04BF0021704730B5A6
:100550004FF4806404F1320410F0004548BF40427B
:100560004FF000013EE700BF42004FEAE2014FEAD0
:1005700031014FEA02701FBF12F07F4393F07F4FAB
:1005800081F06051704732F07F4208BF704793F0AE
:100590007F4F04BF41F40021704730B54FF46074C1
:1005A00001F0004521F000411CE700BF50EA0102C4
:1005B00008BF704730B54FF000050AE050EA01026D
:1005C00008BF704730B511F0004502D5404261EBDD
:1005D00041014FF4806404F132045FEA915C3FF41E
:1005E000D8AE4FF003025FEADC0C18BF03325FEABB
:1005F000DC0C18BF033202EBDC02C2F1200300FA6C
:1006000003FC20FA02F001FA03FE40EA0E0021FA90
:1006100002F11444BDE600BF7BB972B90029BEBF28
:1006200000204FF0004106E008BF00281CBF6FF01B
:1006300000414FF0FF3000F0D3B9ADF1080C6DE987
:1006400004CE002909DB002B1ADB00F04DF8DDF8A1
:1006500004E0DDE9022304B07047404261EB410150
:10066000002B1BDB00F040F8DDF804E0DDE902239D
:1006700004B0404261EB4101524263EB43037047D7
:10068000524263EB430300F02FF8DDF804E0DDE9AC
:10069000022304B0404261EB41017047524263EBD8
:1006A000430300F021F8DDF804E0DDE9022304B0A3
:1006B000524263EB4303704753B94AB9002908BF5C
:1006C00000281CBF4FF0FF314FF0FF3000F088B919
:1006D000ADF1080C6DE904CE00F006F8DDF804E099
:1006E000DDE9022304B070472DE9F047089D8E46EE
:1006F00004468846002B4AD18A42174662D9B2FA8C
:1007000082F64EB1C6F1200301FA06F820FA03F38F
:10071000B74043EA0808B4404FEA174E1FFA87FC77
:10072000B8FBFEF1230C0EFB118843EA084301FBE2
:100730000CF29A4209D9FB1801F1FF3080F0EA80EF
:100740009A4240F2E78002393B449A1AA3B2B2FBC4
:10075000FEF00EFB102243EA024300FB0CFC9C451A
:1007600009D9FB1800F1FF3280F0D6809C4540F299
:10077000D3803B44023840EA0140A3EB0C03002144
:100780001DB1F3400022C5E90032BDE8F0878B427D
:1007900005D90DB1C5E9000100210846F5E7B3FA16
:1007A00083F1002946D1734502D3824200F20581CC
:1007B000841A6EEB030201209046002DE5D0C5E9B6
:1007C0000048E2E7002A00F09080B2FA82F6002E9C
:1007D00040F0A4808A1A030C4FEA174E80B2BCB2D4
:1007E0000121B2FBFEFC0EFB1C2243EA024304FB88
:1007F0000CF29A4207D9FB180CF1FF3802D29A4248
:1008000000F2E080C4469B1AB3FBFEF20EFB1233EB
:1008100040EA034302FB04F49C4207D9FB1802F1AF
:10082000FF3002D29C4200F2CA8002461B1B42EA01
:100830000C40A5E7C1F120068B4022FA06F71F43C2
:100840000EFA01F420FA06F32EFA06FE4FEA1749D3
:10085000234300FA01F81FFA87FCBEFBF9F01C0CD9
:1008600009FB10EE44EA0E4400FB0CFEA64502FA1A
:1008700001F209D93C1900F1FF3A80F09C80A645AD
:1008800040F2998002383C44A4EB0E041FFA83FE28
:10089000B4FBF9F309FB13444EEA044403FB0CFCDC
:1008A000A44508D93C1903F1FF3E80F08280A4459D
:1008B0007FD9023B3C4443EA0040A4EB0C04A0FB7C
:1008C00002EC64457346E14662D35FD05DB1B8EB9C
:1008D000030264EB090404FA06F622FA01F31E434C
:1008E000CC40C5E9006400214FE7B1FBF2FC010CEC
:1008F00041EA0E4180B240EA01423B4638463C465E
:10090000B846BE462026B1FBF7F1A2EB080241EA49
:100910000C4166E7014618E710462CE7C6F12002B5
:100920002EFA02F3B740B14020FA02F24FEA174E16
:100930000A43B3FBFEF8BCB20EFB1833110C41EABC
:10094000034108FB04F9B04089454FEA104380B2E7
:100950003ED9791808F1FF3C01D289451FD8A1EB97
:100960000901B1FBFEF909FB04F80EFB191192B263
:1009700042EA0142424529D2BA1809F1FF31C4D2F4
:100980004245C2D2A9F102013A44BEE7F0459DD2E8
:10099000BEEB02036CEB070C0138E14696E7A7EBD0
:1009A00009094944A8F1020CB1FBFEF909FB04F85E
:1009B000DBE773467FE7504666E70846FDE63B44C3
:1009C000023A33E7ACF1020C3B441CE749469CE792
:1009D000A1EB0901C446B1FBFEF909FB04F8C4E729
:1009E000704700BF2DE9F0411C4F80460E46388805
:1009F0004FEA182115461C4656F0A6FA38880130F1
:100A00005FFA88F180B256F09FFA38880230290ADE
:100A100080B256F099FA3888E9B20330104D80B2AE
:100A200056F092FA2888310A56F08EFA288801305A
:100A3000F1B280B256F088FA28880230210A80B2DA
:100A400056F082FA28880330E1B280B256F07CFA80
:100A5000BDE8F0414FF4305056F062BAAC5301207B
:100A6000AA53012070B50C468B89164605460A89A3
:100A700020888988FFF7B6FFA3682168581A616843
:100A8000E3685B1A0133324600FB0333044905482F
:100A900055F058FD2846BDE870400BF05BBF00BF25
:100AA00000000860E84B002010B501200C465BF008
:100AB00037F90B4B93F900201B78002A03DB002346
:100AC00084F8203010BD13F00F03F9D0054A064B0F
:100AD00012881B88C4E90923012384F8203010BD43
:100AE000B8530120C8530120BC53012070B50B4EF0
:100AF00002240125052303222146304655F0FAF849
:100B000008B94F2D06D00234A4B20135FE2CEDB247
:100B1000F0D170BD024B9E221A7070BDC44C0020F3
:100B2000E04B002030B5002395B0CDE90A33CDE984
:100B30000C33CDE90333CDE9053321490193079304
:100B4000086C204A40F080500864096C01F0805124
:100B5000019101990293136843F480431360136871
:100B600001204FF4803103F48043CDE90801029362
:100B70004FF480010224CDE90E41029807210220A2
:100B8000CDE912010422A82308A81092119355F070
:100B9000B9F908B172B6FEE70F220346CDE9032486
:100BA0004FF4A0554FF4805203A80521CDE9053537
:100BB000079255F0BDFB08B172B6FEE715B030BD27
:100BC00000380240007000402DE9F04F2DED028BFF
:100BD00000249FB053F0CEFDFFF7A4FFCDE91644EB
:100BE000CDE91844AE4B04941A941A6BAD4842F008
:100BF00004021A63196B01F004010491049905942D
:100C0000196B41F020011963196B01F02001059166
:100C100005990694196B41F080011963196B01F075
:100C20008001069106990794196B41F0010119633F
:100C3000196B01F00101079107990894196B41F0B4
:100C400002011963196B01F00201089108990994D6
:100C5000196B41F040011963196B01F040010991D2
:100C600009990A94196B41F010011963196B01F08D
:100C700010010A910A990B94196B41F0080119634C
:100C80001B6B03F0080322460B934FF400510B9BA0
:100C900054F04AFA84480122802154F045FA8348EE
:100CA0000122022154F040FA0122814848F21F013A
:100CB00054F03AFA01254FF400537A4816A9032755
:100CC000CDE91635CDE91844802654F03DF8764834
:100CD00016A9CDE91847CDE9166554F035F8022379
:100CE0007248199716A91693CDE9175554F02CF8A8
:100CF0004FF4805200236F48189416A9CDE91623AB
:100D000054F022F84FF4604200236A48189516A95F
:100D1000CDE9162354F018F811236548169716A943
:100D2000CDE91844179354F00FF848F21C036048BB
:100D3000199716A91693CDE9175554F005F84FF4F5
:100D400044134FF400525A48189516A9CDE91623BA
:100D500053F0FAFF22462146282053F091FF282025
:100D600053F0CAFF5448554F554BC0E90244C0E9FF
:100D70000544C0E907444FF48044C0E900730461AE
:100D800054F02EFC08B172B6FEE79FED3D7B8DED71
:100D9000127B8DED1A7B9FED3C7B034611901490E6
:100DA00019901C90474880ED007B9FED397BC0E98E
:100DB0000233C0E90633C0E90833C0E90D338DEDD5
:100DC0000E7B03619FED347BC36243641023436158
:100DD0003C234FF48057109316AA08230EA98DEDDB
:100DE000167B04638762189355F066FB08B172B6F0
:100DF000FEE7354C0C90CDE90E00CDE91000CDE9B1
:100E00001600CDE91800CDE91A001C900D90A060E5
:100E100020612E48A6614723C4E9000340F2F31382
:100E20002046E36055F0AEFB08B172B6FEE70EA9AE
:100E300020460E9755F0CEFD08B172B6FEE720466B
:100E400055F032FC08B172B6FEE7002200230CA96F
:100E50002046CDE90C2355F01BFF08B172B6FEE722
:100E600018901A906026042216A900272046CDE982
:100E7000166755F0A9FC064650B372B6FEE700BFF0
:100E80001000000011000000000000A0040100A0FC
:100E90000F0000000F000000090000000F0000001C
:100EA00000380240000802400000024000040240F6
:100EB0000018024000140240C44C002000580040BA
:100EC000801A0600E84B00207C4C00200004004003
:100ED000204600F0C9F97B487B494FF4E133C0E973
:100EE00000130C23C0E90266C0E90463C0E906668A
:100EF00055F012FF08B172B6FEE7744C744A2260D6
:100F00004FF48032C4E90120724A20610023CDE908
:100F10001600CDE91800207684F82000E06084F8FF
:100F200030002046C4E90A23E561656153F060FCA6
:100F3000034608B172B6FEE70D260127204616A922
:100F4000CDE91667189353F0E1FD08B172B6FEE7DC
:100F500039F008FA6048DFF8ACB1DFF8ACA1DFED9A
:100F60005F8A43F04BFD56F02FFA5AF017FE4FF40C
:100F7000F0714FF448700BF01FFB002406465849EF
:100F80000BF0D2FC4FF4964322465649009430466B
:100F90000BF04AFC34F0ECF80121054634F02CF952
:100FA0002846514934F030F93146284634F03CF9AE
:100FB0004E4D464E00F028FF00F09EFAFFF796FDDA
:100FC0005CE0BDF85830DBBA5B1108EE103ABAEEBF
:100FD000EE8A304653F0B8FC0A21304653F038FD13
:100FE00000286AD04FF00008002000F02DFA002100
:100FF000022000F0F9FCBDEEC87A3D4A3D48F8EE0B
:10100000C77A17EE103A78EE677A142167EEA87A5D
:101010004FF00109FDEEE77ACDED007A5BF026F89E
:1010200095E80E003348CDF8009000F0BFFC142185
:10103000022000F0D9FC07EE108ADFED2F7AB8EE1F
:10104000477A67EE277A17EE900AFFF78DFA2B4A58
:10105000CDE900014346142126485BF007F895E8E6
:101060000E002448CDF8009000F0A0FC00F0F8F944
:10107000052F384628BF052053F0A8FB3EF004FB9F
:10108000074653F09DFB031BB3F5FA7FF0D353F0F3
:1010900097FB16AB4FF0FF3200930223CDE90132EC
:1010A00004469BF8001001230022504654F06EFCC9
:1010B000002886D09FED128A8BE7304653F022FD40
:1010C000804691E7384C002000100140184D002068
:1010D000002001400100000FC14705080000C84280
:1010E000650A0008CC000020A90A0008A8D205085B
:1010F00048CA0508CC4B00206840533A58CA050836
:1011000000007AC4E04B0020C44C002082B00C4B9D
:10111000002100915A6C42F480425A645A6C02F4E5
:1011200080420092009A01911A6C42F080521A6437
:101130001B6C03F080530193019B02B0704700BF0A
:10114000003802400000000000B5194A016889B06B
:1011500000239142CDE90233CDE90433069302D056
:1011600009B05DF804FB02F58C320093506C40F43A
:1011700080705064506C00F480700090009801936F
:10118000136B0C4843F004031363136B9FED067B52
:1011900003F00403019302A98DED027B019B53F040
:1011A000D3FD09B05DF804FB080000000300000057
:1011B000002001400008024030B5184B026889B099
:1011C00000249A42CDE90244CDE90444069401D0BA
:1011D00009B030BD124D00942B6B43F020032B63FC
:1011E0002B6B03F02003009303221223CDE902238B
:1011F00000980C480322042302A9CDE9052353F0EB
:10120000A3FD01942B6C43F480032B642B6C03F43B
:1012100080030193019B09B030BD00BF005800401E
:1012200000380240001402400E4B02689A4200D07F
:10123000704700B583B0002203F50D330192196C9D
:1012400041F0020119641B6C03F002030193114683
:101250001D20019B53F014FD1D2003B05DF804EB2D
:1012600053F04ABD0004004000B5174A016889B038
:1012700000239142CDE90233CDE90433069302D035
:1012800009B05DF804FB02F50D320193136B0F48B2
:1012900043F002031363136B9FED097B03F002031A
:1012A000019301220323CDE9042302A902238DED3A
:1012B000027B019A069353F047FD09B05DF804FBE9
:1012C0002000000002000000000400400004024072
:1012D00010B51B4A016888B000239142CDE9023362
:1012E000CDE90433069301D008B010BD02F5943265
:1012F0000093506C40F010005064506C00F01000EF
:10130000009000980193136B0E4843F001031363A0
:10131000136B9FED097B03F0010301930322072365
:1013200002A98DED027BCDE90523019C53F00CFD54
:1013300008B010BDAFF300800006000002000000FE
:101340000010014000000240174B1A6802B17047BC
:10135000D0B588B015490192012018608B6B03430A
:101360008B638B6B4FF68070022103F00103CDE994
:1013700002010193012603270C2402A90C48019BBA
:101380000694CDE9046753F0DFFC4EF2B3720223FA
:101390000848069402A9CDE90467CDE9022353F079
:1013A000D3FC08B0D0BD00BF604D00200038024023
:1013B00000100240000C0240FEE700BFFEE700BF45
:1013C000FEE700BFFEE700BFFEE700BF704700BFBB
:1013D000704700BF704700BF53F0E6B9014855F0B1
:1013E000ADBB00BF7C4C00204FF4005053F0A2BEB8
:1013F0000C490D4A0B6810B50C4C121B2BB118444C
:10140000904207D80860184610BD094B0B6018447D
:101410009042F7D95AF082FE0C2303604FF0FF335D
:10142000184610BD644D002000000220000400009A
:1014300028550120034AD2F8883043F47003C2F8DB
:101440008830704700ED00E000284FF482620348C6
:1014500014BFFF2100215AF059BE00BF704D00207B
:101460002DE9F047DFF88C90214F86B0B0250DF1C3
:1014700017084FF0000A01244FF0FF3623460022E0
:101480007821CDE90146CDF8008038468DF8175017
:1014900054F06EF9002278212346CDE90146CDF8BB
:1014A000008038468DF817A054F062F94FF0100C08
:1014B000002223467821CDE90146CDF80080384648
:1014C0008DF817C0254454F053F98223CDE9013635
:1014D000CDF800904022234678213846EDB254F0F2
:1014E00047F9B82D09F18209C5D106B0BDE8F087EA
:1014F000C44C0020704D00202DE9F047642086B0D8
:10150000C24FDFF81093012400254FF0FF360DF194
:10151000170853F05BF9AE2301948DF8173089F862
:10152000055023462A460296CDF800807821384699
:1015300054F01EF94FF0200A23462A46CDE9014611
:10154000CDF80080782138468DF817A054F010F9B6
:1015500023462A46CDE90146CDF800807821384659
:101560008DF8175054F004F9B0238DF817302A463F
:101570002346CDE90146CDF800807821384654F065
:10158000F7F8C8238DF817302A462346CDE90146DF
:10159000CDF800807821384654F0EAF823462A46F0
:1015A000CDE90146CDF80080782138468DF81750F6
:1015B00054F0DEF810238DF817302A462346CDE983
:1015C0000146CDF800807821384654F0D1F8402308
:1015D0008DF817302A462346CDE90146CDF8008024
:1015E0007821384654F0C4F881238DF817302A4604
:1015F0002346CDE90146CDF800807821384654F0E5
:10160000B7F823462A46CDE90146CDF80080782177
:1016100038468DF8176054F0ABF8A1238DF81730D9
:101620002A462346CDE90146CDF800807821384688
:1016300054F09EF8A6238DF817302A462346CDE9AC
:101640000146CDF800807821384654F091F8A8235F
:101650008DF817302A462346CDE90146CDF80080A3
:101660007821384654F084F83F238DF817302A4605
:101670002346CDE90146CDF800807821384654F064
:1016800077F8A4238DF817302A462346CDE9014682
:10169000CDF800807821384654F06AF8D3238DF8CD
:1016A00017302A462346CDE90146CDF8008078213F
:1016B000384654F05DF823462A46CDE90146CDF878
:1016C0000080782138468DF8175054F051F8D52312
:1016D0008DF817302A462346CDE90146CDF8008023
:1016E0007821384654F044F8F0238DF817302A4614
:1016F0002346CDE90146CDF800807821384654F0E4
:1017000037F8D9238DF817302A462346CDE901460C
:10171000CDF800807821384654F02AF822238DF83D
:1017200017302A462346CDE90146CDF800807821BE
:10173000384654F01DF8DA238DF817302A46234630
:10174000CDE90146CDF800807821384654F010F8F4
:1017500012238DF817302A462346CDE90146CDF8ED
:1017600000807821384654F003F8DB238DF81730D9
:101770002A462346CDE90146CDF800807821384637
:1017800053F0F6FF23462A46CDE90146CDF8008006
:10179000782138468DF817A053F0EAFF8D238DF895
:1017A00017302A462346CDE90146CDF8008078213E
:1017B000384653F0DDFF14238DF817302A462346B0
:1017C000CDE90146CDF800807821384653F0D0FFAE
:1017D000AF222346CDE90146CDF800808DF81720D1
:1017E00038462A4689F80540782153F0C1FF4FF466
:1017F0008262294606485AF089FCFFF731FEC9F893
:10180000005089F8044006B0BDE8F087C44C0020C1
:10181000704D0020684D00202DE9F04F87B0A0F1F9
:10182000200506AC04E90E00EBB25E2B9DF840A04B
:1018300065D8059B002B00F0B180034413F8204CC1
:1018400058490A8802EB040EBEF1820F57DC9DF85E
:101850000D30B1F802C00CEB030140294FDC002B26
:1018600047D0049903FB05F5002C42D02B4405F129
:101870000045013DCDE9010E01EB45054A4E023917
:1018800001EB430B5FFA8CFC5FFA82F9BCF13F0F6E
:1018900005F1020525D801230CF0070E03FA0EFE10
:1018A0004FEADC0202EB82126FEA0E079A402888A8
:1018B000FFB24B46BAF1000F25D0BAF1010F4FF03D
:1018C00000014CD0812B03EB020E05D816F80E80D8
:1018D00007EA080806F80E80013101338C42DBB2BA
:1018E000F0D10CF1010C5D455FFA8CFCCED1DDE945
:1018F000010E2C4BA3F800E007B0BDE8F08F0020EC
:1019000007B0BDE8F08F514600950CE0812B05D85B
:1019100016F8058048EA0E0806F805800131013303
:10192000A142DBB213D000FA01F515F4004F03EB2E
:101930000205EBD0812BF1D816F80580013107EABA
:1019400008080133A14206F80580DBB2EBD1009D07
:101950000CF1010C5D455FFA8CFC97D1C7E700954F
:101960000CE0812B05D816F8058048EA0E0806F829
:10197000058001310133A142DBB2E8D000FA01F564
:1019800015F4004F03EB0205EBD1812BF1D816F8CB
:10199000058007EA080806F80580EAE79DF80C408C
:1019A0004EE700BF684D0020704D002070B5054621
:1019B00086B000789DF8286003AC84E80E0018B962
:1019C0000DE015F8010F50B194E80E000096FFF7F6
:1019D00023FF2B789842F4D0184606B070BD002340
:1019E000184606B070BD00BF014B18805980704783
:1019F000684D002010B504463AF0F8FF0A2800D0E0
:101A000010BD054B01221868114600F069FA204606
:101A1000BDE8104000F03ABA9451002008B53AF001
:101A2000E5FF262800D008BD034B002218680121DD
:101A3000BDE8084000F066BA8051002010B53AF0C9
:101A4000D5FF0A2800D010BD064C0122206811469F
:101A500000F058FA044B20681968BDE8104000F007
:101A60004FBA00BF805100208851002010B53AF0D5
:101A7000BDFF0A2800D010BD064C01222068114687
:101A800000F040FA044B20681968BDE8104000F0EF
:101A900037BA00BF8051002084510020F0B50020EB
:101AA00085B001F00DF9C34DC34F2860102101F03E
:101AB0001FF9C2482C683AF05DFBC0F30743C0F33E
:101AC00007228DF802308DF800008DF801202046A5
:101AD0000099BB4C002208F0D3FE0022FF212868A9
:101AE00008F0E2FE286844F007FCA821386003F003
:101AF00003FB38684B2103F019FB38686FF0E901EC
:101B000003F09AFA38686FF00F0103F0AFFA386803
:101B1000092103F083FB38684FF4806101F0DEF89F
:101B20003868102101F0E4F8A6493868002208F06E
:101B3000E7FE286844F018FB00221921206044F0D9
:101B40001FFB00221146206844F052FB206840F23F
:101B50006F1103F0D1FA2068132103F0E7FA20682F
:101B60006C2103F069FA20686FF0150103F07EFA2A
:101B70000921206803F052FB934826683AF0FAFAEC
:101B80000346C3F30722C3F307438DF806308DF8ED
:101B900004008DF8052030460199002208F094FEDB
:101BA0000022FF21206808F0A3FE884826683AF04A
:101BB000E1FA0346C3F30722C3F307438DF80A3063
:101BC0008DF808008DF80920029930464FF4003254
:101BD00008F056FE20684FF40032FF2108F064FE42
:101BE00020681022002107F041F8002803900CDD46
:101BF000246813220021204607F038F8014603919B
:101C000000222046013108F033FE2868704C714EE6
:101C10004BF062FA6FF04041206003F06DFA2068EB
:101C20006FF0404103F082FA2068B42103F004FA17
:101C300020686FF0920103F019FA2068092103F07F
:101C4000EDFA206864494BF053FA0022634920689A
:101C5000634C08F055FE28684BF03EFA6FF04041A7
:101C6000206003F049FA20686FF0404103F05EFA0B
:101C700020686FF0E50103F0DFF920686FF00E01D6
:101C800003F0F4F92068092103F0C8FA20685549E7
:101C90004BF02EFA00224B492068534C08F030FEDE
:101CA000286851F02DFEB221306003F025FA30682B
:101CB0002C2103F03BFA30686FF0F90103F0BCF916
:101CC00030686FF0950103F0D1F93068092103F015
:101CD000A5FA3068454952F0B7FA3068444952F0E5
:101CE00057FB00223D49306808F00AFE286851F091
:101CF00007FEB121206003F0FFF920682D2103F0D9
:101D000015FA20686FF0200103F096F920686FF053
:101D1000940103F0ABF92068092103F07FFA2068F1
:101D2000324952F091FA2068314952F031FB0022D9
:101D30002449206808F0E4FD28682E4D4AF086F911
:101D4000032128604AF0A2F9286840F2612103F0DB
:101D5000D3F92868F12103F0E9F928686FF001014F
:101D600003F06AF92868722103F080F928680921D4
:101D700003F054FA2868012100F0B0FF00231A464E
:101D800038681D4902F0CAFB00231A4630681B4917
:101D900002F0C4FB00231A461949206802F0BEFB7A
:101DA0000023184928681A4605B0BDE8F04002F043
:101DB000B5BB00BF9C51002098510020A7DDC20098
:101DC00094510020301006081C58E2000F78E700FC
:101DD00090510020885100206CCA0508885A0608D6
:101DE0008C51002078CA05088451002074CA050867
:101DF00084CA050880510020F51900083D1A000822
:101E00006D1A00081D1A000810B584B00AF0B8FC5D
:101E1000044605203BF0B8FC0346C0F30721C0F39D
:101E2000074200208DF808308DF809108DF80A203F
:101E30003BF0AAFCC0F30721C0F307428DF80C0069
:101E40008DF80D108DF80E200D4B0093DDE9021278
:101E50000023204640F062FA014620460AF0F8FED0
:101E6000FFF71CFE002000F02BFF0649064B024640
:101E700008681A6004B0BDE810400AF0B1BD00BFA8
:101E8000E0DA05089C510020A051002038B50F4B26
:101E9000186852F019FB0E4B0446186852F014FBF8
:101EA000054620465AF05AF8044628465AF056F895
:101EB000084B09490246224418684BF087F9074B42
:101EC00001211868BDE8384000F008BF88510020A3
:101ED000845100209051002094CA050880510020B0
:101EE00070B504460D46164644F0C2F9321E00EBAA
:101EF000050118BF01222046BDE8704044F040B9FA
:101F00004AF0B0B8022A04D00AB900F0E7BE00F0E7
:101F1000EFBE38B50D46044601F0A0FA294620B1BF
:101F20002046BDE8384000F0E3BE2046BDE838401A
:101F300000F0D4BEDFF834D00D480E490E4A00231D
:101F400002E0D458C4500433C4188C42F9D30B4A6D
:101F50000B4C002301E013600432A242FBD3FFF7D5
:101F600069FA5AF0E1F8FEF72FFE704700000220F0
:101F700000000020B0000020B4C00608B00000201F
:101F800024550120FEE700002DE9F047077F17F0F8
:101F9000010722D1C66805468946904616B1B24669
:101FA000012708E088470646B8B18246306801F04C
:101FB00065FA030614D531462846C0475045064603
:101FC0000BD00028F2D12B7F1A0706D52FB1284657
:101FD000C847002706460028E8D10020BDE8F08762
:101FE00034682CB910E0204608F0DCFF044658B1F4
:101FF0000121204601F032FA0028F4D020460121C8
:1020000001F02CFA0028D6D1EB68B342E5D02BB30F
:102010000020D3F8008033F0DFF8044698B10027A1
:102020000BE033F0FDF8034620469D4208BF2746EB
:1020300033F0D2F8044600283BD0204633F0E8F8CD
:1020400001282046EDD122461421404602F096F99F
:102050000128C2D1EB68186804F02EFCEE60002065
:10206000376833F0B9F8044690B100260AE033F03F
:10207000D7F8034620469D4208BF264633F0ACF809
:102080000446F8B1204633F0C3F801282046EED1CB
:1020900022461321384602F071F901289DD1EB68E0
:1020A000186804F009FC2B690BB1284698470120F9
:1020B00094E73C4622461421404602F05FF901288D
:1020C0008BD1C7E7344622461321384602F056F931
:1020D000012882D1E3E700BF2DE9F041064601F077
:1020E000D9F9002854D0037F13F0010705464FD1DA
:1020F0009A0717D5C26867F34103037792B1D2F804
:102100000080B8F1000F0DD0384633F065F8044672
:1021100000284BD122461321404602F02FF9012816
:1021200000F0828028463AF053FF044620B92FE0A1
:102130003AF056FF044658B323689E42214628468B
:10214000F6D1EB68002B43D0D3F8008046453FD052
:10215000002033F041F8064698B100270BE033F039
:102160005FF8034630469D4208BF374633F034F8E7
:102170000646002860D0304633F04AF80128304641
:10218000EDD132461421404602F0F8F801281BD068
:10219000BDE8F08133F044F8034620469D4208BF75
:1021A000274633F019F80446002841D0204633F082
:1021B0002FF801282046EDD122461321404602F097
:1021C000DDF80128AED12FE0EB68186804F074FB4D
:1021D0002B69EC6013B128469847EC68276800200B
:1021E00032F0FAFF044690B100260AE033F018F806
:1021F000034620469D4208BF264632F0EDFF0446C6
:10220000C0B1204633F004F801282046EED1224622
:102210001321384602F0B2F80128B9D1EB68BDE8C5
:10222000F041186804F048BB404604F045FB79E7EC
:102230003C466FE73446EAE73E46A2E701482021E4
:102240003AF03EBEDC510020014B586C704700BF95
:10225000A45100202DE9F04182B0054601F01AF9A1
:10226000F0B1C368044613B11B68AB421BD02046D3
:102270003AF0AEFE014620B912E03AF0B1FE014656
:1022800070B10B68AB422046F7D101913AF078FE6D
:10229000019908463FF080F8AB680BB100225A6004
:1022A00002B0BDE8F081037FDA0744BF23F00103E9
:1022B00003773AF08DFEE36883422BD0227F42F011
:1022C000080323775B07C2F3C00615D4284A2949BF
:1022D0002046FFF759FE63690BB1002841D0237FE8
:1022E00066F3C3032377E368002BC0D01B689D42CD
:1022F00004BF0023E360BAE71F4A20492046FFF7E6
:1023000043FE6369002BEAD00028E8D1014620464D
:102310009847E4E720463AF05FFEE26890420346C1
:10232000CCD10020D3F8008032F056FF064690B1A1
:1023300000270AE032F074FF034630469C4208BF93
:10234000374632F049FF064678B1304632F060FF3A
:1023500001283046EED132461421404602F00EF8F4
:10236000C1E7012120469847B9E73E46F3E700BFA1
:10237000E1CF0308D1CF0308E9CF0308D9CF030881
:10238000A8B170B50D4604460846FFF763FFAB6879
:1023900033B35C6020463AF0DDFD064630B105609F
:1023A00020463AF015FE864202D070BDFEE7704727
:1023B000227F42F0080323775B07C2F3C00514D5E0
:1023C0001149124A2046FFF7DFFD6369014613B148
:1023D00008B920469847237F65F3C303237770BD70
:1023E000284601F05DF8AB68D3E7094A0949204661
:1023F000FFF7CAFD6269002AEDD00028EBD1012168
:1024000020469047E7E700BFD9CF0308E9CF03088C
:10241000E1CF0308D1CF030808B1FFF75DBE7047D5
:1024200068B110B50446074A0749FFF7ADFD636977
:1024300033B128B920460121BDE810401847FEE716
:1024400010BD00BFE1CF0308D1CF030868B110B5BC
:102450000446074A0749FFF797FD636933B128B976
:1024600001462046BDE810401847FEE710BD00BFFA
:10247000E9CF0308D9CF030810B582B0019178B134
:10248000C36873B11C6864B18021204600F0FAFF74
:1024900038B901AA1121204601F070FF02B010BD29
:1024A000FEE7012002B010BD68B3F8B5037FC3F3A7
:1024B00040028A42054625D0C26861F34103037792
:1024C00002B31768F7B1002032F086FE044690B1DF
:1024D00000260AE032F0A4FE034620469D4208BFD3
:1024E000264632F079FE044698B1204632F090FE3E
:1024F00001282046EED122461321384601F03EFF46
:10250000012801D0F8BDFEE73846BDE8F84004F0E8
:10251000D3B9344622461321384601F02FFF012853
:10252000F0D1F1E710B1C06800B10068704700BF9A
:1025300010B1007FC0F34000704700BF08B13AF00F
:1025400057BDFEE72DE9F041AEB006463AF04EFA2F
:10255000054630463AF046FA1A2D044606D01D2D9F
:1025600018D0202D59D02EB0BDE8F08130463AF079
:1025700041FA0378022B0546F5D02D220021204692
:1025800006F074FB06460990002800F0FD80022347
:102590002B70E8E7304601F0E3FF09AD0646284618
:1025A0000DF092FC00212A4620460D9601F036F9E6
:1025B00035220021204606F059FB0590002840F006
:1025C000E1809DF89820C2F340129DF898300021D8
:1025D00062F3451320466A228DF8983006F046FBD8
:1025E0006B22074605900021204606F03FFB059030
:1025F00002463946D4E90670236A6469CDE90703C7
:1026000005A8CDE9054738F027FF05AA2946304639
:102610000DF0DEFC2EB0BDE8F081304601F0A0FFE9
:1026200005AA064601A9204605F0F2FE01A838F0E9
:1026300005FF20B905A838F001FF002860D009ADDA
:1026400028460DF041FC1D224FF48031204606F053
:102650000DFB0090C0B202288DF8520000F20781F5
:1026600032224FF48031204606F000FBC3B2022B29
:1026700000908DF8533000F216813E224FF48031E5
:10268000204606F0F3FAC3B2022B00908DF85530C5
:1026900000F2FB804FF48031204606F0B9FCFC28A4
:1026A0000FD89DF8523013FB00F3C3F307234FF00C
:1026B000000263F3070263F30F228DF85530ADF883
:1026C0005220BDF8523013B99DF85530C3B10C22D9
:1026D0004FF48031204606F0C9FA0090109001A80E
:1026E00038F0ACFE002840F0BA8005A838F0A6FE0D
:1026F00030B10123294605AA30460B930DF068FC42
:1027000030220021204606F0B1FA099000283FF45B
:102710002AAF35220021204606F0A8FA09900028A9
:102720003FF421AF002509A80DF0CEFB09AA2946E8
:1027300020468DF852508DF84F50ADF854500D96FC
:1027400001F06CF829466A22204606F08FFA2946E5
:10275000074605906B22204606F088FA059002464F
:10276000D4E90650236A64693946CDE9070305A810
:10277000CDE9054538F070FE05AA09A930460DF0EF
:1027800027FCF0E6012220E701460C22204606F055
:102790006DFA6A22074609903146204606F066FA2D
:1027A0006B22804609903146204606F05FFA099078
:1027B0000246D4E906E0D4F820C063694146CDE979
:1027C0000B0C09A8CDE9093E38F046FE68683A4688
:1027D00009A939F02FF810B901232B70C3E61D2287
:1027E0003146204606F042FAC3B2FC2B0590F3D9DD
:1027F00062223146204606F039FAC3B2FC2B05901E
:10280000EAD920223146204606F030FAC3B20590BC
:102810008BB125223146204606F028FAC3B2FC2BA4
:102820000590D9D924223146204606F01FFAC2B2BB
:10283000FC2A0590D0D926220021204606F016FA5F
:10284000059048B1837A3BB1C278FC2AC4D9012BE8
:1028500002D0037AFC2BBFD900232B7083E6002320
:1028600001AA294630460B930DF0B2FB3DE71C222E
:102870004FF48031204606F0F9F90090ADF856008B
:10288000C0F307408DF85800EAE63C224FF480314F
:10289000204606F0EBF9002800902A9011DC002376
:1028A0008DF85530F6E630224FF48031204606F0A0
:1028B000DDF900280090259019DC00238DF85330B5
:1028C000DBE642224FF48031204606F0CFF93D226C
:1028D00000902D904FF48031204606F0C7F900900B
:1028E000ADF8A400C0F307408DF8A600D2E631226F
:1028F0004FF48031204606F0B9F90090ADF8900011
:10290000C0F307408DF89200B7E600BF2DE9F04113
:102910004E6882B00C462EB3304604F08DFE07465A
:10292000304604F07FFE1022804600213046B56913
:1029300006F09CF92B18A3EB0803A361013B01905F
:102940002362122200213046756906F08FF9054492
:10295000ED1B4BF676336A1E6561E261636202B07D
:10296000BDE8F08141F67603636202B0BDE8F08114
:1029700070B588B00D46044602F012FCEA06064621
:1029800023D4636A23EA05036362EB0711D420466C
:1029900002F006FC864202D115F0C07F07D0204627
:1029A00008F000FB08B0BDE8704002F015BC08B0AC
:1029B00070BD204603F080FF204608F0F3FA02F0D5
:1029C0000BFC204602F008FCE1E704AA6946204619
:1029D00005F01EFD6946204602F0FCFF04A92046D2
:1029E00002F0F8FFCDE700BF10B508460C463AF0FC
:1029F0000BF8002006F034F9204607F039FD0120DD
:102A000006F02EF90021204638F07AFBCCB1A368FD
:102A1000B3B15A6822B12046FFF71CFCA3687BB112
:102A2000186820B13EF0B8FCA36800221A6003F1D8
:102A3000080039F089FFA0683EF0AEFC0023A360D7
:102A400010BDFEE7F0B589B00D46044602F0A8FBC4
:102A5000E907064627D4636A2B436362204602F0E7
:102A60009FFB864206D115F0C07F03D1EB060BD445
:102A700009B0F0BD204608F095FA02F0ADFB204603
:102A800002F0AAFBEB06F3D504AA6946204605F03E
:102A9000BFFC6946204602F09DFF04A9204602F0D3
:102AA00099FF09B0F0BD204603F006FF636A228D4E
:102AB0002B4392076362D1D5A368002BCED05F6809
:102AC000002FCBD03846FFF7ABFC3846FFF72AFD86
:102AD0000028C3D003F0F0FEC0E700BF2DE9F04F9F
:102AE000048D8C428BB008D00A460F46214605461D
:102AF00006F0FAF8804618B92F850BB0BDE8F08FC4
:102B0000284603F0D9FE28462F8506F017FB4FF420
:102B100020703EF02DFC6B8D13F4FC6F8246C3F3E6
:102B2000451B76D0EB6809950026FA43079303927C
:102B30009C4631460894C1463D46DCF80440039B60
:102B40001FFA84FE1EEA030FC4F3170440F09180BD
:102B50009CF8073013F0020340F08B80079A52F87C
:102B60003620177AD2F80080FF2F00F08880BA0054
:102B700042441FB97DE001339F427AD012F8010B25
:102B80006828F8D158F82330D3F8008098F800006E
:102B9000002800F0818004F47F07002950D0CDE99F
:102BA000049406935346002204E001328A4203F162
:102BB000140342D01C7A8442F7D15C6804F47F0984
:102BC000B945F2D1A4B27445EFD38A4235D018F892
:102BD000010F0028E6D1DDF8109001365E455ED089
:102BE00020290CF1080CA8D12F46089C099DC84645
:102BF00001EB81010AEB81095646716800963B465C
:102C0000224601F47F012846143606F075FF4E4532
:102C1000F3D150463EF0C0FB08F0FD03012B45D038
:102C2000B8F1020F7FF469AF284603F045FE28464D
:102C30000BB0BDE8F04F01F0E1BADDE90494069B6A
:102C4000D86801EB810201312AF822000AEB8202E6
:102C5000186950809868D06098F800001072586821
:102C60001061546018F8010F0028B6D0202996D1C1
:102C7000B3E701365E4512D00CF1080C5DE798F819
:102C8000003023B9F5E718F8083F002BF1D0682B86
:102C9000F9D1D8F8043077E70136B345ECD12F46A7
:102CA000089C099DC8460029A2D1B2E7FF224FF433
:102CB000702128460BB0BDE8F04F06F081BC00BF84
:102CC00010B50146044800F043FC20B1044600F072
:102CD000A3FC204610BDFEE720DA05080A4620B115
:102CE000436A9A4302D0FFF7ADBEFEE7704700BFCC
:102CF00018B1436A194201D17047FEE7FFF738BEA9
:102D000060B12DE9F04F038D0D46194335EA0303F9
:102D100087B0044603D107B0BDE8F08FFEE7FFF7A8
:102D2000DDFE636A5802F6D5204608F087F983462F
:102D30000028F0D0002726463946304608F036F9FC
:102D4000044650B1038D45EA030135EA030304D07C
:102D5000FFF7C4FE636A590203D40137BB45EBD1C8
:102D6000D9E7204608F06AF901900028F5D0CDE9AE
:102D700002764FF0000A5146204608F017F9064641
:102D800050B1028D45EA020135EA020204D0FFF794
:102D9000A5FE726A520207D4019B0AF1010A53454B
:102DA000E9D1DDE90276D8E7304608F047F9074671
:102DB0000028F1D0CDE904B44FF00009494630466F
:102DC00008F0F4F8044650B1038D45EA030135EAF2
:102DD000030304D0FFF782FE636A5B0206D409F1A5
:102DE00001094F45EAD1DDE904B4D5E7204608F0F2
:102DF00025F983460028F2D04FF0000841462046CE
:102E000008F0D4F810B12946FFF77AFF08F101085D
:102E1000C345F3D1E3E700BF78B12DE9F04F028D50
:102E2000CD438B4605EA0201AA4387B004461FFA48
:102E300085F803D107B0BDE8F08FFEE7FFF74EFE3F
:102E4000626A5002F6D5204608F0F8F8824600285B
:102E5000F0D000262546D9463146284608F0A6F887
:102E6000044650B1038D08EA030133EA080304D095
:102E7000FFF734FE636A590203D40136B245EBD141
:102E8000D8E7204608F0DAF801900028F5D0CDE91F
:102E900002A64FF0000BCDF800B004950099204633
:102EA00008F084F8054650B1028D08EA020132EAC2
:102EB000080204D0FFF712FE6A6A520209D4009B8E
:102EC000019A01339A420093E8D1DDE902A6049DFC
:102ED000D3E7284608F0B2F806460028EFD00027CE
:102EE00005943946284608F061F8044650B1038D30
:102EF00008EA030133EA080304D0FFF7EFFD636A31
:102F00005B0204D40137BE42EBD1059CD7E72046D3
:102F100008F094F883460028F4D04FF0000A514698
:102F2000204608F043F810B14946FFF775FF0AF153
:102F3000010AD345F3D1E5E7F0B5084689B00E465E
:102F400039F054FD0446304639F04CFD631E054609
:102F5000312B55D8DFE813F05C00540063005400B7
:102F60005400540054005400540054006A008B0074
:102F700054008D0054005400A3005400C600EB0020
:102F80005400540029012E0130015600ED00540078
:102F9000560054005400560054005400540054008D
:102FA00054005400540054005400F70054001E0113
:102FB0005400540054005400320032010A2200210F
:102FC00005F054FE1622044600212846049405F01C
:102FD0004DFE83B204900BB9E4B214B1284602F05E
:102FE000FBF8284608F02AF8064648B10024AB68EA
:102FF0001B6853F82400013402F0EEF8A642F6D123
:1030000009B0F0BD304609B0BDE8F040FFF79ABA0C
:103010002021284609B0BDE8F040FFF771BE20210D
:10302000284609B0BDE8F040FFF7F6BE2021FFF7C3
:10303000F3FE304639F0DEFC32F04CFA0028DFD1E6
:10304000002D00F0CC806B6A1E07D9D52B8DDC07D4
:103050004FF00101284600F12781FFF751FE0022C1
:103060002321284609B0BDE8F04001F087B940218E
:10307000CFE74021FFF7D0FE284604F0A5FA02284A
:10308000BED104AA6946284605F0C2F96946284619
:1030900002F0A0FC04A9284602F09CFCB0E700B3B3
:1030A000436A180700F1F38003F40163B3F5016F7D
:1030B000A6D1284600F022FB0028A1D1284604F022
:1030C000BBFA0746284604F0D1FA0446304601F020
:1030D0004FFAA0F11103032B92D8DFE803F094819B
:1030E000BEA2FEE710B3436A5B0500F1E380A86867
:1030F00000B14068FFF71CFA044632F077F8002868
:1031000000F0DC8032F084F8022800F0BD80042852
:103110000BBF0E210A2106230223002C7FF479AF76
:1031200019462846FFF7ECFD082179E7FEE70E2156
:1031300076E7002100F0F6FF0146304609B0BDE811
:10314000F04001F02DBA0122002105F08FFD02228E
:10315000064600212846049605F088FD0A22002133
:1031600004900746284605F081FD16220490044687
:103170000021284605F07AFD83B2049043B9E4B2F9
:1031800034B96FF040439E4202D09F427FF438AF83
:10319000284605E090F82A3043F0020380F82A30F0
:1031A00009B0BDE8F04002F017B82021FFF734FE67
:1031B000402135E710212CE7102131E707F03EFFD1
:1031C000064600283FF41CAF0024AB681B6853F888
:1031D0002400013402F000F8A642F6D110E7FEE721
:1031E000284604F019FA0446284602F0F5F8011EB4
:1031F000B8BF0331002204EBA101284609B0BDE8A5
:10320000F04004F0B3BF284604F006FA044628460E
:1032100002F0E2F8011E00DA03310022A4EBA10162
:10322000EBE7284604F0DAF98207ECD0002F01DC46
:10323000002CE8DD284604F0E9F90446284602F0AF
:10324000C5F8011EB8BF03310022A4EBA101284636
:1032500009B0BDE8F04004F0B3BE284604F0BEF962
:103260008107BDD0002F01DC002CB9DD284604F019
:10327000CDF90446284602F0A9F8011EB8BF033173
:10328000002204EBA101E2E70E21062345E73046C8
:1032900001F06EF9A0F11103032B13D8DFE803F05E
:1032A0000702070201212846FFF7B6FDD7E60121F4
:1032B0002846D2E6012105F055F818E7304601F01E
:1032C00041F91FE70A283FF49BAEC8E62DE9F04F0D
:1032D000044685B00E464AB138B1038D194336EA2B
:1032E000030327D105B0BDE8F08FFEE708B3038DD7
:1032F0001546CA4302EA0301934397B2F2D0FFF79F
:10330000EDFB636A5902EDD5204607F097FE834630
:103310000028E7D02946204607F048FE804620B125
:10332000038D07EA0301BB4320D10135AB45F1D141
:10333000D8E7FEE7FFF7D2FB636A5A02D2D52046F0
:1033400007F07CFE80460028CCD000273946204676
:1033500007F02CFE054628B1038D46EA030136EA44
:1033600003032CD10137B845F0D1BBE7FFF7B6FB1B
:10337000D8F824305A02D8D5404607F05FFE82467E
:103380000028D2D0CDE901B54FF000090394494699
:10339000404607F00BFE054648B1028D07EA0201E0
:1033A000BA4304D0FFF79AFB6A6A530242D409F188
:1033B0000109CA45EBD1DDE901B5039CB5E7FFF78B
:1033C0008DFB6B6A5B02CDD5284607F037FE019076
:1033D0000028C7D04FF000094946284607F0E6FD0F
:1033E000824658B1028D46EA020136EA020205D051
:1033F000FFF774FBDAF82420500205D4019B09F191
:1034000001094B45E8D1ADE7504607F017FE0290A1
:103410000028F3D04FF0000B5946504607F0C6FD88
:1034200010B13146FFF76CFC029B0BF1010B5B45C1
:10343000F2D1E3E7284607F001FE83460028B6D024
:1034400000242146284607F0B1FD10B13146FFF7B0
:10345000E3FC0134A345F4D1A9E700BF28B1436AD6
:1034600099430CBF012000207047FEE728B1436A52
:10347000194214BF012000207047FEE708B1008DFB
:103480007047FEE728B1038D194214BF01200020C8
:103490007047FEE718B1806800B140687047FEE7EA
:1034A00020B1836810B504460BB110BDFEE734208F
:1034B0003DF05EFFA06030B1438E43F4707343F083
:1034C0000303438610BDFEE720B10068401AB0FA3E
:1034D00080F04009704700BF2DE9F0470F683E6853
:1034E0000C4605465EB3D6F800800E60B8F1000FBA
:1034F0001FD0D8F80090C1F80080B9F1000F11D0AA
:10350000D9F80020C1F8009022B10A60FFF7E4FF6B
:10351000C4F80090D9F8043013B1214628469847E2
:10352000C4F80080D8F8043013B1214628469847E3
:103530002660736813B121462846984727607B6848
:1035400023B121462846BDE8F0471847BDE8F0877B
:1035500070B50D46064650B12E4C034601E01B687F
:103560002BB11A6A14EA0200F9D0C2F30F103DF031
:10357000FFFE044600284AD0C0E90065ADB1AE6840
:10358000002E38D0318E3068013189B23186890001
:103590003DF00CFFAA683060138E126803F180437F
:1035A000013B42F82340204670BD09F0E9F8064689
:1035B00050B3D0F8BC0218B3D6F8D8320133990012
:1035C0003DF0F4FEB0B1D6F8D832C6F8BC025A1CB1
:1035D0000025C6F8D82240F82340C4E905552846FE
:1035E00009F0DEF80138E061284609F0EBF801380F
:1035F0002062D8E7FEE72846FFF752FFAE68C1E732
:10360000C6F8D8520421DBE720463DF0C5FE002471
:10361000C9E700BFF0FF0F0000285CD0F8B50446F2
:1036200001F0DAFD002005F01BFB204641F07CF99B
:1036300025682E68BEB13768266077B13B68276081
:103640002BB1236021462846FFF746FF27607B68A1
:1036500013B12146284698472660736813B1214666
:103660002846984725606B6813B12146284698473D
:10367000012005F0F5FAFF224FF47021204605F0F5
:103680009FFF204601F0E4FEFEF7DEFD58B1226800
:1036900012B908E0126832B192F8203013F00C032E
:1036A000F8D0042B13D0204607F07CFC054668B107
:1036B00022462A2100F062FE224628462B2100F0F5
:1036C0005DFE2046BDE8F84003F0F6B8F8BD21469F
:1036D000FEF756FEE7E7704710B50446006804E0C1
:1036E00098472368186838B1206083682146002B0A
:1036F000F6D100680028F7D110BD00BF006810B9EE
:103700000CE0006848B190F8203013F00303F8D0C3
:10371000A3F10100B0FA80F040097047704700BF84
:1037200070B586B09DF828400193002A39D0134621
:10373000926C93F84B50039209BB3CB125BB0198A6
:10374000214606B0BDE8704038F0C2BC002DF6D06E
:103750008DF80F50039B05939DF814309DF81510BC
:103760009DF81620204663F3070061F30F209DF8B3
:10377000173062F3174063F31F6006B070BD06F0A8
:10378000CDFE0390050ED8E72146019838F0A0FC45
:103790008DF80F500146039806B0BDE8704038F030
:1037A000B9BE06F039FF0390050EC6E770B586B0C6
:1037B000019352B31346966C93F849E092F848206F
:1037C00093F84AC093F84B40A9B97146604638F067
:1037D000E1FCC0F30722C0F307438DF80D208DF8FC
:1037E0000C008DF80E3001990398224606B0BDE812
:1037F000704038F0C1BD324606F090FEC2B2C0F350
:10380000072EC0F3074C040EDFE706F005FFC2B237
:10381000C0F3072EC0F3074C040ED6E7F0B51369CA
:103820008BB01446C2E9000106460D46002B00F09D
:10383000248293F84E70002949D10C222946304643
:1038400005F014FA94F82E300990E061002B40F056
:10385000858194F82F30002B40F03E8194F8303071
:10386000002B40F0A78094F82B30002B40D194F827
:103870003130002B40F0DB80FC2F26D894F82E103E
:1038800094F82F0094F8302011FB07F1C1F30721C1
:10389000002310FB07F061F30703001212FB07F28D
:1038A000121260F30F2362F3174394F8312094F857
:1038B0002B1012FB07F211FB07F11212091262F32F
:1038C0001F6384F82B10C4F82E300BB0F0BD6222B9
:1038D00005F0CCF90990C0B207FB00F0070A022FEF
:1038E000ABD8002384F82B30C4F82E300BB0F0BDD9
:1038F00028222946304605F0B9F9099020620028AF
:10390000B5D029222946304605F0B0F90990C0B259
:10391000022884F82B00AAD9206A0AF069FE02283E
:1039200000F0B9812A222946304605F09FF9294640
:1039300002460790304605F0D3F90990ADF818001B
:10394000C0F307408DF81A002B222946304605F0B7
:103950008DF90990C0B20090069B22692946304635
:10396000FFF7DEFE030EC2B2C0F30721089084F811
:103970002C30C0F3074038F00DFCC0F3072384F867
:103980002800C0F3074084F82A0084F829302C224C
:103990002946304605F06AF90990003818BF012021
:1039A00084F82D0089222946304605F05FF90990F8
:1039B000A0665CE738222946304605F057F90990A1
:1039C000A06700283FF44FAF3A222946304605F061
:1039D0004DF90990C0B2022884F830007FF643AF59
:1039E0003B222946304605F041F93922E06709902B
:1039F0002946304605F03AF929460246304605F098
:103A00006FF90990C0F307408DF82600099B2269E1
:103A100029463046FFF7CAFEC0F3072384F8750035
:103A2000C0F3074084F8763084F877001BE73C2227
:103A30002946304605F01AF90990C4F88400002898
:103A40003FF41AAF94F83130022B7FF615AF3E22C7
:103A50002946304605F00AF9C3B2022B099084F8D2
:103A600031307FF609AF40222946304605F0FEF896
:103A70004122C4F8880009902946304605F0F6F83E
:103A80004222C4F88C0009902946304605F0EEF831
:103A90003D22C4F8900009902946304605F0E6F82A
:103AA000294602460990304605F01AF90890C0F3FD
:103AB00007408DF82200089B226929463046FFF70F
:103AC00075FEC0F30722C0F3074384F8800084F832
:103AD000812084F88230CFE630222946304605F036
:103AE000C5F80990206700283FF4B8AE3222294675
:103AF000304605F0BBF80990C0B2022884F82F00C8
:103B00007FF6ACAE34222946304605F0AFF894F883
:103B10007430099060F3040384F87430312229462C
:103B2000304605F0A3F829460246304605F0D8F89D
:103B30000990C0F307408DF82600099B22692946A9
:103B40003046FFF733FEC0F3072384F86C00C0F360
:103B5000074084F86D3084F86E007FE61D22294608
:103B6000304605F083F80990C0B2022884F82E0090
:103B70007FF66FAE1C222946304605F077F82946BD
:103B800002460290304605F0ABF8ADF81C000990F3
:103B9000C0F307408DF81E00079B22692946304676
:103BA000FFF704FEC0F3072384F83200C0F3074098
:103BB00084F8340084F8333026222946304605F054
:103BC00055F8099010B1C37A1A075DD12022294611
:103BD000304605F04BF894F84330099060F3030346
:103BE00084F843301B073FF434AE638E238794F888
:103BF000343084F83A3023222946304605F036F82E
:103C000029460246304605F06BF8ADF820000990D1
:103C1000C0F307408DF82200089B226929463046F0
:103C2000FFF7C4FDC0F3072384F83D00C0F307404D
:103C300084F83E3084F83F0021222946304605F0C2
:103C400015F8222284F83C0009902946304605F0F8
:103C50000DF8242284F8410009902946304605F0E9
:103C600005F8252284F83B0009902946304604F0E7
:103C7000FDFF099084F84000EBE505F0C9F907461F
:103C8000002D7FF42CAED8E50146302204F1380037
:103C90003CF03CFEDDE55A222946304604F0E6FFC2
:103CA0005822606209902946304604F0DFFF294619
:103CB00002460690304605F013F80990C0F307401D
:103CC0008DF82600099B226929463046FFF76EFDD4
:103CD000C0F3072384F82800C0F3074084F8293094
:103CE00084F82A005EE600BFF0B5144685B0C2E94C
:103CF0000001592206460D4604F0B8FFC3B2022B5C
:103D0000039084F85A3001D805B0F0BD2269002A2A
:103D10006AD092F84E70002D56D1FC2F07D813FBB5
:103D200007F3C3F3072384F85A30022BECD9294652
:103D30005822304604F09AFF294602460390304646
:103D400004F0CEFFC0F30743ADF804008DF8063051
:103D5000019B2269029029463046FFF727FDC0F3F8
:103D6000072384F82C00C0F3074084F82D3084F832
:103D70002E0029465B22304604F078FF2946606316
:103D800002905C22304604F071FF294620630290C5
:103D90005D22304604F06AFF94F85C30029060F3D4
:103DA000020384F85C3029465A22304604F05EFF54
:103DB0005E220346A06229463046029304F056FF75
:103DC00084F8580005B0F0BD62222946304604F060
:103DD0004DFF0390C0B200FB07F7C7F30727FC2F86
:103DE00094F85A30A1D89AE72946304605F010F9E0
:103DF0000746F4E7F0B5144687B0C2E90001442253
:103E000006460D4604F032FFC3B2022B059084F83B
:103E1000503001D807B0F0BD2269002A7CD092F85A
:103E20004E70002D68D1FC2F07D813FB07F3C3F3A6
:103E3000072384F85030022BECD94FF48073002212
:103E400006F11407C4E90D332263384638F016F83A
:103E500000EBD07040106064384638F015F800EB85
:103E6000D0704010A06445222946304604F0FEFE82
:103E7000294602460590304604F032FF4622C0F340
:103E800007430490ADF80800294630468DF80A3003
:103E900004F0ECFEC3B200932269029B0490294611
:103EA0003046FFF73DFC030EC2B2C0F3072184F891
:103EB0004F30C0F3074038F06DF9C0F3072384F8A2
:103EC0004C00C0F3074084F84E0084F84D3089223E
:103ED0002946304604F0CAFE04906065002D99D052
:103EE00069222946304604F0C1FE94F8513060F34F
:103EF000030384F851308DE762222946304604F0EE
:103F0000B5FE0590C0B200FB07F7C7F30727FC2FEB
:103F100094F850308FD888E72946304605F078F875
:103F20000746F4E7F0B5144685B0C2E900014D221A
:103F300006460D4604F09AFEC3B2022B039084F8A5
:103F40003C3001D805B0F0BD2269002A62D092F859
:103F50004E70002D4ED1FC2F07D813FB07F3C3F38F
:103F6000072384F83C30022BECD9482229463046FE
:103F700004F07CFE039020630028E3D04C22294605
:103F8000304604F073FE294602460390304604F0A2
:103F9000A7FEC0F30743ADF804008DF80630019B7F
:103FA0002269029029463046FFF700FCC0F3072340
:103FB00084F82C00C0F3074084F82E0084F82D30DC
:103FC00049222946304604F051FE0290606338BB16
:103FD0004B222946304604F049FE94F83D30003823
:103FE00018BF012060F3000360F3410384F83D3003
:103FF00005B0F0BD62222946304604F037FE03903A
:10400000C0B200FB07F7C7F30727FC2F94F83C303A
:10401000A9D8A2E72946304604F0FAFF0746F4E79C
:104020004A222946304604F021FE0290A063CFE7E1
:10403000F0B5144685B0C2E90001502206460D468F
:1040400004F014FE0390206208B905B0F0BD5322BD
:104050002946304604F00AFEC3B2022B039084F8CE
:104060003A30F2D92269002A55D092F84E70002DCC
:1040700038D1FC2F45D929465222304604F0F6FDAE
:10408000294602460390304604F02AFEC0F3074357
:10409000ADF804008DF80630019B22690290294694
:1040A0003046FFF783FBC0F307232077C0F30740B8
:1040B0006377A07729465422304604F0D7FD512279
:1040C0000346606329463046029304F0CFFD94F81E
:1040D0003B30003818BF012060F3000384F83B3008
:1040E00005B0F0BD62222946304604F0BFFD0390C2
:1040F000C0B200FB07F7C7F30727FC2F94F83A304C
:1041000005D813FB07F3C3F3072384F83A30022BD7
:10411000B1D805B0F0BD2946304604F079FF074616
:10412000EBE700BFF0B53C2283B005460E4604F035
:104130009DFD0190F0B9002438223146284604F054
:1041400095FD07460190002843D131466A22284652
:1041500004F08CFD6B22074631462846019704F097
:1041600085FDB842B8BF38460028C8BF241820468D
:1041700003B0F0BD04463E223146284604F076FDE9
:10418000C3B2022B0190D6D942223146284604F010
:104190006DFD04EBD474641001344022019004449A
:1041A0003146284604F062FD41220746019031461F
:1041B000284604F05BFD002FB8BF7F420028019025
:1041C000B8BF4042B842ACBF2418E41924EAE474F2
:1041D000B2E73A223146284604F048FD0190C0B2C9
:1041E0000228B2D93B223146284604F03FFD07445D
:1041F000BC420190B8BF3C46A7E700BFA0B130B5B4
:10420000856883B0044605B1ED6A002301AA1B212D
:104210002046019300F0B2F8A268019B52B1D3622C
:104220009D4202D103B030BDFEE7204602F044FBC0
:1042300003B030BD002BF3D02046FFF731F9A26860
:10424000019BECE7806800B1C06A7047806818B1D4
:1042500090F83300C0F38100704700BFF8B5044602
:1042600030F0C4FF20B1237E9A0710D4DB0710D4AE
:104270002568AE6806B1083601222146304638F07E
:10428000E7FA012800D0F8BD237E9F0703D501205F
:10429000F8BD0020F8BD2368186810B90DE000686B
:1042A00058B1C368002BFAD00022E260214698473B
:1042B000237EDA07EDD49807E9D400222146304660
:1042C00038F0C6FA0128DED1237E9907DFD42068B2
:1042D00006F068FE237E064660B15A070AD4A3683A
:1042E0002B3B012B36D826602046FFF7B7FF01286D
:1042F000C9D1237E1F07CAD420684FF40011FFF7ED
:10430000ADF80028C3D0A368163B1E2B04D81A4A68
:1043100022FA03F3DE07BAD4284606F08FFE237E86
:1043200043F0040307462376002670B9AFE728461A
:1043300006F03CFE0346204623B12360FFF78EFFC4
:104340000128A0D10136B742A1D0237E980731467B
:10435000EDD59CE720684FF48041FFF77FF80028F7
:10436000C7D0A368163B1E2BBDD8034A22FA03F31D
:10437000DB07B8D5BDE700BFF19F7858F0B589B02D
:1043800078B39DF81830029123F00F03CDE90000B7
:104390000024684604928DF81830039438F00CFA23
:1043A00030F024FF30B19DF818309E0712D4DD079D
:1043B00000F18480009DAE6806B10836012269468E
:1043C000304638F045FA0128044604D19DF81830EB
:1043D0009C070AD50124684638F0F6F9204609B052
:1043E000F0BD0124204609B0F0BD009B186810B94B
:1043F0000EE0006860B1C368002BFAD0002203927F
:10440000694698479DF81830DA0757D49807E1D4E1
:1044100000226946304638F01BFA01280446DAD1FA
:104420009DF818309907D5D4009806F0BBFD9DF88B
:104430001830044670B15A070CD4029B2B3B012B59
:104440003ED868460094FFF709FF01280446C2D110
:104450009DF818301E07BDD400984FF40011FEF7E8
:10446000FDFF0028B6D0029B163B1E2B04D81D4A28
:1044700022FA03F3DC07ADD4284606F0DFFD9DF8F1
:10448000183043F0040307468DF81830002678B939
:10449000A0E7284606F08AFD034668462BB1009344
:1044A000FFF7DCFE0128044695D10136B74291D0D2
:1044B0009DF8183098073146EBD58BE700248AE742
:1044C00000984FF48041FEF7C9FF0028C0D0029B3E
:1044D000163B1E2BB5D8034A22FA03F3DF07B0D5EB
:1044E000B6E700BFF19F785810B50C4690B1006850
:1044F00010B90DE0006858B1C368002BFAD0002253
:10450000E26021469847207EC04300F0010010BDC4
:10451000012010BD0B681868EAE700BF80B12DE9E3
:10452000F04104460D4616461F46FEF7B9FFA06847
:104530003B46324629460830BDE8F04138F092B992
:10454000FEE700BF8268192A05D8044BD340DB0779
:1045500001D538F04FBA0020704700BF1EDF3B0383
:1045600083681C3B052B01D90020704738F042BA04
:1045700008B58368112B01D0002008BD38F03AFA45
:104580000028F9D0006808BD08B58368122B01D057
:10459000002008BD38F02EFA0028F9D0006808BDC8
:1045A00083681B2B00D0704710B50C4638F022FAF8
:1045B00003689C42B8BF1C46046010BD08B50022C9
:1045C0003521FFF7DBFE002008BD00BF2DE9F04FCD
:1045D0008BB0914604917022002105461E4604F0DE
:1045E00045FB6E22074608900021284604F03EFB5A
:1045F0000446012C08904FF06F024FF0000128464E
:10460000A246B8BF4FF0010A04F030FB01288046F3
:10461000BB460890B8BF4FF0010817B9B4F5807FCA
:104620003AD071220021284604F020FB7222089023
:104630000021284604F01AFB089A099002F0C041B4
:10464000B1F1005F044647D004F0C041B1F1005F12
:1046500026D069691144AA690891224409927EB959
:1046600008AB86F0010601930498CDF8008002960D
:1046700053465A46494637F0D9FA0BB0BDE8F08F99
:104680004FF6FF720AEB0201C7F1000B4244B1FB87
:10469000FAFAB2FBF8F8E3E7B0F5807FC1D1ECE7B6
:1046A00024F0C0416FF060408142D2D0B1F1805F10
:1046B000A4BF6FF07042511A05F11400059137F054
:1046C000E3FB0599134A01FB00F082FB0012C017BF
:1046D000C0EB6214089ABCE722F0C0416FF0604062
:1046E0008142B1D0B1F1805FA4BF6FF07042511A26
:1046F00005F11400059137F0C1FB0599054A099CA5
:1047000001FB00F082FB0012C017C0EB621208929E
:104710009AE700BF1F85EB51F0B50D46D1E90213B2
:1047200089B02A686E68009201330131CDE9022315
:10473000CDE90613049101960596044600284DD054
:104740002046FFF783FD022820463BD006F02AFCD6
:1047500004460028F4D1069C0498029A009F079B07
:10476000DDF814E0DDF80CC0019E84422146A8BFAC
:1047700001468442B8BF044673451846A8BF704638
:104780007345B8BF73466045A8BF60466345B8BF70
:104790006346B042A8BF3046B342B8BF3346BA42C0
:1047A000EB601346A8BF3B46BA42B8BF3A468B42BD
:1047B000A8BF0B46A242B8BF224668602B60AA6021
:1047C00009B0F0BD002304226946FFF7FFFE204632
:1047D00006F0E8FB04460028B2D1BCE7B6469C468A
:1047E0000C461746C8E700BFF0B5122283B000217F
:1047F000044604F03BFA302206460021204601968A
:1048000004F034FA3422054601900021204604F0D9
:104810002DFA0021420701904FF01302204648BFB5
:10482000761904F023FA3022054601900021204633
:1048300004F01CFA3422074601900021204604F0BF
:1048400015FA0307019004F1140048BFED1937F081
:1048500015FB801B401B03B0F0BD00BFF0B510225C
:1048600083B00021044604F001FA302206460021FC
:104870002046019604F0FAF9342205460190002101
:10488000204604F0F3F90021820701904FF0110255
:10489000204648BF761904F0E9F930220546019018
:1048A0000021204604F0E2F934220746019000215D
:1048B000204604F0DBF9C307019004F1140048BF5F
:1048C000ED1937F0E1FA801B401B03B0F0BD00BFCB
:1048D000F0B50D46D0E90736D0E9051283B085E87A
:1048E0004E0012220021044604F0C0F93022064690
:1048F00001900021204604F0B9F9342207460190C6
:104900000021204604F0B2F92B680190400748BF0F
:10491000F61933442B6013220021204604F0A6F937
:104920003022064601900021204604F09FF9002124
:10493000074601903422204604F098F9AB680190B4
:10494000010748BFF6199B1BAB60102200212046CF
:1049500004F08CF93022064601900021204604F034
:1049600085F93422074601900021204604F07EF9A3
:104970006B680190820748BFF61933446B601122BF
:104980000021204604F072F93022064601900021F1
:10499000204604F06BF93422074600212046019797
:1049A00004F064F9C307EB6848BFF6199B1BEB6082
:1049B00003B0F0BD2DE9F04F6FF0404787B0B9422A
:1049C000054600923FD001F0C043B3F1005F0C46B2
:1049D00003D0204607B0BDE8F08F21F0C0466FF04D
:1049E00060439E42F5D006F0DDFA90F82B1011F0EE
:1049F0000808044607D10222414604F037F9B842BC
:104A0000049000F0CB802046FFF728FFB6F1805FCE
:104A1000A4BF6FF070439E1B884B06FB00F083FB26
:104A20000023C417182200212846C4EB631404F0A5
:104A30001DF91922064600212846049604F016F9AD
:104A40000644A41BC5E71468002CC2DA02F0E4FD9A
:104A5000AB6806460BB100225A621022002128469C
:104A600004F004F930220490019000210746284602
:104A700004F0FCF83422049004460021284604F097
:104A8000F5F80490800700F1858011220021284666
:104A900004F0ECF83022814604900021284604F00E
:104AA000E5F80021044604903422284604F0DEF89C
:104AB000DFF890A1C10704AA4FF0340128464FF057
:104AC000000B48BFA144CDE904ABFFF757FC059CA0
:104AD000019B28461C4406F0B1FA4C4407460028C6
:104AE00000F0A680CDE90269DFF858B1DFF858A1DF
:104AF0004FF0000803E008F1010847453AD0AB68E1
:104B00001B6853F8286051463046FEF7AFFC00287A
:104B1000F1D14B493046FEF7A9FC814650B93046E9
:104B200006F040FA30B14946162204F09FF804908E
:104B300080B240B90A220021304604F097F810F004
:104B4000FC0F04905AD1336AAA699B1A03F1010938
:104B500019220021304604F089F804904844584551
:104B6000C9DB30461922002104F080F8049009EBDB
:104B7000000BC0E7AA68DDE902690AB1734253621B
:104B8000304B9B4503D0CB445C45B8BF5C46009B93
:104B90001C601EE73B462344019376E71022414602
:104BA000284604F063F83022064641460490284621
:104BB00004F05CF83422044641460490284604F090
:104BC00055F80021820704904FF01102284648BF93
:104BD000361904F04BF83022044600210490284690
:104BE00004F044F83422074600212846049704F0D4
:104BF0003DF8C30748BFE4193444EAE6092200211E
:104C0000304604F033F88146049010B1DFF8349058
:104C10009EE706F1140037F037F9019B4946182248
:104C200000EB0309304604F021F8049081448FE73B
:104C3000AB68002BABD077425F62A8E71F85EB51D2
:104C400001000600010000E0010004002DE9F04F22
:104C50006FF04046B14287B005463FD001F0C043F7
:104C6000B3F1005F0C4603D0204607B0BDE8F08FDB
:104C700021F0C0476FF060439F42F5D006F092F9F3
:104C800090F82B1011F01008044607D1012241467C
:104C900003F0ECFFB042049000F0EC802046FFF7F8
:104CA000A3FDB7F1805FA4BF6FF07043DF1BB44B6F
:104CB00007FB00F083FB0023C4171A2200212846BB
:104CC000C4EB631403F0D2FF1B22064600212846E2
:104CD000049603F0CBFF0644A41BC5E71468002C20
:104CE0009046C1DA02F092FCAB6802900BB1002250
:104CF0001A6213220021284603F0B8FF30220490E4
:104D0000009000210646284603F0B0FF34220490AC
:104D100004460021284603F0A9FF0307049002D5AA
:104D200033462344009312220021284603F09EFFBD
:104D300030220490019000210646284603F096FF99
:104D40003422049004460021284603F08FFF4707D1
:104D500000F185808B4F04AA342128460026CDE936
:104D60000467FFF70BFB019B049C1C44009B284637
:104D70001C4406F063F9272281460021284603F0EF
:104D800075FF0490C0B2012800F0A480B9F1000FB3
:104D900069D0DFF8F0B1DFF8F4A103940027AB6825
:104DA0001B6853F8274051462046FEF75FFBE8B9E1
:104DB00075492046FEF75AFB064670BB204606F0B2
:104DC000F1F850B33146162203F050FF049080B240
:104DD00018B3E6696B69F61A01361B2200212046DA
:104DE00003F044FF0490304458452FDA0137B945A9
:104DF000D5D1644B039C9B4535D0009A5A44A96891
:104E000011B1029B5B420B625E4B9A4202D094420C
:104E1000B8BF1446C8F8004026E70A220021204601
:104E200003F024FF0490C0B2072803D89323C340A3
:104E3000D907CED408220021204603F017FF0646EA
:104E40000490002800F0AE804E4EC6E720461B229C
:104E5000002103F00BFF049006EB000BC6E733467E
:104E60002344019376E7AB68002BD3D0029A5242D9
:104E70001A62CFE712224146284603F0F7FE30229D
:104E8000064641460490284603F0F0FE34220446CC
:104E900041460490284603F0E9FE002142070490B1
:104EA0004FF01302284648BF361903F0DFFE3022C8
:104EB000044600210490284603F0D8FE3422074619
:104EC00000212846049703F0D1FE030748BFE419E8
:104ED0003444C9E6B9F1000FC5D02A4ADFF8ACB0B6
:104EE00003940027924602E00137B9453ED0AB68F3
:104EF0001B6853F8274059462046FEF7B7FA0028AA
:104F0000F2D121492046FEF7B1FA064650B92046B3
:104F100006F048F830B13146162203F0A7FE04909F
:104F200080B268B90A220021204603F09FFE049057
:104F3000C0B208282CD840F24913C340D80727D55F
:104F4000EE696369F61A01361A220021204603F041
:104F50008DFE049030445045C6DB20461A220021C5
:104F600003F084FE049006EB000ABDE7054B039CAA
:104F70009A4552463FF477AF019B1A443FE700BF82
:104F80001F85EB51010000E0010006000100040054
:104F900008220021204603F069FE0646049078B1FD
:104FA0000E4ED1E704F1140036F068FF019B314644
:104FB0001B22C618204603F059FE049006440CE755
:104FC00004F1140036F05AFF009B31461A22C6182D
:104FD000204603F04BFE04900644B5E7010000E0D4
:104FE00008B370B582B00D461646002301AA082109
:104FF000044603F053FE012816D020B900222946AA
:10500000204605F01DFC002301AA0921204603F0DB
:1050100045FE01280CD020B900223146204605F07B
:1050200017FC02B070BDFEE7019B9D42E6D1EAE7A6
:10503000019B9E42F0D1F4E790B130B583B00D46AC
:10504000002301AA0821044603F028FE012808D005
:1050500020B900222946204605F0F2FB03B030BDFE
:10506000FEE7019BAB42F4D1F8E700BF90B130B549
:1050700083B00D46002301AA0921044603F00EFE69
:10508000012808D020B900222946204605F0E0FB7F
:1050900003B030BDFEE7019BAB42F4D1F8E700BF9F
:1050A00008B370B582B00D461646002301AA01214F
:1050B000044603F0F3FD012816D020B9002229464A
:1050C000204605F0A5FB002301AA0221204603F09B
:1050D000E5FD01280CD020B900223146204605F01C
:1050E000A7FB02B070BDFEE7019B9D42E6D1EAE757
:1050F000019B9E42F0D1F4E790B130B583B00D46EC
:10510000002301AA0121044603F0C8FD012808D0AC
:1051100020B900222946204605F07AFB03B030BDB5
:10512000FEE7019BAB42F4D1F8E700BF90B130B588
:1051300083B00D46002301AA0221044603F0AEFD10
:10514000012808D020B900222946204605F070FB2E
:1051500003B030BDFEE7019BAB42F4D1F8E700BFDE
:10516000E0B110B5044689B2002205F0D9FB94F8ED
:105170002A3043F0010384F82A30204605F0E0FE8F
:1051800090F82A2042F0040280F82A2005F0E0FE80
:10519000BDE810400022392107F046BDFEE700BF00
:1051A00030B50C4983B00546FEF760F910B1002018
:1051B00003B030BD0446284605F0F4FE0028F6D0C2
:1051C0001622214603F052FD80B2003818BF01209C
:1051D00003B030BD0100060090F82A2042F0010221
:1051E00008B580F82A2005F0ABFE90F82A2042F09E
:1051F000040280F82A2005F0ABFEBDE8084000223A
:10520000392107F011BD00BF08B505F099FE90F8EF
:105210002A3043F0080380F82A3008BD002205F048
:105220001FBB00BF70B5044682B0154600221E4663
:1052300005F016FBECB1002301AA0821204603F07B
:105240002DFD012816D020B900222946204605F060
:10525000F7FA002301AA0921204603F01FFD0128C7
:105260000CD020B900223146204605F0F1FA02B0F8
:1052700070BDFEE7019B9D42E6D1EAE7019B9E429D
:10528000F0D1F4E758B110B4D0E90542D0E90730C5
:10529000C1E90042C8605DF8044B8B607047FEE7CF
:1052A00028B3F0B583B0044605F07CFE0546F8B19E
:1052B00043696469E41A02F0A9F912220444002146
:1052C000284603F0D3FC30220646019000212846F0
:1052D00003F0CCFC3422074600212846019703F056
:1052E000C5FC430748BFF619A01B03B0F0BDFEE79D
:1052F000606903B0F0BD00BF28B3F0B583B00446C9
:1053000005F050FE0546F8B18369A469E41A02F07D
:1053100083F9102204440021284603F0A7FC302220
:10532000064601900021284603F0A0FC34220746DF
:1053300000212846019703F099FC830748BFF6191E
:10534000A01B03B0F0BDFEE7A06903B0F0BD00BF35
:1053500070B32DE9F04182B0044605F023FE054606
:1053600038B3A36982699F1A02F056F910220744E4
:105370000021284603F07AFC3022064601900021E5
:10538000284603F073FC3422804600212846CDF8DD
:10539000048003F06BFC830748BF46440190BE1BAA
:1053A00004F1140036F070FD304402B0BDE8F08125
:1053B000FEE7A669F4E700BF00B5092283B000212B
:1053C00003F054FC03B05DF804FB00BF10B11430CF
:1053D00036F054BDFEE700BF10B1143036F054BDB6
:1053E000FEE700BF08B1FFF7FFB9FEE708B1FFF71E
:1053F00035BAFEE708B1FFF76BBAFEE70000000020
:1054000000B59FED077B83B06A4634218DED007BAC
:10541000FEF7B4FF009803B05DF804FBAFF3008023
:1054200000000000010000E000B59FED077B83B0A5
:105430006A4634218DED007BFEF7A0FF019803B092
:105440005DF804FBAFF30080010000E00000000005
:1054500030B5012283B00021044603F007FC02228C
:10546000054600212046019503F000FC6FF0404303
:105470009D42019001D0984217D194F82A3043F010
:10548000010384F82A30204605F05AFD90F82A20BE
:1054900042F0040280F82A2005F05AFD002239214A
:1054A00007F0C2FB012003B030BD002003B030BDC7
:1054B0002DE9F04F97B081468B4690461C4605F08B
:1054C000BDFD002800F054810025234682462C466D
:1054D0004D46C1469846AB681B6853F82430049388
:1054E000B8F1000F07D018464FF48021FDF7B6FF42
:1054F000002840F03981049A53695B4453619369F1
:105500004B449361D3695B44D361136A4B44136288
:10551000104605F093FD002800F02681CDE90A58D9
:10552000CDE908A400270446049B9B681B6853F838
:105530002750D5E9050258444A44C5E90502EB69FC
:105540002A6A5B444A44EB612A62284605F076FDEC
:105550000690002800F00081CDE90C474FF00008CC
:10556000AB681B6853F8284063695B446361A369B7
:105570004B44A361E3695B44E361236A4B442362C8
:10558000204605F05BFD0790002800F0DD80CDE9A6
:105590000E54DA460026CB460F9B9B681B6853F8D7
:1055A0002640636953446361A3695B44A361E36973
:1055B0005344E361236A5B442362204605F03EFDC9
:1055C0000390002800F0B8805B4600273546D3469C
:1055D0002646CDF840803C469A46B3681B6853F88F
:1055E00024707B695B447B61BB695344BB61FB698D
:1055F0005B44FB613B6A53443B62384605F01EFD49
:10560000002800F08E80D8464FF00009AB46019488
:105610000546BB681B6853F82940636943446361CE
:10562000A3695344A361E3694344E361236A534498
:105630002362204605F002FD00286AD0CDE91375EB
:105640000023CDE9116B0593CDF854908346A368F0
:10565000059A1B6853F82260736943447361B36908
:105660005344B361F3694344F361336A534433628F
:10567000304605F0E3FC074600283FD00025B3681C
:105680001B6853F82590D9F814304344C9F81430F6
:10569000D9F818305344C9F81830D9F81C304344AD
:1056A000C9F81C30D9F820305344C9F82030484696
:1056B00005F0C4FCF8B1002300930290D9F808303B
:1056C000009A1B6853F82200426942444261826991
:1056D00052448261C2694244C261026A5244002358
:1056E000026241465246FFF7E3FE009A531C029ABB
:1056F00000939A42E2D10135AF42C0D1059B0133FC
:105700009B450593A3D1DDE9116BDDE91375DDF848
:10571000549009F101094D457FF47BAF019C5D4632
:10572000C346039B0134A3427FF457AF5346DDF8D1
:105730004080DA462E469B46079B0136B3427FF4F3
:105740002BAF0E9DD946D346069B08F10108434571
:105750007FF406AFDDE90C470137BC427FF4E4AECD
:10576000DDE908A4DDE90A580134A2457FF4B3AEAF
:1057700017B0BDE8F08F00BF002845D02DE9F047F5
:105780001D4603F00108AB070E46174604461BD41E
:10579000B8F1000F29D02046FEF758FD0228204618
:1057A00006D005F0FFFB04460028F4D1BDE8F087E1
:1057B00000233A463146FEF709FF204605F0F2FB8A
:1057C00004460028E7D1F1E7FEF740FD8146B8F135
:1057D000000F10D1B9F1020FE8D101233A4631464A
:1057E0002046BDE8F047FEF7F1BEFEF72FFD022888
:1057F000DCD14346F2E7204605F0D4FB2B463A467F
:105800003146FFF7B9FFE5E7704700BF13460122B5
:10581000FFF7B2BFF0B50C46D1E9001589B0CDE96C
:1058200000150291E1680595A568013113460391C1
:10583000079101356946042204950695FFF79CFF00
:10584000069ADDF810E0DDF808C0009F079B059E72
:10585000039D019872451146A8BF71467245B8BFB5
:1058600072466145A8BF61466245B8BF6246B9420B
:10587000A8BF3946BA42B8BF3A46B342A2601A46F8
:10588000A8BF3246B342B8BF3346AA42A8BF2A4691
:10589000AB42B8BF2B468242A8BF02468342B8BF84
:1058A000034621606260E36009B0F0BDF0B50E46CA
:1058B00089B001210446FDF7D1FD18B10027384613
:1058C00009B0F0BD204605F03BFB054605F040FB66
:1058D000074607F049F8854213D0384607F050F8DC
:1058E00085420ED0384607F06FF8854209D0384619
:1058F00007F052F8854204D0384607F059F885423F
:10590000DCD12046FEF79EFCA3690193E369029374
:10591000236A03930246636900930146684635F0A3
:105920009BFD6A463146304635F0B6FD07460028F5
:10593000C4D023469A682AB192F8332002F00C02B0
:10594000082A42D05B68002BF4D1204605F02AFBE0
:1059500004460028B3D004AD01212046FDF77EFDAA
:105960000028ABD104F114030FCB85E80F004FF4EE
:1059700080112046FDF772FDC8B923469A682AB106
:1059800092F8332002F00C02082A19D05B68002B31
:10599000F4D12A463146304635F07EFD00288DD0C0
:1059A000204605F0FFFA04460028D5D187E72046B7
:1059B000FEF748FC02460146284635F04DFDDCE77F
:1059C00029462046FEF7A8FEE3E731462046FEF7CB
:1059D000A3FEBAE750B130B585B00D46044605F0D8
:1059E000B7FA07F087F910B905B030BDFEE76B686C
:1059F0000193D5E902232968009120466946CDE943
:105A00000223FFF753FF0028EED0A3682BB193F8D1
:105A1000333003F00C03082B07D0204605F098FA2A
:105A2000694605F0B9FF05B030BD0522114668464C
:105A300035F012FDF1E700BF2DE9F04385B00446D3
:105A4000FEF700FC05462046D4E90587E669D4F850
:105A5000209005F07DFA07F04DF910B905B0BDE8CA
:105A6000F083A8EB05037F1B2E4469464D44204676
:105A7000CDE9017600930395FFF718FF0028EDD0DC
:105A8000A3682BB193F8333003F00C03082B08D034
:105A9000204605F05DFA694605F07EFF05B0BDE8D9
:105AA000F08305221146684635F0D6FCF0E700BFCA
:105AB000002800F0A0802DE9F04790F82B3003F08B
:105AC0001803182B8AB0044600F09B8005F06AFA90
:105AD0000746002800F0958094F82B3013F010054D
