:020000040800F2
:100000000000022015150008ED130008F513000884
:10001000FD130008051400080D140008000000007E
:10002000000000000000000000000000151400089F
:100030002314000800000000311400083F140008D9
:1000400065150008651500086515000865150008A8
:100050006515000865150008651500086515000898
:100060006515000865150008651500086515000888
:100070006515000865150008651500086515000878
:100080006515000865150008651500086515000868
:100090006515000865150008651500086515000858
:1000A0006515000865150008651500086515000848
:1000B000651500084D140008651500086515000851
:1000C0006515000865150008651500086515000828
:1000D000651500086114000865150008651500081D
:1000E00075140008651500086515000865150008F9
:1000F00065150008651500086515000865150008F8
:1001000065150008651500086515000865150008E7
:1001100065150008651500086515000865150008D7
:1001200065150008651500086515000865150008C7
:1001300065150008651500086515000865150008B7
:1001400065150008651500086515000865150008A7
:100150006515000865150008651500086515000897
:100160006515000865150008651500086515000887
:1001700065150008651500086515000800000000F9
:08018000651500086515000873
:1001900010B5054C237833B9044B13B10448AFF3C1
:1001A00000800123237010BD1C010020000000000E
:1001B0005CB7060808B5034B1BB103490348AFF30E
:1001C000008008BD00000000200100205CB7060888
:1001D00010F8012B11F8013B012A28BF9A42F7D0F1
:1001E000D01A70470000000000000000000000006E
:1001F00001F0FF01102A2BDB10F0070F08D010F8D8
:10020000013B013A8B422DD010F0070F42B3F6D1DB
:10021000F0B441EA012141EA014122F007047FF0F4
:1002200000070023F0E80256083C85EA010586EA4B
:10023000010685FA47F5A3FA87F586FA47F6A5FA87
:1002400087F68EB9EED1F0BC01F0FF0102F0070293
:1002500032B110F8013B013A83EA010313B1F8D13E
:100260000020704701387047002D06BF354603381F
:10027000073815F0010F07D1013015F4807F02BF58
:10028000013015F4C03F0130F0BC0138704700BFA9
:100290007BB972B90029BEBF00204FF0004106E0D3
:1002A00008BF00281CBF6FF000414FF0FF3000F086
:1002B000D3B9ADF1080C6DE904CE002909DB002BA0
:1002C0001ADB00F04DF8DDF804E0DDE9022304B0AC
:1002D0007047404261EB4101002B1BDB00F040F80E
:1002E000DDF804E0DDE9022304B0404261EB4101A6
:1002F000524263EB43037047524263EB430300F007
:100300002FF8DDF804E0DDE9022304B0404261EBA0
:1003100041017047524263EB430300F021F8DDF8DE
:1003200004E0DDE9022304B0524263EB430370476B
:1003300053B94AB9002908BF00281CBF4FF0FF314C
:100340004FF0FF3000F088B9ADF1080C6DE904CE34
:1003500000F006F8DDF804E0DDE9022304B07047A0
:100360002DE9F047089D8E4604468846002B4AD169
:100370008A42174662D9B2FA82F64EB1C6F120031C
:1003800001FA06F820FA03F3B74043EA0808B4403C
:100390004FEA174E1FFA87FCB8FBFEF1230C0EFB49
:1003A000118843EA084301FB0CF29A4209D9FB1871
:1003B00001F1FF3080F0EA809A4240F2E780023992
:1003C0003B449A1AA3B2B2FBFEF00EFB102243EAA2
:1003D000024300FB0CFC9C4509D9FB1800F1FF32DD
:1003E00080F0D6809C4540F2D3803B44023840EAFE
:1003F0000140A3EB0C0300211DB1F3400022C5E92D
:100400000032BDE8F0878B4205D90DB1C5E9000186
:1004100000210846F5E7B3FA83F1002946D1734578
:1004200002D3824200F20581841A6EEB030201209E
:100430009046002DE5D0C5E90048E2E7002A00F02B
:100440009080B2FA82F6002E40F0A4808A1A030C43
:100450004FEA174E80B2BCB20121B2FBFEFC0EFB8C
:100460001C2243EA024304FB0CF29A4207D9FB1810
:100470000CF1FF3802D29A4200F2E080C4469B1A87
:10048000B3FBFEF20EFB123340EA034302FB04F41B
:100490009C4207D9FB1802F1FF3002D29C4200F2C5
:1004A000CA8002461B1B42EA0C40A5E7C1F12006A8
:1004B0008B4022FA06F71F430EFA01F420FA06F3E6
:1004C0002EFA06FE4FEA1749234300FA01F81FFAF5
:1004D00087FCBEFBF9F01C0C09FB10EE44EA0E444D
:1004E00000FB0CFEA64502FA01F209D93C1900F105
:1004F000FF3A80F09C80A64540F2998002383C4447
:10050000A4EB0E041FFA83FEB4FBF9F309FB1344BA
:100510004EEA044403FB0CFCA44508D93C1903F142
:10052000FF3E80F08280A4457FD9023B3C4443EAF1
:100530000040A4EB0C04A0FB02EC64457346E146CA
:1005400062D35FD05DB1B8EB030264EB090404FA37
:1005500006F622FA01F31E43CC40C5E900640021EF
:100560004FE7B1FBF2FC010C41EA0E4180B240EAD8
:1005700001423B4638463C46B846BE462026B1FBC3
:10058000F7F1A2EB080241EA0C4166E7014618E7E1
:1005900010462CE7C6F120022EFA02F3B740B14014
:1005A00020FA02F24FEA174E0A43B3FBFEF8BCB240
:1005B0000EFB1833110C41EA034108FB04F9B0406B
:1005C00089454FEA104380B23ED9791808F1FF3CC3
:1005D00001D289451FD8A1EB0901B1FBFEF909FB46
:1005E00004F80EFB191192B242EA0142424529D2A7
:1005F000BA1809F1FF31C4D24245C2D2A9F10201B1
:100600003A44BEE7F0459DD2BEEB02036CEB070C0B
:100610000138E14696E7A7EB09094944A8F1020C25
:10062000B1FBFEF909FB04F8DBE773467FE75046B0
:1006300066E70846FDE63B44023A33E7ACF1020CBC
:100640003B441CE749469CE7A1EB0901C446B1FBCA
:10065000FEF909FB04F8C4E7704700BF80B58AB013
:1006600000AFF860B9607A60BB681B68FB83BB6849
:100670009B68BB83BB685B687B83BB68DB683B8331
:10068000BA8BFB8BD31A9BB20133FB827B687B62F4
:100690007B8B7B8429E07A8CFB8B1146184667F0B4
:1006A00055FF174B1B88184667F0E2FE00233B847A
:1006B0000FE03B8C5B007A6A13441B88BB8207F116
:1006C000140201230F49104803F0ABFC3B8C0133AB
:1006D0003B843A8CFB8A9A42EBD3FB8A5B007A6AB2
:1006E00013447B627B8C01337B847A8C3B8B9A42F4
:1006F000D1D9F86813F05EFD00BF2837BD4680BD34
:100700002C2A012000000860B027002080B584B0AA
:1007100002AF4FF4F0714FF4487013F037FA78607D
:10072000002300934FF49653064A0749786813F064
:1007300061FC0649786813F011FD00BF0837BD461B
:1007400080BD00BFF8130020380100205D060008BE
:1007500080B483B000AF03460A46FB801346BB80DB
:10076000FB88054A5360BB88034A936000BF0C377F
:10077000BD465DF8047B7047B826002080B483B086
:1007800000AF0346FB71044AFB79137000BF0C37BE
:10079000BD465DF8047B7047B826002080B584B064
:1007A00000AF78604FF0BCF9F860064B1B68FA6840
:1007B000D31AC72B02D9034AFB68136000BF103756
:1007C000BD4680BDCC26002080B500AF002232217E
:1007D000024848F0FBFB00BF80BD00BF9D0700083A
:1007E00080B584B000AF78603960786839F0FAFC81
:1007F000F860FB68002B03D03968F86848F062FCA9
:1008000000BF1037BD4680BD80B483B000AF7860B4
:1008100039600D4B1B881A463B685A620A4B5B884D
:100820001A463B689A62084B1B791A463B6883F864
:1008300020203B68002283F83C2000BF0C37BD46D7
:100840005DF8047B704700BFC426002080B582B0ED
:1008500000AF39F02BFA78600121786839F090FB0D
:100860000649786839F0A4FB0A217868FFF7B8FFD9
:100870007B6818460837BD4680BD00BF09080008E0
:1008800080B582B000AF7860796803486AF0ECF810
:1008900000BF0837BD4680BD74B7060880B584B078
:1008A00000AF7860786844F058FDF86000BF1037FA
:1008B000BD4680BD80B586B000AF2F4845F0ECFC4A
:1008C00013F076FE78612D4843F092FF03461A46F6
:1008D0003A70C3F307227A70C3F30743BB70002258
:1008E0003968786910F099FA0022FF21786910F0D0
:1008F000B0FA786951F0A6FE38616422C8213869DF
:100900000AF05CFC0A220A2138690AF0D0F90023B7
:1009100000221B49386909F0EDFC38695BF014F9D5
:10092000F8601849F8685BF023F9F8680BF02DFFC0
:10093000786906F0EBFCB86064226421B8680AF0BC
:100940003DFC114843F054FF03461A463A71C3F385
:1009500007227A71C3F30743BB7100227968B86834
:1009600010F05BFA0A22FA21B8680AF0A0F900BF79
:100970001837BD4680BD00BF810800083025200023
:100980009D08000878B7060871CC2E0080B582B0AB
:1009900002AF00F0E9FD00F041F800F075F900F059
:1009A000A5F800F047F900F07BFA00F0CDF84FF41D
:1009B000FA7000F04BFE0421174803F01BFC164BA5
:1009C0001B6840F2F3129A6367F062FE4FF6FF7005
:1009D00069F06CFE69F0EEFE40F022FDFFF796FE36
:1009E000FFF734FF0023019300230093002300222C
:1009F0004FF4F0714FF4487005F0F6FDFFF75AFF21
:100A0000FFF7E2FE05F02AFE48F022FA052000F08A
:100A10001DFE00BFF6E700BF2427002080B594B07C
:100A200000AF07F120033022002118466AF071F868
:100A300007F10C0300221A605A609A60DA601A61AA
:100A40000023BB60274B1B6C264A43F08053136482
:100A5000244B1B6C03F08053BB60BB6800237B609E
:100A6000214B1B68204A43F4804313601E4B1B68D4
:100A700003F480437B607B6801233B624FF4803347
:100A80007B620223BB634FF48003FB6304233B645C
:100A900048237B640223BB640423FB6407F1200327
:100AA000184602F0A9FD0346002B01D000F072FAAF
:100AB0000F23FB6002233B6100237B614FF48053D3
:100AC000BB610023FB6107F10C030221184603F010
:100AD0000BF80346002B01D000F05CFA00BF503742
:100AE000BD4680BD003802400070004080B500AFB8
:100AF000124B134A1A60114B124A5A600F4B0022D4
:100B00009A600E4B0022DA600C4B4FF480421A615F
:100B10000A4B00225A61094B00229A61074B0022BE
:100B2000DA61064B00221A62044801F031F90346EB
:100B3000002B01D000F02EFA00BF80BDD02600208F
:100B400000580040801A060080B58EB000AF07F153
:100B5000280300221A605A609A60DA6007F12003C5
:100B600000221A605A603B1D00221A605A609A6087
:100B7000DA601A615A619A612C4B2D4A1A602B4B2C
:100B800047225A60294B00229A60284B40F2F31208
:100B9000DA60264B00221A61244B80229A61234896
:100BA00003F07FFA0346002B01D000F0F3F94FF475
:100BB0008053BB6207F1280319461C4803F0ACFDC3
:100BC0000346002B01D000F0E5F9184803F0B8FA0D
:100BD0000346002B01D000F0DDF900233B62002327
:100BE0007B6207F120031946104804F09FF9034681
:100BF000002B01D000F0CEF960237B600023BB60A6
:100C00000023FB6000237B613B1D0422194607483B
:100C100003F0C0FC0346002B01D000F0BBF90348F1
:100C200000F004FB00BF3837BD4680BD24270020FC
:100C30000004004080B500AF114B124A1A60104BFF
:100C40004FF4E1325A600E4B00229A600C4B0022A6
:100C5000DA600B4B00221A61094B0C225A61084BD7
:100C600000229A61064B0022DA61054804F0EEF991
:100C70000346002B01D000F08DF900BF80BD00BFFE
:100C80006C2700200010014080B58EB000AF07F146
:100C9000240300221A605A609A60DA601A61002305
:100CA0003B62794B1B6B784A43F004031363764B2A
:100CB0001B6B03F004033B623B6A0023FB61724B36
:100CC0001B6B714A43F0200313636F4B1B6B03F0E4
:100CD0002003FB61FB690023BB616B4B1B6B6A4A02
:100CE00043F080031363684B1B6B03F08003BB610D
:100CF000BB6900237B61644B1B6B634A43F00103B8
:100D00001363614B1B6B03F001037B617B69002361
:100D10003B615D4B1B6B5C4A43F0020313635A4B10
:100D20001B6B03F002033B613B690023FB60564BE6
:100D30001B6B554A43F040031363534B1B6B03F08B
:100D40004003FB60FB680023BB604F4B1B6B4E4AAC
:100D500043F0100313634C4B1B6B03F01003BB6099
:100D6000BB6800237B60484B1B6B474A43F008037A
:100D70001363454B1B6B03F008037B607B68012208
:100D80004FF40051414800F0C5FF01228021404846
:100D900000F0C0FF012202213E4800F0BBFF01220B
:100DA00048F21F013C4800F0B5FF4FF400537B624E
:100DB0000123BB620023FB6200233B6307F1240392
:100DC0001946324800F00AFE80237B620123BB6291
:100DD0000023FB6203233B6307F1240319462C48DD
:100DE00000F0FCFD02237B620123BB620123FB6256
:100DF00003233B6307F124031946264800F0EEFD68
:100E00004FF470437B620023BB620123FB6207F156
:100E100024031946214800F0E1FD03237B621123DE
:100E2000BB620023FB6200233B6307F124031946E6
:100E3000194800F0D3FD48F21C037B620123BB621A
:100E40000123FB6203233B6307F124031946124885
:100E500000F0C4FD4FF400537B624FF44413BB62B7
:100E60000123FB6207F1240319460B4800F0B6FD8D
:100E700000220021282000F0E8FC282000F001FDDD
:100E800000BF3837BD4680BD003802400008024030
:100E9000000002400004024000180240001402401A
:100EA00080B58EB000AF07F11C0300221A605A60B3
:100EB0009A60DA601A615A619A613B4600221A60B0
:100EC0005A609A60DA601A615A619A612F4B4FF04A
:100ED00020421A602D4B2E4A5A602C4B00229A60F9
:100EE0002A4B0022DA60294B00221A61274B10227C
:100EF0005A61264B00229A61244B0022DA61234B6F
:100F000000221A62214B00225A62204B4FF4805279
:100F10009A621E4B0022DA621C4B4FF480421A6325
:100F20001A4B00225A63194B00229A63174B002276
:100F30005A640F23FB610F233B623C237B62002337
:100F4000BB621023FB6211233B6300237B630923F5
:100F50003B600F237B600823BB600023FB601023F2
:100F60003B6111237B610023BB613A4607F11C03FF
:100F70001946064802F0D8FF0346002B01D000F0C6
:100F800009F800BF3837BD4680BD00BFB02700203C
:100F9000040100A080B400AF72B600BF00BFFDE73F
:100FA00080B582B000AF78607B68002B04DB7B6883
:100FB000022B01DC012305E069F0FAFD034609225A
:100FC0001A60002318460837BD4680BD80B586B03C
:100FD00000AFF860B9607A60FB68012B02D0FB6853
:100FE000022B11D10E4B18687B689AB24FF0FF3379
:100FF000B96804F078F80346FB75FB7D002B01D13E
:101000007B6808E0052306E069F0D2FD034609226B
:101010001A604FF0FF3318461837BD4680BD00BF39
:101020000028002080B582B000AF78607B68002B7C
:1010300004DB7B68022B01DC002306E069F0B8FDCD
:10104000034609221A604FF0FF3318460837BD46A1
:1010500080BD80B584B000AFF860B9607A6069F097
:10106000A7FD034609221A604FF0FF3318461037D8
:10107000BD4680BD80B586B000AFF860B9607A60CB
:10108000FB68002B10D10E4B18684FF0FF33012284
:10109000B96804F0BAF80346FB75FB7D002B01D15B
:1010A000012308E0052306E069F082FD03460922DA
:1010B0001A604FF0FF3318461837BD4680BD00BF99
:1010C0000028002080B582B000AF786039607B686E
:1010D000002B08DB7B68022B05DC3B684FF40052D9
:1010E0005A60002305E069F063FD034609221A6097
:1010F000002318460837BD4680BD000080B483B089
:1011000000AF00237B60104B5B6C0F4A43F48043BD
:1011100053640D4B5B6C03F480437B607B6800235E
:101120003B60094B1B6C084A43F080531364064B29
:101130001B6C03F080533B603B6800BF0C37BD461F
:101140005DF8047B704700BF0038024080B58AB06C
:1011500000AF786007F1140300221A605A609A60A9
:10116000DA601A617B681B68194A93422BD100230D
:101170003B61184B1B6B174A43F020031363154B5D
:101180001B6B03F020033B613B6903237B6112234C
:10119000BB610023FB6103233B6204237B6207F1F5
:1011A000140319460C4800F019FC0023FB60094B9E
:1011B0001B6C084A43F480031364064B1B6C03F456
:1011C0008003FB60FB6800BF2837BD4680BD00BFC1
:1011D00000580040003802400014024080B584B03E
:1011E00000AF78607B681B680E4A934215D10023DC
:1011F000FB600D4B1B6C0C4A43F0020313640A4B5B
:101200001B6C03F00203FB60FB68002200211D2021
:1012100000F01BFB1D2000F034FB00BF1037BD4663
:1012200080BD00BF000400400038024080B588B097
:1012300000AF786007F10C0300221A605A609A60D0
:10124000DA601A617B681B68124A93421DD1002341
:10125000BB60114B1B6B104A43F0020313630E4B30
:101260001B6B03F00203BB60BB682023FB600223FF
:101270003B6101237B610323BB610223FB6107F117
:101280000C031946054800F0A9FB00BF2037BD46F6
:1012900080BD00BF0004004000380240000402404E
:1012A00080B58AB000AF786007F1140300221A609D
:1012B0005A609A60DA601A617B681B681D4A934223
:1012C00034D100233B611C4B5B6C1B4A43F0100381
:1012D0005364194B5B6C03F010033B613B690023C3
:1012E000FB60154B1B6B144A43F001031363124B55
:1012F0001B6B03F00103FB60FB684FF4C0637B6171
:101300000223BB610023FB6103233B6207237B6253
:1013100007F114031946094800F060FB0022002180
:10132000252000F092FA252000F0ABFA00BF283704
:10133000BD4680BD00100140003802400000024060
:1013400080B586B000AF3B1D00221A605A609A60DB
:10135000DA601A611C4B1B68002B31D11A4B012239
:101360001A6000233B60194B9B6B184A43F0010342
:101370009363164B9B6B03F001033B603B684FF696
:1013800080737B600223BB600123FB6003233B610E
:101390000C237B613B1D19460D4800F01FFB4EF2EC
:1013A000B3737B600223BB600123FB6003233B61BB
:1013B0000C237B613B1D1946064800F00FFB00E043
:1013C00000BF1837BD4680BD042800200038024009
:1013D00000100240000C024080B582B000AF78607F
:1013E000FFF7AEFF00BF0837BD4680BD80B400AF39
:1013F00000BFFDE780B400AF00BFFDE780B400AFE1
:1014000000BFFDE780B400AF00BFFDE780B400AFD0
:1014100000BFFDE780B400AF00BFBD465DF8047BB0
:10142000704780B400AF00BFBD465DF8047B7047D5
:1014300080B400AF00BFBD465DF8047B704780B547
:1014400000AF00F0E3F800BF80BD000080B500AF42
:10145000024802F097FF00BF80BD00BF2427002094
:1014600080B500AF024803F073FF00BF80BD00BF2E
:101470006C27002080B500AF4FF4005000F064FCF2
:1014800000BF80BD80B586B000AF7860144A154BB0
:10149000D31A7B617B693B61134B1B68002B02D124
:1014A000114B124A1A60104B1A687B6813443A6950
:1014B0009A4207D269F07CFB03460C221A604FF077
:1014C000FF3309E0084B1B68FB60074B1A687B6819
:1014D0001344054A1360FB6818461837BD4680BDA3
:1014E000000002200004000008280020882B0120B2
:1014F00080B400AF064BD3F88830054A43F470033C
:10150000C2F8883000BFBD465DF8047B704700BF5D
:1015100000ED00E0DFF834D00D480E490E4A0023FC
:1015200002E0D458C4500433C4188C42F9D30B4A97
:101530000B4C002301E013600432A242FBD3FFF7FF
:10154000D7FF69F03BFBFFF721FA7047000002204C
:10155000000000201C010020880707081C01002053
:10156000882B0120FEE7000080B500AF0E4B1B6802
:101570000D4A43F4007313600B4B1B680A4A43F493
:1015800080631360084B1B68074A43F48073136041
:10159000032000F04FF90F2000F008F8FFF7AEFD30
:1015A0000023184680BD00BF003C024080B582B0D9
:1015B00000AF7860124B1A68124B1B7819464FF433
:1015C0007A73B3FBF1F3B2FBF3F3184600F067F95B
:1015D0000346002B01D001230EE07B680F2B0AD8B5
:1015E000002279684FF0FF3000F02FF9064A7B683F
:1015F0001360002300E0012318460837BD4680BD74
:1016000000000020080000200400002080B500AF8A
:10161000064B1B781A46064B1B681344044A13609A
:1016200001204EF065FA00BF80BD00BF0800002019
:101630000C28002080B400AF034B1B681846BD4641
:101640005DF8047B704700BF0C28002080B584B093
:1016500000AF7860FFF7EEFFB8607B68FB60FB6867
:10166000B3F1FF3F05D00A4B1B781A46FB681344C1
:10167000FB6000BFFFF7DEFF0246BB68D31AFA68C3
:101680009A42F7D800BF00BF1037BD4680BD00BFEB
:101690000800002080B485B000AF78607B6803F05C
:1016A0000703FB600C4BDB68BB60BA684FF6FF03B7
:1016B0001340BB60FB681A02BB68134343F0BF636F
:1016C00043F40033BB60044ABB68D36000BF1437E7
:1016D000BD465DF8047B704700ED00E080B400AFCC
:1016E000044BDB681B0A03F007031846BD465DF890
:1016F000047B704700ED00E080B483B000AF034688
:10170000FB7197F90730002B0BDBFB7903F01F020D
:10171000074997F907305B09012000FA02F241F806
:10172000232000BF0C37BD465DF8047B704700BF27
:1017300000E100E080B483B000AF03463960FB7184
:1017400097F90730002B0ADB3B68DAB20C4997F9AE
:1017500007301201D2B20B4483F800230AE03B6841
:10176000DAB20849FB7903F00F03043B1201D2B24D
:101770000B441A7600BF0C37BD465DF8047B7047FA
:1017800000E100E000ED00E080B489B000AFF86057
:10179000B9607A60FB6803F00703FB61FB69C3F182
:1017A0000703042B28BF0423BB61FB690433062B0A
:1017B00002D9FB69033B00E000237B614FF0FF325D
:1017C000BB6902FA03F3DA43BB681A407B699A40AB
:1017D0004FF0FF317B6901FA03F3D9437B680B407B
:1017E000134318462437BD465DF8047B704700005C
:1017F00080B582B000AF78607B68013BB3F1807F39
:1018000001D301230FE00A4A7B68013B53600F219B
:101810004FF0FF30FFF78EFF054B00229A60044B1C
:1018200007221A60002318460837BD4680BD00BF56
:1018300010E000E080B582B000AF78607868FFF714
:1018400029FF00BF0837BD4680BD80B586B000AF18
:101850000346B9607A60FB7300237B61FFF73EFFAC
:1018600078617A68B9687869FFF78EFF024697F960
:101870000F3011461846FFF75DFF00BF1837BD4611
:1018800080BD80B582B000AF0346FB7197F9073089
:101890001846FFF731FF00BF0837BD4680BD80B551
:1018A00082B000AF78607868FFF7A2FF0346184661
:1018B0000837BD4680BD80B584B000AF78607B68D6
:1018C0009B6DFB60FFF7B6FEB8607B6893F8353020
:1018D000DBB2022B08D07B6880225A657B6800222D
:1018E00083F83420012352E07B681B681A687B6808
:1018F0001B6822F016021A607B681B685A697B68B5
:101900001B6822F080025A617B681B6C002B03D19C
:101910007B689B6C002B07D07B681B681A687B6810
:101920001B6822F008021A607B681B681A687B68D3
:101930001B6822F001021A6013E0FFF77BFE0246EB
:10194000BB68D31A052B0CD97B6820225A657B68AB
:10195000032283F835207B68002283F83420032398
:1019600015E07B681B681B6803F00103002BE4D1C2
:101970007B68DB6D3F229A40FB689A607B6801229E
:1019800083F835207B68002283F834200023184632
:101990001037BD4680BD80B483B000AF78607B68EF
:1019A00093F83530DBB2022B04D07B6880225A6575
:1019B00001230CE07B68052283F835207B681B68D7
:1019C0001A687B681B6822F001021A60002318461F
:1019D0000C37BD465DF8047B7047000080B489B0C9
:1019E00000AF7860396000237B6100233B610023F6
:1019F000BB610023FB616BE10122FB6902FA03F387
:101A00007B613B681B687A6913403B613A697B697B
:101A10009A4240F05A813B685B6803F00303012B54
:101A200005D03B685B6803F00303022B30D17B6871
:101A30009B68BB61FB695B00032202FA03F3DB4393
:101A4000BA691340BB613B68DA68FB695B0002FA64
:101A500003F3BA691343BB617B68BA699A607B6818
:101A60005B68BB610122FB6902FA03F3DB43BA69DD
:101A70001340BB613B685B681B0903F00102FB6913
:101A800002FA03F3BA691343BB617B68BA695A600F
:101A90003B685B6803F00303032B17D07B68DB68AC
:101AA000BB61FB695B00032202FA03F3DB43BA6903
:101AB0001340BB613B689A68FB695B0002FA03F361
:101AC000BA691343BB617B68BA69DA603B685B68DB
:101AD00003F00303022B23D1FB69DA087B68083289
:101AE00053F82230BB61FB6903F007039B000F2210
:101AF00002FA03F3DB43BA691340BB613B681A691E
:101B0000FB6903F007039B0002FA03F3BA6913436E
:101B1000BB61FB69DA087B680832B96943F82210B7
:101B20007B681B68BB61FB695B00032202FA03F35D
:101B3000DB43BA691340BB613B685B6803F0030297
:101B4000FB695B0002FA03F3BA691343BB617B686C
:101B5000BA691A603B685B6803F44033002B00F0FD
:101B6000B4800023FB60604B5B6C5F4A43F48043AE
:101B700053645D4B5B6C03F48043FB60FB685B4A22
:101B8000FB699B08023352F82330BB61FB6903F009
:101B900003039B000F2202FA03F3DB43BA691340ED
:101BA000BB617B68524A93422BD07B68514A934277
:101BB00025D07B68504A93421FD07B684F4A93429E
:101BC00019D07B684E4A934213D07B684D4A9342AA
:101BD0000DD07B684C4A934207D07B684B4A9342B6
:101BE00001D107230EE008230CE006230AE00523B9
:101BF00008E0042306E0032304E0022302E00123BB
:101C000000E00023FA6902F0030292009340BA69EF
:101C10001343BB613549FB699B080233BA6941F83C
:101C200023203B4B1B68BB613B69DB43BA69134014
:101C3000BB613B685B6803F48033002B03D0BA6957
:101C40003B691343BB61324ABB691360304B5B682D
:101C5000BB613B69DB43BA691340BB613B685B68AE
:101C600003F40033002B03D0BA693B691343BB6113
:101C7000274ABB695360264B9B68BB613B69DB43CA
:101C8000BA691340BB613B685B6803F48013002BA7
:101C900003D0BA693B691343BB611D4ABB699360BA
:101CA0001B4BDB68BB613B69DB43BA691340BB611B
:101CB0003B685B6803F40013002B03D0BA693B69EF
:101CC0001343BB61124ABB69D360FB690133FB61FB
:101CD000FB690F2B7FF690AE00BF00BF2437BD46D7
:101CE0005DF8047B704700BF0038024000380140B7
:101CF000000002400004024000080240000C0240C4
:101D0000001002400014024000180240001C024073
:101D1000003C014080B483B000AF78600B467B800C
:101D200013467B707B78002B03D07A887B689A619E
:101D300003E07B881A047B689A6100BF0C37BD46BC
:101D40005DF8047B7047000080B582B000AF0346A9
:101D5000FB80084B5A69FB881340002B06D0054ACC
:101D6000FB885361FB88184600F006F800BF08376F
:101D7000BD4680BD003C014080B483B000AF034647
:101D8000FB8000BF0C37BD465DF8047B7047000048
:101D900080B584B000AF78607B68002B01D101234F
:101DA0002BE17B6893F83D30DBB2002B06D17B68DA
:101DB000002283F83C207868FFF7C8F97B6824226A
:101DC00083F83D207B681B681A687B681B6822F0DB
:101DD00001021A607B681B681A687B681B6842F402
:101DE00000421A607B681B681A687B681B6822F4D3
:101DF00000421A6002F070F8F8607B685B68814A04
:101E0000934207D8FB68804A934294BF0123002382
:101E1000DBB206E0FB687D4A934294BF01230023B6
:101E2000DBB2002B01D00123E7E0FB68784AA2FB7C
:101E300003239B0CBB607B681B685B6823F03F013E
:101E40007B681B68BA680A435A607B681B681B6A18
:101E500023F03F017B685B686A4A934202D8BB6803
:101E6000013309E0BB684FF4967202FB03F3694A41
:101E7000A2FB03239B0901337A6812680B431362A8
:101E80007B681B68DB6923F44F4222F0FF027B680A
:101E90005B685C498B4219D8FB68591E7B685B689C
:101EA0005B00B1FBF3F3591C40F6FC730B40002BB5
:101EB0000AD0FB68591E7B685B685B00B1FBF3F3DB
:101EC0000133C3F30B0351E004234FE07B689B68AD
:101ED000002B11D1FB68581E7B6859680B465B00CC
:101EE0000B44B0FBF3F30133C3F30B03002B0CBF24
:101EF00001230023DBB212E0FB68581E7B6859689F
:101F00000B469B000B4499000B44B0FBF3F30133E9
:101F1000C3F30B03002B0CBF01230023DBB2002B08
:101F200001D0012322E07B689B68002B0ED1FB6867
:101F3000581E7B6859680B465B000B44B0FBF3F3FB
:101F40000133C3F30B0343F400430FE0FB68581E57
:101F50007B6859680B469B000B4499000B44B0FB0F
:101F6000F3F30133C3F30B0343F440437968096887
:101F70001343CB617B681B681B6823F0C0017B683F
:101F8000DA697B681B6A1A437B681B680A431A601C
:101F90007B681B689B6823F4034323F0FF037A6884
:101FA00011697A68D26811437A6812680B439360AA
:101FB0007B681B68DB6823F0FF017B685A697B68DC
:101FC0009B691A437B681B680A43DA607B681B685D
:101FD0001A687B681B6842F001021A607B68002265
:101FE0001A647B68202283F83D207B6800221A63F4
:101FF0007B68002283F83E20002318461037BD4638
:1020000080BD00BFA08601007F841E00FF083D0048
:1020100083DE1B43D34D621080B588B002AFF860F9
:102020007A601A460B467B8113463B81FFF702FB21
:102030007861FB6893F83D30DBB2202B40F0E08004
:102040007B690093192301227049F86801F0F6F8C2
:102050000346002B01D00223D3E0FB6893F83C3009
:10206000012B01D10223CCE0FB68012283F83C2044
:10207000FB681B681B6803F00103012B07D0FB689A
:102080001B681A68FB681B6842F001021A60FB6853
:102090001B681A68FB681B6822F400621A60FB6800
:1020A000212283F83D20FB68102283F83E20FB6844
:1020B00000221A64FB687A685A62FB683A895A857A
:1020C000FB685B8D9AB2FB681A85FB68504ADA623E
:1020D00079897B693A6AF86800F0E2FD0346002BD3
:1020E00001D001238DE000233B61FB681B685B6925
:1020F0003B61FB681B689B693B613B6966E07A69F1
:10210000396AF86801F070F90346002B0DD0FB68BE
:102110001B6C042B07D1FB681B681A68FB681B68E3
:1021200042F400721A6001236BE0FB685B6A1A7864
:10213000FB681B681A61FB685B6A5A1CFB685A6281
:10214000FB685B8D9BB2013B9AB2FB685A85FB68CA
:102150001B8D013B9AB2FB681A85FB681B685B69A3
:1021600003F00403042B1BD1FB681B8D002B17D03D
:10217000FB685B6A1A78FB681B681A61FB685B6A1C
:102180005A1CFB685A62FB685B8D9BB2013B9AB29A
:10219000FB685A85FB681B8D013B9AB2FB681A8568
:1021A0007A69396AF86801F060F90346002B0DD0AE
:1021B000FB681B6C042B07D1FB681B681A68FB6863
:1021C0001B6842F400721A6001231AE0FB681B8D41
:1021D000002B94D1FB681B681A68FB681B6842F4EB
:1021E00000721A60FB68202283F83D20FB68002201
:1021F00083F83E20FB68002283F83C20002300E0A7
:10220000022318461837BD4680BD00BF02001000EB
:102210000000FFFF80B58CB002AFF8607A601A460C
:102220000B467B8113463B81FFF704FA7862FB681B
:1022300093F83D30DBB2202B40F00B827B6A009399
:10224000192301227C49F86800F0F8FF0346002BAF
:1022500001D00223FEE1FB6893F83C30012B01D151
:102260000223F7E1FB68012283F83C20FB681B682E
:102270001B6803F00103012B07D0FB681B681A6879
:10228000FB681B6842F001021A60FB681B681A6851
:10229000FB681B6822F400621A60FB68222283F844
:1022A0003D20FB68102283F83E20FB6800221A6460
:1022B000FB687A685A62FB683A895A85FB685B8DCD
:1022C0009AB2FB681A85FB685C4ADA6279897B6A94
:1022D0003A6BF86800F066FD0346002B01D001233D
:1022E000B8E1FB681B8D002B13D100233B62FB6818
:1022F0001B685B693B62FB681B689B693B623B6ACE
:10230000FB681B681A68FB681B6842F400721A605D
:102310008CE1FB681B8D012B1BD1FB681B681A68C5
:10232000FB681B6822F480621A600023FB61FB6873
:102330001B685B69FB61FB681B689B69FB61FB6950
:10234000FB681B681A68FB681B6842F400721A601D
:102350006CE1FB681B8D022B1BD1FB681B681A68A4
:10236000FB681B6822F480621A60FB681B681A68AD
:10237000FB681B6842F400621A600023BB61FB68C3
:102380001B685B69BB61FB681B689B69BB61BB69C0
:102390004CE1FB681B681A68FB681B6842F48062AA
:1023A0001A6000237B61FB681B685B697B61FB68CB
:1023B0001B689B697B617B6938E1FB681B8D032B84
:1023C00000F2F180FB681B8D012B23D17A6A396BF7
:1023D000F86801F08BF80346002B01D0012339E1A6
:1023E000FB681B681A69FB685B6AD2B21A70FB68EB
:1023F0005B6A5A1CFB685A62FB681B8D013B9AB2F0
:10240000FB681A85FB685B8D9BB2013B9AB2FB6847
:102410005A850BE1FB681B8D022B4ED17B6A009322
:102420003B6B00220649F86800F008FF0346002BCA
:1024300008D001230EE100BF020010000000FFFFE2
:1024400004000100FB681B681A68FB681B6842F403
:1024500000721A60FB681B681A69FB685B6AD2B27B
:102460001A70FB685B6A5A1CFB685A62FB681B8D1A
:10247000013B9AB2FB681A85FB685B8D9BB2013BFE
:102480009AB2FB685A85FB681B681A69FB685B6A2D
:10249000D2B21A70FB685B6A5A1CFB685A62FB680E
:1024A0001B8D013B9AB2FB681A85FB685B8D9BB262
:1024B000013B9AB2FB685A85B8E07B6A00933B6B9C
:1024C00000226649F86800F0B9FE0346002B01D0EF
:1024D0000123BFE0FB681B681A68FB681B6822F4D5
:1024E00080621A60FB681B681A69FB685B6AD2B27B
:1024F0001A70FB685B6A5A1CFB685A62FB681B8D8A
:10250000013B9AB2FB681A85FB685B8D9BB2013B6D
:102510009AB2FB685A857B6A00933B6B00224F4955
:10252000F86800F08BFE0346002B01D0012391E0F8
:10253000FB681B681A68FB681B6842F400721A602B
:10254000FB681B681A69FB685B6AD2B21A70FB6889
:102550005B6A5A1CFB685A62FB681B8D013B9AB28E
:10256000FB681A85FB685B8D9BB2013B9AB2FB68E6
:102570005A85FB681B681A69FB685B6AD2B21A70DD
:10258000FB685B6A5A1CFB685A62FB681B8D013B47
:102590009AB2FB681A85FB685B8D9BB2013B9AB2CD
:1025A000FB685A8542E07A6A396BF86800F09EFF52
:1025B0000346002B01D001234CE0FB681B681A691D
:1025C000FB685B6AD2B21A70FB685B6A5A1CFB68D4
:1025D0005A62FB681B8D013B9AB2FB681A85FB6847
:1025E0005B8D9BB2013B9AB2FB685A85FB681B6806
:1025F0005B6903F00403042B18D1FB681B681A699C
:10260000FB685B6AD2B21A70FB685B6A5A1CFB6893
:102610005A62FB681B8D013B9AB2FB681A85FB6806
:102620005B8D9BB2013B9AB2FB685A85FB681B8DA0
:10263000002B7FF4C2AEFB68202283F83D20FB68AC
:10264000002283F83E20FB68002283F83C20002310
:1026500000E0022318462837BD4680BD0400010073
:1026600080B588B002AFF860084611461A460346A6
:102670007B810B463B811346FB80FEF7DBFF7861D5
:10268000FB6893F83D30DBB2202B40F0D9807B69AA
:102690000093192301226D49F86800F0CFFD03462D
:1026A000002B01D00223CCE0FB6893F83C30012BD7
:1026B00001D10223C5E0FB68012283F83C20FB68BE
:1026C0001B681B6803F00103012B07D0FB681B6824
:1026D0001A68FB681B6842F001021A60FB681B68FD
:1026E0001A68FB681B6822F400621A60FB682122EA
:1026F00083F83D20FB68402283F83E20FB680022DF
:102700001A64FB683A6A5A62FB68BA8C5A85FB689D
:102710005B8D9AB2FB681A85FB684D4ADA62F888CD
:102720003A8979897B690193BB6A00930346F8680B
:1027300000F006FC0346002B52D0012381E07A69A9
:10274000B96AF86800F050FE0346002B0DD0FB6814
:102750001B6C042B07D1FB681B681A68FB681B689D
:1027600042F400721A6001236BE0FB685B6A1A781E
:10277000FB681B681A61FB685B6A5A1CFB685A623B
:10278000FB681B8D013B9AB2FB681A85FB685B8D69
:102790009BB2013B9AB2FB685A85FB681B685B6978
:1027A00003F00403042B1BD1FB681B8D002B17D0F7
:1027B000FB685B6A1A78FB681B681A61FB685B6AD6
:1027C0005A1CFB685A62FB681B8D013B9AB2FB687E
:1027D0001A85FB685B8D9BB2013B9AB2FB685A85F8
:1027E000FB681B8D002BAAD17A69B96AF86800F0E2
:1027F0003CFE0346002B0DD0FB681B6C042B07D15D
:10280000FB681B681A68FB681B6842F400721A6058
:10281000012316E0FB681B681A68FB681B6842F41A
:1028200000721A60FB68202283F83D20FB680022BA
:1028300083F83E20FB68002283F83C20002300E060
:10284000022318461837BD4680BD00BF02001000A5
:102850000000FFFF80B58CB002AFF860084611465B
:102860001A4603467B810B463B811346FB80FEF7ED
:10287000E1FE7862FB6893F83D30DBB2202B40F03C
:1028800008827B6A0093192301227B49F86800F0D3
:10289000D5FC0346002B01D00223FBE1FB6893F833
:1028A0003C30012B01D10223F4E1FB68012283F8C3
:1028B0003C20FB681B681B6803F00103012B07D059
:1028C000FB681B681A68FB681B6842F001021A600B
:1028D000FB681B681A68FB681B6822F400621A60B8
:1028E000FB68222283F83D20FB68402283F83E20CB
:1028F000FB6800221A64FB683A6B5A62FB68BA8E66
:102900005A85FB685B8D9AB2FB681A85FB685B4A47
:10291000DA62F8883A8979897B6A0193BB6B009304
:102920000346F86800F0A2FB0346002B01D0012308
:10293000B0E1FB681B8D002B13D100233B62FB68C9
:102940001B685B693B62FB681B689B693B623B6A77
:10295000FB681B681A68FB681B6842F400721A6007
:1029600084E1FB681B8D012B1BD1FB681B681A6877
:10297000FB681B6822F480621A600023FB61FB681D
:102980001B685B69FB61FB681B689B69FB61FB69FA
:10299000FB681B681A68FB681B6842F400721A60C7
:1029A00064E1FB681B8D022B1BD1FB681B681A6856
:1029B000FB681B6822F480621A60FB681B681A6857
:1029C000FB681B6842F400621A600023BB61FB686D
:1029D0001B685B69BB61FB681B689B69BB61BB696A
:1029E00044E100237B61FB681B685B697B61FB68DA
:1029F0001B689B697B617B6938E1FB681B8D032B3E
:102A000000F2F180FB681B8D012B23D17A6AB96B30
:102A1000F86800F06BFD0346002B01D0012339E17B
:102A2000FB681B681A69FB685B6AD2B21A70FB68A4
:102A30005B6A5A1CFB685A62FB681B8D013B9AB2A9
:102A4000FB681A85FB685B8D9BB2013B9AB2FB6801
:102A50005A850BE1FB681B8D022B4ED17B6A0093DC
:102A6000BB6B00220649F86800F0E8FB0346002B28
:102A700008D001230EE100BF020010000000FFFF9C
:102A800004000100FB681B681A68FB681B6842F4BD
:102A900000721A60FB681B681A69FB685B6AD2B235
:102AA0001A70FB685B6A5A1CFB685A62FB681B8DD4
:102AB000013B9AB2FB681A85FB685B8D9BB2013BB8
:102AC0009AB2FB685A85FB681B681A69FB685B6AE7
:102AD000D2B21A70FB685B6A5A1CFB685A62FB68C8
:102AE0001B8D013B9AB2FB681A85FB685B8D9BB21C
:102AF000013B9AB2FB685A85B8E07B6A0093BB6BD6
:102B000000226649F86800F099FB0346002B01D0CB
:102B10000123BFE0FB681B681A68FB681B6822F48E
:102B200080621A60FB681B681A69FB685B6AD2B234
:102B30001A70FB685B6A5A1CFB685A62FB681B8D43
:102B4000013B9AB2FB681A85FB685B8D9BB2013B27
:102B50009AB2FB685A857B6A0093BB6B00224F498F
:102B6000F86800F06BFB0346002B01D0012391E0D5
:102B7000FB681B681A68FB681B6842F400721A60E5
:102B8000FB681B681A69FB685B6AD2B21A70FB6843
:102B90005B6A5A1CFB685A62FB681B8D013B9AB248
:102BA000FB681A85FB685B8D9BB2013B9AB2FB68A0
:102BB0005A85FB681B681A69FB685B6AD2B21A7097
:102BC000FB685B6A5A1CFB685A62FB681B8D013B01
:102BD0009AB2FB681A85FB685B8D9BB2013B9AB287
:102BE000FB685A8542E07A6AB96BF86800F07EFCAF
:102BF0000346002B01D001234CE0FB681B681A69D7
:102C0000FB685B6AD2B21A70FB685B6A5A1CFB688D
:102C10005A62FB681B8D013B9AB2FB681A85FB6800
:102C20005B8D9BB2013B9AB2FB685A85FB681B68BF
:102C30005B6903F00403042B18D1FB681B681A6955
:102C4000FB685B6AD2B21A70FB685B6A5A1CFB684D
:102C50005A62FB681B8D013B9AB2FB681A85FB68C0
:102C60005B8D9BB2013B9AB2FB685A85FB681B8D5A
:102C7000002B7FF4C2AEFB68202283F83D20FB6866
:102C8000002283F83E20FB68002283F83C200023CA
:102C900000E0022318462837BD4680BD040001002D
:102CA00080B588B002AFF8607A603B600B467B81EC
:102CB000FB68DB6A7B617B69082B06D07B69012B93
:102CC00003D07B6913F5803F08D1FB681B681A6845
:102CD000FB681B6842F480721A600BE0FB681B6B98
:102CE000122B07D1FB681B681A68FB681B6842F44B
:102CF00080721A603B6800937B6800224FF00111DC
:102D0000F86800F09BFA0346002B0DD0FB681B68A7
:102D10001B6803F48073B3F5807F03D1FB684FF425
:102D200000721A64032335E0FB681B69B3F5804F1A
:102D300008D17B89DBB21A46FB681B6802F0FE02F1
:102D40001A611BE07B89DB11DBB203F00603DBB207
:102D500063F00F03DAB2FB681B681A613B687A689C
:102D60000E49F86800F0C1FA0346002B01D0012398
:102D700010E07B89DAB2FB681B681A613B687A68ED
:102D80000749F86800F0B1FA0346002B01D001238F
:102D900000E0002318461837BD4680BD080001003A
:102DA0000200010080B588B002AFF8607A603B6035
:102DB0000B467B81FB68DB6A7B61FB681B681A68DA
:102DC000FB681B6842F480621A607B69082B06D09E
:102DD0007B69012B03D07B6913F5803F08D1FB6829
:102DE0001B681A68FB681B6842F480721A600BE06B
:102DF000FB681B6B112B07D1FB681B681A68FB680B
:102E00001B6842F480721A603B6800937B68002262
:102E10004FF00111F86800F011FA0346002B0DD0B5
:102E2000FB681B681B6803F48073B3F5807F03D1D4
:102E3000FB684FF400721A64032379E0FB681B6996
:102E4000B3F5804F08D17B89DBB243F00103DAB2DE
:102E5000FB681B681A615FE07B89DB11DBB203F062
:102E60000603DBB263F00F03DAB2FB681B681A617A
:102E70003B687A683049F86800F037FA0346002B5F
:102E800001D0012354E07B89DAB2FB681B681A6128
:102E90003B687A682949F86800F027FA0346002B56
:102EA00001D0012344E000233B61FB681B685B69A0
:102EB0003B61FB681B689B693B613B69FB681B6866
:102EC0001A68FB681B6842F480721A603B680093C2
:102ED0007B6800224FF00111F86800F0AFF903465B
:102EE000002B0DD0FB681B681B6803F48073B3F5DF
:102EF000807F03D1FB684FF400721A64032317E04C
:102F00007B89DB11DBB203F00603DBB263F00E0357
:102F1000DAB2FB681B681A613B687A680749F8688F
:102F200000F0E3F90346002B01D0012300E0002369
:102F300018461837BD4680BD080001000200010098
:102F400080B588B002AFF860084611461A460346BD
:102F50007B810B463B811346FB80FB681B681A682C
:102F6000FB681B6842F480721A607B6A00933B6ABC
:102F700000224FF00111F86800F060F90346002BC1
:102F80000DD0FB681B681B6803F48073B3F5807F6A
:102F900003D1FB684FF400721A6403235FE07B895E
:102FA000DBB21A46FB681B6802F0FE021A617B6AFC
:102FB0003A6A2D49F86800F098F90346002B01D0D1
:102FC00001234CE000237B61FB681B685B697B612C
:102FD000FB681B689B697B617B697A6A396AF86860
:102FE00000F002FA0346002B0DD0FB681B6C042B8B
:102FF00007D1FB681B681A68FB681B6842F4007203
:103000001A6001232BE0FB88012B05D13B89DAB242
:10301000FB681B681A6121E03B891B0A9BB2DAB28C
:10302000FB681B681A617A6A396AF86800F0DCF993
:103030000346002B0DD0FB681B6C042B07D1FB68EB
:103040001B681A68FB681B6842F400721A6001234F
:1030500005E03B89DAB2FB681B681A610023184659
:103060001837BD4680BD00BF0200010080B588B0A2
:1030700002AFF860084611461A4603467B810B46AC
:103080003B811346FB80FB681B681A68FB681B6862
:1030900042F480621A60FB681B681A68FB681B6850
:1030A00042F480721A607B6A00933B6A00224FF000
:1030B0000111F86800F0C2F80346002B0DD0FB6840
:1030C0001B681B6803F48073B3F5807F03D1FB6832
:1030D0004FF400721A640323AAE07B89DBB21A461C
:1030E000FB681B6802F0FE021A617B6A3A6A524969
:1030F000F86800F0FAF80346002B01D0012397E0AE
:1031000000237B61FB681B685B697B61FB681B6854
:103110009B697B617B697A6A396AF86800F064F9B7
:103120000346002B0DD0FB681B6C042B07D1FB68FA
:103130001B681A68FB681B6842F400721A6001235E
:1031400076E0FB88012B05D13B89DAB2FB681B686E
:103150001A6121E03B891B0A9BB2DAB2FB681B684B
:103160001A617A6A396AF86800F03EF90346002B62
:103170000DD0FB681B6C042B07D1FB681B681A6819
:10318000FB681B6842F400721A60012350E03B891F
:10319000DAB2FB681B681A617A6A396AF86800F06B
:1031A00023F90346002B0DD0FB681B6C042B07D1C1
:1031B000FB681B681A68FB681B6842F400721A609F
:1031C000012335E0FB681B681A68FB681B6842F442
:1031D00080721A607B6A00933B6A00224FF00111F3
:1031E000F86800F02BF80346002B0DD0FB681B6835
:1031F0001B6803F48073B3F5807F03D1FB684FF441
:1032000000721A64032313E07B89DBB243F00103ED
:10321000DAB2FB681B681A617B6A3A6A0649F86889
:1032200000F063F80346002B01D0012300E00023E7
:1032300018461837BD4680BD0200010080B584B035
:1032400000AFF860B9603B601346FB7125E03B6856
:10325000B3F1FF3F21D0FEF7EDF90246BB69D31A67
:103260003A689A4202D33B68002B16D1FB680022D1
:103270001A63FB68202283F83D20FB68002283F854
:103280003E20FB681B6C43F02002FB681A64FB685D
:10329000002283F83C20012323E0BB681B0CDBB237
:1032A000012B0DD1FB681B685B69DA43BB681340D7
:1032B0009BB2002B0CBF01230023DBB21A460CE0AB
:1032C000FB681B689B69DA43BB6813409BB2002B09
:1032D0000CBF01230023DBB21A46FB799A42B6D019
:1032E000002318461037BD4680BD80B584B000AFBE
:1032F000F860B9607A603B6051E0FB681B685B690D
:1033000003F48063B3F5806F23D1FB681B681A68F0
:10331000FB681B6842F400721A60FB681B686FF45C
:1033200080625A61FB6800221A63FB68202283F8DE
:103330003D20FB68002283F83E20FB681B6C43F0B5
:103340000402FB681A64FB68002283F83C20012316
:1033500046E07B68B3F1FF3F21D0FEF76BF90246F0
:103360003B68D31A7A689A4202D37B68002B16D145
:10337000FB6800221A63FB68202283F83D20FB686B
:10338000002283F83E20FB681B6C43F02002FB68A0
:103390001A64FB68002283F83C20012320E0BB680C
:1033A0001B0CDBB2012B0CD1FB681B685B69DA4399
:1033B000BB6813409BB2002B14BF01230023DBB278
:1033C0000BE0FB681B689B69DA43BB6813409BB248
:1033D000002B14BF01230023DBB2002B8DD100236F
:1033E00018461037BD4680BD80B584B000AFF86088
:1033F000B9607A602DE0F86800F0CEF80346002B43
:1034000001D001232DE0BB68B3F1FF3F21D0FEF7CF
:1034100011F902467B68D31ABA689A4202D3BB6894
:10342000002B16D1FB6800221A63FB68202283F868
:103430003D20FB68002283F83E20FB681B6C43F0B4
:103440002002FB681A64FB68002283F83C200123F9
:1034500007E0FB681B685B6903F08003802BCAD11F
:10346000002318461037BD4680BD80B584B000AF3C
:10347000F860B9607A602DE0F86800F08DF80346D6
:10348000002B01D001232DE0BB68B3F1FF3F21D019
:10349000FEF7D0F802467B68D31ABA689A4202D384
:1034A000BB68002B16D1FB6800221A63FB68202240
:1034B00083F83D20FB68002283F83E20FB681B6CEC
:1034C00043F02002FB681A64FB68002283F83C206A
:1034D000012307E0FB681B685B6903F00403042B0E
:1034E000CAD1002318461037BD4680BD80B584B0D0
:1034F00000AFF860B9607A6042E0FB681B685B6906
:1035000003F01003102B19D1FB681B686FF0100239
:103510005A61FB6800221A63FB68202283F83D2071
:10352000FB68002283F83E20FB681A6CFB681A6473
:10353000FB68002283F83C20012329E0FEF77AF89B
:1035400002467B68D31ABA689A4202D3BB68002B42
:1035500016D1FB6800221A63FB68202283F83D2005
:10356000FB68002283F83E20FB681B6C43F02002BE
:10357000FB681A64FB68002283F83C20012307E003
:10358000FB681B685B6903F04003402BB5D1002347
:1035900018461037BD4680BD80B483B000AF786058
:1035A0007B681B685B6903F48063B3F5806F1BD194
:1035B0007B681B686FF480625A617B6800221A6323
:1035C0007B68202283F83D207B68002283F83E2020
:1035D0007B681B6C43F004027B681A647B680022E2
:1035E00083F83C20012300E0002318460C37BD4639
:1035F0005DF8047B7047000080B586B000AF78604E
:103600007B68002B01D1012367E27B681B6803F014
:103610000103002B75D0884B9B6803F00C03042B2F
:103620000CD0854B9B6803F00C03082B12D1824B06
:103630005B6803F48003B3F5800F0BD17E4B1B68EE
:1036400003F40033002B5BD07B685B68002B57D101
:10365000012342E27B685B68B3F5803F06D1764B7D
:103660001B68754A43F4803313601DE07B685B6818
:10367000B3F5A02F0CD1704B1B686F4A43F4802325
:1036800013606D4B1B686C4A43F4803313600BE08E
:10369000694B1B68684A23F480331360664B1B68D0
:1036A000654A23F4802313607B685B68002B13D08A
:1036B000FDF7C0FF386108E0FDF7BCFF02463B693B
:1036C000D31A642B01D9032307E25B4B1B6803F475
:1036D0000033002BF0D014E0FDF7ACFF386108E0B8
:1036E000FDF7A8FF02463B69D31A642B01D90323D7
:1036F000F3E1514B1B6803F40033002BF0D100E0E1
:1037000000BF7B681B6803F00203002B63D04A4BA9
:103710009B6803F00C03002B0BD0474B9B6803F016
:103720000C03082B1CD1444B5B6803F48003002B73
:1037300016D1414B1B6803F00203002B05D07B68B8
:10374000DB68012B01D00123C7E13B4B1B6823F051
:10375000F8027B681B69DB00374913430B603AE0D2
:103760007B68DB68002B20D0344B01221A60FDF708
:1037700061FF386108E0FDF75DFF02463B69D31A3F
:10378000022B01D90323A8E12B4B1B6803F0020392
:10379000002BF0D0284B1B6823F0F8027B681B69D4
:1037A000DB00254913430B6015E0244B00221A600F
:1037B000FDF740FF386108E0FDF73CFF02463B693A
:1037C000D31A022B01D9032387E11B4B1B6803F09B
:1037D0000203002BF0D17B681B6803F00803002B69
:1037E00036D07B685B69002B16D0154B01221A601E
:1037F000FDF720FF386108E0FDF71CFF02463B693A
:10380000D31A022B01D9032367E10B4B5B6F03F043
:103810000203002BF0D01BE0094B00221A60FDF7D9
:1038200009FF38610EE0FDF705FF02463B69D31A38
:10383000022B07D9032350E1003802400000474221
:10384000800E4742884B5B6F03F00203002BEAD1E6
:103850007B681B6803F00403002B00F097800023B3
:10386000FB75814B1B6C03F08053002B0FD10023A1
:10387000BB607D4B1B6C7C4A43F0805313647A4BD6
:103880001B6C03F08053BB60BB680123FB75774B57
:103890001B6803F48073002B18D1744B1B68734AA8
:1038A00043F480731360FDF7C5FE386108E0FDF74F
:1038B000C1FE02463B69D31A022B01D903230CE156
:1038C0006A4B1B6803F48073002BF0D07B689B6805
:1038D000012B06D1644B1B6F634A43F0010313674E
:1038E0001CE07B689B68052B0CD15F4B1B6F5E4A0D
:1038F00043F0040313675C4B1B6F5B4A43F0010307
:1039000013670BE0584B1B6F574A23F001031367F3
:10391000554B1B6F544A23F0040313677B689B6865
:10392000002B15D0FDF786FE38610AE0FDF782FE18
:1039300002463B69D31A41F28832934201D90323EC
:10394000CBE0494B1B6F03F00203002BEED014E0D9
:10395000FDF770FE38610AE0FDF76CFE02463B6938
:10396000D31A41F28832934201D90323B5E03E4B8A
:103970001B6F03F00203002BEED1FB7D012B05D161
:10398000394B1B6C384A23F0805313647B689B6966
:10399000002B00F0A180344B9B6803F00C03082B34
:1039A0005CD07B689B69022B41D1314B00221A60AD
:1039B000FDF740FE386108E0FDF73CFE02463B693A
:1039C000D31A022B01D9032387E0274B1B6803F08E
:1039D0000073002BF0D17B68DA697B681B6A1A439D
:1039E0007B685B6A9B011A437B689B6A5B08013BAF
:1039F0001B041A437B68DB6A1B061B4913434B609D
:103A00001B4B01221A60FDF715FE386108E0FDF737
:103A100011FE02463B69D31A022B01D903235CE055
:103A2000114B1B6803F00073002BF0D054E0104BD7
:103A300000221A60FDF7FEFD386108E0FDF7FAFD8F
:103A400002463B69D31A022B01D9032345E0064BFA
:103A50001B6803F00073002BF0D13DE07B689B698D
:103A6000012B07D1012338E00038024000700040EC
:103A7000600047421B4B5B68FB607B689B69012BC6
:103A800028D0FB6803F480027B68DB699A4221D16D
:103A9000FB6803F03F027B681B6A9A421AD1FA68FE
:103AA00047F6C07313407A68526A9201934211D16B
:103AB000FB6803F440327B689B6A5B08013B1B0494
:103AC0009A4207D1FB6803F070627B68DB6A1B06D1
:103AD0009A4201D0012300E0002318461837BD4662
:103AE00080BD00BF0038024080B584B000AF786070
:103AF00039607B68002B01D10123CCE0684B1B6847
:103B000003F007033A689A420CD9654B3A68D2B27F
:103B10001A70634B1B6803F007033A689A4201D09E
:103B20000123B8E07B681B6803F00203002B20D060
:103B30007B681B6803F00403002B05D0594B9B687E
:103B4000584A43F4E05393607B681B6803F0080312
:103B5000002B05D0534B9B68524A43F4604393605B
:103B6000504B9B6823F0F0027B689B684D491343E0
:103B70008B607B681B6803F00103002B44D07B68DB
:103B80005B68012B07D1474B1B6803F40033002B04
:103B900019D101237FE07B685B68022B03D07B682F
:103BA0005B68032B07D13F4B1B6803F00073002BAE
:103BB00009D101236FE03B4B1B6803F00203002B8C
:103BC00001D1012367E0374B9B6823F003027B6838
:103BD0005B68344913438B60FDF72CFDF8600AE005
:103BE000FDF728FD0246FB68D31A41F28832934262
:103BF00001D903234FE02B4B9B6803F00C027B6839
:103C00005B689B009A42EBD1254B1B6803F00703CE
:103C10003A689A420CD2224B3A68D2B21A70204BC0
:103C20001B6803F007033A689A4201D0012332E08F
:103C30007B681B6803F00403002B08D0194B9B68BA
:103C400023F4E0527B68DB68164913438B607B6882
:103C50001B6803F00803002B09D0124B9B6823F468
:103C600060427B681B69DB000E4913438B6000F0E8
:103C700021F802460B4B9B681B0903F00F030A490E
:103C8000CB5C22FA03F3094A1360094B1B68184600
:103C9000FDF78CFC002318461037BD4680BD00BFE1
:103CA000003C0240003802406CC2060800000020C0
:103CB000040000202DE9B04F94B000AF00237B64D6
:103CC0000023FB6400233B640023BB64794B9B68A7
:103CD00003F00C03082B0DD0082B00F2E180002B21
:103CE00002D0042B03D0DBE0734BBB64DBE0734BEF
:103CF000BB64D8E06F4B5B6803F03F037B646D4BA4
:103D00005B6803F48003002B63D06A4B5B689B09FC
:103D10000022BB63FA63BB6BC3F308033B6300235E
:103D20007B63D7E90C4522462B464FF000004FF04D
:103D30000001590141EAD261500102460B46214679
:103D4000511A3961294663EB01037B614FF0000290
:103D50004FF00003D7E904AB59468B01514643EAC3
:103D6000916351468A015146B2EB0108594663EB13
:103D700001094FF000024FF000034FEAC90343EA84
:103D800058734FEAC80290469946234618EB03033E
:103D9000BB602B4649EB0303FB604FF000024FF082
:103DA0000003D7E9024529464B02214643EAD15395
:103DB00021464A02104619467B6C0022BB62FA6219
:103DC000D7E90A23FCF7B4FA02460B461346FB6414
:103DD00058E0384B5B689B09002218461146C0F337
:103DE00008033B6200237B62D7E9088942464B46C1
:103DF0004FF000004FF00001590141EAD26150013B
:103E000002460B464146B2EB010A494663EB010B01
:103E10004FF000024FF000034FEA8B1343EA9A631E
:103E20004FEA8A12B2EB0A0463EB0B054FF0000273
:103E30004FF00003EB0043EA5473E20014461D46C2
:103E40004346E3183B604B4645EB03037B604FF072
:103E500000024FF00003D7E9004529468B022146B6
:103E600043EA915321468A02104619467B6C002290
:103E7000BB61FA61D7E90623FCF75AFA02460B4602
:103E80001346FB640B4B5B681B0C03F0030301330D
:103E90005B003B64FA6C3B6CB2FBF3F3BB6402E087
:103EA000054BBB6400BFBB6C18465037BD46BDE830
:103EB000B08F00BF003802400024F40000127A00E6
:103EC00080B400AF034B1B681846BD465DF8047B09
:103ED000704700BF0000002080B500AFFFF7F0FF83
:103EE0000246054B9B689B0A03F007030349CB5C22
:103EF00022FA03F3184680BD003802407CC206084F
:103F000080B500AFFFF7DCFF0246054B9B685B0BFB
:103F100003F007030349CB5C22FA03F3184680BD84
:103F2000003802407CC2060880B584B000AFF8605B
:103F3000B9607A60FB68002B01D1012334E0FB6893
:103F400093F84930DBB2002B06D1FB68002283F8DE
:103F50004820F868FDF740FAFB681A68FB680833E8
:103F60001946104602F028F9FB681868FB689B6840
:103F70001A46B96802F072F9FB685868FB689A68DB
:103F8000FB681B6B796802F0A7F9FB681B68FA688D
:103F9000926853F82210FB681B68FA68926841F037
:103FA000010143F82210002318461037BD4680BD9A
:103FB00080B487B000AFF860B9607A603B60BB68DE
:103FC0007B61FB6893F84830012B01D1022322E08A
:103FD000FB68012283F84820FB68022283F849200D
:103FE0000DE07B691B889AB27B681A807B6802337C
:103FF0007B607B6902337B613B68013B3B603B68D4
:10400000002BEED1FB68012283F84920FB680022D7
:1040100083F84820002318461C37BD465DF8047B12
:10402000704780B487B000AFF860B9607A603B60D9
:10403000BB687B61FB6893F84930DBB2042B01D18C
:10404000012328E0FB6893F84830012B01D10223BB
:1040500021E0FB68012283F84820FB68022283F8F4
:1040600049200CE07B681A887B691A807B680233E0
:104070007B607B6902337B613B68013B3B603B6853
:10408000002BEFD1FB68012283F84920FB68002256
:1040900083F84820002318461C37BD465DF8047B92
:1040A000704780B582B000AF78607B68002B01D18B
:1040B000012341E07B6893F83D30DBB2002B06D151
:1040C0007B68002283F83C207868FDF787F87B68DE
:1040D000022283F83D207B681A687B680433194606
:1040E000104600F013FC7B68012283F846207B68B1
:1040F000012283F83E207B68012283F83F207B6801
:10410000012283F840207B68012283F841207B68EC
:10411000012283F842207B68012283F843207B68D8
:10412000012283F844207B68012283F845207B68C4
:10413000012283F83D20002318460837BD4680BD84
:1041400080B582B000AF78607B68002B01D101237D
:1041500041E07B6893F83D30DBB2002B06D17B68F1
:10416000002283F83C20786800F039F87B6802224E
:1041700083F83D207B681A687B6804331946104633
:1041800000F0C4FB7B68012283F846207B68012293
:1041900083F83E207B68012283F83F207B68012260
:1041A00083F840207B68012283F841207B6801224C
:1041B00083F842207B68012283F843207B68012238
:1041C00083F844207B68012283F845207B68012224
:1041D00083F83D20002318460837BD4680BD80B4D3
:1041E00083B000AF786000BF0C37BD465DF8047B3C
:1041F0007047000080B584B000AF786039603B68DC
:10420000002B09D17B6893F83E30DBB2012B14BF41
:1042100001230023DBB222E03B68042B09D17B6839
:1042200093F83F30DBB2012B14BF01230023DBB234
:1042300015E03B68082B09D17B6893F84030DBB26E
:10424000012B14BF01230023DBB208E07B6893F845
:104250004130DBB2012B14BF01230023DBB2002B62
:1042600001D001237CE03B68002B04D17B68022253
:1042700083F83E2013E03B68042B04D17B680222C4
:1042800083F83F200BE03B68082B04D17B680222B7
:1042900083F8402003E07B68022283F841207B689A
:1042A0001B6801223968184600F01AFE7B681B68FB
:1042B0002D4A934204D07B681B682C4A934201D15B
:1042C000012300E00023002B07D07B681B685A6C99
:1042D0007B681B6842F400425A647B681B68224A70
:1042E000934222D07B681B68B3F1804F1DD07B685E
:1042F0001B681F4A934218D07B681B681D4A934273
:1043000013D07B681B681C4A93420ED07B681B68E5
:10431000164A934209D07B681B68184A934204D01E
:104320007B681B68164A934211D17B681B689B68A7
:1043300003F00703FB60FB68062B10D07B681B684B
:104340001A687B681B6842F001021A6007E07B680C
:104350001B681A687B681B6842F001021A60002320
:1043600018461037BD4680BD0000014000040140E2
:104370000004004000080040000C004000400140E4
:104380000018004080B582B000AF78607B681B6881
:104390001B6903F00203022B22D17B681B68DB68D8
:1043A00003F00203022B1BD17B681B686FF0020233
:1043B0001A617B6801221A777B681B689B6903F08E
:1043C0000303002B03D0786800F081FA05E07868D9
:1043D00000F073FA786800F084FA7B6800221A779C
:1043E0007B681B681B6903F00403042B22D17B68E4
:1043F0001B68DB6803F00403042B1BD17B681B687C
:104400006FF004021A617B6802221A777B681B68CE
:104410009B6903F44073002B03D0786800F057FACF
:1044200005E0786800F049FA786800F05AFA7B688D
:1044300000221A777B681B681B6903F00803082BAE
:1044400022D17B681B68DB6803F00803082B1BD1B3
:104450007B681B686FF008021A617B6804221A7778
:104460007B681B68DB6903F00303002B03D07868CB
:1044700000F02DFA05E0786800F01FFA786800F087
:1044800030FA7B6800221A777B681B681B6903F08F
:104490001003102B22D17B681B68DB6803F010032C
:1044A000102B1BD17B681B686FF010021A617B68B0
:1044B00008221A777B681B68DB6903F44073002BC2
:1044C00003D0786800F003FA05E0786800F0F5F9A9
:1044D000786800F006FA7B6800221A777B681B6810
:1044E0001B6903F00103012B0ED17B681B68DB689D
:1044F00003F00103012B07D17B681B686FF00102F9
:104500001A61786800F0CFF97B681B681B6903F0BB
:104510008003802B0ED17B681B68DB6803F080036F
:10452000802B07D17B681B686FF080021A61786866
:1045300000F082FD7B681B681B6903F04003402B81
:104540000ED17B681B68DB6803F04003402B07D16A
:104550007B681B686FF040021A61786800F0CBF945
:104560007B681B681B6903F02003202B0ED17B683E
:104570001B68DB6803F02003202B07D17B681B68D6
:104580006FF020021A61786800F04CFD00BF083718
:10459000BD4680BD80B586B000AFF860B9607A6076
:1045A0000023FB75FB6893F83C30012B01D10223FB
:1045B000AEE0FB68012283F83C207B680C2B00F204
:1045C0009F8001A252F823F0FD4500080147000832
:1045D00001470008014700083D4600080147000860
:1045E00001470008014700087F460008014700080E
:1045F0000147000801470008BF460008FB681B6828
:10460000B968184600F022FAFB681B689A69FB68D3
:104610001B6842F008029A61FB681B689A69FB6894
:104620001B6822F004029A61FB681B689969BB68E9
:104630001A69FB681B680A439A6164E0FB681B689F
:10464000B968184600F072FAFB681B689A69FB6843
:104650001B6842F400629A61FB681B689A69FB68F8
:104660001B6822F480629A61FB681B689969BB68C9
:104670001B691A02FB681B680A439A6143E0FB68E6
:104680001B68B968184600F0C7FAFB681B68DA694E
:10469000FB681B6842F00802DA61FB681B68DA6994
:1046A000FB681B6822F00402DA61FB681B68D969A9
:1046B000BB681A69FB681B680A43DA6123E0FB6880
:1046C0001B68B968184600F01BFBFB681B68DA69B9
:1046D000FB681B6842F40062DA61FB681B68DA69F8
:1046E000FB681B6822F48062DA61FB681B68D96989
:1046F000BB681B691A02FB681B680A43DA6102E0A7
:104700000123FB7500BFFB68002283F83C20FB7D82
:1047100018461837BD4680BD80B584B000AF7860BC
:1047200039600023FB737B6893F83C30012B01D187
:104730000223B4E07B68012283F83C207B680222DC
:1047400083F83D207B681B689B68BB60BB6823F0D7
:104750007703BB60BB6823F47F43BB607B681B6847
:10476000BA689A603B681B68B3F5005F3ED0B3F54A
:10477000005F00F28780B3F5805F00F08680B3F5BC
:10478000805F7FD8702B1AD0702B7BD8602B50D0D5
:10479000602B77D8502B3CD0502B73D8402B58D05F
:1047A000402B6FD8302B64D0302B6BD8202B60D0AF
:1047B000202B67D8002B5CD0102B5AD062E07B688E
:1047C00018683B6899683B685A683B68DB6800F08A
:1047D00067FB7B681B689B68BB60BB6843F0770323
:1047E000BB607B681B68BA689A604FE07B6818689A
:1047F0003B6899683B685A683B68DB6800F050FB8F
:104800007B681B689A687B681B6842F480429A60E8
:104810003CE07B6818683B6859683B68DB681A466F
:1048200000F0C4FA7B681B685021184600F01DFB9D
:104830002CE07B6818683B6859683B68DB681A465F
:1048400000F0E3FA7B681B686021184600F00DFB5E
:104850001CE07B6818683B6859683B68DB681A464F
:1048600000F0A4FA7B681B684021184600F0FDFAAE
:104870000CE07B681A683B681B681946104600F01C
:10488000F4FA03E00123FB7300E000BF7B68012220
:1048900083F83D207B68002283F83C20FB7B184690
:1048A0001037BD4680BD80B483B000AF786000BFD4
:1048B0000C37BD465DF8047B704780B483B000AF11
:1048C000786000BF0C37BD465DF8047B704780B44C
:1048D00083B000AF786000BF0C37BD465DF8047B45
:1048E000704780B483B000AF786000BF0C37BD461E
:1048F0005DF8047B704780B483B000AF786000BF80
:104900000C37BD465DF8047B7047000080B485B06D
:1049100000AF786039607B681B68FB607B68404A49
:10492000934213D07B68B3F1804F0FD07B683D4A30
:1049300093420BD07B683C4A934207D07B683B4A4A
:10494000934203D07B683A4A934208D1FB6823F034
:104950007003FB603B685B68FA681343FB607B682D
:104960002F4A93422BD07B68B3F1804F27D07B68CE
:104970002C4A934223D07B682B4A93421FD07B68FA
:104980002A4A93421BD07B68294A934217D07B68FE
:10499000284A934213D07B68274A93420FD07B6802
:1049A000264A93420BD07B68254A934207D07B6806
:1049B000244A934203D07B68234A934208D1FB6880
:1049C00023F44073FB603B68DB68FA681343FB60C9
:1049D000FB6823F080023B685B691343FB607B68E4
:1049E000FA681A603B689A687B68DA623B681A6802
:1049F0007B689A627B680A4A934203D07B680C4AC0
:104A0000934203D13B681A697B681A637B68012271
:104A10005A6100BF1437BD465DF8047B704700BF84
:104A2000000001400004004000080040000C00406D
:104A300000040140004001400044014000480140A2
:104A400000180040001C00400020004080B487B0E7
:104A500000AF786039607B681B6A23F001027B68D5
:104A60001A627B681B6A7B617B685B683B617B6861
:104A70009B69FB60FB6823F07003FB60FB6823F01D
:104A80000303FB603B681B68FA681343FB607B69A8
:104A900023F002037B613B689B687A6913437B6167
:104AA0007B68204A934203D07B681F4A93420CD113
:104AB0007B6923F008037B613B68DB687A691343F9
:104AC0007B617B6923F004037B617B68154A934219
:104AD00003D07B68144A934211D13B6923F480735D
:104AE0003B613B6923F400733B613B685B693A6956
:104AF00013433B613B689B693A6913433B617B68A5
:104B00003A695A607B68FA689A613B685A687B68C0
:104B10005A637B687A691A6200BF1C37BD465DF82C
:104B2000047B7047000001400004014080B487B05E
:104B300000AF786039607B681B6A23F010027B68E5
:104B40001A627B681B6A7B617B685B683B617B6880
:104B50009B69FB60FB6823F4E043FB60FB6823F484
:104B60004073FB603B681B681B02FA681343FB60E1
:104B70007B6923F020037B613B689B681B017A699A
:104B800013437B617B68224A934203D07B68214AAE
:104B900093420DD17B6923F080037B613B68DB6826
:104BA0001B017A6913437B617B6923F040037B61BE
:104BB0007B68174A934203D07B68164A934213D10D
:104BC0003B6923F480633B613B6923F400633B61F1
:104BD0003B685B699B003A6913433B613B689B6997
:104BE0009B003A6913433B617B683A695A607B6872
:104BF000FA689A613B685A687B689A637B687A694D
:104C00001A6200BF1C37BD465DF8047B704700BFC9
:104C1000000001400004014080B487B000AF78601C
:104C200039607B681B6A23F480727B681A627B6838
:104C30001B6A7B617B685B683B617B68DB69FB604F
:104C4000FB6823F07003FB60FB6823F00303FB6049
:104C50003B681B68FA681343FB607B6923F40073AD
:104C60007B613B689B681B027A6913437B617B68AD
:104C7000214A934203D07B68204A93420DD17B693D
:104C800023F400637B613B68DB681B027A69134392
:104C90007B617B6923F480637B617B68164A934266
:104CA00003D07B68154A934213D13B6923F48053A8
:104CB0003B613B6923F400533B613B685B691B012B
:104CC0003A6913433B613B689B691B013A69134393
:104CD0003B617B683A695A607B68FA68DA613B68D5
:104CE0005A687B68DA637B687A691A6200BF1C378E
:104CF000BD465DF8047B70470000014000040140A0
:104D000080B487B000AF786039607B681B6A23F499
:104D100080527B681A627B681B6A3B617B685B68B8
:104D20007B617B68DB69FB60FB6823F4E043FB602D
:104D3000FB6823F44073FB603B681B681B02FA6846
:104D40001343FB603B6923F400533B613B689B6862
:104D50001B033A6913433B617B68124A934203D0B9
:104D60007B68114A934209D17B6923F480437B61BC
:104D70003B685B699B017A6913437B617B687A6955
:104D80005A607B68FA68DA613B685A687B681A6423
:104D90007B683A691A6200BF1C37BD465DF8047B28
:104DA000704700BF000001400004014080B487B09C
:104DB00000AFF860B9607A60FB681B6A7B61FB68D2
:104DC0001B6A23F00102FB681A62FB689B693B6166
:104DD0003B6923F0F0033B617B681B013A69134395
:104DE0003B617B6923F00A037B617A69BB681343EB
:104DF0007B61FB683A699A61FB687A691A6200BF55
:104E00001C37BD465DF8047B704780B487B000AFA7
:104E1000F860B9607A60FB681B6A23F01002FB68D7
:104E20001A62FB689B697B61FB681B6A3B617B695B
:104E300023F470437B617B681B037A6913437B61B6
:104E40003B6923F0A0033B61BB681B013A69134334
:104E50003B61FB687A699A61FB683A691A6200BF34
:104E60001C37BD465DF8047B704780B485B000AF49
:104E7000786039607B689B68FB60FB6823F0700397
:104E8000FB603A68FB68134343F00703FB607B68F1
:104E9000FA689A6000BF1437BD465DF8047B70471E
:104EA00080B487B000AFF860B9607A603B60FB689F
:104EB0009B687B617B6923F47F437B613B681A02BB
:104EC0007B681A43BB6813437A6913437B61FB68B1
:104ED0007A699A6000BF1C37BD465DF8047B704755
:104EE00080B487B000AFF860B9607A60BB6803F047
:104EF0001F03012202FA03F37B61FB681A6A7B69D4
:104F0000DB431A40FB681A62FB681A6ABB6803F04D
:104F10001F03796801FA03F31A43FB681A6200BFA2
:104F20001C37BD465DF8047B7047000080B485B037
:104F300000AF786039607B6893F83C30012B01D179
:104F400002235AE07B68012283F83C207B6802221E
:104F500083F83D207B681B685B68FB607B681B688F
:104F60009B68BB60FB6823F07003FB603B681B68B9
:104F7000FA681343FB607B681B68FA685A607B68B9
:104F80001B68214A934222D07B681B68B3F1804F93
:104F90001DD07B681B681D4A934218D07B681B6834
:104FA0001B4A934213D07B681B681A4A93420ED067
:104FB0007B681B68184A934209D07B681B68174AB4
:104FC000934204D07B681B68154A93420CD1BB689E
:104FD00023F08003BB603B685B68BA681343BB6027
:104FE0007B681B68BA689A607B68012283F83D2061
:104FF0007B68002283F83C20002318461437BD4606
:105000005DF8047B704700BF0000014000040040D1
:1050100000080040000C0040000401400040014036
:105020000018004080B483B000AF786000BF0C3738
:10503000BD465DF8047B704780B483B000AF7860F4
:1050400000BF0C37BD465DF8047B704780B582B069
:1050500000AF78607B68002B01D101233FE07B68C3
:1050600093F83D30DBB2002B06D17B68002283F839
:105070003C207868FCF714F97B68242283F83D20F3
:105080007B681B68DA687B681B6822F40052DA6070
:10509000786800F01DFE7B681B681A697B681B68D6
:1050A00022F490421A617B681B685A697B681B680E
:1050B00022F02A025A617B681B68DA687B681B68E9
:1050C00042F40052DA607B6800221A647B68202276
:1050D00083F83D207B68202283F83E200023184679
:1050E0000837BD4680BD80B58AB002AFF860B960B0
:1050F0003B601346FB8000237B61FB6893F83D30E7
:10510000DBB2202B7CD1BB68002B02D0FB88002BAC
:1051100001D1012375E0FB6893F83C30012B01D1EC
:1051200002236EE0FB68012283F83C20FB6800222A
:105130001A64FB68212283F83D20FCF77BFA786132
:10514000FB68FA889A84FB68FA88DA84FB689B68B3
:10515000B3F5805F08D1FB681B69002B04D10023E5
:10516000FB61BB68BB6103E0BB68FB610023BB6103
:10517000FB68002283F83C202AE03B6800937B69AF
:1051800000228021F86800F09BFB0346002B01D031
:10519000032336E0FB69002B0BD1BB691B881A4641
:1051A000FB681B68C2F308025A60BB690233BB612B
:1051B00007E0FB691A78FB681B685A60FB690133DA
:1051C000FB61FB68DB8C9BB2013B9AB2FB68DA8423
:1051D000FB68DB8C9BB2002BCFD13B6800937B69D3
:1051E00000224021F86800F06BFB0346002B01D041
:1051F000032306E0FB68202283F83D20002300E023
:10520000022318462037BD4680BD80B58AB002AF64
:10521000F860B9603B601346FB8000237B61FB684C
:1052200093F83E30DBB2202B40F08C80BB68002B23
:1052300002D0FB88002B01D1012384E0FB6893F8A6
:105240003C30012B01D102237DE0FB68012283F871
:105250003C20FB6800221A64FB68222283F83E206F
:10526000FB6800221A63FCF7E5F97861FB68FA88AD
:105270009A85FB68FA88DA85FB689B68B3F5805FDE
:1052800008D1FB681B69002B04D10023FB61BB68BC
:10529000BB6103E0BB68FB610023BB61FB680022CC
:1052A00083F83C2043E03B6800937B690022202187
:1052B000F86800F005FB0346002B01D0032342E011
:1052C000FB69002B0CD1FB681B685B689BB2C3F3C6
:1052D00008039AB2BB691A80BB690233BB611FE045
:1052E000FB689B68B3F5805F07D0FB689B68002B69
:1052F0000AD1FB681B69002B06D1FB681B685B6841
:10530000DAB2FB691A7008E0FB681B685B68DBB205
:1053100003F07F03DAB2FB691A70FB690133FB61AA
:10532000FB68DB8D9BB2013B9AB2FB68DA85FB68B8
:10533000DB8D9BB2002BB6D1FB68202283F83E2088
:10534000002300E0022318462037BD4680BD000040
:1053500080B5BAB000AF78607B681B681B68C7F87F
:10536000E4307B681B68DB68C7F8E0307B681B684B
:105370005B69C7F8DC300023C7F8D8300023C7F8D2
:10538000D430D7F8E43003F00F03C7F8D830D7F89B
:10539000D830002B0FD1D7F8E43003F02003002BD6
:1053A00009D0D7F8E03003F02003002B03D0786851
:1053B00000F0D3FB56E2D7F8D830002B00F0DE80A7
:1053C000D7F8DC3003F00103002B06D1D7F8E0302A
:1053D00003F49073002B00F0D180D7F8E43003F091
:1053E0000103002B0BD0D7F8E03003F48073002BBF
:1053F00005D07B681B6C43F001027B681A64D7F808
:10540000E43003F00403002B0BD0D7F8DC3003F0BA
:105410000103002B05D07B681B6C43F002027B6804
:105420001A64D7F8E43003F00203002B0BD0D7F84E
:10543000DC3003F00103002B05D07B681B6C43F0CC
:1054400004027B681A64D7F8E43003F00803002BE9
:1054500011D0D7F8E03003F02003002B05D1D7F8A6
:10546000DC3003F00103002B05D07B681B6C43F09C
:1054700008027B681A647B681B6C002B00F0ED81CE
:10548000D7F8E43003F02003002B08D0D7F8E03041
:1054900003F02003002B02D0786800F05EFB7B68ED
:1054A0001B685B6903F04003402B0CBF0123002302
:1054B000DBB2C7F8D4307B681B6C03F00803002B09
:1054C00003D1D7F8D430002B4FD0786800F066FABB
:1054D0007B681B685B6903F04003402B41D17B680C
:1054E0001B681433C7F89C30D7F89C3053E8003F52
:1054F000C7F89830D7F8983023F04003C7F8D03079
:105500007B681B681433D7F8D020C7F8A820C7F8E9
:10551000A430D7F8A410D7F8A82041E80023C7F892
:10552000A030D7F8A030002BD9D17B689B6B002B23
:1055300013D07B689B6B7D4A1A657B689B6B184612
:10554000FCF729FA0346002B16D07B689B6B1B6D7A
:105550007A68926B104698470EE0786800F09AF9E6
:105560000AE0786800F096F906E0786800F092F9B1
:105570007B6800221A6470E100BF6EE17B681B6BE0
:10558000012B40F04A81D7F8E43003F01003002BE0
:1055900000F04381D7F8E03003F01003002B00F057
:1055A0003C810023BB607B681B681B68BB607B6819
:1055B0001B685B68BB60BB687B681B685B6903F04A
:1055C0004003402B40F0B4807B689B6B1B685B689A
:1055D000A7F8BE30B7F8BE30002B00F040817B68E2
:1055E0009B8DB7F8BE209A4280F039817B68B7F86E
:1055F000BE20DA857B689B6BDB69B3F5807F00F0AA
:1056000088807B681B680C33C7F88830D7F88830EF
:1056100053E8003FC7F88430D7F8843023F4807310
:10562000C7F8B8307B681B680C33D7F8B820C7F8C8
:105630009420C7F89030D7F89010D7F8942041E81C
:105640000023C7F88C30D7F88C30002BD9D17B6879
:105650001B6814337B677B6F53E8003F3B673B6FEE
:1056600023F00103C7F8B4307B681B681433D7F804
:10567000B420C7F88020FB67F96FD7F8802041E895
:105680000023BB67BB6F002BE1D17B681B68143321
:105690003B663B6E53E8003FFB65FB6D23F0400328
:1056A000C7F8B0307B681B681433D7F8B020FA66AF
:1056B000BB66B96EFA6E41E800237B667B6E002BF9
:1056C000E3D17B68202283F83E207B6800221A63A6
:1056D0007B681B680C33FB64FB6C53E8003FBB64C6
:1056E000BB6C23F01003C7F8AC307B681B680C332D
:1056F000D7F8AC20BA657B65796DBA6D41E80023B7
:105700003B653B6D002BE3D17B689B6B1846FCF738
:10571000D2F87B689A8D7B68DB8D9BB2D31A9BB2E3
:105720001946786800F0C0F899E000BF635A000895
:105730007B689A8D7B68DB8D9BB2D31AA7F8CE303D
:105740007B68DB8D9BB2002B00F08B80B7F8CE30EE
:10575000002B00F086807B681B680C33BB63BB6B3F
:1057600053E8003F7B637B6B23F49073C7F8C8302A
:105770007B681B680C33D7F8C8207A643B64396CAB
:105780007A6C41E80023FB63FB6B002BE3D17B6861
:105790001B6814337B627B6A53E8003F3B623B6AC1
:1057A00023F00103C7F8C4307B681B681433D7F8B3
:1057B000C4203A63FB62F96A3A6B41E80023BB629A
:1057C000BB6A002BE3D17B68202283F83E207B68F4
:1057D00000221A637B681B680C333B613B6953E80A
:1057E000003FFB60FB6823F01003C7F8C0307B6804
:1057F0001B680C33D7F8C020FA61BB61B969FA693C
:1058000041E800237B617B69002BE3D1B7F8CE3000
:105810001946786800F048F823E0D7F8E43003F040
:105820008003002B09D0D7F8E03003F08003002B71
:1058300003D0786800F029F914E0D7F8E43003F0D9
:105840004003002B0ED0D7F8E03003F04003002BCC
:1058500008D0786800F069F904E000BF02E000BFFA
:1058600000E000BFE837BD4680BD00BF80B483B014
:1058700000AF786000BF0C37BD465DF8047B704711
:1058800080B483B000AF786000BF0C37BD465DF8D0
:10589000047B704780B483B000AF786000BF0C37E2
:1058A000BD465DF8047B704780B483B000AF78607C
:1058B0000B467B8000BF0C37BD465DF8047B70470C
:1058C00080B590B000AFF860B9603B601346FB71E3
:1058D00050E0BB6CB3F1FF3F4CD0BB6C002B07D04A
:1058E000FBF7A8FE02463B68D31ABA6C9A4241D233
:1058F000FB681B680C33BB62BB6A53E8003F7B62EA
:105900007B6A23F4D073FB63FB681B680C33FA6B70
:105910007A633B63396B7A6B41E80023FB62FB6A75
:10592000002BE5D1FB681B6814337B617B6953E86E
:10593000003F3B613B6923F00103BB63FB681B68CD
:105940001433BA6B3A62FB61F9693A6A41E80023A1
:10595000BB61BB69002BE5D1FB68202283F83D20A9
:10596000FB68202283F83E20FB68002283F83C205D
:1059700003230FE0FB681B681A68BB681340BA6812
:105980009A420CBF01230023DBB21A46FB799A42EC
:105990009FD0002318464037BD4680BD80B495B0E7
:1059A00000AF78607B681B680C337B637B6B53E8CC
:1059B000003F3B633B6B23F49073FB647B681B6885
:1059C0000C33FA6C3A64FB63F96B3A6C41E80023E0
:1059D000BB63BB6B002BE5D17B681B6814333B6258
:1059E0003B6A53E8003FFB61FB6923F00103BB64A2
:1059F0007B681B681433BA6CFA62BB62B96AFA6AD4
:105A000041E800237B627B6A002BE5D17B681B6B3E
:105A1000012B19D17B681B680C33FB60FB6853E8D2
:105A2000003FBB60BB6823F010037B647B681B688E
:105A30000C337A6CBA617B617969BA6941E80023F9
:105A40003B613B69002BE5D17B68202283F83E2037
:105A50007B6800221A6300BF5437BD465DF8047BA3
:105A6000704780B584B000AF78607B689B6BFB604B
:105A7000FB680022DA85FB680022DA84F868FFF709
:105A800009FF00BF1037BD4680BD80B485B000AFB0
:105A900078607B6893F83D30DBB2212B3ED17B6888
:105AA0009B68B3F5805F14D17B681B69002B10D114
:105AB0007B681B6AFB60FB681B881A467B681B6857
:105AC000C2F308025A607B681B6A9A1C7B681A62E0
:105AD00008E07B681B6A591C7A6811621A787B6837
