:020000040800F2
:100000000000022099250008ED1B0008F11B0008E4
:10001000F51B0008F91B0008FD1B0008000000008C
:10002000000000000000000000000000011C0008AB
:10003000051C000800000000091C00080D1C000839
:10004000E9250008E9250008E9250008E925000858
:10005000E9250008E9250008E9250008E925000848
:10006000E9250008E9250008E9250008E925000838
:10007000E9250008E9250008E9250008E925000828
:10008000E9250008E9250008E9250008E925000818
:10009000E9250008E9250008E9250008E925000808
:1000A000E9250008E9250008E9250008E9250008F8
:1000B000E9250008111C0008E9250008E9250008C9
:1000C000E9250008E9250008E9250008E9250008D8
:1000D000E92500081D1C0008E9250008E92500089D
:1000E000291C0008E9250008E9250008E925000881
:1000F000E9250008E9250008E9250008E9250008A8
:10010000E9250008E9250008E9250008E925000897
:10011000E9250008E9250008E9250008E925000887
:10012000E9250008E9250008311C0008E925000838
:10013000E9250008E9250008E9250008E925000867
:10014000E9250008E9250008E9250008E925000857
:10015000E9250008E9250008E9250008E925000847
:10016000E9250008E9250008E9250008E925000837
:10017000E9250008E9250008E9250008000000003D
:08018000E9250008E92500084B
:1001900010B5054C237833B9044B13B10448AFF3C1
:1001A00000800123237010BD280200200000000001
:1001B000DC02060808B5034B1BB103490348AFF343
:1001C000008008BD000000002C020020DC020608B0
:1001D00010F8012B11F8013B012A28BF9A42F7D0F1
:1001E000D01A70470000000000000000000000006E
:1001F00001F0FF01102A2BDB10F0070F08D010F8D8
:10020000013B013A8B422DD010F0070F42B3F6D1DB
:10021000F0B441EA012141EA014122F007047FF0F4
:1002200000070023F0E80256083C85EA010586EA4B
:10023000010685FA47F5A3FA87F586FA47F6A5FA87
:1002400087F68EB9EED1F0BC01F0FF0102F0070293
:1002500032B110F8013B013A83EA010313B1F8D13E
:100260000020704701387047002D06BF354603381F
:10027000073815F0010F07D1013015F4807F02BF58
:10028000013015F4C03F0130F0BC0138704700BFA9
:10029000034613F8012B002AFBD1181A01387047C6
:1002A00081F0004102E000BF83F0004330B54FEA27
:1002B00041044FEA430594EA050F08BF90EA020F94
:1002C0001FBF54EA000C55EA020C7FEA645C7FEA27
:1002D000655C00F0E2804FEA5454D4EB5555B8BF4A
:1002E0006D420CDD2C4480EA020281EA030382EABB
:1002F000000083EA010180EA020281EA0303362D4D
:1003000088BF30BD11F0004F4FEA01314FF4801C1F
:100310004CEA113102D0404261EB410113F0004F31
:100320004FEA03334CEA133302D0524263EB4303E8
:1003300094EA050F00F0A780A4F10104D5F1200E86
:100340000DDB02FA0EFC22FA05F2801841F10001E1
:1003500003FA0EF2801843FA05F359410EE0A5F1B5
:1003600020050EF1200E012A03FA0EFC28BF4CF0E6
:10037000020C43FA05F3C01851EBE37101F000459C
:1003800007D54FF0000EDCF1000C7EEB00006EEBA9
:100390000101B1F5801F1BD3B1F5001F0CD3490833
:1003A0005FEA30004FEA3C0C04F101044FEA44528A
:1003B00012F5800F80F09A80BCF1004F08BF5FEA11
:1003C000500C50F1000041EB045141EA050130BDF1
:1003D0005FEA4C0C404141EB0101013C28BFB1F503
:1003E000801FE9D291F0000F04BF01460020B1FA4E
:1003F00081F308BF2033A3F10B03B3F120020CDA21
:100400000C3208DD02F1140CC2F10C0201FA0CF0FE
:1004100021FA02F10CE002F11402D8BFC2F1200C63
:1004200001FA02F120FA0CFCDCBF41EA0C01904019
:10043000E41AA2BF01EB0451294330BD6FEA040462
:100440001F3C1CDA0C340EDC04F11404C4F120024D
:1004500020FA04F001FA02F340EA030021FA04F35F
:1004600045EA030130BDC4F10C04C4F1200220FAB6
:1004700002F001FA04F340EA0300294630BD21FAF4
:1004800004F0294630BD94F0000F83F4801306BFBA
:1004900081F480110134013D4EE77FEA645C18BFAE
:1004A0007FEA655C29D094EA050F08BF90EA020F45
:1004B00005D054EA000C04BF1946104630BD91EA3D
:1004C000030F1EBF0021002030BD5FEA545C05D140
:1004D0004000494128BF41F0004130BD14F580047F
:1004E0003CBF01F5801130BD01F0004545F0FE41F3
:1004F00041F470014FF0000030BD7FEA645C1ABF28
:10050000194610467FEA655C1CBF0B46024650EA5E
:10051000013406BF52EA033591EA030F41F400218A
:1005200030BD00BF90F0000F04BF0021704730B510
:100530004FF4806404F132044FF000054FF00001E5
:1005400050E700BF90F0000F04BF0021704730B5A6
:100550004FF4806404F1320410F0004548BF40427B
:100560004FF000013EE700BF42004FEAE2014FEAD0
:1005700031014FEA02701FBF12F07F4393F07F4FAB
:1005800081F06051704732F07F4208BF704793F0AE
:100590007F4F04BF41F40021704730B54FF46074C1
:1005A00001F0004521F000411CE700BF50EA0102C4
:1005B00008BF704730B54FF000050AE050EA01026D
:1005C00008BF704730B511F0004502D5404261EBDD
:1005D00041014FF4806404F132045FEA915C3FF41E
:1005E000D8AE4FF003025FEADC0C18BF03325FEABB
:1005F000DC0C18BF033202EBDC02C2F1200300FA6C
:1006000003FC20FA02F001FA03FE40EA0E0021FA90
:1006100002F11444BDE600BF70B54FF0FF0C4CF47E
:10062000E06C1CEA11541DBF1CEA135594EA0C0F30
:1006300095EA0C0F00F0DEF82C4481EA030621EA6B
:100640004C5123EA4C5350EA013518BF52EA0335A6
:1006500041F4801143F4801338D0A0FB02CE4FF058
:100660000005E1FB02E506F00042E0FB03E54FF088
:100670000006E1FB03569CF0000F18BF4EF0010E80
:10068000A4F1FF04B6F5007F64F5407404D25FEA7C
:100690004E0E6D4146EB060642EAC62141EA55512F
:1006A0004FEAC52040EA5E504FEACE2EB4F1FD0C71
:1006B00088BFBCF5E06F1ED8BEF1004F08BF5FEAEF
:1006C000500E50F1000041EB045170BD06F00046A1
:1006D00046EA010140EA020081EA0301B4EB5C044E
:1006E000C2BFD4EB0C0541EA045170BD41F4801146
:1006F0004FF0000E013C00F3AB8014F1360FDEBF6B
:10070000002001F0004170BDC4F10004203C35DA46
:100710000C341BDC04F11404C4F1200500FA05F3C9
:1007200020FA04F001FA05F240EA020001F000426A
:1007300021F0004110EBD37021FA04F642EB0601E0
:100740005EEA430E08BF20EAD37070BDC4F10C040A
:10075000C4F1200500FA04F320FA05F001FA04F2CE
:1007600040EA020001F0004110EBD37041F10001BA
:100770005EEA430E08BF20EAD37070BDC4F12005C5
:1007800000FA05F24EEA020E20FA04F301FA05F22D
:1007900043EA020321FA04F001F0004121FA04F2D5
:1007A00020EA020000EBD3705EEA430E08BF20EAA5
:1007B000D37070BD94F0000F0FD101F000464000DF
:1007C00041EB010111F4801F08BF013CF7D041EA61
:1007D000060195F0000F18BF704703F00046520065
:1007E00043EB030313F4801F08BF013DF7D043EA36
:1007F0000603704794EA0C0F0CEA135518BF95EAEC
:100800000C0F0CD050EA410618BF52EA4306D1D172
:1008100081EA030101F000414FF0000070BD50EA91
:10082000410606BF1046194652EA430619D094EA1B
:100830000C0F02D150EA013613D195EA0C0F05D105
:1008400052EA03361CBF104619460AD181EA030159
:1008500001F0004141F0FE4141F470014FF0000011
:1008600070BD41F0FE4141F4780170BD70B54FF0AC
:10087000FF0C4CF4E06C1CEA11541DBF1CEA13552C
:1008800094EA0C0F95EA0C0F00F0A7F8A4EB05040E
:1008900081EA030E52EA03354FEA013100F0888005
:1008A0004FEA03334FF0805545EA131343EA1263CE
:1008B0004FEA022245EA111545EA10654FEA002683
:1008C0000EF000419D4208BF964244F1FD0404F53C
:1008D000407402D25B084FEA3202B61A65EB030598
:1008E0005B084FEA32024FF480104FF4002CB6EB55
:1008F000020E75EB030E22BFB61A754640EA0C00D5
:100900005B084FEA3202B6EB020E75EB030E22BF14
:10091000B61A754640EA5C005B084FEA3202B6EB55
:10092000020E75EB030E22BFB61A754640EA9C0014
:100930005B084FEA3202B6EB020E75EB030E22BFE4
:10094000B61A754640EADC0055EA060E18D04FEAA2
:10095000051545EA16754FEA06164FEAC30343EA42
:1009600052734FEAC2025FEA1C1CC0D111F4801F0F
:100970000BD141EA00014FF000004FF0004CB6E708
:1009800011F4801F04BF01430020B4F1FD0C88BFA7
:10099000BCF5E06F3FF6AFAEB5EB030C04BFB6EBB2
:1009A000020C5FEA500C50F1000041EB045170BDA5
:1009B0000EF0004E4EEA113114EB5C04C2BFD4EBD2
:1009C0000C0541EA045170BD41F480114FF0000E56
:1009D000013C90E645EA060E8DE60CEA135594EAD2
:1009E0000C0F08BF95EA0C0F3FF43BAF94EA0C0FD5
:1009F0000AD150EA01347FF434AF95EA0C0F7FF44A
:100A000025AF104619462CE795EA0C0F06D152EA9D
:100A100003353FF4FDAE1046194622E750EA410681
:100A200018BF52EA43067FF4C5AE50EA41047FF492
:100A30000DAF52EA43057FF4EBAE12E74FF0FF3CF7
:100A400006E000BF4FF0010C02E000BF4FF0010CC8
:100A50004DF804CD4FEA410C7FEA6C5C4FEA430C41
:100A600018BF7FEA6C5C1BD001B050EA410C0CBF90
:100A700052EA430C91EA030F02BF90EA020F0020F2
:100A8000704710F1000F91EA030F58BF994208BF59
:100A900090422CBFD8176FEAE37040F00100704716
:100AA0004FEA410C7FEA6C5C02D150EA013C07D16D
:100AB0004FEA430C7FEA6C5CD6D152EA033CD3D0B8
:100AC0005DF8040B704700BF8446104662468C46B2
:100AD0001946634600E000BF01B5FFF7B7FF0028E5
:100AE00048BF10F1000F01BD4DF808EDFFF7F4FF0E
:100AF0000CBF012000205DF808FB00BF4DF808ED99
:100B0000FFF7EAFF34BF012000205DF808FB00BFBB
:100B10004DF808EDFFF7E0FF94BF012000205DF8DD
:100B200008FB00BF4DF808EDFFF7CEFF94BF012092
:100B300000205DF808FB00BF4DF808EDFFF7C4FF8B
:100B400034BF012000205DF808FB00BF4FEA410CD4
:100B50007FEA6C5C02D150EA013C0AD14FEA430CB7
:100B60007FEA6C5C02D152EA033C02D14FF00000F4
:100B700070474FF0010070474FEA410212F5001232
:100B800015D211D56FF47873B3EB625212D94FEAD4
:100B9000C12343F0004343EA505311F0004F23FABE
:100BA00002F018BF404270474FF00000704750EA13
:100BB000013005D111F0004008BF6FF000407047D0
:100BC0004FF00000704700BF7BB972B90029BEBF6B
:100BD00000204FF0004106E008BF00281CBF6FF066
:100BE00000414FF0FF3000F0D3B9ADF1080C6DE9D2
:100BF00004CE002909DB002B1ADB00F04DF8DDF8EC
:100C000004E0DDE9022304B07047404261EB41019A
:100C1000002B1BDB00F040F8DDF804E0DDE90223E7
:100C200004B0404261EB4101524263EB4303704721
:100C3000524263EB430300F02FF8DDF804E0DDE9F6
:100C4000022304B0404261EB41017047524263EB22
:100C5000430300F021F8DDF804E0DDE9022304B0ED
:100C6000524263EB4303704753B94AB9002908BFA6
:100C700000281CBF4FF0FF314FF0FF3000F088B963
:100C8000ADF1080C6DE904CE00F006F8DDF804E0E3
:100C9000DDE9022304B070472DE9F047089D8E4638
:100CA00004468846002B4AD18A42174662D9B2FAD6
:100CB00082F64EB1C6F1200301FA06F820FA03F3DA
:100CC000B74043EA0808B4404FEA174E1FFA87FCC2
:100CD000B8FBFEF1230C0EFB118843EA084301FB2D
:100CE0000CF29A4209D9FB1801F1FF3080F0EA803A
:100CF0009A4240F2E78002393B449A1AA3B2B2FB0F
:100D0000FEF00EFB102243EA024300FB0CFC9C4564
:100D100009D9FB1800F1FF3280F0D6809C4540F2E3
:100D2000D3803B44023840EA0140A3EB0C0300218E
:100D30001DB1F3400022C5E90032BDE8F0878B42C7
:100D400005D90DB1C5E9000100210846F5E7B3FA60
:100D500083F1002946D1734502D3824200F2058116
:100D6000841A6EEB030201209046002DE5D0C5E900
:100D70000048E2E7002A00F09080B2FA82F6002EE6
:100D800040F0A4808A1A030C4FEA174E80B2BCB21E
:100D90000121B2FBFEFC0EFB1C2243EA024304FBD2
:100DA0000CF29A4207D9FB180CF1FF3802D29A4292
:100DB00000F2E080C4469B1AB3FBFEF20EFB123336
:100DC00040EA034302FB04F49C4207D9FB1802F1FA
:100DD000FF3002D29C4200F2CA8002461B1B42EA4C
:100DE0000C40A5E7C1F120068B4022FA06F71F430D
:100DF0000EFA01F420FA06F32EFA06FE4FEA17491E
:100E0000234300FA01F81FFA87FCBEFBF9F01C0C23
:100E100009FB10EE44EA0E4400FB0CFEA64502FA64
:100E200001F209D93C1900F1FF3A80F09C80A645F7
:100E300040F2998002383C44A4EB0E041FFA83FE72
:100E4000B4FBF9F309FB13444EEA044403FB0CFC26
:100E5000A44508D93C1903F1FF3E80F08280A445E7
:100E60007FD9023B3C4443EA0040A4EB0C04A0FBC6
:100E700002EC64457346E14662D35FD05DB1B8EBE6
:100E8000030264EB090404FA06F622FA01F31E4396
:100E9000CC40C5E9006400214FE7B1FBF2FC010C36
:100EA00041EA0E4180B240EA01423B4638463C46A8
:100EB000B846BE462026B1FBF7F1A2EB080241EA94
:100EC0000C4166E7014618E710462CE7C6F1200200
:100ED0002EFA02F3B740B14020FA02F24FEA174E61
:100EE0000A43B3FBFEF8BCB20EFB1833110C41EA07
:100EF000034108FB04F9B04089454FEA104380B232
:100F00003ED9791808F1FF3C01D289451FD8A1EBE1
:100F10000901B1FBFEF909FB04F80EFB191192B2AD
:100F200042EA0142424529D2BA1809F1FF31C4D23E
:100F30004245C2D2A9F102013A44BEE7F0459DD232
:100F4000BEEB02036CEB070C0138E14696E7A7EB1A
:100F500009094944A8F1020CB1FBFEF909FB04F8A8
:100F6000DBE773467FE7504666E70846FDE63B440D
:100F7000023A33E7ACF1020C3B441CE749469CE7DC
:100F8000A1EB0901C446B1FBFEF909FB04F8C4E773
:100F9000704700BF2DE9F0411C4F80460E4638884F
:100FA0004FEA182115461C4657F02EFB38880130B1
:100FB0005FFA88F180B257F027FB38880230290A9F
:100FC00080B257F021FB3888E9B20330104D80B26F
:100FD00057F01AFB2888310A57F016FB2888013091
:100FE000F1B280B257F010FB28880230210A80B29B
:100FF00057F00AFB28880330E1B280B257F004FBB7
:10100000BDE8F0414FF4305057F0EABAD85701200C
:10101000D657012070B50C468B89164605460A89BD
:1010200020888988FFF7B6FFA3682168581A61688D
:10103000E3685B1A0133324600FB03330449054879
:1010400056F050F82846BDE870400BF0E5BF00BFF1
:1010500000000860684F002010B501200C465CF0CD
:10106000BFF90B4B93F900201B78002A03DB002308
:1010700084F8203010BD13F00F03F9D0054A064B59
:1010800012881B88C4E90923012384F8203010BD8D
:10109000E4570120F4570120E857012070B50B4EAA
:1010A00002240125052303222146304655F0F2FB98
:1010B00008B94F2D06D00234A4B20135FE2CEDB292
:1010C000F0D170BD024B9E221A7070BDA45000205A
:1010D000604F002030B5002395B0CDE90A33CDE94B
:1010E0000C33CDE90333CDE905332149019307934F
:1010F000086C204A40F080500864096C01F080516F
:10110000019101990293136843F4804313601368BB
:1011100001204FF4803103F48043CDE908010293AC
:101120004FF480010224CDE90E41029807210220EC
:10113000CDE912010422A82308A81092119355F0BA
:10114000B1FC08B172B6FEE70F220346CDE90324D5
:101150004FF4A0554FF4805203A80521CDE9053581
:10116000079255F0B5FE08B172B6FEE715B030BD76
:1011700000380240007000402DE9F04F2DED028B49
:101180000024A3B053F0B8FEFFF7A4FFCDE91A4442
:10119000CDE91C44AE4D08941E942B6BAD4843F032
:1011A00004032B632B6B03F004030893089B09943F
:1011B0002B6B43F020032B632B6B03F0200309936D
:1011C000099B0A942B6B43F080032B632B6B03F07A
:1011D00080030A930A9B0B942B6B43F001032B6350
:1011E0002B6B03F001030B930B9B0C942B6B43F0C5
:1011F00002032B632B6B03F002030C930C9B0D94E7
:101200002B6B43F040032B632B6B03F040030D93D8
:101210000D9B0E942B6B43F010032B632B6B03F091
:1012200010030E930E9B0F942B6B43F008032B635C
:101230002B6B03F0080322460F934FF400510F9BD2
:1012400054F038FD84480122802154F033FD834856
:101250000122022154F02EFD0122814848F21F0193
:1012600054F028FD01264FF400537A481AA94FF094
:101270000308CDE91A36CDE91C44802754F02AFB37
:1012800075481C941AA9CDE91A76CDF8748054F0EB
:1012900021FB022371481A931AA9CDE91B66CDF8E8
:1012A000748054F017FB4FF4805200236D481C9457
:1012B0001AA9CDE91A2354F00DFB4FF46042002324
:1012C00068481C961AA9CDE91A2354F003FB112390
:1012D00063481B931AA9CDE91C44CDF8688054F0EB
:1012E000F9FA48F21C035E481A931AA9CDE91B6665
:1012F000CDF8748054F0EEFA4FF444134FF40052DA
:1013000057481C961AA9CDE91A2354F0E3FA22464D
:101310002146282054F076F8282054F0AFF807949E
:101320002B6B43F480032B632B6B03F48003224667
:10133000214607933A20079B54F064F83A2054F072
:101340009DF84948DFF834E1484BC0E90244C0E960
:101350000544C0E907444FF48044C0E900E3046158
:1013600054F00EFF08B172B6FEE703464FF01008C6
:101370004FF01109159018901D9020903C48CDE930
:101380001689CDE91E89DFF8F89003614FF02048F7
:10139000C0E90233C0E90633C0E90833C0E90D33C0
:1013A000C36243641023C0E9008943614FF00F0812
:1013B0003C234FF00F09CDE912894FF48055149367
:1013C0004FF0090808234FF00F091AAA12A9CDE916
:1013D0001A89046385621C9355F03EFE08B172B60B
:1013E000FEE7244C1090A761234F20905323CDE9B2
:1013F0001200CDE91400CDE91A00CDE91C00CDE9B9
:101400001E00C4E900731190A060206140F6FF73D4
:101410002046E36055F086FE08B172B6FEE712A9D9
:101420002046129556F00EF908B172B6FEE7204636
:1014300055F00AFF08B172B6FEE70022002310A99A
:101440002046CDE9102356F05BFAD8B172B6FEE71C
:101450000038024000080240000002400004024040
:101460000018024000140240A4500020801A060018
:10147000684F00205C5000200004004000580040ED
:10148000040100A01C901E9004221AA94FF06008CD
:101490004FF000092046CDE91A8955F0CDFF0546E9
:1014A00008B172B6FEE7204600F0DAFAA048C0E9BB
:1014B0000255C0E9065505619E4D4FF4E133C0E980
:1014C00000530C23436156F05FFA08B172B6FEE791
:1014D000994D9A499A4AA8604FF48033CDE91A0091
:1014E000CDE91C00C5E900132861287685F82000A5
:1014F000E86085F8300000232846C5E90A23EE613C
:101500006E6153F037FD08B172B6FEE71C900D22F4
:1015100001231AA92846CDE91A2353F0B9FE08B1D0
:1015200072B6FEE739F07EFA8648DFF86092DFF89F
:1015300060B243F0CBFD0421834855F015FF57F00E
:10154000A3FA5BF08BFE4FF4F0714FF448700BF090
:1015500095FB002706467D490BF048FD3A464FF4BF
:1015600096437B49009730460BF0C0FC34F060F99D
:101570000121054634F0A0F97649284634F0A4F953
:101580003146284634F0B0F900F05AFE00F0DAFB9C
:10159000FFF784FD70496648704E4022BA4656F007
:1015A00077FF6D4F88E03EF0D7FB059053F0CAFC03
:1015B000A0EB0A03B3F5FA7F78D353F0C3FC1AAB60
:1015C00000934FF0FF320223CDE90132644B824693
:1015D000197864480123002254F0A8FF002840F045
:1015E0009B80BDF86830DBBA5B1108EE103ABAEEAA
:1015F000EE8A514853F06AFD4F480A2153F0EAFD44
:10160000002800F084800025D9F80030EB1A002B68
:10161000B8BF5B42282B03DD2368C9F800509D63E7
:10162000002000F037FB0021022000F003FEBDEE99
:10163000C87ADFED4D6A4D4A4D48F8EEC77A17EE8D
:10164000103A78EE677A142167EEA67A4FF0010817
:10165000FDEEE77ACDED007A5CF0F8FC9BE80E0039
:101660004348CDF8008000F0C7FD1421022000F0AF
:10167000E1FD07EE105ADFED3F7AB8EE477A67EEEC
:10168000277A17EE900AFEF76FFF3B4ACDE900017B
:101690002B46142136485CF0D9FC9BE80E003448F8
:1016A000CDF8008000F0A8FD00F000FB05980528AB
:1016B00028BF052053F04CFC304B1B78002B3FF427
:1016C00072AF2E4B00221A702D4B1B889BB23846EE
:1016D000FA54FEF7DDFD80463046FEF7D9FD08EBF3
:1016E0000001B1F5007F054619D808F10102701913
:1016F00039465CF0BEFD234B1D461868314653F059
:1017000065F9286847F6FF7153F02CFA4BE70A4851
:1017100053F0BAFD054677E79FED1B8A69E7A1F50F
:101720000071451A2A46314430465CF008FDDCE77A
:101730001850002000100140F85000200020014007
:101740000100000F454F05085C50002015100008EF
:10175000480200205910000844510020484D002044
:10176000604F0020A45000200000C8425403060827
:101770004C4F00206840533A640306084251002051
:1017800040510020B055002000007AC444020020DF
:10179000BC0B06084FF0FF30704700BF01207047B8
:1017A0000C4B02689A4200D0704710B50A480C46AC
:1017B000042154F083FA0948094B0A494FF0010CFF
:1017C00080F800C040221C800748BDE8104056F059
:1017D0005FBE00BF001001400018024042510020CF
:1017E000405100204451002018500020114A036845
:1017F000934200D0704700B585B00022019219686D
:1018000001915968019101990292196802915968F0
:101810000291029903921A6803925B680393039BF7
:1018200056F0C4FA04490548402205B05DF804EBBF
:1018300056F02EBE001001404451002018500020E8
:1018400072B6FEE7022801D80120704708B55CF0A7
:10185000E3FC09230360002008BD00BF0138012814
:1018600010B50CD81446094A4FF0FF331068A2B2E5
:1018700056F01CF900280CBF2046052010BD5CF076
:10188000CBFC092303604FF0FF3010BD84510020D2
:10189000022801D80020704708B55CF0BDFC092380
:1018A00003604FF0FF3008BD08B55CF0B5FC0923BC
:1018B00003604FF0FF3008BD08B558B9094A4FF032
:1018C000FF331068012256F0B7F9002814BF052035
:1018D000012008BD5CF0A0FC092303604FF0FF303D
:1018E00008BD00BF84510020022808B504D84FF479
:1018F00000534B60002008BD5CF08EFC09230360A0
:10190000002008BD82B00C4B002100915A6C42F4BB
:1019100080425A645A6C02F480420092009A01910B
:101920001A6C42F080521A641B6C03F080530193CE
:10193000019B02B0704700BF003802400000000069
:1019400000B5194A016889B000239142CDE90233FC
:10195000CDE90433069302D009B05DF804FB02F52B
:101960008C320093506C40F480705064506C00F4E2
:101970008070009000980193136B0C4843F00403AF
:101980001363136B9FED067B03F00403019302A91D
:101990008DED027B019B53F09DFF09B05DF804FBC8
:1019A0000800000003000000002001400008024081
:1019B00030B5184B026889B000249A42CDE9024440
:1019C000CDE90444069401D009B030BD124D009415
:1019D0002B6B43F020032B632B6B03F0200300934E
:1019E00003221223CDE9022300980C48032204238A
:1019F00002A9CDE9052353F06DFF01942B6C43F44C
:101A000080032B642B6C03F480030193019B09B0CA
:101A100030BD00BF005800400038024000140240B2
:101A20000E4B02689A4200D0704700B583B0002286
:101A300003F50D330192196C41F0020119641B6C1E
:101A400003F00203019311461D20019B53F0DAFCC1
:101A50001D2003B05DF804EB53F010BD00040040FE
:101A600000B5154A016889B000239142CDE90233DF
:101A7000CDE90433069302D009B05DF804FB02F50A
:101A80000D320193136B0D4843F002031363136B84
:101A90009FED077B03F00203019302A902238DED62
:101AA000027B019A069353F015FF09B05DF804FB21
:101AB000200000000200000000040040000402407A
:101AC00070B52A4B026888B000249A42CDE90244DE
:101AD000CDE90444069401D008B070BD03F59433F9
:101AE00000945A6C224E42F010025A645A6C02F072
:101AF00010020092009A01941A6B42F001021A63DC
:101B00001B6B03F0010301934FF4C0620223CDE984
:101B100002230546032207230198164802A9CDE9AE
:101B2000052353F0D7FE144A4FF00063C6E90023A3
:101B300030464FF48063C6E90244C6E90434C6E97E
:101B40000644C6E9084453F0C1FC58B90022AE630C
:101B500011462520B56353F055FC252053F08EFC2B
:101B600008B070BDFFF76CFEF0E700BF0010014049
:101B7000B84F00200000024040640240174B1A6832
:101B800002B17047D0B588B01549019201201860A4
:101B90008B6B03438B638B6B4FF68070022103F0DA
:101BA0000103CDE902010193012603270C2402A9B8
:101BB0000C48019B0694CDE9046753F08BFE4EF26E
:101BC000B37202230848069402A9CDE90467CDE95F
:101BD000022353F07FFE08B0D0BD00BF8851002023
:101BE0000038024000100240000C0240FEE700BF37
:101BF000FEE700BFFEE700BFFEE700BFFEE700BF55
:101C0000704700BF704700BF704700BF53F08EB9E8
:101C1000014855F0CBBD00BF5C500020014856F094
:101C20003BBA00BF185000204FF4005054F052B897
:101C3000014853F077BD00BFB84F00200C490D4A52
:101C40000B6810B50C4C121B2BB11844904207D8EE
:101C50000860184610BD094B0B6018449042F7D934
:101C60005CF0DAFA0C2303604FF0FF33184610BD26
:101C70008C5100200000022000040000585901206F
:101C8000034AD2F8883043F47003C2F888307047B2
:101C900000ED00E000284FF48262034814BFFF21EA
:101CA00000215CF066BA00BF985100202DE9F04792
:101CB000DFF88C90214F86B0B0250DF117084FF05A
:101CC000000A01244FF0FF36234600227821CDE997
:101CD0000146CDF8008038468DF8175054F018FBB7
:101CE000002278212346CDE90146CDF80080384610
:101CF0008DF817A054F00CFB4FF0100C0022234677
:101D00007821CDE90146CDF8008038468DF817C01E
:101D1000254454F0FDFA8223CDE90136CDF8009038
:101D20004022234678213846EDB254F0F1FAB82D1E
:101D300009F18209C5D106B0BDE8F087A4500020A2
:101D4000985100202DE9F047642086B0C24FDFF89B
:101D50001093012400254FF0FF360DF1170853F0C2
:101D6000F7F8AE2301948DF8173089F80550234613
:101D70002A460296CDF800807821384654F0C8FAF9
:101D80004FF0200A23462A46CDE90146CDF80080CF
:101D9000782138468DF817A054F0BAFA23462A461F
:101DA000CDE90146CDF80080782138468DF81750EE
:101DB00054F0AEFAB0238DF817302A462346CDE909
:101DC0000146CDF800807821384654F0A1FAC823A6
:101DD0008DF817302A462346CDE90146CDF800801C
:101DE0007821384654F094FA23462A46CDE9014634
:101DF000CDF80080782138468DF8175054F088FAD5
:101E000010238DF817302A462346CDE90146CDF838
:101E100000807821384654F07BFA40238DF8173043
:101E20002A462346CDE90146CDF800807821384680
:101E300054F06EFA81238DF817302A462346CDE9F7
:101E40000146CDF800807821384654F061FA2346E7
:101E50002A46CDE90146CDF80080782138468DF834
:101E6000176054F055FAA1238DF817302A462346FF
:101E7000CDE90146CDF800807821384654F048FA83
:101E8000A6238DF817302A462346CDE90146CDF822
:101E900000807821384654F03BFAA8238DF817309B
:101EA0002A462346CDE90146CDF800807821384600
:101EB00054F02EFA3F238DF817302A462346CDE9F9
:101EC0000146CDF800807821384654F021FAA42349
:101ED0008DF817302A462346CDE90146CDF800801B
:101EE0007821384654F014FAD3238DF817302A4657
:101EF0002346CDE90146CDF800807821384654F0DC
:101F000007FA23462A46CDE90146CDF8008078211C
:101F100038468DF8175054F0FBF9D5238DF817305B
:101F20002A462346CDE90146CDF80080782138467F
:101F300054F0EEF9F0238DF817302A462346CDE908
:101F40000146CDF800807821384654F0E1F9D923D4
:101F50008DF817302A462346CDE90146CDF800809A
:101F60007821384654F0D4F922238DF817302A46C8
:101F70002346CDE90146CDF800807821384654F05B
:101F8000C7F9DA238DF817302A462346CDE90146F2
:101F9000CDF800807821384654F0BAF912238DF834
:101FA00017302A462346CDE90146CDF80080782136
:101FB000384654F0ADF9DB238DF817302A46234616
:101FC000CDE90146CDF800807821384654F0A0F9DB
:101FD00023462A46CDE90146CDF8008078213846CF
:101FE0008DF817A054F094F98D238DF817302A46F8
:101FF0002346CDE90146CDF800807821384654F0DB
:1020000087F914238DF817302A462346CDE9014677
:10201000CDF800807821384654F07AF9AF22234673
:10202000CDE90146CDF800808DF8172038462A46C4
:1020300089F80540782154F06BF94FF48262294603
:1020400006485CF096F8FFF731FEC9F8005089F8B1
:10205000044006B0BDE8F087A4500020985100204D
:10206000905100202DE9F04F87B0A0F1200506AC7B
:1020700004E90E00EBB25E2B9DF840A065D8059BED
:10208000002B00F0B180034413F8204C58490A8813
:1020900002EB040EBEF1820F57DC9DF80D30B1F853
:1020A00002C00CEB030140294FDC002B47D0049900
:1020B00003FB05F5002C42D02B4405F10045013D02
:1020C000CDE9010E01EB45054A4E023901EB430B08
:1020D0005FFA8CFC5FFA82F9BCF13F0F05F1020553
:1020E00025D801230CF0070E03FA0EFE4FEADC029E
:1020F00002EB82126FEA0E079A402888FFB24B4625
:10210000BAF1000F25D0BAF1010F4FF000014CD009
:10211000812B03EB020E05D816F80E8007EA08089B
:1021200006F80E80013101338C42DBB2F0D10CF1A4
:10213000010C5D455FFA8CFCCED1DDE9010E2C4B24
:10214000A3F800E007B0BDE8F08F002007B0BDE8BD
:10215000F08F514600950CE0812B05D816F80580CC
:1021600048EA0E0806F8058001310133A142DBB2CE
:1021700013D000FA01F515F4004F03EB0205EBD084
:10218000812BF1D816F80580013107EA08080133E0
:10219000A14206F80580DBB2EBD1009D0CF1010CE9
:1021A0005D455FFA8CFC97D1C7E700950CE0812B69
:1021B00005D816F8058048EA0E0806F805800131B2
:1021C0000133A142DBB2E8D000FA01F515F4004F6B
:1021D00003EB0205EBD1812BF1D816F8058007EA55
:1021E000080806F80580EAE79DF80C404EE700BFB6
:1021F000905100209851002070B5054686B00078B7
:102200009DF8286003AC84E80E0018B90DE015F8BD
:10221000010F50B194E80E000096FFF723FF2B78D2
:102220009842F4D0184606B070BD0023184606B098
:1022300070BD00BF014B188059807047905100203D
:1022400010B584B03AF040FF1D4B18600AF0FAFD5B
:10225000044605203BF000FE0346C0F30721C0F30F
:10226000074200208DF808308DF809108DF80A20FB
:102270003BF0F2FDC0F30721C0F307428DF80C00DC
:102280008DF80D108DF80E200E4B0093DDE9021233
:102290000023204640F0AAFB014620460BF03AF806
:1022A00000F022F8002001F03DF80749074B0246F4
:1022B00008681A6004B0BDE810400AF0F3BE00BF21
:1022C000CC550020F4130608C8550020A85500205E
:1022D00010B504463AF0EAFE0A2800D010BD2046A8
:1022E000BDE8104000F056B92DE9F041002084B05F
:1022F00001F018F8944E954C3060102101F02AF846
:102300003068934F51F0C2F82321206051F014FA45
:10231000206840F2173103F021FA20689D2103F074
:1023200037FA2068002103F0B9F920686FF09E01A8
:1023300003F0CEF92068092103F0A2FA20681021E9
:1023400001F008F8834825683AF074FAC0F30723CF
:102350008DF80000C0F307408DF801308DF80200C1
:1023600000992846002208F0E3FD00222068FF21A2
:1023700008F0F2FD7849206851F094F80546774856
:102380003D603AF057FA0346C3F30722C3F307430D
:102390008DF806308DF804008DF805200199284647
:1023A000002208F0C5FD002238686D4DFF2108F0BD
:1023B000D3FD38686B4F44F0FBFA7A21286003F0B4
:1023C000CDF92868322103F0E3F928686FF49B7196
:1023D00003F064F928686FF0020103F079F92868C6
:1023E000092103F04DFA28684FF4806100F0A8FF3E
:1023F0002868102100F0AEFF28684BF091F96FF0CB
:102400004041386003F0AAF938686FF0404103F0AA
:10241000BFF938684FF0FF3103F040F93868002108
:1024200003F056F93868092103F02AFA38684E4952
:102430004E4F4BF081F94E49206851F033F8044675
:102440004C483C603AF0F6F90346C3F30722C3F365
:1024500007438DF80A308DF808008DF8092002999D
:102460002046002208F064FD00223868424C434FA9
:10247000FF2108F071FD306851F004FE40F2351183
:10248000206003F06BF920684FF4837103F080F94A
:102490002068DD2103F002F920685F2103F018F9BC
:1024A0002068092103F0ECF92068354952F032FB2D
:1024B00039462068002208F05FFD3248D4F80080D9
:1024C0003AF0B8F90346C3F30722C3F307438DF884
:1024D0000E308DF80C008DF80D2003994046002237
:1024E00008F026FD00222068274CFF2108F034FD6B
:1024F00030684BF015F96FF04041206003F02EF981
:1025000020686FF0404103F043F920685D2103F03B
:10251000C5F820686FF0360103F0DAF82068092169
:1025200003F0AEF9206819494BF006F920683946E6
:10253000002208F021FD0023154928681A4604B03E
:10254000BDE8F04102F01CBBC8550020C455002076
:10255000C0550020E8F7BE0078030608F9E6CF0072
:10256000BC550020B855002080030608B455002053
:102570008C030608D3BCF600B05500204449060879
:1025800094030608EBEBEE00AC550020A40306080C
:10259000D1220008704700BFDFF834D00D480E4943
:1025A0000E4A002302E0D458C4500433C4188C42AD
:1025B000F9D30B4A0B4C002301E013600432A24212
:1025C000FBD3FFF75DFB5BF02DFEFEF7D5FD7047FB
:1025D000000002200000002028020020E4A60608D7
:1025E0002802002054590120FEE700002DE9F047A1
:1025F000077F17F0010722D1C66805468946904635
:1026000016B1B246012708E088470646B8B18246AF
:10261000306801F065FA030614D531462846C047F4
:10262000504506460BD00028F2D12B7F1A0706D55D
:102630002FB12846C847002706460028E8D10020C9
:10264000BDE8F08734682CB910E0204608F0E6FFBA
:10265000044658B10121204601F032FA0028F4D096
:102660002046012101F02CFA0028D6D1EB68B342B4
:10267000E5D02BB30020D3F8008033F00DF90446E9
:1026800098B100270BE033F02BF9034620469D421A
:1026900008BF274633F000F9044600283BD0204607
:1026A00033F016F901282046EDD122461421404688
:1026B00002F096F90128C2D1EB68186804F02CFCEE
:1026C000EE600020376833F0E7F8044690B100264A
:1026D0000AE033F005F9034620469D4208BF26462E
:1026E00033F0DAF80446F8B1204633F0F1F8012867
:1026F0002046EED122461321384602F071F9012816
:102700009DD1EB68186804F007FC2B690BB12846D3
:102710009847012094E73C4622461421404602F0A7
:102720005FF901288BD1C7E734462246132138468A
:1027300002F056F9012882D1E3E700BF2DE9F0410C
:10274000064601F0D9F9002854D0037F13F00107A1
:1027500005464FD19A0717D5C26867F3410303773F
:1027600092B1D2F80080B8F1000F0DD0384633F0A6
:1027700093F8044600284BD122461321404602F02C
:102780002FF9012800F0828028463AF089FF04469C
:1027900020B92FE03AF08CFF044658B323689E42DC
:1027A00021462846F6D1EB68002B43D0D3F80080B1
:1027B00046453FD0002033F06FF8064698B1002719
:1027C0000BE033F08DF8034630469D4208BF374694
:1027D00033F062F80646002860D0304633F078F8CF
:1027E00001283046EDD132461421404602F0F8F877
:1027F00001281BD0BDE8F08133F072F80346204673
:102800009D4208BF274633F047F80446002841D0D0
:10281000204633F05DF801282046EDD122461321F1
:10282000404602F0DDF80128AED12FE0EB681868D1
:1028300004F072FB2B69EC6013B128469847EC68F2
:102840002768002033F028F8044690B100260AE0FB
:1028500033F046F8034620469D4208BF264633F033
:102860001BF80446C0B1204633F032F80128204658
:10287000EED122461321384602F0B2F80128B9D130
:10288000EB68BDE8F041186804F046BB404604F030
:1028900043FB79E73C466FE73446EAE73E46A2E76A
:1028A000014820213AF074BE08560020014B586CB4
:1028B000704700BFD05500202DE9F04182B0054699
:1028C00001F01AF9F0B1C368044613B11B68AB42BA
:1028D0001BD020463AF0E4FE014620B912E03AF05F
:1028E000E7FE014670B10B68AB422046F7D101917B
:1028F0003AF0AEFE019908463FF0B6F8AB680BB16E
:1029000000225A6002B0BDE8F081037FDA0744BFBD
:1029100023F0010303773AF0C3FEE36883422BD030
:10292000227F42F0080323775B07C2F3C00615D469
:10293000284A29492046FFF759FE63690BB1002850
:1029400041D0237F66F3C3032377E368002BC0D015
:102950001B689D4204BF0023E360BAE71F4A204979
:102960002046FFF743FE6369002BEAD00028E8D138
:10297000014620469847E4E720463AF095FEE26893
:1029800090420346CCD10020D3F8008032F084FF7F
:10299000064690B100270AE032F0A2FF0346304617
:1029A0009C4208BF374632F077FF064678B1304682
:1029B00032F08EFF01283046EED1324614214046D7
:1029C00002F00EF8C1E7012120469847B9E73E46DC
:1029D000F3E700BFB1D60308A1D60308B9D60308B0
:1029E000A9D60308A8B170B50D4604460846FFF7FE
:1029F00063FFAB6833B35C6020463AF013FE0646D3
:102A000030B1056020463AF04BFE864202D070BDE0
:102A1000FEE77047227F42F0080323775B07C2F38B
:102A2000C00514D51149124A2046FFF7DFFD63693E
:102A3000014613B108B920469847237F65F3C303C5
:102A4000237770BD284601F05DF8AB68D3E7094AEB
:102A500009492046FFF7CAFD6269002AEDD0002827
:102A6000EBD1012120469047E7E700BFA9D6030834
:102A7000B9D60308B1D60308A1D6030808B1FFF7F9
:102A80005DBE704768B110B50446074A0749FFF7B5
:102A9000ADFD636933B128B920460121BDE810407E
:102AA0001847FEE710BD00BFB1D60308A1D6030842
:102AB00068B110B50446074A0749FFF797FD6369F7
:102AC00033B128B901462046BDE810401847FEE75B
:102AD00010BD00BFB9D60308A9D6030810B582B04F
:102AE000019178B1C36873B11C6864B1802120463C
:102AF00000F0FAFF38B901AA1121204601F070FF59
:102B000002B010BDFEE7012002B010BD68B3F8B5F9
:102B1000037FC3F340028A42054625D0C26861F3B1
:102B20004103037702B31768F7B1002032F0B4FE17
:102B3000044690B100260AE032F0D2FE0346204659
:102B40009D4208BF264632F0A7FE044698B12046B3
:102B500032F0BEFE01282046EED12246132138462F
:102B600001F03EFF012801D0F8BDFEE73846BDE880
:102B7000F84004F0D1B9344622461321384601F01A
:102B80002FFF0128F0D1F1E710B1C06800B1006853
:102B9000704700BF10B1007FC0F34000704700BF16
:102BA00008B13AF08DBDFEE72DE9F041AEB0064622
:102BB0003AF07CFA054630463AF074FA1A2D04468B
:102BC00006D01D2D18D0202D59D02EB0BDE8F08193
:102BD00030463AF06FFA0378022B0546F5D02D22E5
:102BE0000021204606F0A2FB06460990002800F0CE
:102BF000FD8002232B70E8E7304601F0E3FF09ADCA
:102C0000064628460DF0C0FC00212A4620460D96B7
:102C100001F036F935220021204606F087FB0590A9
:102C2000002840F0E1809DF89820C2F340129DF802
:102C30009830002162F3451320466A228DF89830BF
:102C400006F074FB6B22074605900021204606F033
:102C50006DFB059002463946D4E90670236A646923
:102C6000CDE9070305A8CDE9054738F055FF05AACA
:102C7000294630460DF00CFD2EB0BDE8F0813046FF
:102C800001F0A0FF05AA064601A9204605F020FF95
:102C900001A838F033FF20B905A838F02FFF00282D
:102CA00060D009AD28460DF06FFC1D224FF4803135
:102CB000204606F03BFB0090C0B202288DF852007F
:102CC00000F2078132224FF48031204606F02EFBBD
:102CD000C3B2022B00908DF8533000F216813E22D1
:102CE0004FF48031204606F021FBC3B2022B009046
:102CF0008DF8553000F2FB804FF48031204606F00D
:102D0000E7FCFC280FD89DF8523013FB00F3C3F307
:102D100007234FF0000263F3070263F30F228DF8DD
:102D20005530ADF85220BDF8523013B99DF85530EA
:102D3000C3B10C224FF48031204606F0F7FA009020
:102D4000109001A838F0DAFE002840F0BA8005A8FB
:102D500038F0D4FE30B10123294605AA30460B9342
:102D60000DF096FC30220021204606F0DFFA099093
:102D700000283FF42AAF35220021204606F0D6FA7B
:102D8000099000283FF421AF002509A80DF0FCFBB5
:102D900009AA294620468DF852508DF84F50ADF8BB
:102DA00054500D9601F06CF829466A22204606F030
:102DB000BDFA2946074605906B22204606F0B6FA72
:102DC00005900246D4E90650236A64693946CDE984
:102DD000070305A8CDE9054538F09EFE05AA09A917
:102DE00030460DF055FCF0E6012220E701460C22AA
:102DF000204606F09BFA6A22074609903146204693
:102E000006F094FA6B22804609903146204606F07F
:102E10008DFA09900246D4E906E0D4F820C063692F
:102E20004146CDE90B0C09A8CDE9093E38F074FE06
:102E300068683A4609A939F05DF810B901232B708A
:102E4000C3E61D223146204606F070FAC3B2FC2BC1
:102E50000590F3D962223146204606F067FAC3B2E4
:102E6000FC2B0590EAD920223146204606F05EFA76
:102E7000C3B205908BB125223146204606F056FAA2
:102E8000C3B2FC2B0590D9D924223146204606F046
:102E90004DFAC2B2FC2A0590D0D926220021204644
:102EA00006F044FA059048B1837A3BB1C278FC2A17
:102EB000C4D9012B02D0037AFC2BBFD900232B707D
:102EC00083E6002301AA294630460B930DF0E0FB70
:102ED0003DE71C224FF48031204606F027FA00908F
:102EE000ADF85600C0F307408DF85800EAE63C22E2
:102EF0004FF48031204606F019FA002800902A90FD
:102F000011DC00238DF85530F6E630224FF4803185
:102F1000204606F00BFA00280090259019DC0023CB
:102F20008DF85330DBE642224FF48031204606F024
:102F3000FDF93D2200902D904FF48031204606F09F
:102F4000F5F90090ADF8A400C0F307408DF8A60095
:102F5000D2E631224FF48031204606F0E7F90090A6
:102F6000ADF89000C0F307408DF89200B7E600BFBF
:102F70002DE9F0414E6882B00C462EB3304604F085
:102F8000BBFE0746304604F0ADFE1022804600210D
:102F90003046B56906F0CAF92B18A3EB0803A36104
:102FA000013B01902362122200213046756906F030
:102FB000BDF90544ED1B4BF676336A1E6561E2618F
:102FC000636202B0BDE8F08141F67603636202B04D
:102FD000BDE8F08170B588B00D46044602F012FCE1
:102FE000EA06064623D4636A23EA05036362EB0715
:102FF00011D4204602F006FC864202D115F0C07FB3
:1030000007D0204608F00AFB08B0BDE8704002F087
:1030100015BC08B070BD204603F07EFF204608F0C6
:10302000FDFA02F00BFC204602F008FCE1E704AADE
:103030006946204605F04CFD6946204602F0FAFF3D
:1030400004A9204602F0F6FFCDE700BF10B5084600
:103050000C463AF041F8002006F062F9204607F0ED
:1030600067FD012006F05CF90021204638F0A8FB3E
:10307000CCB1A368B3B15A6822B12046FFF71CFC5B
:10308000A3687BB1186820B13EF0EEFCA368002273
:103090001A6003F1080039F0B7FFA0683EF0E4FCC5
:1030A0000023A36010BDFEE7F0B589B00D460446CD
:1030B00002F0A8FBE907064627D4636A2B43636244
:1030C000204602F09FFB864206D115F0C07F03D157
:1030D000EB060BD409B0F0BD204608F09FFA02F0D1
:1030E000ADFB204602F0AAFBEB06F3D504AA694625
:1030F000204605F0EDFC6946204602F09BFF04A93E
:10310000204602F097FF09B0F0BD204603F004FF0F
:10311000636A228D2B4392076362D1D5A368002B8B
:10312000CED05F68002FCBD03846FFF7ABFC3846D7
:10313000FFF72AFD0028C3D003F0EEFEC0E700BF72
:103140002DE9F04F048D8C428BB008D00A460F4613
:103150002146054606F028F9804618B92F850BB0A0
:10316000BDE8F08F284603F0D7FE28462F8506F0ED
:1031700045FB4FF420703EF063FC6B8D13F4FC6F45
:103180008246C3F3451B76D0EB6809950026FA43C7
:10319000079303929C4631460894C1463D46DCF8AD
:1031A0000440039B1FFA84FE1EEA030FC4F31704B6
:1031B00040F091809CF8073013F0020340F08B80C0
:1031C000079A52F83620177AD2F80080FF2F00F0C5
:1031D0008880BA0042441FB97DE001339F427AD013
:1031E00012F8010B6828F8D158F82330D3F8008082
:1031F00098F80000002800F0818004F47F0700297F
:1032000050D0CDE9049406935346002204E00132E5
:103210008A4203F1140342D01C7A8442F7D15C68DD
:1032200004F47F09B945F2D1A4B27445EFD38A42C0
:1032300035D018F8010F0028E6D1DDF810900136DE
:103240005E455ED020290CF1080CA8D12F46089CC1
:10325000099DC84601EB81010AEB81095646716858
:1032600000963B46224601F47F012846143606F0BC
:10327000A3FF4E45F3D150463EF0F6FB08F0FD03A8
:10328000012B45D0B8F1020F7FF469AF284603F057
:1032900043FE28460BB0BDE8F04F01F0E1BADDE98E
:1032A0000494069BD86801EB810201312AF82200C0
:1032B0000AEB8202186950809868D06098F8000084
:1032C000107258681061546018F8010F0028B6D0C9
:1032D000202996D1B3E701365E4512D00CF1080CD7
:1032E0005DE798F8003023B9F5E718F8083F002BA0
:1032F000F1D0682BF9D1D8F8043077E70136B3451F
:10330000ECD12F46089C099DC8460029A2D1B2E7FE
:10331000FF224FF4702128460BB0BDE8F04F06F0B5
:10332000AFBC00BF10B50146044800F043FC20B11B
:10333000044600F0A3FC204610BDFEE73413060847
:103340000A4620B1436A9A4302D0FFF7ADBEFEE7BA
:10335000704700BF18B1436A194201D17047FEE7B8
:10336000FFF738BE60B12DE9F04F038D0D461943CC
:1033700035EA030387B0044603D107B0BDE8F08FF8
:10338000FEE7FFF7DDFE636A5802F6D5204608F037
:1033900091F983460028F0D000272646394630466A
:1033A00008F040F9044650B1038D45EA030135EABF
:1033B000030304D0FFF7C4FE636A590203D4013744
:1033C000BB45EBD1D9E7204608F074F901900028FD
:1033D000F5D0CDE902764FF0000A5146204608F0BC
:1033E00021F9064650B1028D45EA020135EA020292
:1033F00004D0FFF7A5FE726A520207D4019B0AF1BE
:10340000010A5345E9D1DDE90276D8E7304608F0F4
:1034100051F907460028F1D0CDE904B44FF0000976
:103420004946304608F0FEF8044650B1038D45EA9F
:10343000030135EA030304D0FFF782FE636A5B02EF
:1034400006D409F101094F45EAD1DDE904B4D5E715
:10345000204608F02FF983460028F2D04FF00008EC
:103460004146204608F0DEF810B12946FFF77AFF02
:1034700008F10108C345F3D1E3E700BF78B12DE9B6
:10348000F04F028DCD438B4605EA0201AA4387B077
:1034900004461FFA85F803D107B0BDE8F08FFEE7B8
:1034A000FFF74EFE626A5002F6D5204608F002F998
:1034B00082460028F0D000262546D94631462846C7
:1034C00008F0B0F8044650B1038D08EA030133EA6E
:1034D000080304D0FFF734FE636A590203D40136AF
:1034E000B245EBD1D8E7204608F0E4F80190002877
:1034F000F5D0CDE902A64FF0000BCDF800B0049551
:103500000099204608F08EF8054650B1028D08EA71
:10351000020132EA080204D0FFF712FE6A6A520280
:1035200009D4009B019A01339A420093E8D1DDE966
:1035300002A6049DD3E7284608F0BCF806460028FA
:10354000EFD0002705943946284608F06BF804466A
:1035500050B1038D08EA030133EA080304D0FFF7F2
:10356000EFFD636A5B0204D40137BE42EBD1059CD8
:10357000D7E7204608F09EF883460028F4D04FF0A5
:10358000000A5146204608F04DF810B14946FFF7B1
:1035900075FF0AF1010AD345F3D1E5E7F0B5084616
:1035A00089B00E4639F082FD0446304639F07AFD86
:1035B000631E0546312B55D8DFE813F05C0054003C
:1035C000630054005400540054005400540054004C
:1035D0006A008B0054008D0054005400A300540076
:1035E000C600EB005400540029012E0130015600A2
:1035F000ED0054005600540054005600540054008E
:103600005400540054005400540054005400F70077
:1036100054001E0154005400540054003200320182
:103620000A22002105F082FE1622044600212846C7
:10363000049405F07BFE83B204900BB9E4B214B19C
:10364000284602F0FBF8284608F034F8064648B150
:103650000024AB681B6853F82400013402F0EEF834
:10366000A642F6D109B0F0BD304609B0BDE8F04041
:10367000FFF79ABA2021284609B0BDE8F040FFF7CD
:1036800071BE2021284609B0BDE8F040FFF7F6BE24
:103690002021FFF7F3FE304639F00CFD32F07AFAC4
:1036A0000028DFD1002D00F0CC806B6A1E07D9D531
:1036B0002B8DDC074FF00101284600F12781FFF731
:1036C00051FE00222321284609B0BDE8F04001F058
:1036D00087B94021CFE74021FFF7D0FE284604F00C
:1036E000D3FA0228BED104AA6946284605F0F0F9AB
:1036F0006946284602F09EFC04A9284602F09AFC7E
:10370000B0E700B3436A180700F1F38003F40163E4
:10371000B3F5016FA6D1284600F022FB0028A1D105
:10372000284604F0E9FA0746284604F0FFFA044662
:10373000304601F04FFAA0F11103032B92D8DFE8D5
:1037400003F09481BEA2FEE710B3436A5B0500F16B
:10375000E380A86800B14068FFF71CFA044632F025
:10376000A5F8002800F0DC8032F0B2F8022800F062
:10377000BD8004280BBF0E210A2106230223002C42
:103780007FF479AF19462846FFF7ECFD082179E769
:10379000FEE70E2176E7002100F0F6FF01463046F5
:1037A00009B0BDE8F04001F02DBA0122002105F07A
:1037B000BDFD0222064600212846049605F0B6FD0E
:1037C0000A22002104900746284605F0AFFD162284
:1037D000049004460021284605F0A8FD83B2049019
:1037E00043B9E4B234B96FF040439E4202D09F42E5
:1037F0007FF438AF284605E090F82A3043F0020302
:1038000080F82A3009B0BDE8F04002F017B8202156
:10381000FFF734FE402135E710212CE7102131E776
:1038200007F048FF064600283FF41CAF0024AB68B1
:103830001B6853F82400013402F000F8A642F6D1C8
:1038400010E7FEE7284604F047FA0446284602F04F
:10385000F5F8011EB8BF0331002204EBA101284690
:1038600009B0BDE8F04004F0E1BF284604F034FAA6
:103870000446284602F0E2F8011E00DA0331002275
:10388000A4EBA101EBE7284604F008FA8207ECD08C
:10389000002F01DC002CE8DD284604F017FA04466E
:1038A000284602F0C5F8011EB8BF03310022A4EB80
:1038B000A101284609B0BDE8F04004F0E1BE284669
:1038C00004F0ECF98107BDD0002F01DC002CB9DD3C
:1038D000284604F0FBF90446284602F0A9F8011E28
:1038E000B8BF0331002204EBA101E2E70E21062359
:1038F00045E7304601F06EF9A0F11103032B13D810
:10390000DFE803F00702070201212846FFF7B6FDB2
:10391000D7E601212846D2E6012105F083F818E711
:10392000304601F041F91FE70A283FF49BAEC8E694
:103930002DE9F04F044685B00E464AB138B1038DEB
:10394000194336EA030327D105B0BDE8F08FFEE73F
:1039500008B3038D1546CA4302EA0301934397B2A5
:10396000F2D0FFF7EDFB636A5902EDD5204607F070
:10397000A1FE83460028E7D02946204607F052FEE4
:10398000804620B1038D07EA0301BB4320D10135F6
:10399000AB45F1D1D8E7FEE7FFF7D2FB636A5A02E5
:1039A000D2D5204607F086FE80460028CCD00027DE
:1039B0003946204607F036FE054628B1038D46EA13
:1039C000030136EA03032CD10137B845F0D1BBE738
:1039D000FFF7B6FBD8F824305A02D8D5404607F096
:1039E00069FE82460028D2D0CDE901B54FF000092A
:1039F00003944946404607F015FE054648B1028D3E
:103A000007EA0201BA4304D0FFF79AFB6A6A53023D
:103A100042D409F10109CA45EBD1DDE901B5039CA6
:103A2000B5E7FFF78DFB6B6A5B02CDD5284607F043
:103A300041FE01900028C7D04FF0000949462846B2
:103A400007F0F0FD824658B1028D46EA020136EADF
:103A5000020205D0FFF774FBDAF82420500205D4E7
:103A6000019B09F101094B45E8D1ADE7504607F04C
:103A700021FE02900028F3D04FF0000B594650462B
:103A800007F0D0FD10B13146FFF76CFC029B0BF143
:103A9000010B5B45F2D1E3E7284607F00BFE8346B6
:103AA0000028B6D000242146284607F0BBFD10B1FF
:103AB0003146FFF7E3FC0134A345F4D1A9E700BF89
:103AC00028B1436A99430CBF012000207047FEE7EC
:103AD00028B1436A194214BF012000207047FEE755
:103AE00008B1008D7047FEE728B1038D194214BF5D
:103AF000012000207047FEE718B1806800B14068DF
:103B00007047FEE720B1836810B504460BB110BDC5
:103B1000FEE734203DF094FFA06030B1438E43F4C3
:103B2000707343F00303438610BDFEE720B10068C5
:103B3000401AB0FA80F04009704700BF2DE9F04705
:103B40000F683E680C4605465EB3D6F800800E60EE
:103B5000B8F1000F1FD0D8F80090C1F80080B9F17B
:103B6000000F11D0D9F80020C1F8009022B10A60EE
:103B7000FFF7E4FFC4F80090D9F8043013B12146F0
:103B800028469847C4F80080D8F8043013B121467D
:103B9000284698472660736813B1214628469847FF
:103BA00027607B6823B121462846BDE8F0471847C7
:103BB000BDE8F08770B50D46064650B12E4C034661
:103BC00001E01B682BB11A6A14EA0200F9D0C2F3B3
:103BD0000F103DF035FF044600284AD0C0E90065CB
:103BE000ADB1AE68002E38D0318E3068013189B267
:103BF000318689003DF042FFAA683060138E12685A
:103C000003F18043013B42F82340204670BD09F098
:103C100019F9064650B3D0F8BC0218B3D6F8D8321A
:103C2000013399003DF02AFFB0B1D6F8D832C6F87A
:103C3000BC025A1C0025C6F8D82240F82340C4E92B
:103C40000555284609F00EF90138E061284609F0CB
:103C50001BF901382062D8E7FEE72846FFF752FF3C
:103C6000AE68C1E7C6F8D8520421DBE720463DF034
:103C7000FBFE0024C9E700BFF0FF0F0000285CD066
:103C8000F8B5044601F0DAFD002005F049FB2046B6
:103C900041F0B2F925682E68BEB13768266077B169
:103CA0003B6827602BB1236021462846FFF746FF7B
:103CB00027607B6813B121462846984726607368C1
:103CC00013B121462846984725606B6813B12146F9
:103CD00028469847012005F023FBFF224FF470216E
:103CE000204605F0CDFF204601F0E2FEFEF7DEFDA6
:103CF00058B1226812B908E0126832B192F8203047
:103D000013F00C03F8D0042B13D0204607F086FCE8
:103D1000054668B122462A2100F062FE2246284666
:103D20002B2100F05DFE2046BDE8F84003F0F4B81A
:103D3000F8BD2146FEF756FEE7E7704710B504468A
:103D4000006804E098472368186838B120608368E9
:103D50002146002BF6D100680028F7D110BD00BF26
:103D6000006810B90CE0006848B190F8203013F0FA
:103D70000303F8D0A3F10100B0FA80F040097047C6
:103D8000704700BF70B586B09DF828400193002AA7
:103D900039D01346926C93F84B50039209BB3CB157
:103DA00025BB0198214606B0BDE8704038F0F0BC54
:103DB000002DF6D08DF80F50039B05939DF814301D
:103DC0009DF815109DF81620204663F3070061F357
:103DD0000F209DF8173062F3174063F31F6006B0A1
:103DE00070BD06F0FBFE0390050ED8E72146019852
:103DF00038F0CEFC8DF80F500146039806B0BDE8B0
:103E0000704038F0E7BE06F067FF0390050EC6E786
:103E100070B586B0019352B31346966C93F849E09F
:103E200092F8482093F84AC093F84B40A9B97146DC
:103E3000604638F00FFDC0F30722C0F307438DF84A
:103E40000D208DF80C008DF80E3001990398224654
:103E500006B0BDE8704038F0EFBD324606F0BEFE59
:103E6000C2B2C0F3072EC0F3074C040EDFE706F022
:103E700033FFC2B2C0F3072EC0F3074C040ED6E7DF
:103E8000F0B513698BB01446C2E9000106460D4631
:103E9000002B00F0248293F84E70002949D10C22A7
:103EA0002946304605F042FA94F82E300990E06138
:103EB000002B40F0858194F82F30002B40F03E819C
:103EC00094F83030002B40F0A78094F82B30002B72
:103ED00040D194F83130002B40F0DB80FC2F26D805
:103EE00094F82E1094F82F0094F8302011FB07F16D
:103EF000C1F30721002310FB07F061F30703001251
:103F000012FB07F2121260F30F2362F3174394F8C7
:103F1000312094F82B1012FB07F211FB07F112125B
:103F2000091262F31F6384F82B10C4F82E300BB013
:103F3000F0BD622205F0FAF90990C0B207FB00F06B
:103F4000070A022FABD8002384F82B30C4F82E3098
:103F50000BB0F0BD28222946304605F0E7F909905C
:103F600020620028B5D029222946304605F0DEF926
:103F70000990C0B2022884F82B00AAD9206A0AF05E
:103F800097FE022800F0B9812A222946304605F022
:103F9000CDF9294602460790304605F001FA09900E
:103FA000ADF81800C0F307408DF81A002B222946FF
:103FB000304605F0BBF90990C0B20090069B22691B
:103FC00029463046FFF7DEFE030EC2B2C0F30721DA
:103FD000089084F82C30C0F3074038F03BFCC0F365
:103FE000072384F82800C0F3074084F82A0084F8E7
:103FF00029302C222946304605F098F909900038DE
:1040000018BF012084F82D0089222946304605F08A
:104010008DF90990A0665CE738222946304605F004
:1040200085F90990A06700283FF44FAF3A2229464E
:10403000304605F07BF90990C0B2022884F83000C0
:104040007FF643AF3B222946304605F06FF939220F
:10405000E06709902946304605F068F9294602468E
:10406000304605F09DF90990C0F307408DF8260011
:10407000099B226929463046FFF7CAFEC0F3072391
:1040800084F87500C0F3074084F8763084F8770030
:104090001BE73C222946304605F048F90990C4F850
:1040A000840000283FF41AAF94F83130022B7FF6D9
:1040B00015AF3E222946304605F038F9C3B2022B2F
:1040C000099084F831307FF609AF40222946304606
:1040D00005F02CF94122C4F88800099029463046A1
:1040E00005F024F94222C4F88C0009902946304694
:1040F00005F01CF93D22C4F890000990294630468D
:1041000005F014F9294602460990304605F048F9B1
:104110000890C0F307408DF82200089B22692946C9
:104120003046FFF775FEC0F30722C0F3074384F85B
:10413000800084F8812084F88230CFE6302229463E
:10414000304605F0F3F80990206700283FF4B8AE38
:1041500032222946304605F0E9F80990C0B202281B
:1041600084F82F007FF6ACAE34222946304605F0A5
:10417000DDF894F87430099060F3040384F8743027
:1041800031222946304605F0D1F82946024630460C
:1041900005F006F90990C0F307408DF82600099B49
:1041A000226929463046FFF733FEC0F3072384F81F
:1041B0006C00C0F3074084F86D3084F86E007FE631
:1041C0001D222946304605F0B1F80990C0B20228F8
:1041D00084F82E007FF66FAE1C222946304605F08B
:1041E000A5F8294602460290304605F0D9F8ADF808
:1041F0001C000990C0F307408DF81E00079B226940
:1042000029463046FFF704FEC0F3072384F8320046
:10421000C0F3074084F8340084F83330262229465E
:10422000304605F083F8099010B1C37A1A075DD1C2
:1042300020222946304605F079F894F84330099059
:1042400060F3030384F843301B073FF434AE638EFE
:10425000238794F8343084F83A30232229463046B4
:1042600005F064F829460246304605F099F8ADF8A5
:1042700020000990C0F307408DF82200089B2269B6
:1042800029463046FFF7C4FDC0F3072384F83D00FC
:10429000C0F3074084F83E3084F83F0021222946CD
:1042A000304605F043F8222284F83C000990294664
:1042B000304605F03BF8242284F841000990294655
:1042C000304605F033F8252284F83B000990294652
:1042D000304605F02BF8099084F84000EBE505F036
:1042E000F7F90746002D7FF42CAED8E501463022C1
:1042F00004F138003CF072FEDDE55A2229463046D2
:1043000005F014F85822606209902946304605F0FD
:104310000DF8294602460690304605F041F809900E
:10432000C0F307408DF82600099B226929463046D4
:10433000FFF76EFDC0F3072384F82800C0F30740A1
:1043400084F8293084F82A005EE600BFF0B51446F0
:1043500085B0C2E90001592206460D4604F0E6FF89
:10436000C3B2022B039084F85A3001D805B0F0BDD7
:104370002269002A6AD092F84E70002D56D1FC2F87
:1043800007D813FB07F3C3F3072384F85A30022B33
:10439000ECD929465822304604F0C8FF2946024687
:1043A0000390304604F0FCFFC0F30743ADF804006F
:1043B0008DF80630019B2269029029463046FFF7AE
:1043C00027FDC0F3072384F82C00C0F3074084F8CE
:1043D0002D3084F82E0029465B22304604F0A6FFDB
:1043E0002946606302905C22304604F09FFF294614
:1043F000206302905D22304604F098FF94F85C3010
:10440000029060F3020384F85C3029465A22304659
:1044100004F08CFF5E220346A062294630460293D8
:1044200004F084FF84F8580005B0F0BD62222946EC
:10443000304604F07BFF0390C0B200FB07F7C7F3E0
:104440000727FC2F94F85A30A1D89AE7294630461E
:1044500005F03EF90746F4E7F0B5144687B0C2E927
:104460000001442206460D4604F060FFC3B2022B51
:10447000059084F8503001D807B0F0BD2269002AB9
:104480007CD092F84E70002D68D1FC2F07D813FB1A
:1044900007F3C3F3072384F85030022BECD94FF411
:1044A0008073002206F11407C4E90D3322633846F5
:1044B00038F044F800EBD07040106064384638F0B3
:1044C00043F800EBD0704010A064452229463046E6
:1044D00004F02CFF294602460590304604F060FFA8
:1044E0004622C0F307430490ADF808002946304641
:1044F0008DF80A3004F01AFFC3B200932269029BC0
:10450000049029463046FFF73DFC030EC2B2C0F3CB
:10451000072184F84F30C0F3074038F09BF9C0F30F
:10452000072384F84C00C0F3074084F84E0084F859
:104530004D3089222946304604F0F8FE049060652B
:10454000002D99D069222946304604F0EFFE94F8F8
:10455000513060F3030384F851308DE7622229461D
:10456000304604F0E3FE0590C0B200FB07F7C7F346
:104570000727FC2F94F850308FD888E7294630461B
:1045800005F0A6F80746F4E7F0B5144685B0C2E991
:1045900000014D2206460D4604F0C8FEC3B2022BB0
:1045A000039084F83C3001D805B0F0BD2269002AA0
:1045B00062D092F84E70002D4ED1FC2F07D813FB1D
:1045C00007F3C3F3072384F83C30022BECD94822CD
:1045D0002946304604F0AAFE039020630028E3D069
:1045E0004C222946304604F0A1FE2946024603909B
:1045F000304604F0D5FEC0F30743ADF804008DF853
:104600000630019B2269029029463046FFF700FCE4
:10461000C0F3072384F82C00C0F3074084F82E0071
:1046200084F82D3049222946304604F07FFE02905E
:10463000606338BB4B222946304604F077FE94F87D
:104640003D30003818BF012060F3000360F34103E0
:1046500084F83D3005B0F0BD62222946304604F0B2
:1046600065FE0390C0B200FB07F7C7F30727FC2FD6
:1046700094F83C30A9D8A2E72946304605F028F83E
:104680000746F4E74A222946304604F04FFE0290DE
:10469000A063CFE7F0B5144685B0C2E9000150220F
:1046A00006460D4604F042FE0390206208B905B0AC
:1046B000F0BD53222946304604F038FEC3B2022B27
:1046C000039084F83A30F2D92269002A55D092F842
:1046D0004E70002D38D1FC2F45D929465222304644
:1046E00004F024FE294602460390304604F058FEAA
:1046F000C0F30743ADF804008DF80630019B226932
:10470000029029463046FFF783FBC0F3072320774A
:10471000C0F307406377A07729465422304604F05F
:1047200005FE51220346606329463046029304F099
:10473000FDFD94F83B30003818BF012060F3000302
:1047400084F83B3005B0F0BD62222946304604F0C3
:10475000EDFD0390C0B200FB07F7C7F30727FC2F5E
:1047600094F83A3005D813FB07F3C3F3072384F812
:104770003A30022BB1D805B0F0BD2946304604F0DE
:10478000A7FF0746EBE700BFF0B53C2283B0054624
:104790000E4604F0CBFD0190F0B9002438223146DA
:1047A000284604F0C3FD07460190002843D1314656
:1047B0006A22284604F0BAFD6B2207463146284695
:1047C000019704F0B3FDB842B8BF38460028C8BF0F
:1047D0002418204603B0F0BD04463E223146284648
:1047E00004F0A4FDC3B2022B0190D6D94222314677
:1047F000284604F09BFD04EBD4746410013440227D
:10480000019004443146284604F090FD41220746B9
:1048100001903146284604F089FD002FB8BF7F4241
:1048200000280190B8BF4042B842ACBF2418E41938
:1048300024EAE474B2E73A223146284604F076FDD1
:104840000190C0B20228B2D93B223146284604F07A
:104850006DFD0744BC420190B8BF3C46A7E700BFCE
:10486000A0B130B5856883B0044605B1ED6A002378
:1048700001AA1B212046019300F0B2F8A268019B17
:1048800052B1D3629D4202D103B030BDFEE7204653
:1048900002F042FB03B030BD002BF3D02046FFF7FF
:1048A00031F9A268019BECE7806800B1C06A7047EB
:1048B000806818B190F83300C0F38100704700BFE2
:1048C000F8B5044630F0F2FF20B1237E9A0710D4E9
:1048D000DB0710D42568AE6806B1083601222146F0
:1048E000304638F015FB012800D0F8BD237E9F0725
:1048F00003D50120F8BD0020F8BD2368186810B961
:104900000DE0006858B1C368002BFAD00022E260C5
:1049100021469847237EDA07EDD49807E9D4002290
:104920002146304638F0F4FA0128DED1237E99077B
:10493000DFD4206806F072FE237E064660B15A0777
:104940000AD4A3682B3B012B36D826602046FFF7FC
:10495000B7FF0128C9D1237E1F07CAD420684FF4AE
:104960000011FFF7ADF80028C3D0A368163B1E2B3B
:1049700004D81A4A22FA03F3DE07BAD4284606F00E
:1049800099FE237E43F0040307462376002670B980
:10499000AFE7284606F046FE0346204623B12360D3
:1049A000FFF78EFF0128A0D10136B742A1D0237EA8
:1049B00098073146EDD59CE720684FF48041FFF71A
:1049C0007FF80028C7D0A368163B1E2BBDD8034A2A
:1049D00022FA03F3DB07B8D5BDE700BFF19F785893
:1049E000F0B589B078B39DF81830029123F00F0329
:1049F000CDE900000024684604928DF81830039435
:104A000038F03AFA30F052FF30B19DF818309E0776
:104A100012D4DD0700F18480009DAE6806B108362F
:104A200001226946304638F073FA0128044604D161
:104A30009DF818309C070AD50124684638F024FAFE
:104A4000204609B0F0BD0124204609B0F0BD009B0E
:104A5000186810B90EE0006860B1C368002BFAD086
:104A600000220392694698479DF81830DA0757D418
:104A70009807E1D400226946304638F049FA012807
:104A80000446DAD19DF818309907D5D4009806F07D
:104A9000C5FD9DF81830044670B15A070CD4029B2E
:104AA0002B3B012B3ED868460094FFF709FF0128F5
:104AB0000446C2D19DF818301E07BDD400984FF4AB
:104AC0000011FEF7FDFF0028B6D0029B163B1E2BFF
:104AD00004D81D4A22FA03F3DC07ADD4284606F0B9
:104AE000E9FD9DF8183043F0040307468DF81830AF
:104AF000002678B9A0E7284606F094FD03466846EC
:104B00002BB10093FFF7DCFE0128044695D1013656
:104B1000B74291D09DF8183098073146EBD58BE716
:104B200000248AE700984FF48041FEF7C9FF00286F
:104B3000C0D0029B163B1E2BB5D8034A22FA03F3C2
:104B4000DF07B0D5B6E700BFF19F785810B50C4627
:104B500090B1006810B90DE0006858B1C368002B2F
:104B6000FAD00022E26021469847207EC04300F040
:104B7000010010BD012010BD0B681868EAE700BFF6
:104B800080B12DE9F04104460D4616461F46FEF75A
:104B9000B9FFA0683B46324629460830BDE8F041DF
:104BA00038F0C0B9FEE700BF8268192A05D8044B67
:104BB000D340DB0701D538F07DBA0020704700BF35
:104BC0001EDF3B0383681C3B052B01D90020704787
:104BD00038F070BA08B58368112B01D0002008BDE9
:104BE00038F068FA0028F9D0006808BD08B5836875
:104BF000122B01D0002008BD38F05CFA0028F9D053
:104C0000006808BD83681B2B00D0704710B50C46A8
:104C100038F050FA03689C42B8BF1C46046010BDCF
:104C200008B500223521FFF7DBFE002008BD00BFDC
:104C30002DE9F04F8BB0914604917022002105467A
:104C40001E4604F073FB6E2207460890002128469A
:104C500004F06CFB0446012C08904FF06F024FF0FB
:104C600000012846A246B8BF4FF0010A04F05EFBDF
:104C700001288046BB460890B8BF4FF0010817B91D
:104C8000B4F5807F3AD071220021284604F04EFB13
:104C9000722208900021284604F048FB089A0990E7
:104CA00002F0C041B1F1005F044647D004F0C041BA
:104CB000B1F1005F26D069691144AA6908912244C4
:104CC00009927EB908AB86F0010601930498CDF8ED
:104CD0000080029653465A46494637F007FB0BB010
:104CE000BDE8F08F4FF6FF720AEB0201C7F1000B2F
:104CF0004244B1FBFAFAB2FBF8F8E3E7B0F5807F83
:104D0000C1D1ECE724F0C0416FF060408142D2D0C5
:104D1000B1F1805FA4BF6FF07042511A05F1140029
:104D2000059137F011FC0599134A01FB00F082FB55
:104D30000012C017C0EB6214089ABCE722F0C04111
:104D40006FF060408142B1D0B1F1805FA4BF6FF0DD
:104D50007042511A05F11400059137F0EFFB0599E7
:104D6000054A099C01FB00F082FB0012C017C0EB52
:104D7000621208929AE700BF1F85EB51F0B50D460D
:104D8000D1E9021389B02A686E68009201330131BB
:104D9000CDE90223CDE90613049101960596044658
:104DA00000284DD02046FFF783FD022820463BD047
:104DB00006F034FC04460028F4D1069C0498029ABC
:104DC000009F079BDDF814E0DDF80CC0019E8442D3
:104DD0002146A8BF01468442B8BF04467345184621
:104DE000A8BF70467345B8BF73466045A8BF60460C
:104DF0006345B8BF6346B042A8BF3046B342B8BFB0
:104E00003346BA42EB601346A8BF3B46BA42B8BF2E
:104E10003A468B42A8BF0B46A242B8BF2246686002
:104E20002B60AA6009B0F0BD002304226946FFF799
:104E3000FFFE204606F0F2FB04460028B2D1BCE794
:104E4000B6469C460C461746C8E700BFF0B512228E
:104E500083B00021044604F069FA3022064600219E
:104E60002046019604F062FA3422054601900021A2
:104E7000204604F05BFA0021420701904FF0130234
:104E8000204648BF761904F051FA302205460190B9
:104E90000021204604F04AFA3422074601900021FE
:104EA000204604F043FA0307019004F1140048BFC0
:104EB000ED1937F043FB801B401B03B0F0BD00BF72
:104EC000F0B5102283B00021044604F02FFA3022FE
:104ED000064600212046019604F028FA34220546B1
:104EE00001900021204604F021FA00218207019060
:104EF0004FF01102204648BF761904F017FA30220D
:104F0000054601900021204604F010FA342207469D
:104F100001900021204604F009FAC307019004F132
:104F2000140048BFED1937F00FFB801B401B03B086
:104F3000F0BD00BFF0B50D46D0E90736D0E9051247
:104F400083B085E84E0012220021044604F0EEF9F9
:104F50003022064601900021204604F0E7F9342271
:104F6000074601900021204604F0E0F92B680190EB
:104F7000400748BFF61933442B6013220021204616
:104F800004F0D4F93022064601900021204604F0B6
:104F9000CDF90021074601903422204604F0C6F9DD
:104FA000AB680190010748BFF6199B1BAB6010224C
:104FB0000021204604F0BAF9302206460190002173
:104FC000204604F0B3F93422074601900021204620
:104FD00004F0ACF96B680190820748BFF6193344BE
:104FE0006B6011220021204604F0A0F93022064611
:104FF00001900021204604F099F93422074600214F
:105000002046019704F092F9C307EB6848BFF619F0
:105010009B1BEB6003B0F0BD2DE9F04F6FF04047F4
:1050200087B0B942054600923FD001F0C043B3F1CA
:10503000005F0C4603D0204607B0BDE8F08F21F09A
:10504000C0466FF060439E42F5D006F0E7FA90F854
:105050002B1011F00808044607D10222414604F043
:1050600065F9B842049000F0CB802046FFF728FF96
:10507000B6F1805FA4BF6FF070439E1B884B06FBA8
:1050800000F083FB0023C417182200212846C4EB3C
:10509000631404F04BF919220646002128460496B1
:1050A00004F044F90644A41BC5E71468002CC2DAD6
:1050B00002F012FEAB6806460BB100225A621022C3
:1050C0000021284604F032F930220490019000219A
:1050D0000746284604F02AF93422049004460021A9
:1050E000284604F023F90490800700F185801122FE
:1050F0000021284604F01AF930228146049000214C
:10510000284604F013F9002104460490342228466E
:1051100004F00CF9DFF890A1C10704AA4FF03401A4
:1051200028464FF0000B48BFA144CDE904ABFFF780
:1051300057FC059C019B28461C4406F0BBFA4C44D6
:105140000746002800F0A680CDE90269DFF858B1D3
:10515000DFF858A14FF0000803E008F101084745C7
:105160003AD0AB681B6853F8286051463046FEF7CA
:10517000AFFC0028F1D14B493046FEF7A9FC81462F
:1051800050B9304606F04AFA30B14946162204F0CA
:10519000CDF8049080B240B90A220021304604F0D4
:1051A000C5F810F0FC0F04905AD1336AAA699B1A13
:1051B00003F1010919220021304604F0B7F80490E8
:1051C00048445845C9DB30461922002104F0AEF8A6
:1051D000049009EB000BC0E7AA68DDE902690AB197
:1051E00073425362304B9B4503D0CB445C45B8BF00
:1051F0005C46009B1C601EE73B462344019376E718
:1052000010224146284604F091F8302206464146D5
:105210000490284604F08AF834220446414604905B
:10522000284604F083F80021820704904FF0110211
:10523000284648BF361904F079F830220446002188
:105240000490284604F072F83422074600212846CC
:10525000049704F06BF8C30748BFE4193444EAE646
:1052600009220021304604F061F88146049010B113
:10527000DFF834909EE706F1140037F065F9019BE2
:105280004946182200EB0309304604F04FF8049019
:1052900081448FE7AB68002BABD077425F62A8E711
:1052A0001F85EB5101000600010000E00100040031
:1052B0002DE9F04F6FF04046B14287B005463FD030
:1052C00001F0C043B3F1005F0C4603D0204607B0A5
:1052D000BDE8F08F21F0C0476FF060439F42F5D0EA
:1052E00006F09CF990F82B1011F01008044607D135
:1052F0000122414604F01AF8B042049000F0EC801C
:105300002046FFF7A3FDB7F1805FA4BF6FF07043A5
:10531000DF1BB44B07FB00F083FB0023C4171A22EA
:1053200000212846C4EB631404F000F81B22064653
:1053300000212846049603F0F9FF0644A41BC5E7A4
:105340001468002C9046C1DA02F0C0FCAB680290F1
:105350000BB100221A6213220021284603F0E6FF57
:1053600030220490009000210646284603F0DEFF1C
:105370003422049004460021284603F0D7FF030797
:10538000049002D53346234400931222002128467C
:1053900003F0CCFF302204900190002106462846FD
:1053A00003F0C4FF3422049004460021284603F091
:1053B000BDFF470700F185808B4F04AA34212846A2
:1053C0000026CDE90467FFF70BFB019B049C1C44FE
:1053D000009B28461C4406F06DF9272281460021D7
:1053E000284603F0A3FF0490C0B2012800F0A48077
:1053F000B9F1000F69D0DFF8F0B1DFF8F4A1039440
:105400000027AB681B6853F8274051462046FEF73B
:105410005FFBE8B975492046FEF75AFB064670BBAC
:10542000204606F0FBF850B33146162203F07EFF0B
:10543000049080B218B3E6696B69F61A01361B2234
:105440000021204603F072FF0490304458452FDAC3
:105450000137B945D5D1644B039C9B4535D0009AA3
:105460005A44A96811B1029B5B420B625E4B9A429F
:1054700002D09442B8BF1446C8F8004026E70A227A
:105480000021204603F052FF0490C0B2072803D841
:105490009323C340D907CED408220021204603F02D
:1054A00045FF06460490002800F0AE804E4EC6E749
:1054B00020461B22002103F039FF049006EB000B6D
:1054C000C6E733462344019376E7AB68002BD3D07D
:1054D000029A52421A62CFE712224146284603F04E
:1054E00025FF3022064641460490284603F01EFF61
:1054F0003422044641460490284603F017FF002159
:10550000420704904FF01302284648BF361903F0B3
:105510000DFF3022044600210490284603F006FFC8
:105520003422074600212846049703F0FFFE0307B4
:1055300048BFE4193444C9E6B9F1000FC5D02A4A7E
:10554000DFF8ACB003940027924602E00137B9457A
:105550003ED0AB681B6853F8274059462046FEF7FB
:10556000B7FA0028F2D121492046FEF7B1FA0646E3
:1055700050B9204606F052F830B13146162203F0F9
:10558000D5FE049080B268B90A220021204603F0BB
:10559000CDFE0490C0B208282CD840F24913C34075
:1055A000D80727D5EE696369F61A01361A22002159
:1055B000204603F0BBFE049030445045C6DB204635
:1055C0001A22002103F0B2FE049006EB000ABDE7A8
:1055D000054B039C9A4552463FF477AF019B1A4412
:1055E0003FE700BF1F85EB51010000E0010006000E
:1055F0000100040008220021204603F097FE064621
:10560000049078B10E4ED1E704F1140036F096FF05
:10561000019B31461B22C618204603F087FE0490EA
:1056200006440CE704F1140036F088FF009B314675
:105630001A22C618204603F079FE04900644B5E706
:10564000010000E008B370B582B00D461646002395
:1056500001AA0821044603F081FE012816D020B9D2
:1056600000222946204605F04BFC002301AA09210F
:10567000204603F073FE01280CD020B900223146E9
:10568000204605F045FC02B070BDFEE7019B9D423F
:10569000E6D1EAE7019B9E42F0D1F4E790B130B544
:1056A00083B00D46002301AA0821044603F056FEEC
:1056B000012808D020B900222946204605F020FC08
:1056C00003B030BDFEE7019BAB42F4D1F8E700BF69
:1056D00090B130B583B00D46002301AA09210446DC
:1056E00003F03CFE012808D020B9002229462046BC
:1056F00005F00EFC03B030BDFEE7019BAB42F4D1D8
:10570000F8E700BF08B370B582B00D461646002317
:1057100001AA0121044603F021FE012816D020B978
:1057200000222946204605F0D3FB002301AA0221CE
:10573000204603F013FE01280CD020B90022314688
:10574000204605F0D5FB02B070BDFEE7019B9D42EF
:10575000E6D1EAE7019B9E42F0D1F4E790B130B583
:1057600083B00D46002301AA0121044603F0F6FD93
:10577000012808D020B900222946204605F0A8FBC0
:1057800003B030BDFEE7019BAB42F4D1F8E700BFA8
:1057900090B130B583B00D46002301AA0221044622
:1057A00003F0DCFD012808D020B90022294620465C
:1057B00005F09EFB03B030BDFEE7019BAB42F4D188
:1057C000F8E700BFE0B110B5044689B2002205F049
:1057D000E3FB94F82A3043F0010384F82A30204692
:1057E00005F0EAFE90F82A2042F0040280F82A2010
:1057F00005F0EAFEBDE810400022392107F076BD31
:10580000FEE700BF30B50C4983B00546FEF760F9EE
:1058100010B1002003B030BD0446284605F0FEFE5E
:105820000028F6D01622214603F080FD80B2003811
:1058300018BF012003B030BD0100060090F82A20F7
:1058400042F0010208B580F82A2005F0B5FE90F874
:105850002A2042F0040280F82A2005F0B5FEBDE8B7
:1058600008400022392107F041BD00BF08B505F00E
:10587000A3FE90F82A3043F0080380F82A3008BDD0
:10588000002205F04DBB00BF70B5044682B015463E
:1058900000221E4605F044FBECB1002301AA0821BA
:1058A000204603F05BFD012816D020B900222946CE
:1058B000204605F025FB002301AA0921204603F01C
:1058C0004DFD01280CD020B900223146204605F0BC
:1058D0001FFB02B070BDFEE7019B9D42E6D1EAE7E7
:1058E000019B9E42F0D1F4E758B110B4D0E90542D3
:1058F000D0E90730C1E90042C8605DF8044B8B6015
:105900007047FEE728B3F0B583B0044605F086FE85
:105910000546F8B143696469E41A02F0D7F9122226
:1059200004440021284603F001FD30220646019080
:105930000021284603F0FAFC3422074600212846BD
:10594000019703F0F3FC430748BFF619A01B03B00F
:10595000F0BDFEE7606903B0F0BD00BF28B3F0B54D
:1059600083B0044605F05AFE0546F8B18369A46980
:10597000E41A02F0B1F9102204440021284603F091
:10598000D5FC3022064601900021284603F0CEFCCB
:105990003422074600212846019703F0C7FC8307FD
:1059A00048BFF619A01B03B0F0BDFEE7A06903B025
:1059B000F0BD00BF70B32DE9F04182B0044605F0A0
:1059C0002DFE054638B3A36982699F1A02F084F957
:1059D000102207440021284603F0A8FC3022064686
:1059E00001900021284603F0A1FC342280460021CA
:1059F0002846CDF8048003F099FC830748BF46444D
:105A00000190BE1B04F1140036F09EFD304402B03C
:105A1000BDE8F081FEE7A669F4E700BF00B5092202
:105A200083B0002103F082FC03B05DF804FB00BFEB
:105A300010B1143036F082BDFEE700BF10B1143053
:105A400036F082BDFEE700BF08B1FFF7FFB9FEE701
:105A500008B1FFF735BAFEE708B1FFF76BBAFEE70A
:105A600000B59FED077B83B06A4634218DED007B46
:105A7000FEF7B6FF009803B05DF804FBAFF30080BB
:105A800000000000010000E000B59FED077B83B03F
:105A90006A4634218DED007BFEF7A2FF019803B02A
:105AA0005DF804FBAFF30080010000E0000000009F
:105AB00030B5012283B00021044603F037FC0222F6
:105AC000054600212046019503F030FC6FF040436D
:105AD0009D42019001D0984217D194F82A3043F0AA
