:020000040800F2
:10000000000002209D1D0008BD1B0008C51B000844
:10001000CD1B0008D51B0008DD1B000800000000F8
:10002000000000000000000000000000E51B0008C8
:10003000F31B000800000000011C00080F1C000852
:10004000ED1D0008ED1D0008ED1D0008ED1D000868
:10005000ED1D0008ED1D0008ED1D0008ED1D000858
:10006000ED1D0008ED1D0008ED1D0008ED1D000848
:10007000ED1D0008ED1D0008ED1D0008ED1D000838
:10008000ED1D0008ED1D0008ED1D0008ED1D000828
:10009000ED1D00081D1C0008ED1D0008ED1D0008E9
:1000A000ED1D0008ED1D0008ED1D0008ED1D000808
:1000B000311C0008ED1D0008ED1D0008ED1D0008B5
:1000C000ED1D0008ED1D0008ED1D0008ED1D0008E8
:1000D000451C0008591C00086D1C0008811C000804
:1000E000ED1D0008ED1D0008ED1D0008ED1D0008C8
:1000F000ED1D0008ED1D0008ED1D0008ED1D0008B8
:10010000ED1D0008951C0008ED1D0008ED1D000800
:10011000A91C0008ED1D0008ED1D0008ED1D0008DC
:10012000ED1D0008ED1D0008ED1D0008BD1C0008B8
:10013000ED1D0008ED1D0008ED1D0008ED1D000877
:10014000ED1D0008ED1D0008ED1D0008D11C000884
:10015000ED1D0008E51C0008ED1D0008F91C000855
:10016000ED1D0008ED1D0008ED1D0008ED1D000847
:10017000ED1D0008ED1D0008ED1D00080000000049
:08018000ED1D0008ED1D000853
:1001900010B5054C237833B9044B13B10448AFF3C1
:1001A00000800123237010BD6000002000000000CB
:1001B000740A010808B5034B1BB103490348AFF3A8
:1001C000008008BD0000000064000020740A0108DF
:1001D000034613F8012B002AFBD1181A0138704787
:1001E00001F0FF01102A2BDB10F0070F08D010F8E8
:1001F000013B013A8B422DD010F0070F42B3F6D1EC
:10020000F0B441EA012141EA014122F007047FF004
:1002100000070023F0E80256083C85EA010586EA5B
:10022000010685FA47F5A3FA87F586FA47F6A5FA97
:1002300087F68EB9EED1F0BC01F0FF0102F00702A3
:1002400032B110F8013B013A83EA010313B1F8D14E
:100250000020704701387047002D06BF354603382F
:10026000073815F0010F07D1013015F4807F02BF68
:10027000013015F4C03F0130F0BC0138704700BFB9
:1002800053B94AB9002908BF00281CBF4FF0FF31FD
:100290004FF0FF3000F088B9ADF1080C6DE904CEE5
:1002A00000F006F8DDF804E0DDE9022304B0704751
:1002B0002DE9F047089D8E4604468846002B4AD11A
:1002C0008A42174662D9B2FA82F64EB1C6F12003CD
:1002D00001FA06F820FA03F3B74043EA0808B440ED
:1002E0004FEA174E1FFA87FCB8FBFEF1230C0EFBFA
:1002F000118843EA084301FB0CF29A4209D9FB1822
:1003000001F1FF3080F0EA809A4240F2E780023942
:100310003B449A1AA3B2B2FBFEF00EFB102243EA52
:10032000024300FB0CFC9C4509D9FB1800F1FF328D
:1003300080F0D6809C4540F2D3803B44023840EAAE
:100340000140A3EB0C0300211DB1F3400022C5E9DD
:100350000032BDE8F0878B4205D90DB1C5E9000137
:1003600000210846F5E7B3FA83F1002946D1734529
:1003700002D3824200F20581841A6EEB030201204F
:100380009046002DE5D0C5E90048E2E7002A00F0DC
:100390009080B2FA82F6002E40F0A4808A1A030CF4
:1003A0004FEA174E80B2BCB20121B2FBFEFC0EFB3D
:1003B0001C2243EA024304FB0CF29A4207D9FB18C1
:1003C0000CF1FF3802D29A4200F2E080C4469B1A38
:1003D000B3FBFEF20EFB123340EA034302FB04F4CC
:1003E0009C4207D9FB1802F1FF3002D29C4200F276
:1003F000CA8002461B1B42EA0C40A5E7C1F1200659
:100400008B4022FA06F71F430EFA01F420FA06F396
:100410002EFA06FE4FEA1749234300FA01F81FFAA5
:1004200087FCBEFBF9F01C0C09FB10EE44EA0E44FD
:1004300000FB0CFEA64502FA01F209D93C1900F1B5
:10044000FF3A80F09C80A64540F2998002383C44F7
:10045000A4EB0E041FFA83FEB4FBF9F309FB13446B
:100460004EEA044403FB0CFCA44508D93C1903F1F3
:10047000FF3E80F08280A4457FD9023B3C4443EAA2
:100480000040A4EB0C04A0FB02EC64457346E1467B
:1004900062D35FD05DB1B8EB030264EB090404FAE8
:1004A00006F622FA01F31E43CC40C5E900640021A0
:1004B0004FE7B1FBF2FC010C41EA0E4180B240EA89
:1004C00001423B4638463C46B846BE462026B1FB74
:1004D000F7F1A2EB080241EA0C4166E7014618E792
:1004E00010462CE7C6F120022EFA02F3B740B140C5
:1004F00020FA02F24FEA174E0A43B3FBFEF8BCB2F1
:100500000EFB1833110C41EA034108FB04F9B0401B
:1005100089454FEA104380B23ED9791808F1FF3C73
:1005200001D289451FD8A1EB0901B1FBFEF909FBF6
:1005300004F80EFB191192B242EA0142424529D257
:10054000BA1809F1FF31C4D24245C2D2A9F1020161
:100550003A44BEE7F0459DD2BEEB02036CEB070CBC
:100560000138E14696E7A7EB09094944A8F1020CD6
:10057000B1FBFEF909FB04F8DBE773467FE7504661
:1005800066E70846FDE63B44023A33E7ACF1020C6D
:100590003B441CE749469CE7A1EB0901C446B1FB7B
:1005A000FEF909FB04F8C4E7704700BF80B582B0CC
:1005B00002AF04F059F900F055F800F061FC00F0CA
:1005C00037FC00F0B9F800F009F900F059F900F033
:1005D000A1F900F0E1F900F089FA00F057FB00F012
:1005E0007FFB00F0A7FB00F0CFFB00F0F7FB00F073
:1005F00015FA00F0B1FA0EF025F800F061FD00F0F8
:10060000F9F900F073F900F0F5FA4FF4FA7004F01C
:100610009DF901F03DFD602003F082FC4FF6FF7074
:1006200003F044FD03F022FD0D4B202200210120A8
:1006300003F04AFE4FF4FA6004F088F94FF478436F
:1006400000939623C8223221322003F05FFF4FF43B
:10065000FC626421642003F099FE00BFFDE700BF47
:100660008C0A010880B594B000AF07F12003302256
:10067000002118460FF02EFE07F10C0300221A602D
:100680005A609A60DA601A610023BB60284B1B6CC9
:10069000274A43F080531364254B1B6C03F08053AF
:1006A000BB60BB6800237B60224B1B68214A43F47C
:1006B000804313601F4B1B6803F480437B607B689F
:1006C00005233B624FF480337B620123BB6202232C
:1006D000BB634FF48003FB6304233B6448237B64C8
:1006E0000223BB640323FB6407F12003184607F0D1
:1006F000E1FF0346002B01D000F05CFD0F23FB60FF
:1007000002233B6100237B614FF48053BB610023D4
:10071000FB6107F10C030221184608F043FA034677
:10072000002B01D000F046FD00BF5037BD4680BD14
:10073000003802400070004080B584B000AF3B46F6
:1007400000221A605A609A60DA60214B214A1A60CE
:100750001F4B4FF480325A601D4B00229A601C4B95
:1007600001221A611A4B01221A76194B002283F8D2
:100770002020174B0022DA62154B174A9A62144B5D
:100780000022DA60124B0122DA61114B002283F859
:1007900030200F4B01225A610D4804F0FBF803464C
:1007A000002B01D000F006FD0C233B6001237B6091
:1007B0000623BB603B461946054804F02FF9034663
:1007C000002B01D000F0F6FC00BF1037BD4680BD05
:1007D0007C000020002001400100000F80B584B0A3
:1007E00000AF3B4600221A605A609A60DA60214BE3
:1007F000214A1A601F4B4FF480325A601D4B002271
:100800009A601C4B01221A611A4B00221A76194B6E
:10081000002283F82020174B0022DA62154B174A7A
:100820009A62144B0022DA60124B0122DA61114BFA
:10083000002283F830200F4B01225A610D4804F04A
:10084000A9F80346002B01D000F0B4FC0D233B6057
:1008500001237B600623BB603B461946054804F034
:10086000DDF80346002B01D000F0A4FC00BF1037D8
:10087000BD4680BDC4000020002101400100000FE2
:1008800080B500AF174B184A1A60164B09225A6000
:10089000144B00229A60134B0022DA60114B4FF484
:1008A000C0221A610F4B4FF4E0025A610D4B002237
:1008B0001A760C4B00225A760A4B00229A76094B84
:1008C0000022DA76074B00221A77064B00225A776D
:1008D000044804F0C1FA0346002B01D000F06AFC82
:1008E00000BF80BD0C0100200064004080B500AF57
:1008F000064B074A1A60054805F00BF80346002B23
:1009000001D000F057FC00BF80BD00BF34010020C3
:100910000030024080B582B000AF3B4600221A6032
:100920005A601B4B1B4A1A60194805F00EF8034623
:10093000002B01D000F03EFC00233B6000237B60D5
:100940003B4600221946124805F021F80346002BC9
:1009500001D000F02FFC2C233B603B4610221946AF
:100960000B4805F014F80346002B01D000F022FCE0
:100970004FF430621021064805F062F80346002B60
:1009800001D000F017FC00BF0837BD4680BD00BF96
:100990003C0100200074004080B500AF124B134AA8
:1009A0001A60114B124A5A600F4B00229A600E4B8C
:1009B0000022DA600C4B4FF480421A610A4B00228D
:1009C0005A61094B00229A61074B0022DA61064BFB
:1009D00000221A62044807F029FD0346002B01D0CB
:1009E00000F0E8FB00BF80BD50010020005800402F
:1009F000801A060080B500AF064B074A1A6005480A
:100A000008F0D2FB0346002B01D000F0D3FB00BF5F
:100A100080BD00BFA40100200008065080B586B04C
:100A200000AF3B1D00221A605A609A60DA601A61BA
:100A300000233B602B4B2C4A1A602A4B00225A6041
:100A4000284B7F229A60274BFF22DA60254B002239
:100A50001A61244B00225A61224B00229A612148DC
:100A600008F0CCFB0346002B01D000F0A3FB0021D3
:100A70001C4808F01DFE034645F2500293422DD05B
:100A800045F250020021174808F0F8FD00233B71A1
:100A900000237B710023BB7100233B6100237B613A
:100AA0003B1D012219460F4808F029FC0346002B84
:100AB00001D000F07FFB01233B7001237B700123F9
:100AC000BB702223FB703B4601221946054808F003
:100AD000B0FC0346002B01D000F06CFB00BF1837C0
:100AE000BD4680BDB40100200028004080B500AFA5
:100AF000174B184A1A60164B4FF482725A60144B07
:100B000000229A60124B0022DA60114B02221A6115
:100B10000F4B01225A610E4B4FF400729A610C4B3D
:100B20000022DA610A4B00221A62094B00225A6243
:100B3000074B00229A62064B0A22DA6204480AF046
:100B40000DFA0346002B01D000F034FB00BF80BD3E
:100B5000180300200038004080B586B000AF07F1D0
:100B6000080300221A605A609A60DA603B4600224D
:100B70001A605A601E4B4FF080421A601C4B41F6BF
:100B80001F425A601A4B00229A60194B40F2E7321A
:100B9000DA60174B00221A61154B00229A61144843
:100BA0000AF08FFC0346002B01D000F003FB4FF44A
:100BB0008053BB6007F1080319460D480AF0C0FDD9
:100BC0000346002B01D000F0F5FA00233B60002320
:100BD0007B603B46194606480AF0E2FF0346002BBD
:100BE00001D000F0E7FA00BF1837BD4680BD00BF56
:100BF0007006002080B586B000AF07F10803002220
:100C00001A605A609A60DA603B4600221A605A60A5
:100C10001C4B1D4A1A601B4B03225A60194B0022C1
:100C20009A60184B0622DA60164B00221A61154BA7
:100C300000229A6113480AF044FC0346002B01D0BD
:100C400000F0B8FA4FF48053BB6007F1080319466F
:100C50000C480AF075FD0346002B01D000F0AAFAFB
:100C600020233B6000237B603B46194605480AF081
:100C700097FF0346002B01D000F09CFA00BF183705
:100C8000BD4680BD700300200008004080B500AF65
:100C9000114B124A1A60104B4FF4E1325A600E4B5E
:100CA00000229A600C4B0022DA600B4B00221A6182
:100CB000094B0C225A61084B00229A61064B002214
:100CC000DA6105480AF0FCFF0346002B01D000F072
:100CD00071FA00BF80BD00BFB8030020004C004087
:100CE00080B500AF114B124A1A60104B4FF4E1323D
:100CF0005A600E4B00229A600C4B0022DA600B4BBC
:100D000000221A61094B0C225A61084B00229A6199
:100D1000064B0022DA6105480AF0D2FF0346002B99
:100D200001D000F047FA00BF80BD00BF00040020E2
:100D30000010014080B500AF114B124A1A60104BF1
:100D40004FF4E1325A600E4B00229A600C4B0022A5
:100D5000DA600B4B00221A61094B0C225A61084BD6
:100D600000229A61064B0022DA6105480AF0A8FFCA
:100D70000346002B01D000F01DFA00BF80BD00BF6C
:100D8000480400200044004080B500AF114B124AD7
:100D90001A60104B4FF4E1325A600E4B00229A60F9
:100DA0000C4B0022DA600B4B00221A61094B0C221B
:100DB0005A61084B00229A61064B0022DA6105480D
:100DC0000AF07EFF0346002B01D000F0F3F900BFCC
:100DD00080BD00BF900400200048004080B500AFF7
:100DE000114B124A1A60104B4FF416525A600E4BB8
:100DF00000229A600C4B0022DA600B4B00221A6131
:100E0000094B0C225A61084B00229A61064B0022C2
:100E1000DA6105480AF054FF0346002B01D000F0C8
:100E2000C9F900BF80BD00BFD804002000140140F4
:100E300080B582B000AF00237B60104B1B6B0F4A64
:100E400043F4800313630D4B1B6B03F480037B603F
:100E50007B68002202213B2004F025FD3B2004F0AA
:100E60003EFD00220221452004F01DFD452004F036
:100E700036FD00BF0837BD4680BD00BF00380240C8
:100E800080B58EB000AF07F1240300221A605A60CB
:100E90009A60DA601A6100233B62824B1B6B814AC5
:100EA00043F0040313637F4B1B6B03F004033B62AB
:100EB0003B6A0023FB617B4B1B6B7A4A43F02003A8
:100EC0001363784B1B6B03F02003FB61FB6900236A
:100ED000BB61744B1B6B734A43F080031363714B0C
:100EE0001B6B03F08003BB61BB6900237B616D4B0F
:100EF0001B6B6C4A43F0010313636A4B1B6B03F0DB
:100F000001037B617B6900233B61664B1B6B654A78
:100F100043F002031363634B1B6B03F002033B615B
:100F20003B690023FB605F4B1B6B5E4A43F0400351
:100F300013635C4B1B6B03F04003FB60FB680023F7
:100F4000BB60584B1B6B574A43F010031363554B60
:100F50001B6B03F01003BB60BB6800237B60514B2D
:100F60001B6B504A43F0080313634E4B1B6B03F09B
:100F700008037B607B6801224FF400514A4805F06A
:100F8000CBFA01228021494805F0C6FA012241F23C
:100F9000C201474805F0C0FA012248F2DF01454886
:100FA00005F0BAFA01220821434805F0B5FA0022FB
:100FB00020213F4805F0B0FA4FF400537B62012333
:100FC000BB620123FB6200233B6307F12403194644
:100FD000354805F0EDF880237B620123BB620123D5
:100FE000FB6203233B6307F1240319462F4805F0F6
:100FF000DFF841F2E2037B620123BB620123FB6263
:1010000003233B6307F124031946294805F0D0F870
:101010004FF470437B620023BB620123FB6207F144
:1010200024031946254805F0C3F803237B621123E6
:10103000BB620023FB6203233B6307F124031946D1
:101040001C4805F0B5F848F2DC037B620123BB6263
:101050000123FB6203233B6307F124031946154870
:1010600005F0A6F842F220037B620023BB62012355
:10107000FB6207F1240319460E4805F099F808238E
:101080007B620123BB620123FB6203233B6307F105
:1010900024031946084805F08BF800BF3837BD46D1
:1010A00080BD00BF0038024000080240000002403E
:1010B0000004024000180240000C024000140240EC
:1010C00080B58EB000AF07F11C0300221A605A6091
:1010D0009A60DA601A615A619A613B4600221A608E
:1010E0005A609A60DA601A615A619A612F4B4FF028
:1010F00020421A602D4B2E4A5A602C4B00229A60D7
:101100002A4B0022DA60294B00221A61274B102259
:101110005A61264B00229A61244B0022DA61234B4C
:1011200000221A62214B00225A62204B4FF4805257
:101130009A621E4B0022DA621C4B4FF480421A6303
:101140001A4B00225A63194B00229A63174B002254
:101150005A640F23FB610F233B623C237B62002315
:10116000BB621023FB6211233B6300237B630923D3
:101170003B600F237B600123BB600023FB601023D7
:101180003B6111237B610023BB613A4607F11C03DD
:10119000194606480AF08AF80346002B01D000F0F1
:1011A00009F800BF3837BD4680BD00BF20050020CC
:1011B000040100A080B400AF72B600BF00BFFDE71D
:1011C00080B483B000AF00237B60104B5B6C0F4A90
:1011D00043F4804353640D4B5B6C03F480437B60AA
:1011E0007B6800233B60094B1B6C084A43F080532B
:1011F0001364064B1B6C03F080533B603B6800BFDD
:101200000C37BD465DF8047B704700BF00380240D4
:1012100080B58CB000AF786007F11C0300221A6023
:101220005A609A60DA601A617B681B682E4A9342A2
:1012300028D10023BB612D4B5B6C2C4A43F4807397
:1012400053642A4B5B6C03F48073BB61BB6900235E
:101250007B61264B1B6B254A43F004031363234B2E
:101260001B6B03F004037B617B690423FB61032395
:101270003B6200237B6207F11C0319461C4804F003
:1012800097FF2CE07B681B681A4A934227D1002302
:101290003B61164B5B6C154A43F400735364134B6C
:1012A0005B6C03F400733B613B690023FB600F4BF5
:1012B0001B6B0E4A43F0040313630C4B1B6B03F0D0
:1012C0000403FB60FB680823FB6103233B620023EC
:1012D0007B6207F11C031946054804F069FF00BF53
:1012E0003037BD4680BD00BF0020014000380240BD
:1012F000000802400021014080B58AB000AF78604C
:1013000007F1140300221A605A609A60DA601A61C9
:101310007B681B681D4A934234D100233B611C4B00
:101320001B6C1B4A43F000731364194B1B6C03F0D6
:1013300000733B613B690023FB60154B1B6B144A38
:1013400043F002031363124B1B6B03F00203FB60B9
:10135000FB684FF440737B610223BB610023FB6198
:1013600003233B6209237B6207F1140319460948F2
:1013700004F01EFF00220021152004F094FA15202D
:1013800004F0ADFA00BF2837BD4680BD00640040C0
:10139000003802400004024080B485B000AF78609D
:1013A0007B681B680B4A93420DD10023FB600A4BFC
:1013B0001B6B094A43F480531363074B1B6B03F405
:1013C0008053FB60FB6800BF1437BD465DF8047BAB
:1013D000704700BF003002400038024080B58AB03C
:1013E00000AF786007F1140300221A605A609A6017
:1013F000DA601A617B681B68174A934227D1002381
:101400003B61164B1B6C154A43F000531364134B9E
:101410001B6C03F000533B613B690023FB600F4BE7
:101420001B6B0E4A43F0010313630C4B1B6B03F061
:101430000103FB60FB6830237B610323BB61002356
:10144000FB6107F114031946054804F0B1FE00BF23
:101450002837BD4680BD00BF007400400038024000
:101460000000024080B58AB000AF786007F1140335
:1014700000221A605A609A60DA601A617B681B6801
:10148000194A93422BD100233B61184B1B6B174A1F
:1014900043F020031363154B1B6B03F020033B61E8
:1014A0003B6903237B611223BB610023FB610323A0
:1014B0003B6204237B6207F1140319460C4804F0D5
:1014C00077FE0023FB60094B1B6C084A43F4800342
:1014D0001364064B1B6C03F48003FB60FB6800BFC6
:1014E0002837BD4680BD00BF00580040003802408C
:1014F0000014024080B485B000AF78607B681B6840
:101500000B4A93420DD10023FB600A4B5B6B094AE7
:1015100043F040035363074B5B6B03F04003FB60F6
:10152000FB6800BF1437BD465DF8047B704700BF01
:10153000000806500038024080B586B000AF7860E1
:1015400007F1080300221A605A609A60DA607B682B
:101550001B680C4A934211D10223BB604FF4807385
:101560007B6107F10803184607F03CFD0346002B9A
:1015700001D0FFF71FFE044B01221A6000BF18378D
:10158000BD4680BD002800403C0E474280B58AB071
:1015900000AF786007F1140300221A605A609A6065
:1015A000DA601A617B681B68684A934240F0C98020
:1015B00000233B61664B5B6C654A43F400635364F4
:1015C000634B5B6C03F400633B613B690023FB608E
:1015D0005F4B1B6B5E4A43F0040313635C4B1B6B56
:1015E00003F00403FB60FB680023BB60584B1B6BDC
:1015F000574A43F008031363554B1B6B03F0080372
:10160000BB60BB684FF4F8537B610223BB610023CE
:10161000FB6103233B620C237B6207F11403194631
:101620004C4804F0C5FD04237B610223BB61002309
:10163000FB6103233B620C237B6207F11403194611
:10164000454804F0B5FD454B454A1A60434B4FF001
:1016500000625A60414B00229A60404B0022DA60DF
:101660003E4B4FF480621A613C4B4FF480525A61FA
:101670003A4B4FF480429A61384B2022DA61374B63
:1016800000221A62354B04225A62344B03229A62BA
:10169000324B4FF40002DA62304B4FF400121A63FF
:1016A0002E4804F009FA0346002B01D0FFF782FD13
:1016B0007B682A4A1A64294A7B689363294B2A4A21
:1016C0001A60284B4FF000625A60264B40229A6005
:1016D000244B0022DA60234B4FF480621A61214BC5
:1016E0004FF480525A611F4B4FF480429A611D4B58
:1016F0002022DA611B4B00221A621A4B04225A6222
:10170000184B03229A62174B4FF40002DA62154B12
:101710004FF400121A63134804F0CEF90346002B6D
:1017200001D0FFF747FD7B680E4ADA630D4A7B68FC
:10173000936300220121312004F0B5F8312004F038
:10174000CEF800BF2837BD4680BD00BF002C014049
:101750000038024000080240000C024058020020FD
:1017600058640240B8020020A064024080B58AB0EC
:1017700000AF786007F1140300221A605A609A6083
:10178000DA601A617B681B681D4A934234D10023DA
:101790003B611C4B1B6C1B4A43F480431364194B85
:1017A0001B6C03F480433B613B690023FB60154BDA
:1017B0001B6B144A43F002031363124B1B6B03F0C1
:1017C0000203FB60FB684FF460437B610223BB6153
:1017D0000023FB6103233B6205237B6207F11403B3
:1017E0001946094804F0E4FC00220021242004F0FA
:1017F0005AF8242004F073F800BF2837BD4680BD96
:1018000000380040003802400004024080B584B037
:1018100000AF78607B681B68B3F1804F16D100235E
:10182000FB60164B1B6C154A43F001031364134B0A
:101830001B6C03F00103FB60FB68002200211C20ED
:1018400004F031F81C2004F04AF812E07B681B68B1
:101850000B4A93420DD10023BB60084B1B6C074A17
:1018600043F004031364054B1B6C03F00403BB60DB
:10187000BB6800BF1037BD4680BD00BF00380240C6
:101880000008004080B592B000AF786007F13403E3
:1018900000221A605A609A60DA601A617B681B68DD
:1018A000924A934234D100233B63914B1B6C904A84
:1018B00043F4002313648E4B1B6C03F400233B633F
:1018C0003B6B0023FB628A4B1B6B894A43F001038D
:1018D0001363874B1B6B03F00103FB62FB6A03235B
:1018E0007B630223BB630123FB6303233B64082365
:1018F0007B6407F1340319467E4804F059FC00224A
:101900000021342003F0CFFF342003F0E8FFE8E0AB
:101910007B681B68784A934235D10023BB62744BC5
:101920005B6C734A43F010035364714B5B6C03F0C0
:101930001003BB62BB6A00237B626D4B1B6B6C4A5E
:1019400043F0010313636A4B1B6B03F001037B62DB
:101950007B6A4FF4C0637B630223BB630123FB6399
:1019600003233B6407237B6407F134031946614872
:1019700004F01EFC00220021252003F094FF252006
:1019800003F0ADFFADE07B681B685C4A934234D145
:1019900000233B62564B1B6C554A43F400331364DF
:1019A000534B1B6C03F400333B623B6A0023FB6127
:1019B0004F4B1B6B4E4A43F0010313634C4B1B6BA5
:1019C00003F00103FB61FB690C237B630223BB6310
:1019D0000123FB6303233B6407237B6407F1340388
:1019E0001946444804F0E4FB00220021262003F0BD
:1019F0005AFF262003F073FF73E07B681B68404AA0
:101A0000934235D10023BB61394B1B6C384A43F4F8
:101A100080231364364B1B6C03F48023BB61BB69CA
:101A200000237B61324B1B6B314A43F0020313638B
:101A30002F4B1B6B03F002037B617B694FF4406308
:101A40007B630223BB630123FB6303233B64072304
:101A50007B6407F1340319462A4804F0A9FB0022ED
:101A60000021272003F01FFF272003F038FF38E074
:101A70007B681B68244A934233D100233B611C4B93
:101A80005B6C1B4A43F020035364194B5B6C03F0FF
:101A900020033B613B690023FB60154B1B6B144A21
:101AA00043F004031363124B1B6B03F00403FB604E
:101AB000FB68C0237B630223BB630123FB63032317
:101AC0003B6408237B6407F1340319460F4804F094
:101AD0006FFB00220021472003F0E5FE472003F0C2
:101AE000FEFE00BF4837BD4680BD00BF004C004031
:101AF0000038024000000240001001400044004055
:101B00000048004000040240001401400008024068
:101B100080B586B000AF3B1D00221A605A609A6003
:101B2000DA601A611C4B1B68002B31D11A4B012261
:101B30001A6000233B60194B9B6B184A43F001036A
:101B40009363164B9B6B03F001033B603B684FF6BE
:101B500080737B600223BB600123FB6003233B6136
:101B60000C237B613B1D19460D4804F021FB4EF20E
:101B7000B3737B600223BB600123FB6003233B61E3
:101B80000C237B613B1D1946064804F011FB00E065
:101B900000BF1837BD4680BD7005002000380240E8
:101BA00000100240000C024080B582B000AF7860A7
:101BB000FFF7AEFF00BF0837BD4680BD80B400AF61
:101BC00000BFFDE780B400AF00BFFDE780B400AF09
:101BD00000BFFDE780B400AF00BFFDE780B400AFF9
:101BE00000BFFDE780B400AF00BFBD465DF8047BD9
:101BF000704780B400AF00BFBD465DF8047B7047FE
:101C000080B400AF00BFBD465DF8047B704780B56F
:101C100000AF02F07BFE00BF80BD000080B500AFCA
:101C2000024803F036FB00BF80BD00BF0C0100205E
:101C300080B500AF024809F093FC00BF80BD00BF33
:101C40007006002080B500AF024809F011FA00BF0D
:101C500080BD00BF1803002080B500AF02480AF025
:101C60002FF900BF80BD00BF0004002080B500AF89
:101C700002480AF025F900BF80BD00BF48040020DB
:101C800080B500AF02480AF01BF900BF80BD00BF5D
:101C90009004002080B500AF024808F03DF900BF75
:101CA00080BD00BFD401002080B500AF02480AF01B
:101CB00007F900BF80BD00BFB803002080B500AFAA
:101CC000024804F039F800BF80BD00BF5802002070
:101CD00080B500AF024804F0D7FD00BF80BD00BF53
:101CE000E40D002080B500AF024804F025F800BFE5
:101CF00080BD00BFB802002080B500AF02480AF0E6
:101D0000DFF800BF80BD00BFD804002080B586B0DA
:101D100000AF7860144A154BD31A7B617B693B6135
:101D2000134B1B68002B02D1114B124A1A60104B47
:101D30001A687B6813443A699A4207D20EF0E2FAB5
:101D400003460C221A604FF0FF3309E0084B1B6872
:101D5000FB60074B1A687B681344054A1360FB68F5
:101D600018461837BD4680BD000002200040000024
:101D7000740500201013002080B400AF064BD3F888
:101D80008830054A43F47003C2F8883000BFBD466E
:101D90005DF8047B704700BF00ED00E0DFF834D051
:101DA0000D480E490E4A002302E0D458C4500433B3
:101DB000C4188C42F9D30B4A0B4C002301E013608A
:101DC0000432A242FBD3FFF7D7FF0EF0A1FAFEF7D1
:101DD000EDFB7047000002200000002060000020A2
:101DE00010880108600000200C130020FEE70000AE
:101DF00080B586B000AF786007F10C030B4A012173
:101E0000786803F024F90346FB75FB7D002B08D1AD
:101E10003A7B074B1A70074B1B8801339AB2054B6C
:101E20001A8000BF1837BD4680BD00BF44060020A1
:101E3000780500204006002080B584B000AF7860AF
:101E400007F09CF80346094AA2FB03235A0D7B685E
:101E500002FB03F3FB6000BFFB685A1EFA60002B15
:101E6000FAD100BF00BF1037BD4680BD83DE1B43E3
:101E700080B582B000AF0346FB8000BF00BFBA1D33
:101E800001234FF0C041034809F0B8FA00BF0837FA
:101E9000BD4680BD2005002080B582B000AF03465E
:101EA000FB8000BF00BFBA1D01230449044809F0AC
:101EB000A5FA00BF0837BD4680BD00BF000008601E
:101EC0002005002080B582B000AFBA1D012304496F
:101ED000044809F033FAFB8818460837BD4680BD30
:101EE000000008602005002080B582B000AF0346E6
:101EF0000A46FB801346BB80BA1D01234FF0C04148
:101F0000064809F07BFA3A1D01230549034809F008
:101F100075FA00BF0837BD4680BD00BF2005002010
:101F20000000086080B582B000AF0346FB80FB88EC
:101F30001846FFF79DFF0520FFF77EFFFFF7C2FF62
:101F4000034618460837BD4680BD000080B582B004
:101F500000AF03460A46FB801346BB80474B1B6815
:101F6000B3F5804F5ED1464B1A88FB881B0A9BB2A3
:101F700019461046FFF7B8FF414B1B8801339BB24F
:101F8000FA88D2B292B211461846FFF7ADFF3C4B29
:101F90001B8802339AB23B4B1B88013B1B129BB23E
:101FA00019461046FFF7A0FF354B1B8803339AB242
:101FB000344B1B88013B9BB2DBB29BB219461046E7
:101FC000FFF792FF304B1A88BB881B0A9BB2194659
:101FD0001046FFF789FF2C4B1B8801339BB2BA8850
:101FE000D2B292B211461846FFF77EFF264B1B88ED
:101FF00002339AB2254B1B88013B1B129BB2194638
:102000001046FFF771FF204B1B8803339AB21F4B1A
:102010001B88013B9BB2DBB29BB219461046FFF70F
:1020200063FF27E0164B1A88FB881B0A9BB21946F0
:102030001046FFF759FF124B1B8801339BB2FA88F9
:10204000D2B292B211461846FFF74EFF0E4B1A88D5
:10205000BB881B0A9BB219461046FFF745FF0A4B87
:102060001B8801339BB2BA88D2B292B2114618468D
:10207000FFF73AFF00BF0837BD4680BD600600206D
:102080006A060020660600206C0600206406002018
:10209000B0B58EB000AF914B3C461D460FCD0FC47E
:1020A0000FCD0FC40FCD0FC42B6823604FF45A40DF
:1020B000FFF738FF03461A46894B1A60884B1B68A6
:1020C0001B02874A13604FF45B40FFF72BFF034668
:1020D0001A46834B1B681343814A1360804B1B686D
:1020E0001B027F4A13604FF45C40FFF71BFF03465F
:1020F0001A467B4B1B681343794A13600023FB8607
:10210000774B1B68B3F5004F40F0958155214FF494
:102110007040FFF7E9FEAA214FF20100FFF7E4FE4D
:1021200052214FF20200FFF7DFFE08214FF20300B9
:10213000FFF7DAFE01214FF20400FFF7D5FE0D2173
:102140004FF43040FFF7D0FE0D214BF20100FFF7B6
:10215000CBFE0D214BF20200FFF7C6FE34214FF4F7
:102160003640FFF7C1FE34214BF20160FFF7BCFEA1
:1021700034214BF20260FFF7B7FE0D214FF43140DE
:10218000FFF7B2FE0D214BF20110FFF7ADFE0D215E
:102190004BF20210FFF7A8FE34214FF43740FFF74F
:1021A000A3FE34214BF20170FFF79EFE34214BF267
:1021B0000270FFF799FE00214FF43240FFF794FEC2
:1021C00000214BF20120FFF78FFE00214BF202208D
:1021D000FFF78AFE24214FF43840FFF785FE2421C3
:1021E0004BF60100FFF780FE24214BF60200FFF7BB
:1021F0007BFE01214FF43F40FFF776FE0F214FF4A5
:102200003340FFF771FE0F214BF20130FFF76CFEF8
:102210000F214BF20230FFF767FE34214FF43940B3
:10222000FFF762FE34214BF60110FFF75DFE34210B
:102230004BF60210FFF758FE08214FF43540FFF728
:1022400053FE08214BF20150FFF74EFE08214BF2DE
:102250000250FFF749FE03214FF44240FFF744FECE
:1022600024214FF43A40FFF73FFE24214BF6012092
:10227000FFF73AFE24214BF60220FFF735FE00213E
:102280004FF43C40FFF730FE78214BF60140FFF75A
:102290002BFE00214BF60240FFF726FE00214FF4F3
:1022A0003D40FFF721FE78214BF60150FFF71CFE61
:1022B00000214BF60250FFF717FE00214FF43E407D
:1022C000FFF712FE64214BF60160FFF70DFED123EC
:1022D000BB861FE00023FB8616E000BF9C0A0108B6
:1022E00060060020BB8E1B029AB2FB8E13449AB28A
:1022F000FB8E38333B4413F8383C19461046FFF741
:10230000F3FDFB8E0133FB86FB8E332BEAD9BB8EAC
:102310000133BB86BB8ED62BDCD955214FF47040E0
:10232000FFF7E2FDAA214FF20100FFF7DDFD522188
:102330004FF20200FFF7D8FD08214FF20300FFF72C
:10234000D3FD00214FF20400FFF7CEFDCC214FF466
:102350003140FFF7C9FD00214BF20110FFF7C4FD2A
:1023600005214FF43640FFF7BFFD70214FF4374091
:10237000FFF7BAFD70214BF20170FFF7B5FD0121A7
:102380004FF43840FFF7B0FD03214BF60100FFF793
:10239000ABFD03214BF60200FFF7A6FD03214BF630
:1023A0000300FFF7A1FD02214FF43C40FFF79CFD25
:1023B00000214BF60140FFF797FD00214BF602404C
:1023C000FFF792FDD0214FF44940FFF78DFD022128
:1023D0004CF60110FFF788FD50214CF60210FFF774
:1023E00083FD50214CF60310FFF77EFD50214CF683
:1023F0000410FFF779FD00214FF45450FFF774FDEE
:1024000055214FF46850FFF76FFD4FF48850FFF7E8
:102410002FFD7820FFF710FD01F038FE602001F05D
:102420007FFD4FF6FF7001F041FE01F01FFE01231A
:10243000FB8601F06FBD034B1B68B3F5024F41F003
:102440001A8001E06006002055214FF47040FFF72C
:102450004BFDAA214FF20100FFF746FD52214FF23A
:102460000200FFF741FD08214FF20300FFF73CFD9A
:1024700001214FF20400FFF737FD00214FF45140D6
:10248000FFF732FD00214DF20110FFF72DFD222153
:102490004DF20210FFF728FD55214DF20310FFF712
:1024A00023FD78214DF20410FFF71EFD40214DF26F
:1024B0000510FFF719FD93214DF20610FFF714FDEB
:1024C000BF214DF20710FFF70FFDE0214DF208107C
:1024D000FFF70AFD10214DF20910FFF705FD552108
:1024E0004DF20A10FFF700FD33214DF20B10FFF7FC
:1024F000FBFC4F214DF20C10FFF7F6FC66214DF26C
:102500000D10FFF7F1FC7A214DF20E10FFF7ECFCF5
:1025100055214DF20F10FFF7E7FC8C214DF2101002
:10252000FFF7E2FC9C214DF21110FFF7DDFCA92121
:102530004DF21210FFF7D8FCB6214DF21310FFF741
:10254000D3FC55214DF21410FFF7CEFCC2214DF201
:102550001510FFF7C9FCCE214DF21610FFF7C4FC91
:10256000D8214DF21710FFF7BFFCE2214DF21810F1
:10257000FFF7BAFC55214DF21910FFF7B5FCEC211D
:102580004DF21A10FFF7B0FCED214DF21B10FFF7D2
:10259000ABFCF6214DF21C10FFF7A6FCFF214DF21B
:1025A0001D10FFF7A1FCAA214DF21E10FFF79CFCA5
:1025B00007214DF21F10FFF797FC0F214DF220105D
:1025C000FFF792FC17214DF22110FFF78DFC20211F
:1025D0004DF22210FFF788FCAA214DF22310FFF7DD
:1025E00083FC28214DF22410FFF77EFC30214DF2B0
:1025F0002510FFF779FC3A214DF22610FFF774FC05
:1026000044214DF22710FFF76FFCAA214DF228104C
:10261000FFF76AFC52214DF22910FFF765FC662195
:102620004DF22A10FFF760FC86214DF22B10FFF7C8
:102630005BFCC5214DF22C10FFF756FCFF214DF23B
:102640002D10FFF751FC00214DF22E10FFF74CFC2E
:1026500051214DF22F10FFF747FC8D214DF2301024
:10266000FFF742FCC4214DF23110FFF73DFC0F2172
:102670004DF23210FFF738FCE0214DF23310FFF736
:1026800033FCFF214DF23410FFF72EFC00214FF4F4
:102690005240FFF729FC00214DF20120FFF724FCF6
:1026A00022214DF20220FFF71FFC55214DF203209D
:1026B000FFF71AFC78214DF20420FFF715FC4021AA
:1026C0004DF20520FFF710FC93214DF20620FFF795
:1026D0000BFCBF214DF20720FFF706FCE0214DF275
:1026E0000820FFF701FC10214DF20920FFF7FCFB49
:1026F00055214DF20A20FFF7F7FB33214DF20B2055
:10270000FFF7F2FB4F214DF20C20FFF7EDFB6621A6
:102710004DF20D20FFF7E8FB7A214DF20E20FFF776
:10272000E3FB55214DF20F20FFF7DEFB8C214DF22C
:102730001020FFF7D9FB9C214DF21120FFF7D4FBAD
:10274000A9214DF21220FFF7CFFBB6214DF2132045
:10275000FFF7CAFB55214DF21420FFF7C5FBC2213C
:102760004DF21520FFF7C0FBCE214DF21620FFF7EA
:10277000BBFBD8214DF21720FFF7B6FBE2214DF24B
:102780001820FFF7B1FB55214DF21920FFF7ACFBE4
:10279000EC214DF21A20FFF7A7FBED214DF21B2093
:1027A000FFF7A2FBF6214DF21C20FFF79DFBFF2156
:1027B0004DF21D20FFF798FBAA214DF21E20FFF7D6
:1027C00093FB07214DF21F20FFF78EFB0F214DF2E7
:1027D0002020FFF789FB17214DF22120FFF784FB12
:1027E00020214DF22220FFF77FFBAA214DF223206A
:1027F000FFF77AFB28214DF22420FFF775FB3021EB
:102800004DF22520FFF770FB3A214DF22620FFF70D
:102810006BFB44214DF22720FFF766FBAA214DF206
:102820002820FFF761FB52214DF22920FFF75CFBC6
:1028300066214DF22A20FFF757FB86214DF22B200F
:10284000FFF752FBC5214DF22C20FFF74DFBFF2176
:102850004DF22D20FFF748FB00214DF22E20FFF70F
:1028600043FB51214DF22F20FFF73EFB8D214DF20E
:102870003020FFF739FBC4214DF23120FFF734FB44
:102880000F214DF23220FFF72FFBE0214DF23320D4
:10289000FFF72AFBFF214DF23420FFF725FB002133
:1028A0004FF45340FFF720FB00214DF20130FFF7BA
:1028B0001BFB22214DF20230FFF716FB55214DF292
:1028C0000330FFF711FB78214DF20430FFF70CFBCA
:1028D00040214DF20530FFF707FB93214DF2063002
:1028E000FFF702FBBF214DF20730FFF7FDFAE021B1
:1028F0004DF20830FFF7F8FA10214DF20930FFF7DA
:10290000F3FA55214DF20A30FFF7EEFA33214DF27A
:102910000B30FFF7E9FA4F214DF20C30FFF7E4FAE4
:1029200066214DF20D30FFF7DFFA7A214DF20E30BD
:10293000FFF7DAFA55214DF20F30FFF7D5FA8C2167
:102940004DF21030FFF7D0FA9C214DF21130FFF715
:10295000CBFAA9214DF21230FFF7C6FAB6214DF29B
:102960001330FFF7C1FA55214DF21430FFF7BCFACE
:10297000C2214DF21530FFF7B7FACE214DF21630D5
:10298000FFF7B2FAD8214DF21730FFF7ADFAE22186
:102990004DF21830FFF7A8FA55214DF21930FFF724
:1029A000A3FAEC214DF21A30FFF79EFAED214DF219
:1029B0001B30FFF799FAF6214DF21C30FFF794FA1D
:1029C000FF214DF21D30FFF78FFAAA214DF21E3084
:1029D000FFF78AFA07214DF21F30FFF785FA0F2122
:1029E0004DF22030FFF780FA17214DF22130FFF72A
:1029F0007BFA20214DF22230FFF776FAAA214DF220
:102A00002330FFF771FA28214DF22430FFF76CFADA
:102A100030214DF22530FFF767FA3A214DF226308A
:102A2000FFF762FA44214DF22730FFF75DFAAA2141
:102A30004DF22830FFF758FA52214DF22930FFF7B6
:102A400053FA66214DF22A30FFF74EFA86214DF2F5
:102A50002B30FFF749FAC5214DF22C30FFF744FA2D
:102A6000FF214DF22D30FFF73FFA00214DF22E30BD
:102A7000FFF73AFA51214DF22F30FFF735FA8D2149
:102A80004DF23030FFF730FAC4214DF23130FFF70C
:102A90002BFA0F214DF23230FFF726FAE0214DF2EA
:102AA0003330FFF721FAFF214DF23430FFF71CFAE3
:102AB00000214FF45440FFF717FA00214DF2014076
:102AC000FFF712FA22214DF20240FFF70DFA5521CD
:102AD0004DF20340FFF708FA78214DF20440FFF76A
:102AE00003FA40214DF20540FFF7FEF993214DF224
:102AF0000640FFF7F9F9BF214DF20740FFF7F4F95F
:102B0000E0214DF20840FFF7EFF910214DF20940A6
:102B1000FFF7EAF955214DF20A40FFF7E5F93321B5
:102B20004DF20B40FFF7E0F94F214DF20C40FFF75B
:102B3000DBF966214DF20D40FFF7D6F97A214DF20F
:102B40000E40FFF7D1F955214DF20F40FFF7CCF9B8
:102B50008C214DF21040FFF7C7F99C214DF2114036
:102B6000FFF7C2F9A9214DF21240FFF7BDF9B621D6
:102B70004DF21340FFF7B8F955214DF21440FFF71D
:102B8000B3F9C2214DF21540FFF7AEF9CE214DF257
:102B90001640FFF7A9F9D8214DF21740FFF7A4F925
:102BA000E2214DF21840FFF79FF955214DF21940EF
:102BB000FFF79AF9EC214DF21A40FFF795F9ED2154
:102BC0004DF21B40FFF790F9F6214DF21C40FFF744
:102BD0008BF9FF214DF21D40FFF786F9AA214DF236
:102BE0001E40FFF781F907214DF21F40FFF77CF9E6
:102BF0000F214DF22040FFF777F917214DF22140C8
:102C0000FFF772F920214DF22240FFF76DF9AA215A
:102C10004DF22340FFF768F928214DF22440FFF7D9
:102C200063F930214DF22540FFF75EF93A214DF26C
:102C30002640FFF759F944214DF22740FFF754F998
:102C4000AA214DF22840FFF74FF952214DF22940B9
:102C5000FFF74AF966214DF22A40FFF745F9862130
:102C60004DF22B40FFF740F9C5214DF22C40FFF704
:102C70003BF9FF214DF22D40FFF736F900214DF2CF
:102C80002E40FFF731F951214DF22F40FFF72CF97B
:102C90008D214DF23040FFF727F9C4214DF231402C
:102CA000FFF722F90F214DF23240FFF71DF9E02125
:102CB0004DF23340FFF718F9FF214DF23440FFF792
:102CC00013F900214FF45540FFF70EF900214DF2A2
:102CD0000150FFF709F922214DF20250FFF704F9E4
:102CE00055214DF20350FFF7FFF878214DF20450C3
:102CF000FFF7FAF840214DF20550FFF7F5F8932160
:102D00004DF20650FFF7F0F8BF214DF20750FFF7E4
:102D1000EBF8E0214DF20850FFF7E6F810214DF2F4
:102D20000950FFF7E1F855214DF20A50FFF7DCF8A2
:102D300033214DF20B50FFF7D7F84F214DF20C50D5
:102D4000FFF7D2F866214DF20D50FFF7CDF87A214A
:102D50004DF20E50FFF7C8F855214DF20F50FFF716
:102D6000C3F88C214DF21050FFF7BEF89C214DF2B4
:102D70001150FFF7B9F8A9214DF21250FFF7B4F83E
:102D8000B6214DF21350FFF7AFF855214DF2145014
:102D9000FFF7AAF8C2214DF21550FFF7A5F8CE2192
:102DA0004DF21650FFF7A0F8D8214DF21750FFF75B
:102DB0009BF8E2214DF21850FFF796F855214DF29D
:102DC0001950FFF791F8EC214DF21A50FFF78CF8EB
:102DD000ED214DF21B50FFF787F8F6214DF21C5004
:102DE000FFF782F8FF214DF21D50FFF77DF8AA2171
:102DF0004DF21E50FFF778F807214DF21F50FFF7F4
:102E000073F80F214DF22050FFF76EF817214DF2A5
:102E10002150FFF769F820214DF22250FFF764F8A6
:102E2000AA214DF22350FFF75FF828214DF22450DC
:102E3000FFF75AF830214DF22550FFF755F83A21A7
:102E40004DF22650FFF750F844214DF22750FFF77E
:102E50004BF8AA214DF22850FFF746F852214DF2C7
:102E60002950FFF741F866214DF22A50FFF73CF850
:102E700086214DF22B50FFF737F8C5214DF22C502B
:102E8000FFF732F8FF214DF22D50FFF72DF800210A
:102E90004DF22E50FFF728F851214DF22F50FFF739
:102EA00023F88D214DF23050FFF71EF8C4214DF26A
:102EB0003150FFF719F80F214DF23250FFF714F897
:102EC000E0214DF23350FFF70FF8FF214DF234505F
:102ED000FFF70AF800214FF45640FFF705F80021EC
:102EE0004DF20160FFF700F822214DF20260FEF77B
:102EF000FBFF55214DF20360FEF7F6FF78214DF2FE
:102F00000460FEF7F1FF40214DF20560FEF7ECFF93
:102F100093214DF20660FEF7E7FFBF214DF20760F7
:102F2000FEF7E2FFE0214DF20860FEF7DDFF102121
:102F30004DF20960FEF7D8FF55214DF20A60FEF709
:102F4000D3FF33214DF20B60FEF7CEFF4F214DF240
:102F50000C60FEF7C9FF66214DF20D60FEF7C4FF5D
:102F60007A214DF20E60FEF7BFFF55214DF20F6042
:102F7000FEF7BAFF8C214DF21060FEF7B5FF9C21E1
:102F80004DF21160FEF7B0FFA9214DF21260FEF77D
:102F9000ABFFB6214DF21360FEF7A6FF55214DF2AF
:102FA0001460FEF7A1FFC2214DF21560FEF79CFFF1
:102FB000CE214DF21660FEF797FFD8214DF2176033
:102FC000FEF792FFE2214DF21860FEF78DFF5521CA
:102FD0004DF21960FEF788FFEC214DF21A60FEF702
:102FE00083FFED214DF21B60FEF77EFFF6214DF2CF
:102FF0001C60FEF779FFFF214DF21D60FEF774FFA4
:10300000AA214DF21E60FEF76FFF07214DF21F60EF
:10301000FEF76AFF0F214DF22060FEF765FF1721D2
:103020004DF22160FEF760FF20214DF22260FEF795
:103030005BFFAA214DF22360FEF756FF28214DF2D7
:103040002460FEF751FF30214DF22560FEF74CFF62
:103050003A214DF22660FEF747FF44214DF22760EA
:10306000FEF742FFAA214DF22860FEF73DFF5221F4
:103070004DF22960FEF738FF66214DF22A60FEF717
:1030800033FF86214DF22B60FEF72EFFC5214DF256
:103090002C60FEF729FFFF214DF22D60FEF724FF83
:1030A00000214DF22E60FEF71FFF51214DF22F60DF
:1030B000FEF71AFF8D214DF23060FEF715FFC42197
:1030C0004DF23160FEF710FF0F214DF23260FEF736
:1030D0000BFFE0214DF23360FEF706FFFF214DF2BA
:1030E0003460FEF701FF00214FF43040FEF7FCFE94
:1030F00000214BF20100FEF7F7FE00214BF2020027
:10310000FEF7F2FE05214FF43140FEF7EDFE0521FA
:103110004BF20110FEF7E8FE05214BF20210FEF71C
:10312000E3FE44214FF43640FEF7DEFE44214BF22D
:103130000160FEF7D9FE44214BF20260FEF7D4FE97
:1031400034214FF43740FEF7CFFE34214BF20170AB
:10315000FEF7CAFE34214BF20270FEF7C5FE3421A1
:103160004FF43940FEF7C0FE34214BF60110FEF754
:10317000BBFE34214BF60210FEF7B6FE14214FF4CD
:103180003A40FEF7B1FE14214BF60120FEF7ACFEEB
:1031900014214BF60220FEF7A7FE00214FF43C401D
:1031A000FEF7A2FEB8214BF60140FEF79DFE00217E
:1031B0004FF43D40FEF798FEB8214BF60150FEF764
:1031C00093FE00214FF43E40FEF78EFE58214BF651
:1031D0000160FEF789FE55214FF47040FEF784FE32
:1031E000AA214FF20100FEF77FFE52214FF20200AA
:1031F000FEF77AFE08214FF20300FEF775FE00216C
:103200004FF20400FEF770FE10214FF43440FEF739
:103210006BFE02214FF43640FEF766FE00214FF4AC
:103220003040FEF761FEF8214FF43140FEF75CFEBE
:1032300000214BF20110FEF757FE0A20FEF7FCFDBD
:1032400022214FF43740FEF74FFE22214BF201704E
:10325000FEF74AFE01214FF44840FEF745FE0021EB
:103260004CF60100FEF740FE54214CF60200FEF73A
:103270003BFE38214CF60300FEF736FE54214CF697
:103280000400FEF731FE38214CF60500FEF72CFE57
:1032900054214CF60600FEF727FE38214CF60700B5
:1032A000FEF722FE54214CF60800FEF71DFE3821E1
:1032B0004CF60900FEF718FE8C214CF60A00FEF7CA
:1032C00013FE2A214CF60B00FEF70EFE2A214CF6C7
:1032D0000C00FEF709FE8C214CF60D00FEF704FEF3
:1032E0008C214CF60E00FEF7FFFD2A214CF60F0054
:1032F000FEF7FAFD2A214CF61000FEF7F5FD01213C
:103300004FF43840FEF7F0FD03214BF60100FEF7C5
:10331000EBFD03214BF60200FEF7E6FD03214BF621
:103320000300FEF7E1FD05214FF43C40FEF7DCFD14
:1033300005214BF60140FEF7D7FD05214BF6024073
:10334000FEF7D2FD01214FF45040FEF7CDFD0121E3
:103350004FF43A40FEF7C8FD01214FF43D40FEF71F
:10336000C3FD10214BF60150FEF7BEFD07214BF6C1
:103370000250FEF7B9FD07214BF60350FEF7B4FDEE
:1033800001214FF43E40FEF7AFFD10214BF60160E6
:10339000FEF7AAFD07214BF60260FEF7A5FD072107
:1033A0004BF60360FEF7A0FD01214FF43F40FEF70E
:1033B0009BFD10214BF60170FEF796FD07214BF6A1
:1033C0000270FEF791FD07214BF60370FEF78CFDAE
:1033D00055214FF47040FEF787FDAA214FF20100FE
:1033E000FEF782FD52214FF20200FEF77DFD08211B
:1033F0004FF20300FEF778FD02214FF20400FEF7C2
:1034000073FD00214FF44340FEF76EFDA9214CF2FD
:103410000130FEF769FD00214FF47E40FEF764FDA8
:1034200094214FF60160FEF75FFD00214FF45450E8
:10343000FEF75AFD08214FF45850FEF755FD55216F
:103440004FF46850FEF750FD00214FF48850FEF70E
:103450004BFD7820FEF7F0FC00F018FE602000F035
:103460005FFD4FF6FF7000F021FE00F0FFFD01232D
:10347000FB8600F04FBD034B1B68B3F5804F40F057
:10348000498501E06006002080214FF47F40FEF76F
:103490002BFD09214FF60170FEF726FD01214FF6A5
:1034A0000270FEF721FD80214FF68070FEF71CFDB3
:1034B00009214FF68170FEF717FD01214FF60370C9
:1034C000FEF712FD10214CF2B400FEF70DFD0821AD
:1034D0004CF28940FEF708FD00214CF2A300FEF7F4
:1034E00003FDA3214CF28250FEF7FEFCD6214CF2E4
:1034F0009050FEF7F9FC87214CF29150FEF7F4FC56
:1035000074214FF45840FEF7EFFC72214DF6010094
:10351000FEF7EAFC60214FF45940FEF7E5FC092173
:103520004FF46140FEF7E0FC0C214EF20110FEF773
:10353000DBFC12214EF20210FEF7D6FC0E214EF2F9
:103540000310FEF7D1FC08214EF20410FEF7CCFC6C
:1035500019214EF20510FEF7C7FC0C214EF20610A1
:10356000FEF7C2FC0B214EF20710FEF7BDFC012155
:103570004EF20810FEF7B8FC05214EF20910FEF7D6
:10358000B3FC03214EF20A10FEF7AEFC07214EF207
:103590000B10FEF7A9FC0E214EF20C10FEF7A4FC56
:1035A00026214EF20D10FEF79FFC23214EF20E1045
:1035B000FEF79AFC1B214EF20F10FEF795FC092135
:1035C0004FF46240FEF790FC0C214EF20120FEF712
:1035D0008BFC12214EF20220FEF786FC0E214EF2E9
:1035E0000320FEF781FC08214EF20420FEF77CFC4C
:1035F00019214EF20520FEF777FC0C214EF2062031
:10360000FEF772FC0B214EF20720FEF76DFC012144
:103610004EF20820FEF768FC05214EF20920FEF765
:1036200063FC03214EF20A20FEF75EFC07214EF2F6
:103630000B20FEF759FC0E214EF20C20FEF754FC35
:1036400026214EF20D20FEF74FFC23214EF20E20D4
:10365000FEF74AFC1B214EF20F20FEF745FC6621C7
:103660004CF28110FEF740FC08214CF2A110FEF74D
:103670003BFC83214CF28140FEF736FC01214CF2E9
:103680009250FEF731FCA9214CF2B150FEF72CFC10
:1036900085214CF68060FEF727FC03214CF6816003
:1036A000FEF722FC00214CF68260FEF71DFC84210F
:1036B0004CF68360FEF718FC03214CF68460FEF79D
:1036C00013FC00214CF68560FEF70EFC83214CF6BE
:1036D0008660FEF709FC03214CF68760FEF704FCC8
:1036E00000214CF68860FEF7FFFB82214CF68960D2
:1036F000FEF7FAFB03214CF68A60FEF7F5FB00218A
:103700004CF68B60FEF7F0FB38214CF6A060FEF71C
:10371000EBFB02214CF6A160FEF7E6FB03214CF621
:10372000A260FEF7E1FB21214CF6A360FEF7DCFB73
:1037300000214CF6A460FEF7D7FB00214CF6A560F3
:10374000FEF7D2FB00214CF6A660FEF7CDFB382138
:103750004CF6A760FEF7C8FB01214CF6A860FEF707
:10376000C3FB03214CF6A960FEF7BEFB22214CF6F9
:10377000AA60FEF7B9FB00214CF6AB60FEF7B4FB84
:1037800000214CF6AC60FEF7AFFB00214CF6AD60BB
:10379000FEF7AAFB38214CF6B060FEF7A5FB00212E
:1037A0004CF6B160FEF7A0FB03214CF6B260FEF7C9
:1037B0009BFB23214CF6B360FEF796FB00214CF6F1
:1037C000B460FEF791FB00214CF6B560FEF78CFB70
:1037D00000214CF6B660FEF787FB30214CF6B7604F
:1037E000FEF782FB00214CF6B860FEF77DFB03215B
:1037F0004CF6B960FEF778FB24214CF6BA60FEF770
:1038000073FB00214CF6BB60FEF76EFB00214CF60B
:10381000BC60FEF769FB00214CF6BD60FEF764FB5F
:1038200030214CF6C060FEF75FFB01214CF6C16011
:10383000FEF75AFB03214CF6C260FEF755FB25212B
:103840004CF6C360FEF750FB00214CF6C460FEF757
:103850004BFB00214CF6C560FEF746FB00214CF601
:10386000C660FEF741FB30214CF6C760FEF73CFB1B
:1038700002214CF6C860FEF737FB03214CF6C96005
:10388000FEF732FB26214CF6CA60FEF72DFB002125
:103890004CF6CB60FEF728FB00214CF6CC60FEF71F
:1038A00023FB00214CF6CD60FEF71EFB30214CF6C9
:1038B000D060FEF719FB03214CF6D160FEF714FB34
:1038C00003214CF6D260FEF70FFB27214CF6D360A4
:1038D000FEF70AFB00214CF6D460FEF705FB002141
:1038E0004CF6D560FEF700FB00214CF6D660FEF7E3
:1038F000FBFA30214CF6D760FEF7F6FA04214CF6BD
:10390000D860FEF7F1FA03214CF6D960FEF7ECFA25
:1039100028214CF6DA60FEF7E7FA00214CF6DB606E
:10392000FEF7E2FA00214CF6DC60FEF7DDFA00213A
:103930004CF6DD60FEF7D8FA00214CF6C070FEF7B9
:10394000D3FA00214CF6C170FEF7CEFA00214CF6F6
:10395000C270FEF7C9FA00214CF6C370FEF7C4FA34
:1039600000214CF6C470FEF7BFFA00214CF6C5707A
:10397000FEF7BAFA00214CF6C670FEF7B5FA002140
:103980004CF6C770FEF7B0FA00214CF6C870FEF78F
:10399000ABFA00214CF6C970FEF7A6FA00214CF6EE
:1039A000D070FEF7A1FA00214CF6C030FEF79CFA69
:1039B00000214CF6C130FEF797FA00214CF6C230D8
:1039C000FEF792FA00214CF6C330FEF78DFA04217F
:1039D0004CF6C430FEF788FA04214CF6C530FEF7E9
:1039E00083FA04214CF6C630FEF77EFA04214CF629
:1039F000C730FEF779FA04214CF6C830FEF774FAA6
:103A000004214CF6C930FEF76FFA00214CF6CA309B
:103A1000FEF76AFA00214CF6CB30FEF765FA00217A
:103A20004CF6CC30FEF760FA00214CF6CD30FEF7B4
:103A30005BFA00214CF6CE30FEF756FA00214CF628
:103A4000D030FEF751FA00214CF6D130FEF74CFA97
:103A500000214CF6D230FEF747FA00214CF6D33065
:103A6000FEF742FA00214CF6D430FEF73DFA002171
:103A70004CF6D530FEF738FA00214CF6D630FEF77A
:103A800033FA00214CF6D730FEF72EFA00214CF61F
:103A9000D830FEF729FA04214CF6D930FEF724FA83
:103AA00004214CF6DA30FEF71FFA04214CF6DB3025
:103AB000FEF71AFA04214CF6DC30FEF715FA042161
:103AC0004CF6DD30FEF710FA04214CF6DE30FEF73E
:103AD0000BFA00214CF6E030FEF706FA00214CF616
:103AE000E130FEF701FA00214CF6E230FEF7FCF976
:103AF00000214CF6E330FEF7F7F900214CF6E430F4
:103B0000FEF7F2F900214CF6E530FEF7EDF9002161
:103B10004CF6E630FEF7E8F900214CF6E730FEF708
:103B2000E3F900214CF6E830FEF7DEF900214CF60F
:103B3000E930FEF7D9F900214CF68040FEF7D4F9C0
:103B400000214CF68140FEF7CFF900214CF682406F
:103B5000FEF7CAF900214CF68340FEF7C5F90C21A7
:103B60004CF68440FEF7C0F90A214CF68540FEF77A
:103B7000BBF910214CF68640FEF7B6F90E214CF643
:103B80008740FEF7B1F903214CF68840FEF7ACF907
:103B900004214CF68940FEF7A7F900214CF690402D
:103BA000FEF7A2F900214CF69140FEF79DF90021A5
:103BB0004CF69240FEF798F900214CF69340FEF740
:103BC00093F900214CF69440FEF78EF900214CF653
:103BD0009540FEF789F900214CF69640FEF784F9EE
:103BE00000214CF69740FEF77FF900214CF69840F3
:103BF000FEF77AF900214CF69940FEF775F900219D
:103C00004CF69A40FEF770F900214CF69B40FEF707
:103C10006BF900214CF69C40FEF766F900214CF64A
:103C20009D40FEF761F90B214CF69E40FEF75CF9D2
:103C300009214CF6A040FEF757F90F214CF6A140A0
:103C4000FEF752F90D214CF6A240FEF74DF9012185
:103C50004CF6A340FEF748F902214CF6A440FEF7CB
:103C600043F900214CF6A540FEF73EF900214CF641
:103C7000A640FEF739F900214CF6A740FEF734F9CB
:103C800000214CF6A840FEF72FF900214CF6A94080
:103C9000FEF72AF900214CF6AA40FEF725F900218B
:103CA0004CF6AB40FEF720F900214CF6AC40FEF795
:103CB0001BF900214CF6AD40FEF716F900214CF639
:103CC000AE40FEF711F900214CF6B040FEF70CF9BA
:103CD00000214CF6B140FEF707F900214CF6B24046
:103CE000FEF702F900214CF6B340FEF7FDF80D2176
:103CF0004CF6B440FEF7F8F80F214CF6B540FEF74D
:103D0000F3F809214CF6B640FEF7EEF80B214CF61D
:103D1000B740FEF7E9F802214CF6B840FEF7E4F8A8
:103D200001214CF6B940FEF7DFF800214CF6C04007
:103D3000FEF7DAF800214CF6C140FEF7D5F8002175
:103D40004CF6C240FEF7D0F800214CF6C340FEF717
:103D5000CBF800214CF6C440FEF7C6F800214CF623
:103D6000C540FEF7C1F800214CF6C640FEF7BCF88E
:103D700000214CF6C740FEF7B7F800214CF6C840CA
:103D8000FEF7B2F800214CF6C940FEF7ADF800216D
:103D90004CF6CA40FEF7A8F800214CF6CB40FEF7DF
:103DA000A3F800214CF6CC40FEF79EF800214CF61B
:103DB000CD40FEF799F80E214CF6CE40FEF794F870
:103DC00010214CF6D040FEF78FF80A214CF6D14076
:103DD000FEF78AF80C214CF6D240FEF785F8042154
:103DE0004CF6D340FEF780F803214CF6D440FEF7A2
:103DF0007BF800214CF6D540FEF776F800214CF612
:103E0000D640FEF771F800214CF6D740FEF76CF86B
:103E100000214CF6D840FEF767F800214CF6D94057
:103E2000FEF762F800214CF6DA40FEF75DF800215B
:103E30004CF6DB40FEF758F800214CF6DC40FEF76C
:103E400053F800214CF6DD40FEF74EF800214CF609
:103E5000DE40FEF749F8FF214FF47F40FEF744F8BB
:103E6000FF214FF60170FEF73FF8FF214FF6027079
:103E7000FEF73AF8D0214FF45850FEF735F80021FC
:103E80004FF45450FEF730F801214FF48840FEF70C
:103E90002BF8FF2144F20140FEF726F808214FF4E9
:103EA0005850FEF721F800214FF45450FEF71CF84B
:103EB00001214FF48840FEF717F8222144F2014017
:103EC000FEF712F8FF214FF4A240FEF70DF82C2167
:103ED0004FF4A640FEF708F800214FF4AA40FEF781
:103EE00003F855214FF46850FDF7FEFF4FF488505A
:103EF000FDF7BEFF7820FDF79FFF00F0C7F86020B8
:103F000000F00EF84FF6FF7000F0D0F800F0AEF8B9
:103F10000123FB86FB8EDBB218463837BD46B0BDA9
:103F200080B582B000AF0346FB714B4B4FF430526B
:103F30001A804A4B4FF428521A80494B4FF42C52A6
:103F40001A80FB79002B08D0FB79802B05D0FB79F8
:103F5000402B02D0FB79C02B08D1424B4FF4F072BA
:103F60001A80414B4FF448721A8007E03D4B4FF4E2
:103F700048721A803C4B4FF4F0721A80FB799BB266
:103F800019464FF45850FDF7AFFF344B1B881846C5
:103F9000FDF76EFF0020FDF77FFF304B1B880133DC
:103FA0009BB21846FDF764FF0020FDF775FF2B4B11
:103FB0001B8802339BB21846FDF75AFF294B1B881A
:103FC000013B1B129BB21846FDF766FF234B1B8873
:103FD00003339BB21846FDF74BFF224B1B88013B76
:103FE0009BB2DBB29BB21846FDF756FF1C4B1B88F9
:103FF0001846FDF73DFF0020FDF74EFF184B1B88CC
:1040000001339BB21846FDF733FF0020FDF744FF54
:10401000134B1B8802339BB21846FDF729FF124B46
:104020001B88013B1B129BB21846FDF735FF0C4B5A
:104030001B8803339BB21846FDF71AFF0A4B1B88F7
:10404000013B9BB2DBB29BB21846FDF725FF00BFD8
:104050000837BD4680BD00BF680600206A06002004
:104060006C060020660600206406002080B500AFC4
:104070004FF42450FDF7FCFE01222021024802F0FB
:104080004BFA00BF80BD00BF0004024080B500AF06
:1040900000222021044802F03FFA4FF42050FDF79F
:1040A000E7FE00BF80BD00BF0004024080B584B0C1
:1040B00000AF0346FB800023FB604FF4F073BB604E
:1040C000BB684FF4487202FB03F3BB600021002081
:1040D000FDF73CFF104B1B881846FDF7C9FE002377
:1040E000FB6008E0BA1D01230C490D4807F086F972
:1040F000FB680133FB60FA68BB689A42F2D3FA8826
:10410000084B1A80FB88DB439AB2074B1A8000BF2A
:104110001037BD4680BD00BF680600200000086063
:1041200020050020040000206E06002090B585B018
:1041300000AF0446084611461A462346FB80034654
:10414000BB800B46FB701346BB70BB887B81BB7882
:10415000DB08DBB21A46BB785B08DBB212FB03F369
:104160003B81FB78203BFB700023BB8190E0BB7858
:104170000C2B0BD1FA78B9894A4813465B001344DB
:104180009B0003440B441B78FB7340E0BB78102B6F
:1041900008D1FA78BB89444912010A4413441B78B8
:1041A000FB7334E0BB78182B0BD1FA78B9893F4800
:1041B0001346DB0013449B0003440B441B78FB7342
:1041C00025E0BB78202B08D1FA78BB893849D20189
:1041D0000A4413441B78FB7319E0BB78302B0BD1D6
:1041E000FA78B98933481346DB0013441B010344B2
:1041F0000B441B78FB730AE0FA78B9892D48134603
:10420000DB0013441B0103440B441B78FB730023A6
:10421000BB7335E097F90F30002B07DA264B1A886D
:10422000B988FB88184600F0B1F80AE097F820300A
:10423000002B06D1214B1A88B988FB88184600F05C
:10424000A5F8FB7B5B00FB73BB880133BB801C4B79
:104250001B88BA889A4221D2BA887B89D21ABB7845
:104260009A420AD17B89BB80FB880133FB80154BC6
:104270001B88FA889A4207D311E0BB7B0133BB73DA
:10428000BB7B072BC6D900E000BFBB890133BB81D4
:10429000BA893B899A42FFF46AAF00E000BF143745
:1042A000BD4690BDEC0A0108600F010850150108D9
:1042B000AC2201082C5201086E06002004000020E8
:1042C000640600206606002008B490B5BAB002AFBC
:1042D0000346FB710B46BB7113467B710023A7F8A5
:1042E000DE300023A7F8DC3007F1F003FB6007F1B4
:1042F0001000FB68D7F8EC20C9210BF0DDFF07F1B7
:1043000010031846FBF764FF0346A7F8DC3007F1FB
:1043100010031846FBF75CFF0346C82B02D9C823DD
:10432000A7F8DC300023A7F8DE3021E0BA79B7F82F
:10433000DE3013449BB27A795208D2B213FB02F3F7
:1043400098B2FB799AB27B799BB212FB03F399B2D4
:10435000B7F8DE30E0333B4413F8D02C7B790024EF
:104360000094FFF7E3FEB7F8DE300133A7F8DE3044
:10437000B7F8DE20B7F8DC309A42D7D300BF00BFD1
:10438000E037BD46BDE8904001B0704780B582B0CF
:1043900000AF0346FB800B46BB8013467B80554B2A
:1043A0001B68B3F5804F64D1534B1B881846FDF74B
:1043B0005FFDFB881B0A9BB21846FDF76DFD4E4B57
:1043C0001B8801339BB21846FDF752FDFB88DBB218
:1043D0009BB21846FDF760FD474B1B8802339BB22A
:1043E0001846FDF745FDFB881B0A9BB21846FDF7F2
:1043F00053FD414B1B8803339BB21846FDF738FD34
:10440000FB88DBB29BB21846FDF746FD3B4B1B8891
:104410001846FDF72DFDBB881B0A9BB21846FDF719
:104420003BFD364B1B8801339BB21846FDF720FD40
:10443000BB88DBB29BB21846FDF72EFD2F4B1B88C5
:1044400002339BB21846FDF713FDBB881B0A9BB2D3
:104450001846FDF721FD294B1B8803339BB21846F4
:10446000FDF706FDBB88DBB29BB21846FDF714FDD5
:104470002FE0214B1B881846FDF7FAFCFB881B0A2E
:104480009BB21846FDF708FD1B4B1B8801339BB2FE
:104490001846FDF7EDFCFB88DBB29BB21846FDF732
:1044A000FBFC164B1B881846FDF7E2FCBB881B0A79
:1044B0009BB21846FDF7F0FC104B1B8801339BB2F2
:1044C0001846FDF7D5FCBB88DBB29BB21846FDF75A
:1044D000E3FC01230A4A4FF0C0410A4806F08EFF70
:1044E000BA1C01230849074806F088FF00BF0837B7
:1044F000BD4680BD600600206A0600206C060020D4
:1045000068060020200500200000086090B585B0F6
:1045100000AF0446084611461A462346FB80034670
:10452000BB800B467B8013463B8000237B817A88CF
:10453000FB88D31A9BB201337B81BB88FB811EE0D1
:10454000FA89FB8811461846FDF700FD104B1B88C1
:104550001846FDF78DFC0023BB8109E0012307F11C
:1045600020020C490C4806F049FFBB890133BB818E
:10457000BA897B899A42F1D3FB890133FB81FA899D
:104580003B889A42DCD900BF00BF1437BD4690BDBE
:1045900068060020000008602005002080B483B079
:1045A00000AF78607B681B4A93422CD11A4B1B8862
:1045B000C3F30E03194A0021D154174B1B886FEA2D
:1045C00043436FEA53439AB2134B1A80114B1B6853
:1045D0006FF001021A610F4B1B681A6A41F2111346
:1045E0001340002B0FD10B4B1B681A6A40F2444357
:1045F0001340002B07D1074B1B681A68054B1B683B
:1046000022F001021A6000BF0C37BD465DF8047B42
:10461000704700BF700600204C080020840700206F
:104620000FB480B5B4B000AF0023A7F8CE3007F1C7
:10463000DC033B60381D3B68D7F8D820C9210BF05C
:104640003BFE3B1D1846FBF7C3FD0346A7F8CE30E3
:104650003B1D1846FBF7BCFD0346C82B02D9C823F7
:10466000A7F8CE30B7F8CE20391D4FF6FF730548B6
:1046700007F076FB00BFD037BD46BDE8804004B0F0
:10468000704700BF0004002080B582B000AF7860A2
:104690007B68634A934248D1624B1B781946624853
:1046A000FFF7BEFF614B1B881BB2002B38DB5F4B53
:1046B0001B8803F48043002B11D05A4B1B780A2B24
:1046C00003D05A4B00221A802AE0584B1B886FEA0D
:1046D00043436FEA53439AB2544B1A8020E0514B44
:1046E0001B780D2B07D1514B1B8843F480439AB2A2
:1046F0004E4B1A8014E04D4B1B88C3F30D03494AFF
:1047000011784B4AD154494B1B8801339AB2474B1D
:104710001A80464B1B88C72B02D9444B00221A80B3
:10472000012240493E4807F0A6FB7B68414A93427C
:104730002DD1414B1B88C72B1BD8404B1B68002237
:104740005A623D4B1B88002B07D13C4B1B681A68F3
:104750003A4B1B6842F001021A60374B1B885A1C07
:1047600091B2354A11801A46354B1978354B995418
:1047700008E0314B1B886FEA43436FEA53439AB218
:104780002D4B1A8001222E492A4807F074FB7B68C2
:104790002D4A93422CD12D4B1B881BB2002B22DBC0
:1047A0002B4B1B780A2B09D1284B1B886FEA4343FC
:1047B0006FEA53439AB2254B1A8014E0234B1B88AF
:1047C000C3F30E03224A1178224AD1541F4B1B888F
:1047D00001339AB21D4B1A801C4B1B88C72B02D980
:1047E0001A4B00221A8001221949174807F043FB8F
:1047F0007B68194A93420ED1184B1A78184B1A70DD
:10480000184B1B8801339AB2164B1A8001221349A8
:10481000114807F030FB00BF0837BD4680BD00BF20
:104820000004002082070020D00A01088007002031
:10483000B8060020480400204C0800207006002024
:104840004E08002084070020900400201809002052
:104850001A09002050080020B8030020E6090020B3
:104860001C090020E409002080B500AF0E4B1B6836
:104870000D4A43F4007313600B4B1B680A4A43F460
:1048800080631360084B1B68074A43F4807313600E
:10489000032000F0FDFF0F2000F008F8FCF790FC6B
:1048A0000023184680BD00BF003C024080B582B0A6
:1048B00000AF7860124B1A68124B1B7819464FF400
:1048C0007A73B3FBF1F3B2FBF3F3184601F015F87A
:1048D0000346002B01D001230EE07B680F2B0AD882
:1048E000002279684FF0FF3000F0DDFF064A7B6858
:1048F0001360002300E0012318460837BD4680BD41
:10490000000000200C0000200800002080B400AF50
:10491000064B1B781A46064B1B681344044A136067
:1049200000BFBD465DF8047B704700BF0C0000204F
:10493000E809002080B400AF034B1B681846BD4651
:104940005DF8047B704700BFE809002080B584B0A3
:1049500000AF7860FFF7EEFFB8607B68FB60FB6834
:10496000B3F1FF3F05D00A4B1B781A46FB6813448E
:10497000FB6000BFFFF7DEFF0246BB68D31AFA6890
:104980009A42F7D800BF00BF1037BD4680BD00BFB8
:104990000C00002080B584B000AF78600023FB736A
:1049A0007B68002B01D1012333E07B681B6C002B5B
:1049B00009D17868FCF72CFC7B6800225A647B687C
:1049C000002283F83C207B681B6C03F01003002B53
:1049D00018D17B681B6C23F4885323F0020343F047
:1049E00002027B681A64786800F03AF97B6800225A
:1049F0005A647B681B6C23F0030343F001027B685D
:104A00001A6401E00123FB737B68002283F83C20D9
:104A1000FB7B18461037BD4680BD000080B485B0D2
:104A200000AF786039600023BB607B6893F83C304E
:104A3000012B01D1022305E17B68012283F83C2090
:104A40003B681B68092B25D97B681B68D9683B68C4
:104A50001B689BB21A4613465B0013441E3B072299
:104A600002FA03F3DA437B681B680A40DA607B686A
:104A70001B68D9683B689A683B681B689BB21846FC
:104A800003465B0003441E3B9A407B681B680A4355
:104A9000DA6022E07B681B6819693B681B689BB27F
:104AA0001A4613465B001344072202FA03F3DA4363
:104AB0007B681B680A401A617B681B6819693B6840
:104AC0009A683B681B689BB2184603465B00034428
:104AD0009A407B681B680A431A613B685B68062B37
:104AE00024D87B681B68596B3B685A6813469B0047
:104AF0001344053B1F2202FA03F3DA437B681B6869
:104B00000A405A637B681B68596B3B681B689BB201
:104B100018463B685A6813469B001344053B00FA4D
:104B200003F27B681B680A435A634CE03B685B688E
:104B30000C2B24D87B681B68196B3B685A6813469A
:104B40009B001344233B1F2202FA03F3DA437B68E2
:104B50001B680A401A637B681B68196B3B681B68FB
:104B60009BB218463B685A6813469B001344233B8C
:104B700000FA03F27B681B680A431A6323E07B6830
:104B80001B68D96A3B685A6813469B001344413B33
:104B90001F2202FA03F3DA437B681B680A40DA62D9
:104BA0007B681B68D96A3B681B689BB218463B68E8
:104BB0005A6813469B001344413B00FA03F27B689A
:104BC0001B680A43DA62224BFB607B681B68214A40
:104BD000934209D13B681B68122B05D1FB685B68C7
:104BE00043F48002FB685A607B681B68194A934251
:104BF00023D13B681B68102B03D03B681B68112B2B
:104C00001BD1FB685B6843F40002FB685A603B6899
:104C10001B68102B11D1104B1B68104AA2FB0323F9
:104C20009A0C13469B0013445B00BB6002E0BB6818
:104C3000013BBB60BB68002BF9D17B68002283F885
:104C40003C20002318461437BD465DF8047B7047AE
:104C500000230140002001400000002083DE1B43B0
:104C600080B485B000AF7860794BFB60FB685B680F
:104C700023F44032FB685A60FB685A687B685B68C3
:104C80001A43FB685A607B681B685A687B681B681C
:104C900022F480725A607B681B6859687B681B69C4
:104CA0001A027B681B680A435A607B681B685A6853
:104CB0007B681B6822F040725A607B681B685968E9
:104CC0007B689A687B681B680A435A607B681B682C
:104CD0009A687B681B6822F400629A607B681B6894
:104CE00099687B68DA687B681B680A439A607B680E
:104CF0009B6A584A934222D07B681B689A687B68FB
:104D00001B6822F070629A607B681B6899687B68F8
:104D10009A6A7B681B680A439A607B681B689A687A
:104D20007B681B6822F040529A607B681B68996818
:104D30007B68DA6A7B681B680A439A600FE07B68CD
:104D40001B689A687B681B6822F070629A607B68B7
:104D50001B689A687B681B6822F040529A607B68E7
:104D60001B689A687B681B6822F002029A607B6865
:104D70001B6899687B681B7E5A007B681B680A4326
:104D80009A607B6893F82030002B1BD07B681B68EF
:104D90005A687B681B6842F400625A607B681B6833
:104DA0005A687B681B6822F460425A607B681B6803
:104DB00059687B685B6A013B5A037B681B680A433E
:104DC0005A6007E07B681B685A687B681B6822F49E
:104DD00000625A607B681B68DA6A7B681B6822F491
:104DE0007002DA627B681B68D96A7B68DB69013B09
:104DF0001A057B681B680A43DA627B681B689A683D
:104E00007B681B6822F400729A607B681B68996853
:104E10007B6893F830305A027B681B680A439A60BB
:104E20007B681B689A687B681B6822F480629A60C2
:104E30007B681B6899687B685B699A027B681B6862
:104E40000A439A6000BF1437BD465DF8047B704783
:104E5000002301400100000F80B584B000AF7860EE
:104E60007B68002B01D10123EDE07B6893F82030B3
:104E7000DBB2002B02D17868FCF73EFA7B681B6836
:104E80001A687B681B6842F001021A60FFF752FD46
:104E9000F86012E0FFF74EFD0246FB68D31A0A2BBA
:104EA0000BD97B685B6A43F400327B685A627B688B
:104EB000052283F820200123C5E07B681B685B681E
:104EC00003F00103002BE5D07B681B681A687B6840
:104ED0001B6822F002021A60FFF72CFDF86012E056
:104EE000FFF728FD0246FB68D31A0A2B0BD97B6813
:104EF0005B6A43F400327B685A627B68052283F860
:104F0000202001239FE07B681B685B6803F002039D
:104F1000002BE5D17B681B7E012B08D17B681B68C9
:104F20001A687B681B6842F080021A6007E07B68A1
:104F30001B681A687B681B6822F080021A607B6815
:104F40005B7E012B08D17B681B681A687B681B6835
:104F500042F040021A6007E07B681B681A687B68B1
:104F60001B6822F040021A607B689B7E012B08D1EF
:104F70007B681B681A687B681B6842F020021A6015
:104F800007E07B681B681A687B681B6822F02002B8
:104F90001A607B68DB7E012B08D17B681B681A686E
:104FA0007B681B6822F010021A6007E07B681B68B0
:104FB0001A687B681B6842F010021A607B681B7FCE
:104FC000012B08D17B681B681A687B681B6842F05C
:104FD00008021A6007E07B681B681A687B681B6818
:104FE00022F008021A607B685B7F012B08D17B6886
:104FF0001B681A687B681B6842F004021A6007E0AD
:105000007B681B681A687B681B6822F004021A60C0
:105010007B689A687B68DB681A437B681B691A4364
:105020007B685B6942EA03017B685B685A1E7B68A8
:105030001B680A43DA617B6800225A627B6801229E
:1050400083F82020002318461037BD4680BD80B469
:1050500087B000AFF860B9607A603B60FB6893F896
:105060002030FB75FB7D012B03D0FB7D022B40F034
:105070000381BB68002B0ED1FB681B68DB6803F063
:105080000303002B16D1FB685B6A43F40012FB6834
:105090005A620123F7E0FB681B681B6903F00303F6
:1050A000002B07D1FB685B6A43F40012FB685A626D
:1050B0000123E8E0FB681A68BB681B331B0113443B
:1050C0001B6803F004027B689A607B689B68002B76
:1050D0000CD1FB681A68BB681B331B0113441B68A7
:1050E0005B0DC3F30A027B681A600BE0FB681A6869
:1050F000BB681B331B0113441B68DB0823F06042B1
:105100007B685A60FB681A68BB681B331B01134439
:105110001B6803F002027B68DA60FB681A68BB68F0
:105120001B331B01134404331B6803F00803002BDB
:1051300003D07B6808221A610BE0FB681A68BB6821
:105140001B331B01134404331B6803F00F027B68FD
:105150001A61FB681A68BB681B331B0113440433D4
:105160001B681B0ADAB27B689A61FB681A68BB6825
:105170001B331B01134404331B681B0C9AB27B685E
:105180005A61FB681A68BB681B01134403F5DC73A2
:105190001B68DAB23B681A70FB681A68BB681B01AF
:1051A000134403F5DC731B681A0A3B680133D2B25F
:1051B0001A70FB681A68BB681B01134403F5DC73A3
:1051C0001B681A0C3B680233D2B21A70FB681A686B
:1051D000BB681B01134403F5DC731B681A0E3B68A4
:1051E0000333D2B21A70FB681A68BB681B01134400
:1051F00003F5DE731A683B680433D2B21A70FB6899
:105200001A68BB681B01134403F5DE731B681A0A96
:105210003B680533D2B21A70FB681A68BB681B0181
:10522000134403F5DE731B681A0C3B680633D2B2D5
:105230001A70FB681A68BB681B01134403F5DE7320
:105240001B681A0E3B680733D2B21A70BB68002B7A
:1052500008D1FB681B68DA68FB681B6842F0200213
:10526000DA6007E0FB681B681A69FB681B6842F09C
:1052700020021A61002306E0FB685B6A43F4802287
:10528000FB685A62012318461C37BD465DF8047B53
:10529000704780B58AB000AF786000237B627B687E
:1052A0001B685B693B627B681B685B68FB617B68B2
:1052B0001B689B68BB617B681B68DB687B617B68E4
:1052C0001B681B693B617B681B689B69FB603B6AD1
:1052D00003F00103002B7CD0BB6903F00103002B1A
:1052E00023D07B681B6801229A60BB6903F002032C
:1052F000002B03D0786800F083F916E0BB6903F057
:105300000403002B04D07B6A43F400637B620CE04F
:10531000BB6903F00803002B04D07B6A43F480537D
:105320007B6202E0786800F089F9BB6903F480735E
:10533000002B24D07B681B684FF480729A60BB6995
:1053400003F40073002B03D0786800F063F916E0D3
:10535000BB6903F48063002B04D07B6A43F40053E1
:105360007B620CE0BB6903F40063002B04D07B6A12
:1053700043F480437B6202E0786800F069F9BB691E
:1053800003F48033002B24D07B681B684FF48032F9
:105390009A60BB6903F40033002B03D0786800F0F7
:1053A00043F916E0BB6903F48023002B04D07B6A29
:1053B00043F400437B620CE0BB6903F40023002B41
:1053C00004D07B6A43F480337B6202E0786800F0AB
:1053D00049F93B6A03F00803002B0CD07B6903F00A
:1053E0001003002B07D07B6A43F400737B627B6859
:1053F0001B681022DA603B6A03F00403002B0BD019
:105400007B6903F00803002B06D07B681B68082229
:10541000DA60786800F03AF93B6A03F00203002B87
:1054200009D07B681B68DB6803F00303002B02D004
:10543000786800F021F93B6A03F04003002B0CD0A0
:105440003B6903F01003002B07D07B6A43F48063B1
:105450007B627B681B6810221A613B6A03F02003A1
:10546000002B0BD03B6903F00803002B06D07B68B0
:105470001B6808221A61786800F012F93B6A03F091
:105480001003002B09D07B681B681B6903F0030322
:10549000002B02D07868FCF7ABFC3B6A03F40033C6
:1054A000002B0BD0FB6903F01003002B06D07B68A8
:1054B0001B6810225A60786800F0FCF83B6A03F41D
:1054C0008033002B0BD0FB6903F00803002B06D0C0
:1054D0007B681B6808225A60786800F0F5F83B6A20
:1054E00003F40043002B7BD0FB6903F00403002B83
:1054F00072D03B6A03F48073002B08D0FB6803F082
:105500000103002B03D07B6A43F001037B623B6AFB
:1055100003F40073002B08D0FB6803F00203002B98
:1055200003D07B6A43F002037B623B6A03F480632F
:10553000002B08D0FB6803F00403002B03D07B6A28
:1055400043F004037B623B6A03F40063002B43D007
:10555000FB6803F07003002B3ED0FB6803F0700380
:10556000602B2BD0602B2ED8502B22D0502B2AD83A
:10557000402B19D0402B26D8302B10D0302B22D8DE
:10558000102B02D0202B05D01DE07B6A43F00803CE
:105590007B6219E07B6A43F010037B6214E07B6A54
:1055A00043F020037B620FE07B6A43F040037B62A1
:1055B0000AE07B6A43F080037B6205E07B6A43F488
:1055C00080737B6200E000BF7B681B689A697B6820
:1055D0001B6822F070029A617B681B6804225A6083
:1055E0007B6A002B08D07B685A6A7B6A1A437B6807
:1055F0005A62786800F072F800BF2837BD4680BD57
:1056000080B483B000AF786000BF0C37BD465DF852
:10561000047B704780B483B000AF786000BF0C3764
:10562000BD465DF8047B704780B483B000AF7860FE
:1056300000BF0C37BD465DF8047B704780B483B073
:1056400000AF786000BF0C37BD465DF8047B704743
:1056500080B483B000AF786000BF0C37BD465DF802
:10566000047B704780B483B000AF786000BF0C3714
:10567000BD465DF8047B704780B483B000AF7860AE
:1056800000BF0C37BD465DF8047B704780B483B023
:1056900000AF786000BF0C37BD465DF8047B7047F3
:1056A00080B483B000AF786000BF0C37BD465DF8B2
:1056B000047B704780B483B000AF786000BF0C37C4
:1056C000BD465DF8047B704780B483B000AF78605E
:1056D00000BF0C37BD465DF8047B704780B483B0D3
:1056E00000AF786000BF0C37BD465DF8047B7047A3
:1056F00080B485B000AF78607B6803F00703FB607F
:105700000C4BDB68BB60BA684FF6FF031340BB600D
:10571000FB681A02BB68134343F0BF6343F40033D2
:10572000BB60044ABB68D36000BF1437BD465DF858
:10573000047B704700ED00E080B400AF044BDB68F1
:105740001B0A03F007031846BD465DF8047B70474B
:1057500000ED00E080B483B000AF0346FB7197F921
:105760000730002B0BDBFB7903F01F02074997F989
:1057700007305B09012000FA02F241F8232000BF44
:105780000C37BD465DF8047B704700BF00E100E0C8
:1057900080B483B000AF03463960FB7197F90730DE
:1057A000002B0ADB3B68DAB20C4997F9073012018B
:1057B000D2B20B4483F800230AE03B68DAB208490E
:1057C000FB7903F00F03043B1201D2B20B441A76AB
:1057D00000BF0C37BD465DF8047B704700E100E078
:1057E00000ED00E080B489B000AFF860B9607A6085
:1057F000FB6803F00703FB61FB69C3F10703042B9C
:1058000028BF0423BB61FB690433062B02D9FB6963
:10581000033B00E000237B614FF0FF32BB6902FADB
:1058200003F3DA43BB681A407B699A404FF0FF31BB
:105830007B6901FA03F3D9437B680B401343184695
:105840002437BD465DF8047B7047000080B582B008
:1058500000AF78607B68013BB3F1807F01D3012307
:105860000FE00A4A7B68013B53600F214FF0FF3085
:10587000FFF78EFF054B00229A60044B07221A6047
:10588000002318460837BD4680BD00BF10E000E089
:1058900080B582B000AF78607868FFF729FF00BF5D
:1058A0000837BD4680BD80B586B000AF0346B960FD
:1058B0007A60FB7300237B61FFF73EFF78617A68B3
:1058C000B9687869FFF78EFF024697F90F301146E5
:1058D0001846FFF75DFF00BF1837BD4680BD80B595
:1058E00082B000AF0346FB7197F907301846FFF707
:1058F00031FF00BF0837BD4680BD80B582B000AF24
:1059000078607868FFF7A2FF034618460837BD465F
:1059100080BD80B582B000AF78607B68002B01D17C
:1059200001230EE07B685B79DBB2002B05D17B683D
:1059300000221A717868FBF72FFD7B6801225A71EB
:10594000002318460837BD4680BD80B582B000AF41
:1059500078607B68002B01D1012314E07B681B7900
:10596000DBB2002B05D17B6800225A717868FBF707
:1059700035FD7B6802221A717B6800221A617B6800
:1059800001221A71002318460837BD4680BD80B435
:1059900089B000AFF860B9607A600023FB77FB68DC
:1059A000002B02D0BB68002B01D1012342E0FB6831
:1059B0005B79012B01D102233CE0FB6801225A7183
:1059C000FB6802221A71FB681B681B68BB617B685D
:1059D00003F0100340F6FE7202FA03F3DB43BA69E8
:1059E0001340BB61BB681A68BB685B6813437B618B
:1059F0007B6803F010037A6902FA03F3BA69134370
:105A0000BB61FB681B68BA691A60FB681B68196890
:105A10007B6803F01003C02202FA03F3DA43FB6849
:105A20001B680A401A60FB6801221A71FB68002299
:105A30005A71FB7F18462437BD465DF8047B7047DA
:105A400080B485B000AFF860B9607A60FB68002B65
:105A500001D101232AE0FB685B79012B01D10223EC
:105A600024E0FB6801225A71FB6802221A71FB686C
:105A70001B681A68BB6803F010034FF47C6101FADD
:105A800003F3DB4302EA03017B6843F08002BB6857
:105A900003F010039A40FB681B680A431A60FB6816
:105AA00001221A71FB6800225A710023184614372C
:105AB000BD465DF8047B704780B586B000AF786066
:105AC00000237B61FEF736FF38617B68002B01D134
:105AD000012399E07B68022283F835207B6800224D
