:020000040800F2
:100000000000022041350008613300086933000810
:1000100071330008793300088133000800000000C4
:10002000000000000000000000000000893300080C
:100030009733000800000000A5330008B333000820
:100040009135000891350008913500089135000878
:100050009135000891350008913500089135000868
:100060009135000891350008913500089135000858
:100070009135000891350008913500089135000848
:100080009135000891350008913500089135000838
:1000900091350008C13300089135000891350008FA
:1000A0009135000891350008913500089135000818
:1000B000D5330008913500089135000891350008C6
:1000C00091350008913500089135000891350008F8
:1000D000E9330008FD330008113400082534000816
:1000E00091350008913500089135000891350008D8
:1000F00091350008913500089135000891350008C8
:100100009135000839340008913500089135000810
:100110004D340008913500089135000891350008EC
:1001200091350008913500089135000861340008C8
:100130009135000891350008913500089135000887
:100140009135000891350008913500087534000894
:100150009135000889340008913500089D34000865
:100160009135000891350008913500089135000857
:100170009135000891350008913500080000000015
:080180009135000891350008DB
:1001900010B5054C237833B9044B13B10448AFF3C1
:1001A00000800123237010BD8000002000000000AB
:1001B0008899010808B5034B1BB103490348AFF305
:1001C000008008BD0000000084000020889901081C
:1001D00010F8012B11F8013B012A28BF9A42F7D0F1
:1001E000D01A7047034613F8012B002AFBD1181AC6
:1001F000013870470000000000000000000000000F
:1002000001F0FF01102A2BDB10F0070F08D010F8C7
:10021000013B013A8B422DD010F0070F42B3F6D1CB
:10022000F0B441EA012141EA014122F007047FF0E4
:1002300000070023F0E80256083C85EA010586EA3B
:10024000010685FA47F5A3FA87F586FA47F6A5FA77
:1002500087F68EB9EED1F0BC01F0FF0102F0070283
:1002600032B110F8013B013A83EA010313B1F8D12E
:100270000020704701387047002D06BF354603380F
:10028000073815F0010F07D1013015F4807F02BF48
:10029000013015F4C03F0130F0BC0138704700BF99
:1002A00070B54FF0FF0C4CF4E06C1CEA11541DBF0C
:1002B0001CEA135594EA0C0F95EA0C0F00F0DEF8D7
:1002C0002C4481EA030621EA4C5123EA4C5350EABC
:1002D000013518BF52EA033541F4801143F480130D
:1002E00038D0A0FB02CE4FF00005E1FB02E506F09E
:1002F0000042E0FB03E54FF00006E1FB03569CF0F3
:10030000000F18BF4EF0010EA4F1FF04B6F5007FF8
:1003100064F5407404D25FEA4E0E6D4146EB06066A
:1003200042EAC62141EA55514FEAC52040EA5E50F3
:100330004FEACE2EB4F1FD0C88BFBCF5E06F1ED89D
:10034000BEF1004F08BF5FEA500E50F1000041EBD4
:10035000045170BD06F0004646EA010140EA020081
:1003600081EA0301B4EB5C04C2BFD4EB0C0541EAA3
:10037000045170BD41F480114FF0000E013C00F3B8
:10038000AB8014F1360FDEBF002001F0004170BDDC
:10039000C4F10004203C35DA0C341BDC04F11404F5
:1003A000C4F1200500FA05F320FA04F001FA05F281
:1003B00040EA020001F0004221F0004110EBD3704E
:1003C00021FA04F642EB06015EEA430E08BF20EA7A
:1003D000D37070BDC4F10C04C4F1200500FA04F31D
:1003E00020FA05F001FA04F240EA020001F00041AF
:1003F00010EBD37041F100015EEA430E08BF20EA22
:10040000D37070BDC4F1200500FA05F24EEA020E69
:1004100020FA04F301FA05F243EA020321FA04F098
:1004200001F0004121FA04F220EA020000EBD3704F
:100430005EEA430E08BF20EAD37070BD94F0000F4F
:100440000FD101F00046400041EB010111F4801F83
:1004500008BF013CF7D041EA060195F0000F18BF34
:10046000704703F00046520043EB030313F4801F70
:1004700008BF013DF7D043EA0603704794EA0C0F2A
:100480000CEA135518BF95EA0C0F0CD050EA410640
:1004900018BF52EA4306D1D181EA030101F00041BD
:1004A0004FF0000070BD50EA410606BF10461946E5
:1004B00052EA430619D094EA0C0F02D150EA0136F1
:1004C00013D195EA0C0F05D152EA03361CBF104632
:1004D00019460AD181EA030101F0004141F0FE41D1
:1004E00041F470014FF0000070BD41F0FE4141F455
:1004F000780170BD81F0004102E000BF83F000434D
:1005000030B54FEA41044FEA430594EA050F08BFAE
:1005100090EA020F1FBF54EA000C55EA020C7FEA72
:10052000645C7FEA655C00F0E2804FEA5454D4EBEF
:100530005555B8BF6D420CDD2C4480EA020281EAB9
:10054000030382EA000083EA010180EA020281EAF1
:100550000303362D88BF30BD11F0004F4FEA013143
:100560004FF4801C4CEA113102D0404261EB410152
:1005700013F0004F4FEA03334CEA133302D05242D8
:1005800063EB430394EA050F00F0A780A4F1010494
:10059000D5F1200E0DDB02FA0EFC22FA05F28018CE
:1005A00041F1000103FA0EF2801843FA05F35941B4
:1005B0000EE0A5F120050EF1200E012A03FA0EFC33
:1005C00028BF4CF0020C43FA05F3C01851EBE3715D
:1005D00001F0004507D54FF0000EDCF1000C7EEB7A
:1005E00000006EEB0101B1F5801F1BD3B1F5001FB8
:1005F0000CD349085FEA30004FEA3C0C04F10104D7
:100600004FEA445212F5800F80F09A80BCF1004FFF
:1006100008BF5FEA500C50F1000041EB045141EA81
:10062000050130BD5FEA4C0C404141EB0101013C4A
:1006300028BFB1F5801FE9D291F0000F04BF014639
:100640000020B1FA81F308BF2033A3F10B03B3F10B
:1006500020020CDA0C3208DD02F1140CC2F10C029B
:1006600001FA0CF021FA02F10CE002F11402D8BFF9
:10067000C2F1200C01FA02F120FA0CFCDCBF41EAC5
:100680000C019040E41AA2BF01EB0451294330BD94
:100690006FEA04041F3C1CDA0C340EDC04F1140471
:1006A000C4F1200220FA04F001FA02F340EA030048
:1006B00021FA04F345EA030130BDC4F10C04C4F18E
:1006C000200220FA02F001FA04F340EA030029466E
:1006D00030BD21FA04F0294630BD94F0000F83F4B8
:1006E000801306BF81F480110134013D4EE77FEA9B
:1006F000645C18BF7FEA655C29D094EA050F08BFE7
:1007000090EA020F05D054EA000C04BF19461046C7
:1007100030BD91EA030F1EBF0021002030BD5FEA0B
:10072000545C05D14000494128BF41F0004130BD33
:1007300014F580043CBF01F5801130BD01F0004587
:1007400045F0FE4141F470014FF0000030BD7FEAFA
:10075000645C1ABF194610467FEA655C1CBF0B46F5
:10076000024650EA013406BF52EA033591EA030F0C
:1007700041F4002130BD00BF90F0000F04BF002104
:10078000704730B54FF4806404F132044FF0000537
:100790004FF0000150E700BF90F0000F04BF0021B0
:1007A000704730B54FF4806404F1320410F0004516
:1007B00048BF40424FF000013EE700BF42004FEA11
:1007C000E2014FEA31014FEA02701FBF12F07F438E
:1007D00093F07F4F81F06051704732F07F4208BF45
:1007E000704793F07F4F04BF41F40021704730B54C
:1007F0004FF4607401F0004521F000411CE700BF98
:1008000050EA010208BF704730B54FF000050AE01A
:1008100050EA010208BF704730B511F0004502D51B
:10082000404261EB41014FF4806404F132045FEA1D
:10083000915C3FF4D8AE4FF003025FEADC0C18BFC6
:1008400003325FEADC0C18BF033202EBDC02C2F1B8
:10085000200300FA03FC20FA02F001FA03FE40EA4A
:100860000E0021FA02F11444BDE600BF4A0011D285
:1008700012F5001211D20DD56FF47873B3EB6252FA
:100880000ED44FEAC12343F0004343EA505323FA06
:1008900002F070474FF00000704750EA013002D17B
:1008A0004FF0FF3070474FF00000704753B94AB91E
:1008B000002908BF00281CBF4FF0FF314FF0FF3068
:1008C00000F088B9ADF1080C6DE904CE00F006F82F
:1008D000DDF804E0DDE9022304B070472DE9F047BC
:1008E000089D8E4604468846002B4AD18A42174608
:1008F00062D9B2FA82F64EB1C6F1200301FA06F8C7
:1009000020FA03F3B74043EA0808B4404FEA174E11
:100910001FFA87FCB8FBFEF1230C0EFB118843EA9B
:10092000084301FB0CF29A4209D9FB1801F1FF3090
:1009300080F0EA809A4240F2E78002393B449A1AFA
:10094000A3B2B2FBFEF00EFB102243EA024300FB0F
:100950000CFC9C4509D9FB1800F1FF3280F0D680D1
:100960009C4540F2D3803B44023840EA0140A3EB6F
:100970000C0300211DB1F3400022C5E90032BDE89F
:10098000F0878B4205D90DB1C5E900010021084669
:10099000F5E7B3FA83F1002946D1734502D38242C9
:1009A00000F20581841A6EEB030201209046002DAF
:1009B000E5D0C5E90048E2E7002A00F09080B2FAED
:1009C00082F6002E40F0A4808A1A030C4FEA174EDC
:1009D00080B2BCB20121B2FBFEFC0EFB1C2243EA3A
:1009E000024304FB0CF29A4207D9FB180CF1FF38C2
:1009F00002D29A4200F2E080C4469B1AB3FBFEF298
:100A00000EFB123340EA034302FB04F49C4207D975
:100A1000FB1802F1FF3002D29C4200F2CA8002466B
:100A20001B1B42EA0C40A5E7C1F120068B4022FACD
:100A300006F71F430EFA01F420FA06F32EFA06FE1B
:100A40004FEA1749234300FA01F81FFA87FCBEFB5F
:100A5000F9F01C0C09FB10EE44EA0E4400FB0CFEFE
:100A6000A64502FA01F209D93C1900F1FF3A80F0DB
:100A70009C80A64540F2998002383C44A4EB0E04C9
:100A80001FFA83FEB4FBF9F309FB13444EEA044456
:100A900003FB0CFCA44508D93C1903F1FF3E80F090
:100AA0008280A4457FD9023B3C4443EA0040A4EB4A
:100AB0000C04A0FB02EC64457346E14662D35FD0B0
:100AC0005DB1B8EB030264EB090404FA06F622FAFE
:100AD00001F31E43CC40C5E9006400214FE7B1FBA0
:100AE000F2FC010C41EA0E4180B240EA01423B4671
:100AF00038463C46B846BE462026B1FBF7F1A2EB8D
:100B0000080241EA0C4166E7014618E710462CE767
:100B1000C6F120022EFA02F3B740B14020FA02F2E9
:100B20004FEA174E0A43B3FBFEF8BCB20EFB183374
:100B3000110C41EA034108FB04F9B04089454FEA32
:100B4000104380B23ED9791808F1FF3C01D28945A3
:100B50001FD8A1EB0901B1FBFEF909FB04F80EFB5C
:100B6000191192B242EA0142424529D2BA1809F15A
:100B7000FF31C4D24245C2D2A9F102013A44BEE7D4
:100B8000F0459DD2BEEB02036CEB070C0138E14649
:100B900096E7A7EB09094944A8F1020CB1FBFEF95D
:100BA00009FB04F8DBE773467FE7504666E7084633
:100BB000FDE63B44023A33E7ACF1020C3B441CE750
:100BC00049469CE7A1EB0901C446B1FBFEF909FBCC
:100BD00004F8C4E7704700BFB0B58EB004AF00237F
:100BE0007B6207F10C0300210A461A800A469A70BC
:100BF0003B1D00221A609A8000233B7007F036FDEF
:100C000001F0E2F803F04CFA03F04AFA0346002B35
:100C10000CD01F2005F052FA964B4FF6FF721A8047
:100C2000954B1F221A80002006F062FA06F06AF83F
:100C30000346002B05D0012006F0FCF88F4B002264
:100C40001A7001F0EFFC01F0C5FC01F027F901F08A
:100C500077F901F0C7F901F00FFA01F04FFA01F04E
:100C600017FB01F0E5FB01F00DFC01F035FC01F094
:100C70005DFC01F085FC01F083FA01F03FFB14F00C
:100C80006BFA01F0EFFD01F067FA01F0E1F901F014
:100C900083FB06F0D9FB07F031F84FF4FA7007F048
:100CA00057FD03F0FDF91F2005F008FA06F02AF8B9
:100CB000734A0F210B2006F053FF724A0B210F20BD
:100CC00006F01EFE704A2B210F2006F0FDFC6F4A35
:100CD00033210F2006F014FE01226D496D4811F0FA
:100CE0001EFA01226C496D4811F019FA012387F8A8
:100CF00023306B4B1B683B616A4B1B687B616A4B03
:100D00001B68BB61694B1B889BB27B62684807F01C
:100D1000B5F839697A69B8697B6A00930346654812
:100D200007F0ACF864480DF059FF7862796A6348BF
:100D300007F0A4F807F1100303221946604809F0F0
:100D400048F97862796A5F4807F098F85E4807F0DA
:100D500095F8012006F0CCF9102002F0E3FE5B4A82
:100D600000210A2006F0B0FC594A0021022006F0BA
:100D7000ABFC584A0021042006F0A6FC564A00218C
:100D8000062006F0A1FC554807F078F8544807F013
:100D900075F8012006F0BCFF002006F0D3FF032009
:100DA00006F0A6F94FF4487007F0D2FC002006F0D8
:100DB000AFFF012006F0C6FF072006F099F94FF4B7
:100DC000487007F0C5FC002006F0A2FF002006F0E6
:100DD000B9FF0F2006F08CF907F10C03184606F056
:100DE000D5F9002387F8233000237B62012387F89D
:100DF0002230012006F01EF8204B1B7803F09003F0
:100E0000002B72D01D4B1B7803F00F03012B04D174
:100E10004FF6FF7005F052F967E0184B1B7803F0AE
:100E20000F03022B04D14FF61F0005F047F95CE0D9
:100E3000124B1B7803F00F03032B04D14FF47840BF
:100E400005F03CF951E00D4B1B7803F00F03042B28
:100E500004D14FF4FC6005F031F946E0074B1B78F4
:100E600003F00F03052B3DD14FF6E07005F026F996
:100E70003BE000BF3607002004000020560700209A
:100E8000A0990108B8990108C8990108CC990108EE
:100E90006A08002020040020360900206804002091
:100EA000107AFF1F147AFF1F187AFF1F227AFF1F84
:100EB000E4990108589A0108C40100209C9A01088D
:100EC00054010020D09A0108189B01088C9B01084E
:100ED000A09B0108B49B0108C89B0108DC9B01088A
:100EE0005C9C01081F2005F0E9F8874B00221A706E
:100EF00002F01EFF0346002B0CD002F0CDFC834B0A
:100F00004FF6FF721A80824B1F221A80C82164207C
:100F100005F0EEFB02F036FF0346002B09D002F08D
:100F2000BBFC4FF4F0734FF448720021002005F031
:100F3000C5FC02F051FF0346002B0CD002F0ACFCC4
:100F40004FF4784300934FF4C8734FF4C8721421E0
:100F5000142005F0EDFD02F069FF0346002B3BD0A5
:100F600002F09AFC4FF6FF7005F0A8F848F2304303
:100F700000934FF4E6734FF42F723221322005F0C4
:100F8000D7FD40F2FF7300937B2340F2B922352155
:100F9000352005F0CDFD1F23009376234FF42D72ED
:100FA0003A214FF41E7005F0C3FD1F2300934FF448
:100FB000D2734FF4AA724FF4A071642005F0B8FD0B
:100FC0001F2300934FF4D2734FF420724FF4A0719B
:100FD0004FF4C87005F0ACFD4B4B00221A7097F827
:100FE0002330002B40F0C78003F05AF80346002B53
:100FF0005ED04FF4784005F061F84FF4FC6005F0E6
:101000005DF81F2005F05AF8404B4FF6FF721A802A
:1010100082214FF4F07005F01DFE3E4B2022082186
:10102000012005F059F93C4B10220021002005F069
:10103000E9FA394B18220021012005F0E3FA374B79
:1010400030220021012005F0DDFA344B302200214E
:10105000022005F0D7FA324B1B680093314B202257
:101060000A21042005F038F92F4B302202210820F4
:1010700005F032F92A4B1B6819462C4806F0FEFE93
:101080002B4A00210A2006F01FFB2A4A00210220D9
:1010900006F01AFB284A0021042006F015FB274A17
:1010A0000021062006F010FB012387F8233008E01A
:1010B0001B4B1B681946224806F0E0FE052387F803
:1010C000233005F01FFE0346002B45D0012005F01C
:1010D000B1FE0D4B00221A701A4B00931A4B2022BE
:1010E0000A21052005F0F8F8184B202205210620DA
:1010F00005F088FA1349164806F0C0FE154806F0B8
:10110000BDFE02F0C9FB36E056070020360700207E
:1011100004000020E49C0108A0990108B899010886
:1011200028070020089D0108149D0108249D01083E
:10113000B89D0108CC9D0108E09D0108F49D0108BF
:10114000089E010838070020949E0108A49E01080B
:10115000C89E0108289F0108994B1B780193994B61
:101160000093994B20220821042005F0B5F89549F9
:10117000964806F083FE97F82330012B46D10120D4
:1011800005F058FE8E4B1B7803F09003002B2ED0F9
:101190008F4B1B888F4A11880A22184605F012FCD3
:1011A000874B1B7803F00F03002B20DD7B6A002B9D
:1011B0001DD1894B20220A21092005F08DF8874B8B
:1011C00020220521072005F01DFA854B3022102131
:1011D000082005F081F8834A0021062006F074FA01
:1011E000814806F04BFE02F057FB01237B62744BF3
:1011F00000221A7002F01AFE0346002B06D002F0FD
:101200004BFB04F04BFF052387F8233097F823307E
:10121000052B19D1754806F031FE754A00210A20C8
:1012200006F052FA734A0021022006F04DFA724A83
:101230000021042006F048FA704A0021062006F03A
:1012400043FA062387F8233097F82330062B7DD105
:10125000642007F07DFA6A4B1B8803F44043002B9F
:1012600004D002F019FB072387F8233002F060FD59
:101270000346002B04D002F00FFB0A2387F823302B
:1012800007F10C03184605F081FF00225D495E4816
:101290000DF0D4FD00225D495B480DF0B1FE5B4BC3
:1012A000DB7803F5FA61594B5B781C46574B9B780A
:1012B0001D46544B1B781A46524B5B781846514BCF
:1012C0009B780293019000922B462246504806F0EC
:1012D000D5FD3B7B002B07D07B7B1946BB7B1A4699
:1012E0004C4806F0CBFD06E07B7B1946BB7B1A46DB
:1012F000494806F0C3FD494806F0C0FD414B1B7844
:101300001946404B5B781A463E4B9B7801930092FE
:101310000B46434A0021042006F0D6F93B7B002B04
:101320000AD07B7B1A46BB7B009313463D4A0021C3
:10133000062006F0C9F909E07B7B1A46BB7B0093C7
:101340001346394A0021062006F0BEF997F82330EB
:10135000072B40F018812A4B1B8803F44043002BD5
:1013600000F00781264B1B88C3F30D03002B61D1CE
:101370000022244924480DF061FD0022234922481F
:101380000DF03EFE214BDB7803F5FA611F4B5B78D5
:101390001C461E4B9B781D461A4B1B781A46194B50
:1013A0005B781846174B9B780293019000922B466E
:1013B00022461E4806F062FD1D4806F05FFDD5E09E
:1013C0005607002038070020E49F0108FC9F010811
:1013D000400700204C07002094A00108A8A00108A5
:1013E000C8A00108D8A00108ECA0010828A10108A4
:1013F0009CA10108B0A10108C4A10108D8A101085D
:101400006808002094050020D401002090050020E9
:10141000ECA1010818A2010830A2010848A20108A5
:101420009CA20108B4A20108C8A20108DCA201081C
:101430000CA30108424B1B88C3F30D030E2B40F095
:101440008F80404B9B781A46920013445B00DAB2BF
:101450003C4BDB781344DBB2103BDAB23A4BDA7028
:10146000384B1B791A46920013445B00DAB2354BB5
:101470005B791344DBB2103BDAB2334B5A70314B19
:101480009B791A46920013445B00DAB22D4BDB794C
:101490001344DBB2103BDAB22B4B9A70294B1B7A08
:1014A0001A46920013445B00DAB2264B5B7A13446F
:1014B000DBB2103BDAB2254B1A70224B9B7A1A46EC
:1014C000920013445B00DAB21E4BDB7A1344DBB2AA
:1014D000103BDAB21D4B5A701A4B1B7B1A46920016
:1014E00013445B00DAB2174B5B7B1344DBB2103B57
:1014F000DAB2164B9A700022144915480DF004FC1C
:101500000346002B06D0134806F0B8FC052387F8E5
:1015100023302BE000220C490D480DF0EDFC034672
:10152000002B06D00C4806F0A9FC052387F82330D1
:101530001CE00A4806F0A2FC052387F8233015E0DA
:1015400068080020A00700209005002094050020D6
:10155000D40100209CA30108C4A30108F0A3010842
:10156000BF4806F08BFC052387F82330BD4B0022D3
:101570001A8002F0DDFB0346002B04D002F08CF948
:101580000A2387F8233097F823300A2B32D1002022
:1015900005F046FDB44806F071FCB44A00210A206B
:1015A00006F092F8B24A0021022006F08DF8B14A06
:1015B0000021042006F088F8AF4A0021062006F03A
:1015C00083F802F085FB0021AC4808F057FD4FF48A
:1015D0007A7007F0BDF8002005F0ACFE1021A74896
:1015E00008F0A3FDA64810F077F80B2387F8233006
:1015F00000237B6297F823300B2B56D10A2007F08B
:10160000A7F8984B1B8803F44043002B02D0142307
:1016100087F8233002F0B6FB0346002B06D002F019
:101620003BF9142387F8233000237B62954801F0AF
:10163000B0FF0346BB80944801F0ABFF0346FB803C
:10164000FB88184601F0C6FF0346184602F04AF828
:101650000346184602F08CF803463B81BB881946C6
:10166000FB881A463B89894806F008FC884806F042
:1016700005FCBB88874A0021042006F025F8FB887A
:101680001A463B8900931346834A0021062006F040
:101690001BF8FB885B089BB203F2FF73FB83FB8B99
:1016A00000220021754808F062FD97F82330142BC2
:1016B0003ED1002005F03EFE724807F083F97248E3
:1016C00007F080F900216D4808F02FFD10216B48CC
:1016D00008F02BFD6A480FF0FFFF002005F0BAFC70
:1016E0006E4806F0CBFB6E4A00210A2005F0ECFFA5
:1016F0006C4A0021022005F0E7FF6B4A002104201C
:1017000005F0E2FF694A0021062005F0DDFF012215
:101710006749684810F003FD674802F0E3F81523B5
:1017200087F82330654B00221A80654B00221A800F
:1017300097F82330152B40F0DE80642007F008F87E
:1017400002F04AFB0346002B04D002F0A5F81E234A
:1017500087F82330434B1B88002B27D002F09CF8DE
:10176000584B1B781946584806F088FB574806F036
:1017700085FB544B1B781946554806F0FDFA514B32
:101780001B781A467021042005F000FF4D4B1B7892
:1017900019464F4802F094F94A4B1B781A467021BB
:1017A000062005F0F3FE2F4B00221A80434B1B88C6
:1017B000002B14D002F04CF8464B1B781A464821F7
:1017C000042005F0E3FE434B1B781946424806F01F
:1017D00055FB3E4806F052FB384B00221A8002F0BF
:1017E000A7FA0346002B0FD002F056F83B4806F04C
:1017F000C3FA41227021042005F0C8FE384806F0E3
:101800003DFB324806F03AFB2D4B1B88002B14D0D1
:1018100002F01EF8334B1B781A464821062005F0CB
:10182000B5FE304B1B7819462F4806F027FB27489A
:1018300006F024FB224B00221A8002F0A3FA034692
:10184000002B58D002F028F8244802F039F9412240
:101850007021062005F09AFE244806F00FFB47E0B1
:1018600010A401086808002030A4010848A5010858
:101870005CA5010870A5010884A501085C01002091
:10188000580700209C000020E400002098A50108D3
:10189000F4A5010828A601083CA6010850A60108E5
:1018A000D8A70108ECA7010800A8010814A801089E
:1018B000CE0A0020D80300202C010020CC0A0020F2
:1018C000F0060020A007002028A801083CA8010875
:1018D00070A80108040A002074A8010884A801085F
:1018E00088A801082806002094A80108A0A80108DB
:1018F000684806F0C3FA97F823301E2B3DD166489E
:1019000010F032FC654807F071FD002005F0BCFBCB
:10191000634806F0B3FA634A00210A2005F0D4FEBA
:10192000614A0021022005F0CFFE604A0021042018
:1019300005F0CAFE5E4A0021062005F0C5FE01F052
:1019400037FF01225B495C4810F0E9FB5B480FF070
:10195000EBFE01225A495B4810F0E1FB5A4B002292
:101960001A805A4B00221A80594801F03DFF59480D
:1019700006F048FE1F2387F8233097F823301F2BEB
:1019800058D102F053FA0346002B04D001F084FF33
:10199000282387F8233002F0CBF90346002B17D019
:1019A00001F07AFF414A0021042005F08DFE404AF3
:1019B0000021062005F088FE454801F015FF454846
:1019C00006F020FE444806F059FA444806F056FA5C
:1019D0003E4B1B881BB2002B13DA414B00930323B1
:1019E000404A0021042005F06FFE384B1B88C3F3EA
:1019F0000E033D4A19463D4806F040FA334B00229B
:101A00001A80314B1B881BB2002B13DA384B009322
:101A10000223384A0021062005F056FE2A4B1B8877
:101A2000C3F30E03344A1946344806F027FA264B0E
:101A300000221A8097F82330282B40F08C8001F088
:101A4000C5FE1D4810F090FB1E4810F08DFB0020D5
:101A500005F034FB2A4806F011FA2A4A00210A2030
:101A600005F032FE284A0021022005F02DFE274A0B
:101A70000021042005F028FE0B4A0021062005F075
:101A800023FE06F051FB0346002B43D0204806F00E
:101A9000F5F95BE03CA80108D80300202C010020E8
:101AA000ACA80108B0A90108CC9D0108C4A901088F
:101AB000D8A9010836090020680400205807002032
:101AC000020A0020B004002034090020000A00208F
:101AD000ECA90108FCA9010804AA010844AA01080C
:101AE00039090020A4AA010838090020B8AA010871
:101AF00072080020DCAA01086C080020F0AA010886
:101B00000CAB010878AB01088CAB0108A0AB010855
:101B1000B4AB0108954806F0B1F906F099FB03460D
:101B20007B62796A924806F0A9F93B4601220021BE
:101B3000184606F0BDFB3B7819468E4806F09EF924
:101B40003B788D4A0021042005F0BEFD05F00EFC17
:101B5000292387F8233097F82330292B6CD102F002
:101B6000E7F80346002B10D0012005F059FA01F0E8
:101B700093FE05F045FC814A0021022005F0A4FDFA
:101B80003B7819467E4806F079F902F0FBF80346E7
:101B9000002B10D0012005F05DFA01F07DFE05F06C
:101BA0003BFC784A0021022005F08EFD3B78194667
:101BB000754806F063F902F00FF90346002B2ED0AA
:101BC000012005F061FA01F067FE3B460122002189
:101BD000184606F06DFB3B780133DBB23B703B7877
:101BE000092B01D900233B703B46012200211846F6
:101BF00006F026FC3A78654BA3FB0213D9080B4686
:101C00009B000B445B00D31ADBB25B4A002104202B
:101C100005F05AFD3B7819465D4806F02FF902F0B1
:101C200005F90346002B07D0012005F047FA01F023
:101C300033FE322387F8233097F82330322B2BD111
:101C400005F0F6FB534810F08FFA0F2005F050FA1C
:101C5000514806F013F9514A00210A2005F034FDDD
:101C60004F4A0021022005F02FFD4E4A002104209A
:101C700005F02AFD4C4A0021062005F025FD16F04E
:101C800091FE00F0E5FA494B00221A70002387F814
:101C90002230332387F8233097F82330332B60D159
:101CA0000A2006F055FD414B1B78022B14D197F802
:101CB0002230012B10D001F0EFFD012387F82230F4
:101CC0003A4B00221A703A4A0021042005F0FCFC2D
:101CD000384806F0D3F817E0344B1B78012B13D1AA
:101CE00097F82230002B0FD001F0D6FD002387F8A3
:101CF00022302E4B00221A702A4A0021042005F0BF
:101D0000E3FC2D4806F0BAF813F046FA0346002B20
:101D100011D197F82130002B0DD101F0BDFD012329
:101D200087F82130254A0021062005F0CDFC244803
:101D300006F0A4F815E013F02FFA0346012B10D19A
:101D400097F82130012B0CD101F0A6FD002387F874
:101D50002130154A0021062005F0B6FC194806F08E
:101D60008DF816F045FEFFF744B800BFDCAB010864
:101D700000AC010810AC010898AC0108ACAC01083B
:101D8000C0AC01088CAB010864AD0108CDCCCCCC53
:101D900008AE0108F8040020BCAE010870AF0108CD
:101DA00084AF010898AF0108ACAF0108F81A002011
:101DB000C0AF0108D4AF010804B0010820B0010889
:101DC00034B0010864B0010880B594B000AF07F1E9
:101DD000200330220021184617F006FA07F10C0301
:101DE00000221A605A609A60DA601A610023BB60B0
:101DF000284B1B6C274A43F080531364254B1B6C04
:101E000003F08053BB60BB6800237B60224B1B68E0
:101E1000214A43F4804313601F4B1B6803F4804343
:101E20007B607B6805233B624FF480337B62012338
:101E3000BB620223BB634FF48003FB6304233B6458
:101E400048237B640223BB640323FB6407F1200364
:101E500018460CF0C9F80346002B01D000F07CFDB9
:101E60000F23FB6002233B6100237B614FF480530F
:101E7000BB610023FB6107F10C03022118460CF043
:101E80002BFB0346002B01D000F066FD00BF50374E
:101E9000BD4680BD003802400070004080B584B06F
:101EA00000AF3B4600221A605A609A60DA60214B0C
:101EB000214A1A601F4B4FF480325A601D4B00229A
:101EC0009A601C4B01221A611A4B01221A76194B97
:101ED000002283F82020174B0022DA62154B174AA4
:101EE0009A62144B0022DA60124B0122DA61114B24
:101EF000002283F830200F4B01225A610D4806F072
:101F00004BFC0346002B01D000F026FD0C233B6068
:101F100001237B600623BB603B461946054806F05B
:101F20001DFE0346002B01D000F016FD00BF103748
:101F3000BD4680BD9C000020002001400100000F34
:101F400080B584B000AF3B4600221A605A609A60A8
:101F5000DA60214B214A1A601F4B4FF480325A60DD
:101F60001D4B00229A601C4B01221A611A4B002261
:101F70001A76194B002283F82020174B0022DA62D0
:101F8000154B174A9A62144B0022DA60124B012259
:101F9000DA61114B002283F830200F4B01225A6185
:101FA0000D4806F0F9FB0346002B01D000F0D4FCED
:101FB0000D233B6001237B600623BB603B46194633
:101FC000054806F0CBFD0346002B01D000F0C4FC11
:101FD00000BF1037BD4680BDE40000200021014055
:101FE0000100000F80B500AF174B184A1A60164B5E
:101FF00009225A60144B00229A60134B0022DA60C7
:10200000114B4FF4C0221A610F4B4FF4E0025A619A
:102010000D4B00221A760C4B00225A760A4B0022F6
:102020009A76094B0022DA76074B00221A77064B84
:1020300000225A77044806F0BBFF0346002B01D06C
:1020400000F08AFC00BF80BD2C010020006400402D
:1020500080B500AF064B074A1A60054807F09DFFA0
:102060000346002B01D000F077FC00BF80BD00BF0D
:10207000540100200030024080B582B000AF3B46E2
:1020800000221A605A601B4B1B4A1A60194807F05D
:10209000D3FF0346002B01D000F05EFC00233B6021
:1020A00000237B603B4600221946124808F089F85D
:1020B0000346002B01D000F04FFC2C233B603B4635
:1020C000102219460B4808F07CF80346002B01D07B
:1020D00000F042FC4FF430621021064808F0CAF8C4
:1020E0000346002B01D000F037FC00BF0837BD4687
:1020F00080BD00BF5C0100200074004080B500AFCF
:10210000124B134A1A60114B124A5A600F4B0022AD
:102110009A600E4B0022DA600C4B4FF480421A6139
:102120000A4B00225A61094B00229A61074B002298
:10213000DA61064B00221A6204480AF031FF0346B6
:10214000002B01D000F008FC00BF80BD7001002012
:1021500000580040801A060080B500AF064B074AC1
:102160001A6005480CF0BAFC0346002B01D000F0C1
:10217000F3FB00BF80BD00BFC40100200008065073
:1021800080B586B000AF3B1D00221A605A609A608D
:10219000DA601A6100233B602B4B2C4A1A602A4BF1
:1021A00000225A60284B7F229A60274BFF22DA6078
:1021B000254B00221A61244B00225A61224B002237
:1021C0009A6121480CF01FFD0346002B01D000F05E
:1021D000C3FB00211C480DF03BF8034645F25002BA
:1021E00093422DD045F25002002117480DF016F809
:1021F00000233B7100237B710023BB7100233B61F3
:1022000000237B613B1D012219460F480CF07CFD29
:102210000346002B01D000F09FFB01233B700123FC
:102220007B700123BB702223FB703B4601221946C1
:1022300005480CF061FE0346002B01D000F08CFB3A
:1022400000BF1837BD4680BDD401002000280040E3
:1022500080B400AF0C4B0D4A1A600B4B00225A6041
:10226000094B00229A60084B0022DA60064B0022DC
:102270001A61054B00225A61034B48229A6100BF44
:10228000BD465DF8047B7047F4010020002C01403E
:1022900080B500AF174B184A1A60164B4FF4827284
:1022A0005A60144B00229A60124B0022DA60114BE4
:1022B00002221A610F4B01225A610E4B4FF4007239
:1022C0009A610C4B0022DA610A4B00221A62094B18
:1022D00000225A62074B00229A62064B0A22DA62F7
:1022E00004480EF00BFC0346002B01D000F034FB39
:1022F00000BF80BD380300200038004080B586B0A4
:1023000000AF07F1080300221A605A609A60DA6091
:102310003B4600221A605A601E4B4FF080421A6002
:102320001C4B41F61F425A601A4B00229A60194B0F
:1023300040F2E732DA60174B00221A61154B002297
:102340009A6114480FF011F90346002B01D000F0F8
:1023500003FB4FF48053BB6007F1080319460D4897
:102360000FF042FB0346002B01D000F0F5FA0023EA
:102370003B6000237B603B46194606480FF064FD36
:102380000346002B01D000F0E7FA00BF1837BD4626
:1023900080BD00BF5807002080B586B000AF07F1B0
:1023A000080300221A605A609A60DA603B460022F5
:1023B0001A605A601C4B1D4A1A601B4B03225A605C
:1023C000194B00229A60184B0622DA60164B002245
:1023D0001A61154B00229A6113480FF0C6F80346A4
:1023E000002B01D000F0B8FA4FF48053BB6007F126
:1023F000080319460C480FF0F7FA0346002B01D0EA
:1024000000F0AAFA20233B6000237B603B4619467C
:1024100005480FF019FD0346002B01D000F09CFA8F
:1024200000BF1837BD4680BD900300200008004063
:1024300080B500AF114B124A1A60104B4FF4E132D5
:102440005A600E4B00229A600C4B0022DA600B4B54
:1024500000221A61094B0C225A61084B00229A6132
:10246000064B0022DA6105480FF07EFD0346002B83
:1024700001D000F071FA00BF80BD00BFD80300207A
:10248000004C004080B500AF114B124A1A60104B4F
:102490004FF4E1325A600E4B00229A600C4B00223E
:1024A000DA600B4B00221A61094B0C225A61084B6F
:1024B00000229A61064B0022DA6105480FF054FDB4
:1024C0000346002B01D000F047FA00BF80BD00BFDB
:1024D000200400200010014080B500AF114B124ACB
:1024E0001A60104B4FF4E1325A600E4B00229A6092
:1024F0000C4B0022DA600B4B00221A61094B0C22B4
:102500005A61084B00229A61064B0022DA610548A5
:102510000FF02AFD0346002B01D000F01DFA00BF8A
:1025200080BD00BF680400200044004080B500AFBB
:10253000114B124A1A60104B4FF4E1325A600E4BA5
:1025400000229A600C4B0022DA600B4B00221A61C9
:10255000094B0C225A61084B00229A61064B00225B
:10256000DA6105480FF000FD0346002B01D000F0B2
:10257000F3F900BF80BD00BFB00400200048004058
:1025800080B500AF114B124A1A60104B4FF416522F
:102590005A600E4B00229A600C4B0022DA600B4B03
:1025A00000221A61094B0C225A61084B00229A61E1
:1025B000064B0022DA6105480FF0D6FC0346002BDB
:1025C00001D000F0C9F900BF80BD00BFF8040020B1
:1025D0000014014080B582B000AF00237B60104B37
:1025E0001B6B0F4A43F4800313630D4B1B6B03F407
:1025F00080037B607B68002202213B2007F097FC70
:102600003B2007F0B0FC00220221452007F08FFCA0
:10261000452007F0A8FC00BF0837BD4680BD00BFBD
:102620000038024080B58EB000AF07F124030022CD
:102630001A605A609A60DA601A6100233B62824B2A
:102640001B6B814A43F0040313637F4B1B6B03F046
:1026500004033B623B6A0023FB617B4B1B6B7A4AA2
:1026600043F020031363784B1B6B03F02003FB61E3
:10267000FB690023BB61744B1B6B734A43F08003FF
:102680001363714B1B6B03F08003BB61BB690023B9
:102690007B616D4B1B6B6C4A43F0010313636A4B08
:1026A0001B6B03F001037B617B6900233B61664B7D
:1026B0001B6B654A43F002031363634B1B6B03F010
:1026C00002033B613B690023FB605F4B1B6B5E4A6F
:1026D00043F0400313635C4B1B6B03F04003FB6050
:1026E000FB680023BB60584B1B6B574A43F0100339
:1026F0001363554B1B6B03F01003BB60BB680023D7
:102700007B60514B1B6B504A43F0080313634E4BE5
:102710001B6B03F008037B607B6801224FF40051C0
:102720004A4808F013FB01228021494808F00EFBBB
:10273000012241F2C201474808F008FB012248F299
:10274000DF01454808F002FB01220821434808F058
:10275000FDFA002220213F4808F0F8FA4FF4005318
:102760007B620123BB620123FB6200233B6307F111
:1027700024031946354808F035F980237B6201238C
:10278000BB620123FB6203233B6307F12403194669
:102790002F4808F027F941F2E2037B620123BB6274
:1027A0000123FB6203233B6307F1240319462948F5
:1027B00008F018F94FF470437B620023BB620123D9
:1027C000FB6207F124031946254808F00BF903239F
:1027D0007B621123BB620023FB6203233B6307F18F
:1027E000240319461C4808F0FDF848F2DC037B621C
:1027F0000123BB620123FB6203233B6307F1240334
:102800001946154808F0EEF842F220037B620023D7
:10281000BB620123FB6207F1240319460E4808F04E
:10282000E1F808237B620123BB620123FB620323DF
:102830003B6307F124031946084808F0D3F800BFAA
:102840003837BD4680BD00BF003802400008024056
:10285000000002400004024000180240000C024048
:102860000014024080B58EB000AF07F11C030022B7
:102870001A605A609A60DA601A615A619A613B463E
:1028800000221A605A609A60DA601A615A619A618D
:102890002F4B4FF020421A602D4B2E4A5A602C4B82
:1028A00000229A602A4B0022DA60294B00221A612A
:1028B000274B10225A61264B00229A61244B00229A
:1028C000DA61234B00221A62214B00225A62204B0C
:1028D0004FF480529A621E4B0022DA621C4B4FF476
:1028E00080421A631A4B00225A63194B00229A63E2
:1028F000174B00225A640F23FB610F233B623C23DA
:102900007B620023BB621023FB6211233B63002325
:102910007B6309233B600F237B600123BB600023A3
:10292000FB6010233B6111237B610023BB613A46AE
:1029300007F11C03194606480EF00CFD0346002B58
:1029400001D000F009F800BF3837BD4680BD00BF98
:1029500040050020040100A080B400AF72B600BFA3
:1029600000BFFDE780B483B000AF00237B60104B55
:102970005B6C0F4A43F4804353640D4B5B6C03F470
:1029800080437B607B6800233B60094B1B6C084ADB
:1029900043F080531364064B1B6C03F080533B6081
:1029A0003B6800BF0C37BD465DF8047B704700BF35
:1029B0000038024080B58CB000AF786007F11C038E
:1029C00000221A605A609A60DA601A617B681B689C
:1029D0002E4A934228D10023BB612D4B5B6C2C4ABD
:1029E00043F4807353642A4B5B6C03F48073BB61C4
:1029F000BB6900237B61264B1B6B254A43F0040314
:102A00001363234B1B6B03F004037B617B6904237B
:102A1000FB6103233B6200237B6207F11C03194621
:102A20001C4807F0DFFF2CE07B681B681A4A9342C2
:102A300027D100233B61164B5B6C154A43F40073AE
:102A40005364134B5B6C03F400733B613B690023DD
:102A5000FB600F4B1B6B0E4A43F0040313630C4BDC
:102A60001B6B03F00403FB60FB680823FB6103237B
:102A70003B6200237B6207F11C031946054807F0FF
:102A8000B1FF00BF3037BD4680BD00BF0020014010
:102A900000380240000802400021014080B58AB0A1
:102AA00000AF786007F1140300221A605A609A6040
:102AB000DA601A617B681B681D4A934234D1002397
:102AC0003B611C4B1B6C1B4A43F000731364194B96
:102AD0001B6C03F000733B613B690023FB60154BEB
:102AE0001B6B144A43F002031363124B1B6B03F07E
:102AF0000203FB60FB684FF440737B610223BB6100
:102B00000023FB6103233B6209237B6207F114036B
:102B10001946094807F066FF00220021152007F03A
:102B200006FA152007F01FFA00BF2837BD4680BD02
:102B300000640040003802400004024080B485B0C8
:102B400000AF78607B681B680B4A93420DD100236D
:102B5000FB600A4B1B6B094A43F480531363074B1A
:102B60001B6B03F48053FB60FB6800BF1437BD464A
:102B70005DF8047B704700BF00300240003802401F
:102B800080B58AB000AF786007F1140300221A60A4
:102B90005A609A60DA601A617B681B68174A934230
:102BA00027D100233B61164B1B6C154A43F00053A1
:102BB0001364134B1B6C03F000533B613B69002310
:102BC000FB600F4B1B6B0E4A43F0010313630C4B6E
:102BD0001B6B03F00103FB60FB6830237B61032365
:102BE000BB610023FB6107F114031946054807F098
:102BF000F9FE00BF2837BD4680BD00BF007400400D
:102C0000003802400000024080B58AB000AF786012
:102C100007F1140300221A605A609A60DA601A61A0
:102C20007B681B68194A93422BD100233B61184BE8
:102C30001B6B174A43F020031363154B1B6B03F008
:102C400020033B613B6903237B611223BB610023AB
:102C5000FB6103233B6204237B6207F114031946E3
:102C60000C4807F0BFFE0023FB60094B1B6C084AB1
:102C700043F480031364064B1B6C03F48003FB6076
:102C8000FB6800BF2837BD4680BD00BF005800402C
:102C9000003802400014024080B485B000AF786074
:102CA0007B681B680B4A93420DD10023FB600A4BE3
:102CB0005B6B094A43F040035363074B5B6B03F0C4
:102CC0004003FB60FB6800BF1437BD465DF8047B22
:102CD000704700BF000806500038024080B586B03B
:102CE00000AF786007F1080300221A605A609A600A
:102CF000DA607B681B680C4A934211D10223BB60E7
:102D00004FF480737B6107F1080318460BF004FE53
:102D10000346002B01D0FFF71FFE044B01221A606F
:102D200000BF1837BD4680BD002800403C0E47421A
:102D300080B58AB000AF786007F1140300221A60F2
:102D40005A609A60DA601A617B681B68684A93422D
:102D500040F0C98000233B61664B5B6C654A43F4DD
:102D600000635364634B5B6C03F400633B613B693A
:102D70000023FB605F4B1B6B5E4A43F0040313634D
:102D80005C4B1B6B03F00403FB60FB680023BB6020
:102D9000584B1B6B574A43F008031363554B1B6B8F
:102DA00003F00803BB60BB684FF4F8537B61022358
:102DB000BB610023FB6103233B620C237B6207F1B1
:102DC000140319464C4807F00DFE04237B610223CF
:102DD000BB610023FB6103233B620C237B6207F191
:102DE00014031946454807F0FDFD454B454A1A6056
:102DF000434B4FF000625A60414B00229A60404BB7
:102E00000022DA603E4B4FF480621A613C4B4FF473
:102E100080525A613A4B4FF480429A61384B2022DB
:102E2000DA61374B00221A62354B04225A62344B66
:102E300003229A62324B4FF40002DA62304B4FF4B5
:102E400000121A632E4807F051FA0346002B01D0F6
:102E5000FFF782FD7B682A4A1A64294A7B689363DC
:102E6000294B2A4A1A60284B4FF000625A60264BC1
:102E700040229A60244B0022DA60234B4FF4806298
:102E80001A61214B4FF480525A611F4B4FF480421C
:102E90009A611D4B2022DA611B4B00221A621A4BE9
:102EA00004225A62184B03229A62174B4FF4000215
:102EB000DA62154B4FF400121A63134807F016FA42
:102EC0000346002B01D0FFF747FD7B680E4ADA630B
:102ED0000D4A7B68936300220121312007F027F817
:102EE000312007F040F800BF2837BD4680BD00BF45
:102EF000002C01400038024000080240000C024053
:102F00007802002058640240D8020020A0640240E9
:102F100080B58AB000AF786007F1140300221A6010
:102F20005A609A60DA601A617B681B681D4A934296
:102F300034D100233B611C4B1B6C1B4A43F4804380
:102F40001364194B1B6C03F480433B613B69002302
:102F5000FB60154B1B6B144A43F002031363124BC7
:102F60001B6B03F00203FB60FB684FF460437B6163
:102F70000223BB610023FB6103233B6205237B62C9
:102F800007F114031946094807F02CFD002200211F
:102F9000242006F0CCFF242006F0E5FF00BF2837F0
:102FA000BD4680BD003800400038024000040240A9
:102FB00080B584B000AF78607B681B68B3F1804F48
:102FC00016D10023FB60164B1B6C154A43F001031E
:102FD0001364134B1B6C03F00103FB60FB680022BE
:102FE00000211C2006F0A3FF1C2006F0BCFF12E00D
:102FF0007B681B680B4A93420DD10023BB60084BD2
:103000001B6C074A43F004031364054B1B6C03F06D
:103010000403BB60BB6800BF1037BD4680BD00BF66
:10302000003802400008004080B592B000AF7860E0
:1030300007F1340300221A605A609A60DA601A615C
:103040007B681B68924A934234D100233B63914BC7
:103050001B6C904A43F4002313648E4B1B6C03F4E7
:1030600000233B633B6B0023FB628A4B1B6B894A4B
:1030700043F001031363874B1B6B03F00103FB62F7
:10308000FB6A03237B630223BB630123FB630323EC
:103090003B6408237B6407F1340319467E4807F03C
:1030A000A1FC00220021342006F041FF342006F06C
:1030B0005AFFE8E07B681B68784A934235D10023C9
:1030C000BB62744B5B6C734A43F010035364714BE7
:1030D0005B6C03F01003BB62BB6A00237B626D4B29
:1030E0001B6B6C4A43F0010313636A4B1B6B03F0C9
:1030F00001037B627B6A4FF4C0637B630223BB6383
:103100000123FB6303233B6407237B6407F1340340
:103110001946614807F066FC00220021252006F0D0
:1031200006FF252006F01FFFADE07B681B685C4AA8
:10313000934234D100233B62564B1B6C554A43F4F7
:1031400000331364534B1B6C03F400333B623B6A44
:103150000023FB614F4B1B6B4E4A43F0010313638B
:103160004C4B1B6B03F00103FB61FB690C237B637E
:103170000223BB630123FB6303233B6407237B64BC
:1031800007F134031946444807F02CFC00220021C3
:10319000262006F0CCFE262006F0E5FE73E07B68D4
:1031A0001B68404A934235D10023BB61394B1B6CED
:1031B000384A43F480231364364B1B6C03F480239A
:1031C000BB61BB6900237B61324B1B6B314A43F00F
:1031D000020313632F4B1B6B03F002037B617B69BC
:1031E0004FF440637B630223BB630123FB63032330
:1031F0003B6407237B6407F1340319462A4807F030
:10320000F1FB00220021272006F091FE272006F086
:10321000AAFE38E07B681B68244A934233D100231E
:103220003B611C4B5B6C1B4A43F020035364194BFE
:103230005B6C03F020033B613B690023FB60154B93
:103240001B6B144A43F004031363124B1B6B03F014
:103250000403FB60FB68C0237B630223BB63012381
:10326000FB6303233B6408237B6407F134031946A3
:103270000F4807F0B7FB00220021472006F057FE59
:10328000472006F070FE00BF4837BD4680BD00BF36
:10329000004C004000380240000002400010014095
:1032A0000044004000480040000402400014014077
:1032B0000008024080B586B000AF3B1D00221A60B6
:1032C0005A609A60DA601A611C4B1B68002B31D17E
:1032D0001A4B01221A6000233B60194B9B6B184A62
:1032E00043F001039363164B9B6B03F001033B60B8
:1032F0003B684FF680737B600223BB600123FB6059
:1033000003233B610C237B613B1D19460D4807F0ED
:1033100069FB4EF2B3737B600223BB600123FB6049
:1033200003233B610C237B613B1D1946064807F0D4
:1033300059FB00E000BF1837BD4680BDA80500203E
:103340000038024000100240000C024080B582B0FC
:1033500000AF7860FFF7AEFF00BF0837BD4680BD05
:1033600080B400AF00BFFDE780B400AF00BFFDE751
:1033700080B400AF00BFFDE780B400AF00BFFDE741
:1033800080B400AF00BFFDE780B400AF00BFBD4612
:103390005DF8047B704780B400AF00BFBD465DF8A8
:1033A000047B704780B400AF00BFBD465DF8047B6E
:1033B000704780B500AF05F0ABF900BF80BD0000DD
:1033C00080B500AF024806F0A7FA00BF80BD00BF7D
:1033D0002C01002080B500AF02480EF015FA00BFA6
:1033E00080BD00BF5807002080B500AF02480DF037
:1033F000B7FD00BF80BD00BF3803002080B500AF1F
:1034000002480EF063FF00BF80BD00BF2004002013
:1034100080B500AF02480EF059FF00BF80BD00BF6D
:103420006804002080B500AF02480EF04FFF00BFD7
:1034300080BD00BFB004002080B500AF02480CF092
:103440003BFB00BF80BD00BFF401002080B500AF92
:1034500002480EF03BFF00BF80BD00BFD803002034
:1034600080B500AF024807F081F800BF80BD00BF03
:103470007802002080B500AF024807F03DFF00BF92
:1034800080BD00BFD81E002080B500AF024807F005
:103490006DF800BF80BD00BFD802002080B500AF2E
:1034A00002480EF013FF00BF80BD00BFF8040020EB
:1034B00080B586B000AF7860144A154BD31A7B6193
:1034C0007B693B61134B1B68002B02D1114B124AE5
:1034D0001A60104B1A687B6813443A699A4207D203
:1034E00015F09AFE03460C221A604FF0FF3309E0F4
:1034F000084B1B68FB60074B1A687B681344054A3E
:103500001360FB6818461837BD4680BD00000220D6
:1035100000400000AC0500200024002080B400AF73
:10352000064BD3F88830054A43F47003C2F888305C
:1035300000BFBD465DF8047B704700BF00ED00E0B2
:10354000DFF834D00D480E490E4A002302E0D4586B
:10355000C4500433C4188C42F9D30B4A0B4C0023DB
:1035600001E013600432A242FBD3FFF7D7FF15F04E
:1035700059FEFDF731FB70470000022000000020DB
:1035800080000020CCCD0308800000200024002013
:10359000FEE780B582B000AF7860786805F040F94A
:1035A0004FF4FA71786805F040FA786805F0F8FB96
:1035B000034603F40073B3F5007F05D1786805F086
:1035C000BFFA03469BB201E04FF6FF731846083777
:1035D000BD4680BD80B487B000AF0346FB800023AA
:1035E0003B610023FB824FF6FF73BB820023FB731A
:1035F0000EE0FB7BC3F13002FB7BC3F131033749A3
:1036000031F81210354A22F81310FB7B0133FB739B
:10361000FB7B302BEDD9314AFB8813800023FB73F1
:103620001AE0FB7B2D4A32F81330FA8A9A4204D80A
:10363000FB7B2A4A32F81330FB82FB7B274A32F8A5
:103640001330BA8A9A4204D3FB7B244A32F81330EF
:10365000BB82FB7B0133FB73FB7B312BE1D9002366
:10366000FB732BE0FB7B1D4A32F81330FA8A9A4237
:1036700002D14FF6FF73FB82FB7B184A32F81330FE
:10368000BA8A9A4201D10023BB82FB7B134A32F8EB
:103690001330FA8A9A420ED0FB7B104A32F813306C
:1036A000BA8A9A4207D0FB7B0C4A32F813301A468A
:1036B0003B6913443B61FB7B0133FB73FB7B312B89
:1036C000D0D93B69064AA2FB03231B09BB82BB8AF4
:1036D00018461C37BD465DF8047B7047B0050020D6
:1036E0001F85EB5180B485B000AF0346FB800023FB
:1036F000BB730123FB730EE0FB7BC3F10802FB7B72
:10370000C3F10903194931F81210184A22F81310AD
:10371000FB7B0133FB73FB7B082BEDD9134AFB8842
:1037200013800023FB7316E0FB7B104A32F8133042
:10373000FA889A420AD1BB7B0133BB73BB7B072B50
:1037400006D90A4AFB885382FB8809E00023BB7331
:10375000FB7B0133FB73FB7B082BE5D9034B5B8AB7
:1037600018461437BD465DF8047B704714060020E8
:1037700080B582B000AF0346FB80FB881846FDF79A
:103780000BF809A3D3E90023FCF78AFD02460B4698
:1037900010461946FDF76AF803469BB218460837EB
:1037A000BD4680BDAFF300809A9CC9999CC9E93F92
:1037B00080B500AF00220821034807F0C7FA0A20AD
:1037C00004F0C6FF00BF80BD000C024080B500AF12
:1037D00001220821034807F0B9FA0A2004F0B8FFD3
:1037E00000BF80BD000C02400FB480B5B4B000AF84
:1037F0000023A7F8CE3007F1DC033B60381D3B689F
:10380000D7F8D820C92115F0E1FC3B1D1846FCF77C
:10381000E9FC0346A7F8CE303B1D1846FCF7E2FC56
:103820000346C82B02D9C823A7F8CE30B7F8CE205C
:10383000391D4FF6FF7305480EF0E6FB00BFD03789
:10384000BD46BDE8804004B0704700BFB004002012
:1038500080B582B000AF0023FB8012E000228021FF
:103860000C4807F073FA012004F072FF0122802156
:10387000084807F06BFA012004F06AFFFB88013367
:10388000FB80FB88312BE9D900BF00BF0837BD465C
:1038900080BD00BF0000024080B582B000AF0023B1
:1038A000FB8014E0002280210D4807F04FFA4FF40E
:1038B000FA7000F021FA01228021094807F046FA47
:1038C0004FF4FA7000F018FAFB880133FB80FB8894
:1038D000C72BE7D900BF00BF0837BD4680BD00BF7A
:1038E0000000024080B58EB000AF7860244B00220B
:1038F0009A60234B0022DA6000233B6200237B6244
:103900000123BB620023FB6000233B6100237B613A
:103910000023BB610123FB610123FB6200233B63A6
:1039200007F10C031946786805F03EFC034687F85A
:10393000373097F83730002B02D0124804F09EFA47
:10394000786805F00FFD034687F8373097F8373071
:10395000002B02D00C4804F091FA1021786805F091
:10396000B5FF034687F8373097F83730002B02D081
:10397000064804F083FA00BF3837BD4680BD00BF5B
:10398000F406002080B00108A0B00108C0B0010812
:1039900080B586B000AF786007F10C030B4A0121B7
:1039A000786805F071FE0346FB75FB7D002B08D19E
:1039B0003A7B074B1A70074B1B8801339AB2054BB1
:1039C0001A8000BF1837BD4680BD00BF0C0700201D
:1039D00028060020F006002080B588B000AFF8600F
:1039E0007A601A460B467B8113463B810023BB83DA
:1039F0000023FB767B892F4A1360FB68002B05D0E0
:103A00007B68002B02D03B89002B04D12A4804F0AC
:103A100035FA012349E03B89DB089BB23A8902F081
:103A2000070292B2002A14BF01220022D2B213442C
:103A3000FB83F86805F0F3FD0346FB761D4B082277
:103A40001A612CE0FB8B002B10D13B8903F007039C
:103A50009BB2002B0AD03B8903F00703154A136180
:103A600004E0F86805F0DBFD0346FB76FB7E002BE7
:103A7000F7D0BB8B7A681A4407F114030D49F86834
:103A800005F0FDFC0346BB76BB7E002B04D00B4843
:103A900004F0F4F9022308E0BB8B0833BB83FB8BF3
:103AA0005A1EFA83002BCDD1002318462037BD467D
:103AB00080BD00BFF406002080B00108E4B001081A
:103AC0000FB480B5B4B000AF0023A7F8CE3007F133
:103AD000DC033B60381D3B68D7F8D820C92115F0BE
:103AE00075FB3B1D1846FCF77DFB0346A7F8CE305F
:103AF0003B1D1846FCF776FB0346C82B02D9C823AA
:103B0000A7F8CE30B7F8CE303A1D12210448FFF79F
:103B100063FF00BFD037BD46BDE8804004B07047AA
:103B20002C01002080B584B000AF0346FB7100F08B
:103B30003DF8012000F0B0F810211A4806F09EFA76
:103B4000642004F005FEFB79102B01D91023FB71D2
:103B50000023FB6012E0144AFB6813441B781A46EA
:103B6000FB7902FB03F3002210210E4806F0FFFA56
:103B70007D2000F0C1F8FB680133FB60FB6844F670
:103B800063729342E7D9642004F0E2FD002000F064
:103B900083F81021034806F0C8FA00BF1037BD466D
:103BA00080BD00BF5C010020BCB1010880B582B0BF
:103BB00000AF3B4600221A605A60144B144A1A6048
:103BC000124806F039FA0346002B01D0FEF7C4FE76
:103BD00000233B6000237B603B46002219460B48D4
:103BE00006F0EFFA0346002B01D0FEF7B5FE3B4688
:103BF00010221946054806F0E4FA0346002B01D0CE
:103C0000FEF7AAFE00BF0837BD4680BD5C0100205C
:103C10000074004080B582B000AF3B4600221A60BD
:103C20005A601B4B1B4A1A60194806F005FA0346F6
:103C3000002B01D0FEF790FE00233B6000237B6049
:103C40003B4600221946124806F0BBFA0346002BF9
:103C500001D0FEF781FE2C233B603B461022194623
:103C60000B4806F0AEFA0346002B01D0FEF774FEB7
:103C70004FF430621021064806F0FCFA0346002B90
:103C800001D0FEF769FE00BF0837BD4680BD00BF0A
:103C90005C0100200074004080B582B000AF034694
:103CA000FB71FB79002B06D000224FF4005107482E
:103CB00007F04CF805E001224FF40051034807F0EB
:103CC00045F800BF0837BD4680BD00BF0008024070
:103CD00080B500AFFFF79EFF05480DF095FC102161
:103CE000044806F0CBF90120FFF7D6FF00BF80BDE6
:103CF000900300205C01002080B584B000AF7860A4
:103D00000AF0D6FD0346094AA2FB03235A0D7B683D
:103D100002FB03F3FB6000BFFB685A1EFA60002B36
:103D2000FAD100BF00BF1037BD4680BD83DE1B4304
:103D300080B582B000AF0023FB714FF48051104872
:103D400006F0ECFF0346002B0CD1142004F000FD1C
:103D50004FF480510A4806F0E1FF0346002B01D1E1
:103D60000123FB7100BF4FF48051054806F0D6FFD8
:103D70000346002BF7D0FB7918460837BD4680BDB7
:103D80000014024080B582B000AF0023FB714FF4F5
:103D90000051104806F0C2FF0346002B0CD114203E
:103DA00004F0D6FC4FF400510A4806F0B7FF034672
:103DB000002B01D10123FB7100BF4FF400510548D6
:103DC00006F0ACFF0346002BF7D0FB791846083706
:103DD000BD4680BD0014024080B582B000AF002314
:103DE000FB714FF48041104806F098FF0346002B0A
:103DF0000CD1142004F0ACFC4FF480410A4806F0CA
:103E00008DFF0346002B01D10123FB7100BF4FF44E
:103E10008041054806F082FF0346002BF7D0FB796E
:103E200018460837BD4680BD0014024080B582B0F8
:103E300000AF0023FB714FF40041104806F06EFF05
:103E40000346002B0CD1142004F082FC4FF40041F7
:103E50000A4806F063FF0346002B01D10123FB71E2
:103E600000BF4FF40041054806F058FF0346002B01
:103E7000F7D0FB7918460837BD4680BD00140240D4
:103E800080B582B000AF0346FB8000BF00BFBA1D03
:103E900001234FF0C04103480DF004FB00BF083779
:103EA000BD4680BD4005002080B582B000AF03460E
:103EB000FB8000BF00BFBA1D0123044904480DF078
:103EC000F1FA00BF0837BD4680BD00BF00000860A2
:103ED0004005002080B582B000AFBA1D012304491F
:103EE00004480DF07FFAFB8818460837BD4680BDB0
:103EF000000008604005002080B582B000AF034696
:103F00000A46FB801346BB80BA1D01234FF0C04117
:103F100006480DF0C7FA3A1D0123054903480DF084
:103F2000C1FA00BF0837BD4680BD00BF4005002074
:103F30000000086080B582B000AF0346FB80FB88BC
:103F40001846FFF79DFF0520FFF7D6FEFFF7C2FFDB
:103F5000034618460837BD4680BD000080B582B0D4
:103F600000AF03460A46FB801346BB80474B1B68E5
:103F7000B3F5804F5ED1464B1A88FB881B0A9BB273
:103F800019461046FFF7B8FF414B1B8801339BB21F
:103F9000FA88D2B292B211461846FFF7ADFF3C4BF9
:103FA0001B8802339AB23B4B1B88013B1B129BB20E
:103FB00019461046FFF7A0FF354B1B8803339AB212
:103FC000344B1B88013B9BB2DBB29BB219461046B7
:103FD000FFF792FF304B1A88BB881B0A9BB2194629
:103FE0001046FFF789FF2C4B1B8801339BB2BA8820
:103FF000D2B292B211461846FFF77EFF264B1B88BD
:1040000002339AB2254B1B88013B1B129BB2194607
:104010001046FFF771FF204B1B8803339AB21F4BEA
:104020001B88013B9BB2DBB29BB219461046FFF7DF
:1040300063FF27E0164B1A88FB881B0A9BB21946C0
:104040001046FFF759FF124B1B8801339BB2FA88C9
:10405000D2B292B211461846FFF74EFF0E4B1A88A5
:10406000BB881B0A9BB219461046FFF745FF0A4B57
:104070001B8801339BB2BA88D2B292B2114618465D
:10408000FFF73AFF00BF0837BD4680BD2807002074
:10409000320700202E070020340700202C070020C4
:1040A000B0B58EB000AF914B3C461D460FCD0FC44E
:1040B0000FCD0FC40FCD0FC42B6823604FF45A40AF
:1040C000FFF738FF03461A46894B1A60884B1B6876
:1040D0001B02874A13604FF45B40FFF72BFF034638
:1040E0001A46834B1B681343814A1360804B1B683D
:1040F0001B027F4A13604FF45C40FFF71BFF03462F
:104100001A467B4B1B681343794A13600023FB86D6
:10411000774B1B68B3F5004F40F0958155214FF464
:104120007040FFF7E9FEAA214FF20100FFF7E4FE1D
:1041300052214FF20200FFF7DFFE08214FF2030089
:10414000FFF7DAFE01214FF20400FFF7D5FE0D2143
:104150004FF43040FFF7D0FE0D214BF20100FFF786
:10416000CBFE0D214BF20200FFF7C6FE34214FF4C7
:104170003640FFF7C1FE34214BF20160FFF7BCFE71
:1041800034214BF20260FFF7B7FE0D214FF43140AE
:10419000FFF7B2FE0D214BF20110FFF7ADFE0D212E
:1041A0004BF20210FFF7A8FE34214FF43740FFF71F
:1041B000A3FE34214BF20170FFF79EFE34214BF237
:1041C0000270FFF799FE00214FF43240FFF794FE92
:1041D00000214BF20120FFF78FFE00214BF202205D
:1041E000FFF78AFE24214FF43840FFF785FE242193
:1041F0004BF60100FFF780FE24214BF60200FFF78B
:104200007BFE01214FF43F40FFF776FE0F214FF474
:104210003340FFF771FE0F214BF20130FFF76CFEC8
:104220000F214BF20230FFF767FE34214FF4394083
:10423000FFF762FE34214BF60110FFF75DFE3421DB
:104240004BF60210FFF758FE08214FF43540FFF7F8
:1042500053FE08214BF20150FFF74EFE08214BF2AE
:104260000250FFF749FE03214FF44240FFF744FE9E
:1042700024214FF43A40FFF73FFE24214BF6012062
:10428000FFF73AFE24214BF60220FFF735FE00210E
:104290004FF43C40FFF730FE78214BF60140FFF72A
:1042A0002BFE00214BF60240FFF726FE00214FF4C3
:1042B0003D40FFF721FE78214BF60150FFF71CFE31
:1042C00000214BF60250FFF717FE00214FF43E404D
:1042D000FFF712FE64214BF60160FFF70DFED123BC
:1042E000BB861FE00023FB8616E000BF04B1010877
:1042F00028070020BB8E1B029AB2FB8E13449AB291
:10430000FB8E38333B4413F8383C19461046FFF710
:10431000F3FDFB8E0133FB86FB8E332BEAD9BB8E7C
:104320000133BB86BB8ED62BDCD955214FF47040B0
:10433000FFF7E2FDAA214FF20100FFF7DDFD522158
:104340004FF20200FFF7D8FD08214FF20300FFF7FC
:10435000D3FD00214FF20400FFF7CEFDCC214FF436
:104360003140FFF7C9FD00214BF20110FFF7C4FDFA
:1043700005214FF43640FFF7BFFD70214FF4374061
:10438000FFF7BAFD70214BF20170FFF7B5FD012177
:104390004FF43840FFF7B0FD03214BF60100FFF763
:1043A000ABFD03214BF60200FFF7A6FD03214BF600
:1043B0000300FFF7A1FD02214FF43C40FFF79CFDF5
:1043C00000214BF60140FFF797FD00214BF602401C
:1043D000FFF792FDD0214FF44940FFF78DFD0221F8
:1043E0004CF60110FFF788FD50214CF60210FFF744
:1043F00083FD50214CF60310FFF77EFD50214CF653
:104400000410FFF779FD00214FF45450FFF774FDBD
:1044100055214FF46850FFF76FFD4FF48850FFF7B8
:104420002FFD7820FFF768FC01F038FE602001F0D6
:104430007FFD4FF6FF7001F041FE01F01FFE0123EA
:10444000FB8601F06FBD034B1B68B3F5024F41F0D3
:104450001A8001E02807002055214FF47040FFF733
:104460004BFDAA214FF20100FFF746FD52214FF20A
:104470000200FFF741FD08214FF20300FFF73CFD6A
:1044800001214FF20400FFF737FD00214FF45140A6
:10449000FFF732FD00214DF20110FFF72DFD222123
:1044A0004DF20210FFF728FD55214DF20310FFF7E2
:1044B00023FD78214DF20410FFF71EFD40214DF23F
:1044C0000510FFF719FD93214DF20610FFF714FDBB
:1044D000BF214DF20710FFF70FFDE0214DF208104C
:1044E000FFF70AFD10214DF20910FFF705FD5521D8
:1044F0004DF20A10FFF700FD33214DF20B10FFF7CC
:10450000FBFC4F214DF20C10FFF7F6FC66214DF23B
:104510000D10FFF7F1FC7A214DF20E10FFF7ECFCC5
:1045200055214DF20F10FFF7E7FC8C214DF21010D2
:10453000FFF7E2FC9C214DF21110FFF7DDFCA921F1
:104540004DF21210FFF7D8FCB6214DF21310FFF711
:10455000D3FC55214DF21410FFF7CEFCC2214DF2D1
:104560001510FFF7C9FCCE214DF21610FFF7C4FC61
:10457000D8214DF21710FFF7BFFCE2214DF21810C1
:10458000FFF7BAFC55214DF21910FFF7B5FCEC21ED
:104590004DF21A10FFF7B0FCED214DF21B10FFF7A2
:1045A000ABFCF6214DF21C10FFF7A6FCFF214DF2EB
:1045B0001D10FFF7A1FCAA214DF21E10FFF79CFC75
:1045C00007214DF21F10FFF797FC0F214DF220102D
:1045D000FFF792FC17214DF22110FFF78DFC2021EF
:1045E0004DF22210FFF788FCAA214DF22310FFF7AD
:1045F00083FC28214DF22410FFF77EFC30214DF280
:104600002510FFF779FC3A214DF22610FFF774FCD4
:1046100044214DF22710FFF76FFCAA214DF228101C
:10462000FFF76AFC52214DF22910FFF765FC662165
:104630004DF22A10FFF760FC86214DF22B10FFF798
:104640005BFCC5214DF22C10FFF756FCFF214DF20B
:104650002D10FFF751FC00214DF22E10FFF74CFCFE
:1046600051214DF22F10FFF747FC8D214DF23010F4
:10467000FFF742FCC4214DF23110FFF73DFC0F2142
:104680004DF23210FFF738FCE0214DF23310FFF706
:1046900033FCFF214DF23410FFF72EFC00214FF4C4
:1046A0005240FFF729FC00214DF20120FFF724FCC6
:1046B00022214DF20220FFF71FFC55214DF203206D
:1046C000FFF71AFC78214DF20420FFF715FC40217A
:1046D0004DF20520FFF710FC93214DF20620FFF765
:1046E0000BFCBF214DF20720FFF706FCE0214DF245
:1046F0000820FFF701FC10214DF20920FFF7FCFB19
:1047000055214DF20A20FFF7F7FB33214DF20B2024
:10471000FFF7F2FB4F214DF20C20FFF7EDFB662176
:104720004DF20D20FFF7E8FB7A214DF20E20FFF746
:10473000E3FB55214DF20F20FFF7DEFB8C214DF2FC
:104740001020FFF7D9FB9C214DF21120FFF7D4FB7D
:10475000A9214DF21220FFF7CFFBB6214DF2132015
:10476000FFF7CAFB55214DF21420FFF7C5FBC2210C
:104770004DF21520FFF7C0FBCE214DF21620FFF7BA
:10478000BBFBD8214DF21720FFF7B6FBE2214DF21B
:104790001820FFF7B1FB55214DF21920FFF7ACFBB4
:1047A000EC214DF21A20FFF7A7FBED214DF21B2063
:1047B000FFF7A2FBF6214DF21C20FFF79DFBFF2126
:1047C0004DF21D20FFF798FBAA214DF21E20FFF7A6
:1047D00093FB07214DF21F20FFF78EFB0F214DF2B7
:1047E0002020FFF789FB17214DF22120FFF784FBE2
:1047F00020214DF22220FFF77FFBAA214DF223203A
:10480000FFF77AFB28214DF22420FFF775FB3021BA
:104810004DF22520FFF770FB3A214DF22620FFF7DD
:104820006BFB44214DF22720FFF766FBAA214DF2D6
:104830002820FFF761FB52214DF22920FFF75CFB96
:1048400066214DF22A20FFF757FB86214DF22B20DF
:10485000FFF752FBC5214DF22C20FFF74DFBFF2146
:104860004DF22D20FFF748FB00214DF22E20FFF7DF
:1048700043FB51214DF22F20FFF73EFB8D214DF2DE
:104880003020FFF739FBC4214DF23120FFF734FB14
:104890000F214DF23220FFF72FFBE0214DF23320A4
:1048A000FFF72AFBFF214DF23420FFF725FB002103
:1048B0004FF45340FFF720FB00214DF20130FFF78A
:1048C0001BFB22214DF20230FFF716FB55214DF262
:1048D0000330FFF711FB78214DF20430FFF70CFB9A
:1048E00040214DF20530FFF707FB93214DF20630D2
:1048F000FFF702FBBF214DF20730FFF7FDFAE02181
:104900004DF20830FFF7F8FA10214DF20930FFF7A9
:10491000F3FA55214DF20A30FFF7EEFA33214DF24A
:104920000B30FFF7E9FA4F214DF20C30FFF7E4FAB4
:1049300066214DF20D30FFF7DFFA7A214DF20E308D
:10494000FFF7DAFA55214DF20F30FFF7D5FA8C2137
:104950004DF21030FFF7D0FA9C214DF21130FFF7E5
:10496000CBFAA9214DF21230FFF7C6FAB6214DF26B
:104970001330FFF7C1FA55214DF21430FFF7BCFA9E
:10498000C2214DF21530FFF7B7FACE214DF21630A5
:10499000FFF7B2FAD8214DF21730FFF7ADFAE22156
:1049A0004DF21830FFF7A8FA55214DF21930FFF7F4
:1049B000A3FAEC214DF21A30FFF79EFAED214DF2E9
:1049C0001B30FFF799FAF6214DF21C30FFF794FAED
:1049D000FF214DF21D30FFF78FFAAA214DF21E3054
:1049E000FFF78AFA07214DF21F30FFF785FA0F21F2
:1049F0004DF22030FFF780FA17214DF22130FFF7FA
:104A00007BFA20214DF22230FFF776FAAA214DF2EF
:104A10002330FFF771FA28214DF22430FFF76CFAAA
:104A200030214DF22530FFF767FA3A214DF226305A
:104A3000FFF762FA44214DF22730FFF75DFAAA2111
:104A40004DF22830FFF758FA52214DF22930FFF786
:104A500053FA66214DF22A30FFF74EFA86214DF2C5
:104A60002B30FFF749FAC5214DF22C30FFF744FAFD
:104A7000FF214DF22D30FFF73FFA00214DF22E308D
:104A8000FFF73AFA51214DF22F30FFF735FA8D2119
:104A90004DF23030FFF730FAC4214DF23130FFF7DC
:104AA0002BFA0F214DF23230FFF726FAE0214DF2BA
:104AB0003330FFF721FAFF214DF23430FFF71CFAB3
:104AC00000214FF45440FFF717FA00214DF2014046
:104AD000FFF712FA22214DF20240FFF70DFA55219D
:104AE0004DF20340FFF708FA78214DF20440FFF73A
:104AF00003FA40214DF20540FFF7FEF993214DF2F4
:104B00000640FFF7F9F9BF214DF20740FFF7F4F92E
:104B1000E0214DF20840FFF7EFF910214DF2094076
:104B2000FFF7EAF955214DF20A40FFF7E5F9332185
:104B30004DF20B40FFF7E0F94F214DF20C40FFF72B
:104B4000DBF966214DF20D40FFF7D6F97A214DF2DF
:104B50000E40FFF7D1F955214DF20F40FFF7CCF988
:104B60008C214DF21040FFF7C7F99C214DF2114006
:104B7000FFF7C2F9A9214DF21240FFF7BDF9B621A6
:104B80004DF21340FFF7B8F955214DF21440FFF7ED
:104B9000B3F9C2214DF21540FFF7AEF9CE214DF227
:104BA0001640FFF7A9F9D8214DF21740FFF7A4F9F5
:104BB000E2214DF21840FFF79FF955214DF21940BF
:104BC000FFF79AF9EC214DF21A40FFF795F9ED2124
:104BD0004DF21B40FFF790F9F6214DF21C40FFF714
:104BE0008BF9FF214DF21D40FFF786F9AA214DF206
:104BF0001E40FFF781F907214DF21F40FFF77CF9B6
:104C00000F214DF22040FFF777F917214DF2214097
:104C1000FFF772F920214DF22240FFF76DF9AA212A
:104C20004DF22340FFF768F928214DF22440FFF7A9
:104C300063F930214DF22540FFF75EF93A214DF23C
:104C40002640FFF759F944214DF22740FFF754F968
:104C5000AA214DF22840FFF74FF952214DF2294089
:104C6000FFF74AF966214DF22A40FFF745F9862100
:104C70004DF22B40FFF740F9C5214DF22C40FFF7D4
:104C80003BF9FF214DF22D40FFF736F900214DF29F
:104C90002E40FFF731F951214DF22F40FFF72CF94B
:104CA0008D214DF23040FFF727F9C4214DF23140FC
:104CB000FFF722F90F214DF23240FFF71DF9E021F5
:104CC0004DF23340FFF718F9FF214DF23440FFF762
:104CD00013F900214FF45540FFF70EF900214DF272
:104CE0000150FFF709F922214DF20250FFF704F9B4
:104CF00055214DF20350FFF7FFF878214DF2045093
:104D0000FFF7FAF840214DF20550FFF7F5F893212F
:104D10004DF20650FFF7F0F8BF214DF20750FFF7B4
:104D2000EBF8E0214DF20850FFF7E6F810214DF2C4
:104D30000950FFF7E1F855214DF20A50FFF7DCF872
:104D400033214DF20B50FFF7D7F84F214DF20C50A5
:104D5000FFF7D2F866214DF20D50FFF7CDF87A211A
:104D60004DF20E50FFF7C8F855214DF20F50FFF7E6
:104D7000C3F88C214DF21050FFF7BEF89C214DF284
:104D80001150FFF7B9F8A9214DF21250FFF7B4F80E
:104D9000B6214DF21350FFF7AFF855214DF21450E4
:104DA000FFF7AAF8C2214DF21550FFF7A5F8CE2162
:104DB0004DF21650FFF7A0F8D8214DF21750FFF72B
:104DC0009BF8E2214DF21850FFF796F855214DF26D
:104DD0001950FFF791F8EC214DF21A50FFF78CF8BB
:104DE000ED214DF21B50FFF787F8F6214DF21C50D4
:104DF000FFF782F8FF214DF21D50FFF77DF8AA2141
:104E00004DF21E50FFF778F807214DF21F50FFF7C3
:104E100073F80F214DF22050FFF76EF817214DF275
:104E20002150FFF769F820214DF22250FFF764F876
:104E3000AA214DF22350FFF75FF828214DF22450AC
:104E4000FFF75AF830214DF22550FFF755F83A2177
:104E50004DF22650FFF750F844214DF22750FFF74E
:104E60004BF8AA214DF22850FFF746F852214DF297
:104E70002950FFF741F866214DF22A50FFF73CF820
:104E800086214DF22B50FFF737F8C5214DF22C50FB
:104E9000FFF732F8FF214DF22D50FFF72DF80021DA
:104EA0004DF22E50FFF728F851214DF22F50FFF709
:104EB00023F88D214DF23050FFF71EF8C4214DF23A
:104EC0003150FFF719F80F214DF23250FFF714F867
:104ED000E0214DF23350FFF70FF8FF214DF234502F
:104EE000FFF70AF800214FF45640FFF705F80021BC
:104EF0004DF20160FFF700F822214DF20260FEF74B
:104F0000FBFF55214DF20360FEF7F6FF78214DF2CD
:104F10000460FEF7F1FF40214DF20560FEF7ECFF63
:104F200093214DF20660FEF7E7FFBF214DF20760C7
:104F3000FEF7E2FFE0214DF20860FEF7DDFF1021F1
:104F40004DF20960FEF7D8FF55214DF20A60FEF7D9
:104F5000D3FF33214DF20B60FEF7CEFF4F214DF210
:104F60000C60FEF7C9FF66214DF20D60FEF7C4FF2D
:104F70007A214DF20E60FEF7BFFF55214DF20F6012
:104F8000FEF7BAFF8C214DF21060FEF7B5FF9C21B1
:104F90004DF21160FEF7B0FFA9214DF21260FEF74D
:104FA000ABFFB6214DF21360FEF7A6FF55214DF27F
:104FB0001460FEF7A1FFC2214DF21560FEF79CFFC1
:104FC000CE214DF21660FEF797FFD8214DF2176003
:104FD000FEF792FFE2214DF21860FEF78DFF55219A
:104FE0004DF21960FEF788FFEC214DF21A60FEF7D2
:104FF00083FFED214DF21B60FEF77EFFF6214DF29F
:105000001C60FEF779FFFF214DF21D60FEF774FF73
:10501000AA214DF21E60FEF76FFF07214DF21F60BF
:10502000FEF76AFF0F214DF22060FEF765FF1721A2
:105030004DF22160FEF760FF20214DF22260FEF765
:105040005BFFAA214DF22360FEF756FF28214DF2A7
:105050002460FEF751FF30214DF22560FEF74CFF32
:105060003A214DF22660FEF747FF44214DF22760BA
:10507000FEF742FFAA214DF22860FEF73DFF5221C4
:105080004DF22960FEF738FF66214DF22A60FEF7E7
:1050900033FF86214DF22B60FEF72EFFC5214DF226
:1050A0002C60FEF729FFFF214DF22D60FEF724FF53
:1050B00000214DF22E60FEF71FFF51214DF22F60AF
:1050C000FEF71AFF8D214DF23060FEF715FFC42167
:1050D0004DF23160FEF710FF0F214DF23260FEF706
:1050E0000BFFE0214DF23360FEF706FFFF214DF28A
:1050F0003460FEF701FF00214FF43040FEF7FCFE64
:1051000000214BF20100FEF7F7FE00214BF20200F6
:10511000FEF7F2FE05214FF43140FEF7EDFE0521CA
:105120004BF20110FEF7E8FE05214BF20210FEF7EC
:10513000E3FE44214FF43640FEF7DEFE44214BF2FD
:105140000160FEF7D9FE44214BF20260FEF7D4FE67
:1051500034214FF43740FEF7CFFE34214BF201707B
:10516000FEF7CAFE34214BF20270FEF7C5FE342171
:105170004FF43940FEF7C0FE34214BF60110FEF724
:10518000BBFE34214BF60210FEF7B6FE14214FF49D
:105190003A40FEF7B1FE14214BF60120FEF7ACFEBB
:1051A00014214BF60220FEF7A7FE00214FF43C40ED
:1051B000FEF7A2FEB8214BF60140FEF79DFE00214E
:1051C0004FF43D40FEF798FEB8214BF60150FEF734
:1051D00093FE00214FF43E40FEF78EFE58214BF621
:1051E0000160FEF789FE55214FF47040FEF784FE02
:1051F000AA214FF20100FEF77FFE52214FF202007A
:10520000FEF77AFE08214FF20300FEF775FE00213B
:105210004FF20400FEF770FE10214FF43440FEF709
:105220006BFE02214FF43640FEF766FE00214FF47C
:105230003040FEF761FEF8214FF43140FEF75CFE8E
:1052400000214BF20110FEF757FE0A20FEF754FD35
:1052500022214FF43740FEF74FFE22214BF201701E
:10526000FEF74AFE01214FF44840FEF745FE0021BB
:105270004CF60100FEF740FE54214CF60200FEF70A
:105280003BFE38214CF60300FEF736FE54214CF667
:105290000400FEF731FE38214CF60500FEF72CFE27
:1052A00054214CF60600FEF727FE38214CF6070085
:1052B000FEF722FE54214CF60800FEF71DFE3821B1
:1052C0004CF60900FEF718FE8C214CF60A00FEF79A
:1052D00013FE2A214CF60B00FEF70EFE2A214CF697
:1052E0000C00FEF709FE8C214CF60D00FEF704FEC3
:1052F0008C214CF60E00FEF7FFFD2A214CF60F0024
:10530000FEF7FAFD2A214CF61000FEF7F5FD01210B
:105310004FF43840FEF7F0FD03214BF60100FEF795
:10532000EBFD03214BF60200FEF7E6FD03214BF6F1
:105330000300FEF7E1FD05214FF43C40FEF7DCFDE4
:1053400005214BF60140FEF7D7FD05214BF6024043
:10535000FEF7D2FD01214FF45040FEF7CDFD0121B3
:105360004FF43A40FEF7C8FD01214FF43D40FEF7EF
:10537000C3FD10214BF60150FEF7BEFD07214BF691
:105380000250FEF7B9FD07214BF60350FEF7B4FDBE
:1053900001214FF43E40FEF7AFFD10214BF60160B6
:1053A000FEF7AAFD07214BF60260FEF7A5FD0721D7
:1053B0004BF60360FEF7A0FD01214FF43F40FEF7DE
:1053C0009BFD10214BF60170FEF796FD07214BF671
:1053D0000270FEF791FD07214BF60370FEF78CFD7E
:1053E00055214FF47040FEF787FDAA214FF20100CE
:1053F000FEF782FD52214FF20200FEF77DFD0821EB
:105400004FF20300FEF778FD02214FF20400FEF791
:1054100073FD00214FF44340FEF76EFDA9214CF2CD
:105420000130FEF769FD00214FF47E40FEF764FD78
:1054300094214FF60160FEF75FFD00214FF45450B8
:10544000FEF75AFD08214FF45850FEF755FD55213F
:105450004FF46850FEF750FD00214FF48850FEF7DE
:105460004BFD7820FEF748FC00F018FE602000F0AD
:105470005FFD4FF6FF7000F021FE00F0FFFD0123FD
:10548000FB8600F04FBD034B1B68B3F5804F40F027
:10549000498501E02807002080214FF47F40FEF776
:1054A0002BFD09214FF60170FEF726FD01214FF675
:1054B0000270FEF721FD80214FF68070FEF71CFD83
:1054C00009214FF68170FEF717FD01214FF6037099
:1054D000FEF712FD10214CF2B400FEF70DFD08217D
:1054E0004CF28940FEF708FD00214CF2A300FEF7C4
:1054F00003FDA3214CF28250FEF7FEFCD6214CF2B4
:105500009050FEF7F9FC87214CF29150FEF7F4FC25
:1055100074214FF45840FEF7EFFC72214DF6010064
:10552000FEF7EAFC60214FF45940FEF7E5FC092143
:105530004FF46140FEF7E0FC0C214EF20110FEF743
:10554000DBFC12214EF20210FEF7D6FC0E214EF2C9
:105550000310FEF7D1FC08214EF20410FEF7CCFC3C
:1055600019214EF20510FEF7C7FC0C214EF2061071
:10557000FEF7C2FC0B214EF20710FEF7BDFC012125
:105580004EF20810FEF7B8FC05214EF20910FEF7A6
:10559000B3FC03214EF20A10FEF7AEFC07214EF2D7
:1055A0000B10FEF7A9FC0E214EF20C10FEF7A4FC26
:1055B00026214EF20D10FEF79FFC23214EF20E1015
:1055C000FEF79AFC1B214EF20F10FEF795FC092105
:1055D0004FF46240FEF790FC0C214EF20120FEF7E2
:1055E0008BFC12214EF20220FEF786FC0E214EF2B9
:1055F0000320FEF781FC08214EF20420FEF77CFC1C
:1056000019214EF20520FEF777FC0C214EF2062000
:10561000FEF772FC0B214EF20720FEF76DFC012114
:105620004EF20820FEF768FC05214EF20920FEF735
:1056300063FC03214EF20A20FEF75EFC07214EF2C6
:105640000B20FEF759FC0E214EF20C20FEF754FC05
:1056500026214EF20D20FEF74FFC23214EF20E20A4
:10566000FEF74AFC1B214EF20F20FEF745FC662197
:105670004CF28110FEF740FC08214CF2A110FEF71D
:105680003BFC83214CF28140FEF736FC01214CF2B9
:105690009250FEF731FCA9214CF2B150FEF72CFCE0
:1056A00085214CF68060FEF727FC03214CF68160D3
:1056B000FEF722FC00214CF68260FEF71DFC8421DF
:1056C0004CF68360FEF718FC03214CF68460FEF76D
:1056D00013FC00214CF68560FEF70EFC83214CF68E
:1056E0008660FEF709FC03214CF68760FEF704FC98
:1056F00000214CF68860FEF7FFFB82214CF68960A2
:10570000FEF7FAFB03214CF68A60FEF7F5FB002159
:105710004CF68B60FEF7F0FB38214CF6A060FEF7EC
:10572000EBFB02214CF6A160FEF7E6FB03214CF6F1
:10573000A260FEF7E1FB21214CF6A360FEF7DCFB43
:1057400000214CF6A460FEF7D7FB00214CF6A560C3
:10575000FEF7D2FB00214CF6A660FEF7CDFB382108
:105760004CF6A760FEF7C8FB01214CF6A860FEF7D7
:10577000C3FB03214CF6A960FEF7BEFB22214CF6C9
:10578000AA60FEF7B9FB00214CF6AB60FEF7B4FB54
:1057900000214CF6AC60FEF7AFFB00214CF6AD608B
:1057A000FEF7AAFB38214CF6B060FEF7A5FB0021FE
:1057B0004CF6B160FEF7A0FB03214CF6B260FEF799
:1057C0009BFB23214CF6B360FEF796FB00214CF6C1
:1057D000B460FEF791FB00214CF6B560FEF78CFB40
:1057E00000214CF6B660FEF787FB30214CF6B7601F
:1057F000FEF782FB00214CF6B860FEF77DFB03212B
:105800004CF6B960FEF778FB24214CF6BA60FEF73F
:1058100073FB00214CF6BB60FEF76EFB00214CF6DB
:10582000BC60FEF769FB00214CF6BD60FEF764FB2F
:1058300030214CF6C060FEF75FFB01214CF6C160E1
:10584000FEF75AFB03214CF6C260FEF755FB2521FB
:105850004CF6C360FEF750FB00214CF6C460FEF727
:105860004BFB00214CF6C560FEF746FB00214CF6D1
:10587000C660FEF741FB30214CF6C760FEF73CFBEB
:1058800002214CF6C860FEF737FB03214CF6C960D5
:10589000FEF732FB26214CF6CA60FEF72DFB0021F5
:1058A0004CF6CB60FEF728FB00214CF6CC60FEF7EF
:1058B00023FB00214CF6CD60FEF71EFB30214CF699
:1058C000D060FEF719FB03214CF6D160FEF714FB04
:1058D00003214CF6D260FEF70FFB27214CF6D36074
:1058E000FEF70AFB00214CF6D460FEF705FB002111
:1058F0004CF6D560FEF700FB00214CF6D660FEF7B3
:10590000FBFA30214CF6D760FEF7F6FA04214CF68C
:10591000D860FEF7F1FA03214CF6D960FEF7ECFAF5
:1059200028214CF6DA60FEF7E7FA00214CF6DB603E
:10593000FEF7E2FA00214CF6DC60FEF7DDFA00210A
:105940004CF6DD60FEF7D8FA00214CF6C070FEF789
:10595000D3FA00214CF6C170FEF7CEFA00214CF6C6
:10596000C270FEF7C9FA00214CF6C370FEF7C4FA04
:1059700000214CF6C470FEF7BFFA00214CF6C5704A
:10598000FEF7BAFA00214CF6C670FEF7B5FA002110
:105990004CF6C770FEF7B0FA00214CF6C870FEF75F
:1059A000ABFA00214CF6C970FEF7A6FA00214CF6BE
:1059B000D070FEF7A1FA00214CF6C030FEF79CFA39
:1059C00000214CF6C130FEF797FA00214CF6C230A8
:1059D000FEF792FA00214CF6C330FEF78DFA04214F
:1059E0004CF6C430FEF788FA04214CF6C530FEF7B9
:1059F00083FA04214CF6C630FEF77EFA04214CF6F9
:105A0000C730FEF779FA04214CF6C830FEF774FA75
:105A100004214CF6C930FEF76FFA00214CF6CA306B
:105A2000FEF76AFA00214CF6CB30FEF765FA00214A
:105A30004CF6CC30FEF760FA00214CF6CD30FEF784
:105A40005BFA00214CF6CE30FEF756FA00214CF6F8
:105A5000D030FEF751FA00214CF6D130FEF74CFA67
:105A600000214CF6D230FEF747FA00214CF6D33035
:105A7000FEF742FA00214CF6D430FEF73DFA002141
:105A80004CF6D530FEF738FA00214CF6D630FEF74A
:105A900033FA00214CF6D730FEF72EFA00214CF6EF
:105AA000D830FEF729FA04214CF6D930FEF724FA53
:105AB00004214CF6DA30FEF71FFA04214CF6DB30F5
:105AC000FEF71AFA04214CF6DC30FEF715FA042131
:105AD0004CF6DD30FEF710FA04214CF6DE30FEF70E
